:020000040800F2
:1000000090040020A9010008130D0008770C0008D7
:10001000110D0008B50200082911000800000000B9
:10002000000000000000000000000000370D000884
:10003000B702000800000000350D0008390D000867
:10004000C3010008C3010008C3010008C301000880
:10005000C3010008C3010008C3010008C301000870
:10006000C3010008C3010008C3010008C301000860
:10007000C3010008C3010008C3010008C301000850
:10008000C3010008C3010008C3010008000000000C
:10009000000000000000000000000000C301000894
:1000A000C3010008C3010008C3010008C301000820
:1000B000C3010008C3010008C3010008C301000810
:1000C000C3010008C3010008C3010008C301000800
:1000D000C3010008C3010008C301000800000000BC
:1000E000C3010008C3010008C301000800000000AC
:1000F000000000000000000000000000C301000834
:1001000000000000C3010008C3010008C30100088B
:1001100000000000000000000000000000000000DF
:10012000C3010008C3010008C3010008C30100089F
:10013000C3010008000000000000000000000000F3
:10014000000000000000000000000000C3010008E3
:10015000C3010008C3010008C3010008C30100086F
:10016000C3010008C30100080000000000000000F7
:10017000000000000000000000000000000000007F
:1001800000000000C30100080000000000000000A3
:10019000C3010008DFF80CD000F07AF800480047EF
:1001A000491100089004002006488047064800478F
:1001B000FEE7FEE7FEE7FEE7FEE7FEE7FEE7FEE717
:1001C000FEE7FEE7C50D0008950100082DE9F05F88
:1001D0000546002092469B468846064681464024B6
:1001E0001BE0284641464746224600F041F8534668
:1001F0005A46C01A914110D311461846224600F0C3
:1002000028F82D1A67EB01084F46224601200021ED
:1002100000F01FF817EB00094E41201EA4F1010465
:10022000DFDC484631462A464346BDE8F09FD2B25D
:1002300001E000F8012B491EFBD270470022F6E7CF
:1002400010B513460A4604461946FFF7F0FF20464C
:1002500010BD202A04DB203A00FA02F1002070478A
:100260009140C2F1200320FA03F3194390407047F4
:10027000202A04DB203A21FA02F00021704721FAFB
:1002800002F3D040C2F12002914008431946704762
:10029000064C074D06E0E06840F0010394E80700D3
:1002A00098471034AC42F6D3FFF778FFE811000806
:1002B00008120008FEE7704770B5044600F0D8F851
:1002C0000546601C02D004480078044400F0D0F8D1
:1002D000401BA042FAD370BD000000202DE9F84F6A
:1002E000DFF860B100224FF001084FF0030A4FF031
:1002F0000F090BF1040E00BF0B6808FA02F423404B
:10030000A3426ED14D68022D01D0122D0ED1D50819
:1003100000EB850CDCF820505607F70E09FA07F6BB
:10032000B5430E69BE402E43CCF8206006685500E8
:100330000F790AFA05FC07F0030726EA0C06AF401E
:10034000374307604E68012E05D0022E03D0112ED0
:1003500001D0122E0ED18668CF6826EA0C06AF4077
:10036000374387604668A6430C79C4F30014944071
:1003700034434460C6688C6826EA0C06AC403443BB
:10038000C4604C68E40056D52F4C256845F4804580
:100390002560246822F0030504F4804400942B4C6B
:1003A0002E19D6F8084895072F0F09FA07F5AC4320
:1003B000274DA84201D1002515E0264DA84201D1C4
:1003C000012510E0244DA84201D102250BE0234D68
:1003D000A84201D1032506E0214DA84202D10425FF
:1003E00001E028E00725BD402543C6F80858DBF8A2
:1003F00000405D464E689C43F60300D51C432C60CC
:10040000DEF8004075464E689C43B60300D51C4399
:100410002C600C4D08352C684E689C43F60200D5C4
:100420001C432C60074D0C352C684E689C43B6026B
:1004300000D51C432C60521C102AFFF45DAFBDE8B0
:10044000F88F0000003C0140443802400030014079
:10045000000002400004024000080240000C02407C
:10046000001002400AB1816170470904FBE70000F7
:100470000148806870470000000000200248816841
:100480000278114481607047000000200B4810B5CD
:10049000016841F400710160016841F4806101600C
:1004A000016841F480710160032000F063F80020CE
:1004B00000F006F800F024F8002010BD003C0240D7
:1004C00070B50D4D04464FF47A712878B1FBF0F009
:1004D0000A490968B1FBF0F000F0D4FA48B9102CD1
:1004E00007D200222146501E00F024F800206C6044
:1004F00070BD012070BD0000000000200C00002035
:100500000B4882B0016841F480410160006800F44A
:10051000804000900648001F016841F08051016052
:10052000006800F080500090072002B000F022B870
:1005300044380240F0B40E4B1B680C46C3F3022350
:10054000C3F10705042D00D90425191D072901D27F
:10055000002300E0DB1E012606FA05F1491E2140BA
:1005600099409E40761E16403143F0BC00F0D2BB4D
:100570000CED00E0064900F0070208684FF6FF03A3
:10058000184040EA0220034A104308607047000008
:100590000CED00E00000FA052DE9F0470E460500DD
:1005A00065D0DFF81481D8F80000F7B200F00F0032
:1005B000B04207D288F80070D8F8000000F00F00B1
:1005C000B04254D128683D4C810712D5400703D56D
:1005D000206840F4E05020602878000703D52068A8
:1005E00040F4604020602068A96820F0F0000843D3
:1005F00020602878C0072DD0304968680839012864
:1006000012D0022813D0032811D0096889070029C5
:100610002DDA216821F0030101432160FFF728FF53
:10062000814641F2883A0EE009688903EFE70968DC
:100630008901ECE7FFF71CFFA0EB0901514502D946
:100640000320BDE8F0872068696800F00C00B0EB7B
:10065000810FEFD1D8F80010404601F00F01B142F0
:1006600007D90770006800F00F00B04201D00120E8
:10067000E7E72878400705D52068E96820F4E050CE
:10068000084320602878000706D52068296920F4EF
:10069000604040EAC100206000F036F82168084A56
:1006A000C1F30311515CC840064908600020FFF700
:1006B00007FF0020C5E70000003C02400838024068
:1006C000CD1100080C0000200448054900680968A5
:1006D000044AC1F38221515CC84070470C000020DD
:1006E00008380240DD11000804480549006809681F
:1006F000044AC1F34231515CC84070470C000020ED
:1007000008380240DD110008154810B5006810F0E7
:100710000C02144813D04110042A0FD0082A0ED11D
:100720000F4C241F2268236802F03F025B0207D5AA
:100730002068C0F38810A0FB010106E0084610BD48
:100740002168C1F38811A1FB00010023FFF73EFDE2
:100750002168C1F30141491C4900B0FBF1F010BD13
:10076000083802400024F4002DE9F84F050076D047
:100770002878DFF8F8B2BE4CC00749D0DBF800108B
:100780005846C1F38101012908D00068C0F38100F7
:1007900002280AD1201D0068400206D52068800387
:1007A00036D568680028E2D032E06868B0F5803F4E
:1007B00010D0B0F5A02F206810D020F48030206039
:1007C000206820F4802020606868A0B1FFF750FE08
:1007D00006460CE0206840F48030F4E740F48020C6
:1007E0002060F7E7FFF744FE801B642873D8206879
:1007F0008003F7D50CE0FFF73BFE064605E000BF9F
:10080000FFF736FE801B6428F0D820688003F7D4F9
:100810002878DFF8608280074FF000093ED5DBF8CA
:100820000010584611F00C0F09D00068C0F3810089
:1008300002280BD18D48001F0068400206D42068B2
:10084000800715D5E868012809D111E0E868B8B13A
:100850000120C8F80000FFF70BFE064605E002E1A4
:10086000FFF706FE801B0228C0D820688007F7D556
:100870002068296920F0F80040EAC10020600DE0FE
:10088000C8F80090FFF7F4FD064604E0FFF7F0FD1E
:10089000801B02281FD820688007F7D4287800071B
:1008A00022D5724E744869696C3671B101210160BC
:1008B000FFF7DEFD074604E0FFF7DAFDC01B022864
:1008C00009D830688007F7D50EE0C0F80090FFF730
:1008D000CFFD074605E083E0FFF7CAFDC01B0228F5
:1008E0007ED830688007F7D42878400768D5DFF8CD
:1008F0007CA100270AF1380ADAF80000C0000BD406
:10090000DAF8001041F08051CAF80010DAF800005F
:10091000012700F080500090584E3068C00510D478
:10092000306840F480703060FFF7A2FD009005E071
:10093000FFF79EFD0099401A022851D83068C00583
:10094000F6D54A4EA868683601280FD005283068C9
:1009500010D020F001003060306820F004003060DA
:10096000A868B8B1FFF784FD00900FE0306840F050
:100970000100F4E740F004003060F7E7FFF778FD8E
:100980000099411A41F28830814264D8306880076A
:10099000F4D50EE0FFF76CFD009007E0FFF768FD6F
:1009A0000099411A41F28830814254D8306880075A
:1009B000F4D42FB1DAF8001021F08051CAF80010F9
:1009C000A869C0B3DBF80010C1F3810102294AD045
:1009D0000228484607D0C8F86000FFF749FD00E04C
:1009E00039E005463AE04746C8F86000FFF740FDA9
:1009F000064604E0FFF73CFD801B02282BD8206848
:100A00008001F7D4D5E907010843A96A1C4A4908BF
:100A100002EB01416A6A41EA8211084395F82C1001
:100A200040EA01611148001F016001203866FFF7AC
:100A30001FFD054605E014E0FFF71AFD401B0228E4
:100A400009D820688001F7D50BE000BFFFF710FD43
:100A5000401B022802D90320BDE8F88F20688001DE
:100A6000F4D40020F8E70120F6E70000083802403F
:100A70000038024000004742800E474200700040AC
:100A80000000FFFF10B5401EB0F1807F01D30120B0
:100A900010BD4FF0E02460610F21601700F03AF9BB
:100AA0000020A06107202061002010BD70B5040067
:100AB00004D094F83900002510B106E0012070BD83
:100AC00084F83850204600F023F8242084F83900B8
:100AD0002068C16821F40051C160204600F09CF9F3
:100AE0002068016921F4904101612068416921F089
:100AF0002A0141612068C16841F40051C160E56389
:100B0000202084F8390084F83A00002070BD0000ED
:100B100070B586B0044614216846FFF78FFB234E5C
:100B2000236800222249022407252248B3421CD10F
:100B30001F4A1432136843F010031360126802F066
:100B4000100205920A6842F001020A60096801F089
:100B5000010105914FF4C061CDE90014012102911A
:100B60000321CDE9031569461BE0134EB3421AD1A8
:100B70000F4B10331E6846F400361E601B6803F4EA
:100B8000003305930B6843F001030B60096801F023
:100B9000010105910C210091CDE90142CDE9032528
:100BA0006946FFF79BFB06B070BD000000100140D6
:100BB0003038024000000240004400402DE9F84374
:100BC000044690F839001F4616460D46202850D19D
:100BD000A5B19EB194F8380001284AD0012084F8CC
:100BE00038004FF00008C4F83C80212084F8390018
:100BF000FFF73EFCA6848146E68426E00120BDE89E
:100C0000F883E08C401EE084A0684B46B0F5805F1E
:100C10004FF000024FF080012046009703D000F013
:100C200051FAE8B90DE000F04DFAC8B928882168FA
:100C3000C0F308004860206908B16D1C05E0AD1CD8
:100C400003E0216815F8010B4860E08C0028D8D13A
:100C50004B46002240212046009700F033FA08B1AD
:100C60000320CCE7202084F8390084F83880002065
:100C7000C5E70220C3E7FEE730B587B01421684618
:100C8000FFF7DCFA1E480024016841F0040101600E
:100C9000016801F004010591016841F080010160E3
:100CA000016801F080010591016841F001010160D6
:100CB000016801F001010591016841F00201016044
:100CC0000068104D00F00200059000222021284607
:100CD000FFF7C8FB4FF4005000900B48CDE901042A
:100CE00069460A48FFF7FAFA202000900120CDE972
:100CF0000104694628460394FFF7F0FA07B030BDB7
:100D0000303802400000024000002110000802407C
:100D1000FEE770470907090E002806DA00F00F0009
:100D200000F1E02080F8141D704700F1E02080F809
:100D30000014704770477047FFF7A0BB30B593B001
:100D400030216846FFF77AFA14210CA8FFF776FAEB
:100D50001A480024016841F080510160006800F0E9
:100D6000805011901648016821F4404141F400413F
:100D700001600068022500F44040119001200390BA
:100D80001020009506950490CDE907404FF4A87017
:100D9000099004200A9007200B906846FFF7E4FCB6
:100DA0000F20CDE90C05E802CDE90E4002210CA888
:100DB0001094FFF7F1FB13B030BD00004038024043
:100DC000007000401048016841F4700101600F4854
:100DD000016841F0010101600C4A002108321160F4
:100DE00002680B4B1A400260031D0A4A1A6002682F
:100DF00022F48022026005480C3001600249580646
:100E0000803908607047000088ED00E0003802403B
:100E1000FFFFF6FE103000242DE9F0410446006883
:100E2000016921F44052E168114301612168C868F9
:100E300049F20C6290432369A268E5691A43636929
:100E40002B431A430243CA602168486920F4407268
:100E5000A06910434861E1696425B1F5004F9748E6
:100E6000974A21684FF032083FD0914201D0814229
:100E70007CD1FFF739FC00EBC00101EB0010616889
:100E80008900B0FBF1F6FFF72FFC00EBC00101EB8E
:100E9000001061688900B0FBF1F0B0FBF5F06FF075
:100EA0001801484306EB800108EB0110B0FBF5F098
:100EB00000F0F006FFF718FC00EBC00101EB00109A
:100EC00061688900B0FBF1F0B0FBF5F006EB0016AD
:100ED000FFF70AFC00EBC00101EB0010616889001C
:100EE000B0FBF1F7FFF700FCD2E0914201D0814264
:100EF0003DD1FFF7F9FB00EBC00101EB0010616889
:100F00004900B0FBF1F0B0FBF5F00601FFF7ECFB98
:100F100000EBC00101EB001061684900B0FBF1F784
:100F2000FFF7E2FB00EBC00101EB00106168490034
:100F3000B0FBF1F0B0FBF5F06FF01801484307EBA0
:100F4000800108EBC100B0FBF5F000F0F80006EB03
:100F50004006FFF7C9FB00EBC00101EB0010616820
:100F60004900B0FBF1F7FFF7BFFB3CE055E0FFF7AE
:100F7000ABFB00EBC00101EB001061684900B0FB66
:100F8000F1F0B0FBF5F00601FFF79EFB00EBC001AE
:100F900001EB001061684900B0FBF1F7FFF794FB2B
:100FA00000EBC00101EB001061684900B0FBF1F0FB
:100FB000B0FBF5F06FF01801484307EB800108EB38
:100FC000C100B0FBF5F000F0F80006EB4006FFF7BB
:100FD0007BFB00EBC00101EB001061684900B0FB36
:100FE000F1F7FFF771FB00EBC00101EB0010616846
:100FF0004900B0FBF1F0B0FBF5F06FF01801484389
:1010000007EB800108EBC100B0FBF5F000F0070032
:10101000216830448860BDE8F081FFF755FB00EBA4
:10102000C00101EB001061688900B0FBF1F6FFF729
:101030004BFB00EBC00101EB001061688900B0FBC5
:10104000F1F0B0FBF5F06FF01801484306EB8001BA
:1010500008EB0110B0FBF5F000F0F006FFF734FBF1
:1010600000EBC00101EB001061688900B0FBF1F0FA
:10107000B0FBF5F006EB0016FFF726FB00EBC00116
:1010800001EB001061688900B0FBF1F7FFF71CFB72
:1010900000EBC00101EB001061688900B0FBF1F0CA
:1010A000B0FBF5F06FF01801484307EB800108EB47
:1010B0000110B0FBF5F000F00F00A9E700140140AB
:1010C000001001402DE9F041984617460E460446AF
:1010D000069D1DE0681C1BD02DB1FFF7C9F9A0EBE0
:1010E0000800A84214D92068C16821F4D071C160F9
:1010F0002068416921F001014161202084F8390014
:1011000084F83A00002084F838000320BDE8F0811C
:101110002068006836EA000004D00020B842D9D028
:101120000020F3E70120F9E7FEE702E008C8121FFC
:1011300008C1002AFAD170477047002001E001C1C0
:10114000121F002AFBD170471CB5FFF79FF9FFF76C
:10115000F5FDFFF791FD194817494FF4E1350024DB
:101160000160C0E901540C26C460C0E904468461F2
:10117000C461FFF79BFC1148114940380160C0E988
:101180000154C460C0E904468461C461FFF78EFC69
:101190000C494FF47A746510D1E90001CDE90001E2
:1011A00006482346052269464038FFF707FD2846D2
:1011B000FFF782F8F4E700000044004050000020F0
:1011C00000100140C811000848690000000000003C
:1011D00000000000000102030406070809000000E7
:1011E00000010203040000000812000800000020B3
:1011F000100000002A11000818120008100000203A
:10120000800400003A1100080100000010000000F6
:08121000000000000024F400BE
:040000050800019559
:00000001FF
