:020000040800F2
:10000000E80B0020A90100081F2C0008D7280008D1
:100010001D2C0008250F0008D53A0008000000003C
:10002000000000000000000000000000432C000859
:10003000F10F000800000000412C0008452C0008CA
:10004000C3010008C3010008C3010008C301000880
:10005000C3010008C3010008C3010008C301000870
:10006000C3010008C3010008C3010008C301000860
:10007000C3010008C3010008C3010008C301000850
:10008000290F0008350F0008C30100080000000018
:10009000000000000000000000000000C301000894
:1000A000C3010008252D0008C3010008C301000892
:1000B000C3010008C3010008C3010008C301000810
:1000C000C3010008C3010008C3010008C301000800
:1000D000C3010008C3010008893A000800000000BD
:1000E000C3010008C3010008C301000800000000AC
:1000F000000000000000000000000000C301000834
:1001000000000000C3010008C3010008C30100088B
:1001100000000000000000000000000000000000DF
:10012000C3010008C3010008C3010008C30100089F
:10013000C3010008000000000000000000000000F3
:10014000000000000000000000000000C3010008E3
:10015000410F0008C3010008C3010008C3010008E3
:10016000C3010008C30100080000000000000000F7
:10017000000000000000000000000000000000007F
:1001800000000000C30100080000000000000000A3
:10019000C3010008DFF80CD000F0AAFC00480047BB
:1001A000754B0008E80B00200648804706480047CA
:1001B000FEE7FEE7FEE7FEE7FEE7FEE7FEE7FEE717
:1001C000FEE7FEE7D12C0008950100082DE9F05F5D
:1001D0000546002092469B468846064681464024B6
:1001E0001BE0284641464746224600F0FEFA5346A9
:1001F0005A46C01A914110D311461846224600F0C3
:10020000E5FA2D1A67EB01084F462246012000212E
:1002100000F0DCFA17EB00094E41201EA4F10104A6
:10022000DFDC484631462A464346BDE8F09FD2B25D
:1002300001E000F8012B491EFBD270470022F6E7CF
:1002400010B513460A4604461946FFF7F0FF20464C
:1002500010BD421C10F8011B0029FBD1801A704709
:10026000034611F8012B00F8012B002AF9D118469A
:10027000704700000FB400B58DB010A909900B9025
:1002800000914FF0FF300A9000200C900548069036
:10029000054807906A4609A80F9900F0DDFA0DB0ED
:1002A0005DF814FB75080008930800082DE9FF5F4E
:1002B0001D464FF0FF3BD5E9014691465F464FF0A2
:1002C0000008A9697F1C01988847296A82468847E7
:1002D0000028F6D1BAF1FF3F0CD024F4C064002E00
:1002E00019DD600614D5BAF12B0F09D0BAF12D0F24
:1002F0000ED103E0584604B0BDE8F09F44F480649A
:10030000A9697F1C01988847761E8246002E02DD6F
:10031000BAF1300F03D0B9F1000F26D032E0A9694D
:10032000761E44F400747F1C019888478246002E94
:1003300005DDBAF1780F06D0BAF1580F03D0B9F144
:10034000000F10D01EE0B9F1000F02D0B9F1100F6C
:1003500018D1A969761E24F400747F1C019888477F
:100360008246102002E0082000E00A20814609E0D1
:1003700008FB0908A969761E44F400747F1C0198E3
:1003800088478246002E05DD4946504600F04FFA68
:100390000028EDDAE96901988847A00502D46FF0DA
:1003A0000100A8E7E00725D1600613D5600502D556
:1003B000C8F1000000E0404629680A1D2A6009686B
:1003C000220501D5087015E0220701D5088011E04B
:1003D00008600FE02868011D29600068210502D52A
:1003E00080F8008006E0210702D5A0F8008001E037
:1003F000C0F8008038467EE72DE9FF5FD2E901A70B
:100400004FF00008916999461446DDF838B0464629
:1004100001988847054659EA0B0005D009E0A16913
:10042000761C019888470546216A28468847002897
:10043000F5D1681C03D05FEACA7005D015E04FF013
:10044000FF3004B0BDE8F09F2068011D2160D0F8A6
:1004500000800AE05FEACA7001D108F8015BA16977
:10046000761C7F1E019888470546002F1ADD681C00
:1004700018D0B9F1000F0DD0E81705EBD06042118C
:1004800020F01F0059F822102A1A01209040014242
:10049000E0D107E0BBF1000FDCD1216A2846884794
:1004A0000028D7D0E16901988847BBF1000F07D138
:1004B000002E05DD5FEACA7002D1002188F8001025
:1004C000A068B84203DDBBF1000F03D017B16FF095
:1004D0000100B6E73046B4E72DE9FE4F804681EAD9
:1004E0000300C00F0C46009021F0004123F00045AE
:1004F000B8EB0200A94105D24046214690461C4671
:100500000B46024623F00040104347D0270DC7F3A7
:100510000A00C3F30A510290401A019040286BDA96
:10052000C3F3130040F4801B0098924620B10023CF
:10053000D2EB030A63EB0B0B01985946C0F1400262
:10054000504600F043F906460D4650465946019A7A
:1005500000F05BF910EB08006141002487EA1152BA
:1005600084EAE7731A4340D0009A62B3019A012AE1
:100570004FEA075215DC001B61EB02014FF000420D
:1005800002EA0752CDE90042001C41F580113246D3
:100590002B4600F09EF903B0BDE8F08F404621469F
:1005A000F9E7001B61EB0201001C41F58013001804
:1005B0005B412018A2F5001747EB030140EAD57014
:1005C000B6196D4111E06D084FEA360645EAC0756F
:1005D0004FEA0752001B61EB0201001C41F580113C
:1005E00049084FEA30000019514132462B4603B00A
:1005F000BDE8F04F00F05EB90098012240000023F2
:10060000D0EB020263EBE073009821464FEAE074FE
:10061000B8EB000061EB0401E9E783F000435BE71E
:1006200081F0004158E72DE9FE4F81EA030404F010
:10063000004421F0004100944FF0000B23F00043F0
:1006400050EA01045ED052EA03045BD0C3F30A54BB
:10065000C1F30A552C44A4F2F3340194A0FB0254D4
:10066000C1F3130141F48011C3F3130343F4801366
:1006700001FB024400FB034E840A970A44EA8154BA
:1006800047EA8357A4FB076802958D0A05FB078597
:100690004FEA932C04FB0C542705029D4FEA0658A1
:1006A00047EA1637B5EB08056EEB070C870E920E7E
:1006B00047EA811742EA8312A7FB0201B6EB0B015E
:1006C00064EB00042B0D43EA0C335E1844EB1C5022
:1006D000DA465146E7FB0201C5F313044FEA0B3338
:1006E00043EA14534FEA0432019C43EA0603A4F19F
:1006F0000C040294009CCDE900B400F0EAF803B0C9
:10070000BDE8F08F00200146F9E70EB5C10F80EA81
:10071000E0700844CA07002140F233438DE80E0020
:100720000A460B4600F0D5F803B000BD70B5C1F322
:100730000A5201F000450024C1F3130140F2FF33D7
:1007400041F480119A4201DA002070BD40F2334337
:100750009A42A2F2334203DC524200F046F800E033
:1007600090402C43F1D0404270BD000030B5041ED3
:1007700071F1000404DB4FF00044404264EB0101DE
:10078000141E73F1000405DB1C464FF00043524277
:1007900063EB04038B4208BF824230BD30B5041EB8
:1007A00071F1000404DB4FF00044404264EB0101AE
:1007B000141E73F1000405DB1C464FF00043524247
:1007C00063EB0403994208BF904230BD202A04DB4A
:1007D000203A00FA02F1002070479140C2F1200354
:1007E00020FA03F3194390407047202A04DB203A93
:1007F00021FA02F00021704721FA02F3D040C2F141
:1008000020029140084319467047202A06DBCB1787
:10081000203A41FA02F043EAE07306E041FA02F3BB
:10082000D040C2F1200291400843194670473A284F
:1008300000D2303820F02002412A01D3A2F1370043
:10084000884201D34FF0FF30704700000268114426
:100850001378016018467047D1600449516104491A
:10086000116200211161114600F05AB94D080008CB
:10087000150B0008426842B1016811F8013B23B131
:10088000521EC0E90012184670470121C160881E3F
:10089000704742685AB1C368016843B983688B42A4
:1008A00005D0491E521CC0E90012002070474FF0CD
:1008B000FF30704710B5141E73F1000408DA401CB5
:1008C00041F1000192185B411A4301D120F001006F
:1008D00010BD2DE9F04D92469B4611B1B1FA81F25F
:1008E00002E0B0FA80F220329046FFF76FFF044634
:1008F0000F4640EA0A0041EA0B0153465A460843B4
:1009000013D0114653EA010019D0C8F140025046F5
:10091000FFF76BFF05460E46504659464246FFF725
:1009200055FF084305D0012004E020463946BDE8C4
:10093000F08D0020054346EAE0762C4337430A98C1
:100940006305E40AA0EB08000022FD0A44EA4754CC
:100950000A3002D500200146E9E701051019694176
:10096000DDE9084500196941BDE8F04DA2E72DE930
:10097000F04D81EA030404F0004B21F000451446D9
:100980004FF0000A23F0004150EA050220D054EA5B
:1009900001021DD0C5F30A570246C5F31303C1F384
:1009A0001300C1F30A5640F4801543F48013A7EBFB
:1009B0000608101BD64608F2FD3873EB050002D37B
:1009C00008F1010801E092185B41B8F1000F03DA69
:1009D00000200146BDE8F08D00204FF4801106464E
:1009E00084460EE0171B73EB050705D3121B63EB60
:1009F000050306434CEA010C49084FEA30009218FF
:100A00005B4150EA0107EDD152EA030012D082EABD
:100A1000040083EA0501084305D0101BAB4106D250
:100A20000122002306E000224FF0004302E06FF0B5
:100A3000010253101AEB06004CEB085110EB0A00B0
:100A400041EB0B01BDE8F04DFFF734BF2DE9F04D50
:100A500000231A461B1A8A4103DB00200146BDE829
:100A6000F08DC1F30A52C1F3130141F480154FF028
:100A7000000BD10702D100186D41521E0027044619
:100A800040F2FF11384601EB620A3E4680460246BC
:100A900000204FF48011FFF7A8FEC2197141BB1866
:100AA00046EB0100B4EB030C75EB000C04D3E41A25
:100AB00065EB000517460E46241908F101006D414B
:100AC00080463428E3DDF91946EB0600091BA841EE
:100AD00003D24FF0FF32134601E0002213461BEB16
:100AE000070046EB0A51BDE8F04DFFF7E3BE0000FA
:100AF000064C074D06E0E06840F0010394E807006B
:100B000098471034AC42F6D3FFF748FBC84E0008B4
:100B1000E84E0008C0B24FF4F05100F0A5B9000053
:100B20002DE9F34F8BB04FF0000801F10C000C469B
:100B30004FF0010B46460DF1080A01906269012150
:100B400001989047051E2DD0252D2CD0216A88476D
:100B5000C0B16269012101989047216A8847002845
:100B6000F7D1411E62690198904700E0761CA169A7
:100B70000B988847216A88470028F7D1E1690B98CC
:100B80008847DBE7A1690B9888470746A84201D14F
:100B9000761CD3E7E1690B9888477F1C02D1B8F136
:100BA000000F6FD046E1002762693D463946019843
:100BB00090472A2804D162690121019890470125B4
:100BC000DFF884926269012101989047A0F1300119
:100BD0000A290AD24F45E5DC07EB870100EB410704
:100BE000303FDFD445F01005ECE7E90601D46FF0A3
:100BF00000476C280AD04C2814D0682815D06A28E1
:100C00000DD074281CD07A281AD01DE06269012109
:100C1000019890476C2802D045F0040514E045F097
:100C200002050DE045F020050AE062690121019806
:100C30009047682802D045F0080505E045F40065B6
:100C40006269012101989047C4E9015765283DD0A8
:100C500019DC58287AD00CDC452837D004DC25284C
:100C600026D0412831D131E046282FD047282CD139
:100C70002CE05B2877D0612828D063287CD06428BA
:100C800023D15AE0D0E06F2848D008DC66281DD078
:100C900067281BD0692821D06E2816D127E070283C
:100CA00045D0732868D0752847D078280DD14DE0FD
:100CB000A1690B988847054625283FF469AFE1698B
:100CC0000B9888476D1C3FF46AAFB3E023466A4631
:100CD0006FF001000B99AFF300809EE045F04000FB
:100CE0006060A80723464FF0000236D43EE0E807D4
:100CF0007FF447AF2068011D21600068290501D5F8
:100D000006701BE7290701D5068017E7A90703D559
:100D1000F117C0E9006111E706600FE745F04000F8
:100D20006060A80723464FF0080216D41EE040F684
:100D30000E0125EA0100606016E045F040006060A9
:100D4000A80723464FF00A0207D40FE045F0400001
:100D50006060A80708D5234610226FF001000B99A8
:100D6000AFF3008059E007E0234610226FF0010046
:100D70000B99FFF79BFA50E04FF000094F464B46A6
:100D8000632802D05B2806D040E0E80601D40120A9
:100D9000A06001273AE062690121019890475E282E
:100DA00005D14FF0010962694946019890472169D0
:100DB00039B900210A46534643F82120491C082925
:100DC000FADBB0B3216969B9C11700EBD1625311E5
:100DD0000AEB830122F01F02821A01200B68904067
:100DE00003430B6062690121019890475D28E8D1B7
:100DF000B9F1000F09D00020514651F82020D2430C
:100E000041F82020401C0828F7DB02AB224600975F
:100E10006FF001000B99FFF7EFFA00280CDA401C85
:100E200008D1BBF1000F05D04FF0FF300DB0BDE889
:100E3000F08FFFE74046F9E7E90701D108F1010823
:100E400006444FF0000B79E6CCCCCC0C0EB540F24A
:100E5000334102910021CDE900110A460B46FFF70C
:100E600038FD03B000BD00007F2801D9002208E052
:100E7000064A02EB5002C007127800D1120902F0B4
:100E80000F0201209040084070470000884E000883
:100E900010B51A4C1A4994B02078097888422BD0A2
:100EA000184901EB80111848FFF7DAF92078402142
:100EB000401C00F00700207001A8FFF7BFF9124B9B
:100EC00012A214A101A802F007FE0020ADF848000C
:100ED0008DF844000C4812AB11AA10A10090FFF746
:100EE000C9F99DF84400472803D04D2801D04F2868
:100EF00002D101A802F04AFB14B010BD000000208E
:100F000001000020E4000020A40000204F4B3A2004
:100F10000000000025732025730000002563256470
:100F200020257300FEE70000014800F0BDB8000076
:100F3000C8040020014800F0B7B80000880700206E
:100F4000014800F0B1B8000028070020016818230C
:100F5000CAB2103AB2FBF3F2054B6FF30901032A50
:100F60009B5CC36500D9091D816508467047000078
:100F7000A44C000810B5014600208B698A6A4FF026
:100F8000C07453B1B3F5005F15D072B1012A0CD013
:100F9000022A0AD0032A09D104E01AB1012A06D094
:100FA000022A03D1C96AC90100D5012010BDC96A4E
:100FB000A142FAD010BD002AF7D0012AF2D0022AAD
:100FC000F3D0032AF3D010BD30B50468256825F4AA
:100FD00080252560046863608368402B036803D024
:100FE00099600068C26030BD9A600068C16030BD21
:100FF000704770472DE9F0410446876D00F0A6FA6E
:10100000064694F835000025022806D08020606549
:1010100084F834500120BDE8F0812068016821F097
:10102000160101602068416921F080014161206C56
:1010300008B9A06C20B12068016821F008010160A6
:101040002068016821F0010101600BE000F07EFAE8
:10105000801B052806D92020606504F8345F032032
:101060006070D8E720680068C007EFD194F85C1082
:101070003F208840B86004F8345F01206070002091
:10108000C9E790F83510022903D08021416501207D
:101090007047052180F835100068016821F00101D2
:1010A00001600020704700002DE9F84304464FF02E
:1010B0000009CDF8009063484FF41651A56D006803
:1010C000B0FBF1F72E6894F85C10082000FA01F1EB
:1010D00031420FD021680A6852070BD50A6822F006
:1010E00004020A6094F85C108840A860606D40F0CB
:1010F0000100606594F85C104FF0010808FA01F0F7
:10110000304208D021684969090604D5A860606D9D
:1011100040F00200606594F85C1004208840304282
:1011200008D021680968890704D5A860606D40F07F
:101130000400606594F85C1010208840304218D09C
:1011400021680968090714D5A86020680168490367
:1011500004D50068000308D5A16C07E00168C90543
:1011600003D4016821F008010160216C09B1204617
:10117000884794F85C1020208840304231D02168A4
:101180000968C9062DD5A86094F83500052820689F
:10119000016806D0490347D5006800031DD4616C7F
:1011A0001CE021F0160101602068416921F08001F6
:1011B0004161206C08B9A06C20B12068016821F061
:1011C0000801016094F85C103F208840A86084F812
:1011D000349084F83580216D1FE0E16B09B1204621
:1011E0008847606D00282BD0606DC00714D00520A3
:1011F00084F835002068016821F001010160009841
:10120000401C0090B84203D820680068C007F6D19F
:1012100084F8349084F83580E16C002910D001B056
:101220002046BDE8F04308470168C905D5D40168E8
:1012300021F01001016084F8349084F83580CCE707
:10124000BDE8F8839C0000202DE9F041044600F041
:101250007DF906465CB1002584F83450022084F8FC
:1012600035002068016821F0010101600DE00120D6
:10127000BDE8F08100F06AF9801B052805D920201F
:101280006065032084F83500F2E720680068C00735
:10129000F0D12268116820480140D4E901031843C5
:1012A000D4E903363343184363691843A3691843E9
:1012B000E3691843236A18430843616A042903D188
:1012C000D4E90B1319430843106020684069666A2B
:1012D00020F0070130460E43012704280CD1A06AF4
:1012E0000643E06A40B12046FFF744FE20B14020AB
:1012F000606584F83570BAE7206846612046FFF7DC
:1013000025FE94F85C203F2191408160656584F85A
:1013100035700020ACE700003F8010F02DE9F0416F
:101320000446866D90F83400002501280DD0012078
:1013300084F8340094F835700020012F07D084F829
:10134000340002252846BDE8F0810220FBE7022791
:1013500084F8357060652046FFF736FE94F85C101F
:101360003F208840B0602068016841F016010160AC
:101370002068416941F080014161206C20B1206802
:10138000016841F0080101602068016841F0010135
:101390000160D7E770B5044600F0D8F80546601C38
:1013A00002D004480078044400F0D0F8401BA0426A
:1013B000FAD370BD900000202DE9F84FDFF860B13E
:1013C00000224FF001084FF0030A4FF00F090BF114
:1013D000040E00BF0B6808FA02F42340A3426ED14A
:1013E0004D68022D01D0122D0ED1D50800EB850CD1
:1013F000DCF820505607F70E09FA07F6B5430E69D8
:10140000BE402E43CCF82060066855000F790AFADA
:1014100005FC07F0030726EA0C06AF4037430760D8
:101420004E68012E05D0022E03D0112E01D0122EAF
:101430000ED18668CF6826EA0C06AF403743876036
:101440004668A6430C79C4F30014944034434460C6
:10145000C6688C6826EA0C06AC403443C4604C680D
:10146000E40056D52F4C256845F480452560246856
:1014700022F0030504F4804400942B4C2E19D6F876
:10148000084895072F0F09FA07F5AC43274DA842E6
:1014900001D1002515E0264DA84201D1012510E01B
:1014A000244DA84201D102250BE0234DA84201D1D1
:1014B000032506E0214DA84202D1042501E028E0E1
:1014C0000725BD402543C6F80858DBF800405D46B7
:1014D0004E689C43F60300D51C432C60DEF80040A8
:1014E00075464E689C43B60300D51C432C600C4DDA
:1014F00008352C684E689C43F60200D51C432C60CE
:10150000074D0C352C684E689C43B60200D51C4331
:101510002C60521C102AFFF45DAFBDE8F88F00006C
:10152000003C0140443802400030014000000240CD
:101530000004024000080240000C0240001002407B
:101540000AB1816170470904FBE700000148806827
:101550007047000090000020024881680278114422
:1015600081607047900000200B4810B5016841F47D
:1015700000710160016841F480610160016841F41B
:1015800080710160032000F06FF8002000F006F881
:1015900000F024F8002010BD003C024070B50D4D55
:1015A00004464FF47A712878B1FBF0F00A490968D3
:1015B000B1FBF0F000F0E0FA48B9102C07D200229D
:1015C0002146501E00F030F800206C6070BD0120F4
:1015D00070BD0000900000209C0000200B4882B0ED
:1015E000016841F480410160006800F4804000908F
:1015F0000648001F016841F080510160006800F05A
:1016000080500090072002B000F02EB8443802400D
:1016100000F01F02012191404009800000F1E0200C
:10162000C0F8001170470000F0B40E4B1B680C4668
:10163000C3F30223C3F10705042D00D90425191DA6
:10164000072901D2002300E0DB1E012606FA05F17E
:10165000491E214099409E40761E16403143F0BC01
:1016600001F0DEBA0CED00E0064900F00702086860
:101670004FF6FF03184040EA0220034A1043086077
:10168000704700000CED00E00000FA052DE9F0477E
:101690000E46050065D0DFF81481D8F80000F7B2D7
:1016A00000F00F00B04207D288F80070D8F80000B0
:1016B00000F00F00B04254D128683D4C810712D58C
:1016C000400703D5206840F4E050206028780007E8
:1016D00003D5206840F4604020602068A96820F0AD
:1016E000F000084320602878C0072DD03049686892
:1016F0000839012812D0022813D0032811D0096814
:10170000890700292DDA216821F0030101432160B6
:10171000FFF71CFF814641F2883A0EE00968890311
:10172000EFE709688901ECE7FFF710FFA0EB09017B
:10173000514502D90320BDE8F0872068696800F0B0
:101740000C00B0EB810FEFD1D8F80010404601F04B
:101750000F01B14207D90770006800F00F00B042D6
:1017600001D00120E7E72878400705D52068E9681F
:1017700020F4E050084320602878000706D5206850
:10178000296920F4604040EAC100206000F036F88A
:101790002168084AC1F30311515CC840064908603A
:1017A0000020FFF7FBFE0020C5E70000003C0240E0
:1017B00008380240AC4C00089C0000200448054951
:1017C00000680968044AC1F38221515CC84070472F
:1017D0009C00002008380240BC4C00080448054921
:1017E00000680968044AC1F34231515CC84070473F
:1017F0009C00002008380240BC4C0008154810B579
:10180000006810F00C02144813D04110042A0FD0C5
:10181000082A0ED10F4C241F2268236802F03F02D1
:101820005B0207D52068C0F38810A0FB010106E029
:10183000084610BD2168C1F38811A1FB00010023F7
:10184000FEF7C4FC2168C1F30141491C4900B0FB0B
:10185000F1F010BD083802400024F4002DE9F84FE3
:10186000050076D02878DFF8F8B2BE4CC00749D022
:10187000DBF800105846C1F38101012908D0006847
:10188000C0F3810002280AD1201D0068400206D55D
:101890002068800336D568680028E2D032E06868A6
:1018A000B0F5803F10D0B0F5A02F206810D020F404
:1018B00080302060206820F4802020606868A0B11B
:1018C000FFF744FE06460CE0206840F48030F4E761
:1018D00040F480202060F7E7FFF738FE801B642883
:1018E00073D820688003F7D50CE0FFF72FFE06467B
:1018F00005E000BFFFF72AFE801B6428F0D82068AF
:101900008003F7D42878DFF8608280074FF0000961
:101910003ED5DBF80010584611F00C0F09D00068D6
:10192000C0F3810002280BD18D48001F00684002DF
:1019300006D42068800715D5E868012809D111E090
:10194000E868B8B10120C8F80000FFF7FFFD0646BF
:1019500005E002E1FFF7FAFD801B0228C0D82068ED
:101960008007F7D52068296920F0F80040EAC10017
:1019700020600DE0C8F80090FFF7E8FD064604E09F
:10198000FFF7E4FD801B02281FD820688007F7D4EA
:101990002878000722D5724E744869696C3671B197
:1019A00001210160FFF7D2FD074604E0FFF7CEFDFD
:1019B000C01B022809D830688007F7D50EE0C0F8B0
:1019C0000090FFF7C3FD074605E083E0FFF7BEFD8B
:1019D000C01B02287ED830688007F7D428784007DB
:1019E00068D5DFF87CA100270AF1380ADAF8000090
:1019F000C0000BD4DAF8001041F08051CAF8001092
:101A0000DAF80000012700F080500090584E30684E
:101A1000C00510D4306840F480703060FFF796FD48
:101A2000009005E0FFF792FD0099401A022851D876
:101A30003068C005F6D54A4EA868683601280FD030
:101A40000528306810D020F001003060306820F0A8
:101A500004003060A868B8B1FFF778FD00900FE08F
:101A6000306840F00100F4E740F004003060F7E730
:101A7000FFF76CFD0099411A41F28830814264D829
:101A800030688007F4D50EE0FFF760FD009007E0B6
:101A9000FFF75CFD0099411A41F28830814254D829
:101AA00030688007F4D42FB1DAF8001021F08051AB
:101AB000CAF80010A869C0B3DBF80010C1F38101B7
:101AC00002294AD00228484607D0C8F86000FFF72C
:101AD0003DFD00E039E005463AE04746C8F86000C1
:101AE000FFF734FD064604E0FFF730FD801B0228B7
:101AF0002BD820688001F7D4D5E907010843A96AEB
:101B00001C4A490802EB01416A6A41EA8211084312
:101B100095F82C1040EA01611148001F0160012076
:101B20003866FFF713FD054605E014E0FFF70EFDEC
:101B3000401B022809D820688001F7D50BE000BFC0
:101B4000FFF704FD401B022802D90320BDE8F88FEF
:101B500020688001F4D40020F8E70120F6E70000B7
:101B6000083802400038024000004742800E4742D9
:101B7000007000400000FFFF10B5401EB0F1807FF4
:101B800001D3012010BD4FF0E02460610F216017E8
:101B900001F046F80020A06107202061002010BD60
:101BA0007047704730B590F83820012A20D00122C4
:101BB00080F83820022380F8393003685C6824F00C
:101BC00070045C6003685C680D682C435C600368AB
:101BD0009C6824F080049C6003689C6849680C43FE
:101BE0009C6080F83920002180F83810084630BD0C
:101BF000022030BD10B5040003D094F8390010B1B4
:101C000007E0012010BD002084F83800204600F0D5
:101C10000DF8022084F83900211D206801F036FB00
:101C2000012084F83900002010BD000070B586B096
:101C3000044614216846FEF701FB3949374B2268F8
:101C40000024374810390225364E9A4223D10268C3
:101C500042F002020260006800F00200059008688D
:101C600040F001000860086800F001000590086875
:101C700040F0020008600868694600F00200059024
:101C8000C0200090CDE901542748CDE90345FFF776
:101C900093FB032014E0254B9A421CD1026842F0CA
:101CA00004020260006800F004000590086840F03B
:101CB00002000860086800F0020005904FF47070A0
:101CC0000090CDE9015469463046CDE90345FFF760
:101CD00073FB06B070BD12481549001D8A4208D139
:101CE000016841F480310160006800F480300590A3
:101CF000EFE710498A42ECD1016841F400310160FC
:101D00000068002200F40030059011461920FFF70A
:101D10008BFC1920FFF77CFCDBE70000000400408F
:101D20004038024000040240000002400008004029
:101D300000400140004401400168CA6842F00102CD
:101D4000CA600068016841F001010160002070472D
:101D500070B5044690F83800012817D0012584F8A2
:101D60003850022084F839002068826822F0770217
:101D700022F47F4282600868502837D00DDC20288A
:101D800059D005DC88B3102841D151E0022070BD44
:101D9000302853D040283AD13FE060282ED0702818
:101DA0000BD0B0F5805F03D0B0F5005F2FD110E00D
:101DB0002068816821F0070115E0CB68D1E9012195
:101DC000206801F0B6FA2168886840F077008860E2
:101DD0001DE0CB68D1E90121206801F0AAFA206852
:101DE000816841F48041816011E01EE0CA68496861
:101DF000206801F053FB5021206806E0CA6849685A
:101E0000206801F095FB6021206801F09CFA84F8BD
:101E10003950002084F8380070BDCA6849682068CD
:101E200001F03CFB40212068EFE700212068ECE74F
:101E300010212068E9E720212068E6E730212068AA
:101E4000E3E72DE9F0410D46040003D094F8390092
:101E500018B108E00120BDE8F081002084F83800C6
:101E6000204600F039F8022084F8390020688168A3
:101E700021F007018160211D206801F007FA226826
:101E800090689169166A2B68AF69034340F203308A
:101E9000814341EA0721A868EF6908434FF6FC41F6
:101EA0008843E96840EA0720014328692F6A000156
:101EB00040EA0730084369686D6926F0AA0646EAD9
:101EC0000515294393602268906120680162012012
:101ED00084F839000020BEE7F0B587B0064614212B
:101EE0006846FEF7ABF9344F3268002533480221CB
:101EF0000324334BBA4240D1304A1432176847F0BA
:101F000001071760126802F001020592026842F0B0
:101F1000010202600068CDE9021400F001000590A2
:101F20002002CDE900010120049069461846FFF720
:101F300043FA254C234820604FF04060C4E9010576
:101F40004FF48060C4E90350400060618000C4E940
:101F50000605256220466562FFF776F908B1FFF7AE
:101F600048F8F461002211461920A663FFF75CFBD4
:101F70001920FFF74DFB07B0F0BD144EB242FAD165
:101F80000E4A1032166846F008061660126802F013
:101F900008020592026842F00102026000680094A3
:101FA000CDE9011500F00100CDE904100395694663
:101FB0001846FFF701FADEE7000001403038024022
:101FC000000002408864024028070020000C004006
:101FD00010B50446006891B1042904D00122002103
:101FE00001F09CF9206801225FF0040101F096F9EC
:101FF0002068016841F001010160002010BD01224C
:102000000021F3E7704700002DE9F041044690F805
:1020100038000D4601283DD0012684F838600220A2
:1020200084F83900AAB3042A46D02068082A55D07B
:10203000D5E90027E968036A23F480530362D0F8E6
:102040001CC0036A2CF4407C4CEA07274FF6FF7C47
:1020500027F470470CEA013139434FF4204723F449
:10206000204307EA02321A43C16102622068C16953
:1020700021F44061C1612068C169AA6841EA022176
:10208000C0F81C1084F83960002084F83800BDE8DE
:10209000F08101E00220FAE7D5E90012EB68206840
:1020A00001F00EFA2068816921F00C01816120683D
:1020B0008169AA6811430FE0D5E90012EB68206836
:1020C00001F048FA2068816921F44061816120684B
:1020D0008169AA6841EA02218161D3E7D5E9002C30
:1020E0002F7B016A21F480710162C169036A21F0CA
:1020F000030141EA0C0121F0F00C39074FF420678D
:102100004CEA116123F4206307EA02221A43C161F9
:1021100002622068C16921F00C01C1612068C169B7
:10212000AA681143ACE710B5040003D094F8390055
:1021300010B107E0012010BD002084F838002046CF
:1021400000F00CF8022084F83900211D206801F00D
:102150009DF8012084F83900002010BD704770B54B
:102160000446006801694FF00005C943890715D48A
:10217000C168C943890711D4E91E01610120207695
:10218000206880698007204602D0FFF73BFF04E00B
:1021900000F0D4F8204600F067F925762068016940
:1021A000C943490717D4C168C943490713D46FF01D
:1021B00004010161022020762068806910F4407FCC
:1021C000204602D0FFF71EFF04E000F0B7F82046DB
:1021D00000F04AF9257620680169C943090716D439
:1021E000C168C943090712D46FF0080101610420D6
:1021F00020762068C0698007204602D0FFF702FFE2
:1022000004E000F09BF8204600F02EF925762068C7
:102210000169C943C90617D4C168C943C90613D4A3
:102220006FF010010161082020762068C06910F469
:10223000407F204602D0FFF7E5FE04E000F07EF884
:10224000204600F011F9257620680169C943C907C5
:1022500008D1C168C943C90704D1891E016120465C
:1022600000F01CF920680169C943090609D4C16856
:10227000C943090605D46FF0800101612046FFF7CC
:102280008FFC20680169C943490609D4C168C94364
:10229000490605D46FF040010161204600F0FFF8C7
:1022A00020680169C94389060BD4C168C9438906FE
:1022B00007D46FF0200101612046BDE87040FFF7B0
:1022C00070BC70BD70B586B0044614216846FDF739
:1022D000B5FF2068B0F1804F28D11548016841F062
:1022E00001010160016801F001010591016841F0FF
:1022F000020101600068022400F0020005904FF422
:102300000040CDE9000402AA0325012682E87000FE
:1023100069460848FFF750F80820CDE9000402AAF2
:10232000694682E870000448FFF746F806B070BDC1
:10233000303802400000024000040240704770B58F
:10234000044690F838000D4601280DD0012684F887
:102350003860022084F8390042B1042A18D0082AD3
:102360002AD00C2A4DD139E0022070BD206800F03F
:10237000F3FF2068816941F008018161206881696B
:1023800021F004018161206881692A69114311E00B
:10239000206801F009F82068816941F400618161D9
:1023A0002068816921F480618161206881692A69DE
:1023B00041EA0221816124E0206801F021F82068CF
:1023C000C16941F00801C1612068C16921F00401BF
:1023D000C1612068C1692A69114311E0206801F0D8
:1023E0003BF82068C16941F40061C1612068C1699E
:1023F00021F48061C1612068C1692A6941EA022132
:10240000C16184F83960002084F8380070BD10B5CF
:10241000040003D094F8390010B107E0012010BD8A
:10242000002084F83800204600F00CF8022084F8E0
:102430003900211D206800F029FF012084F83900AF
:10244000002010BD08B50068B0F1804F08D10548E4
:10245000016841F001010160006800F00100009096
:1024600008BD0000403802407047000010B5044627
:102470000068012200F052FF07492068884203D11A
:10248000416C41F4004141642068016841F0010160
:102490000160002010BD000000000140704770473F
:1024A00010B504460068416994F83920C1F3C011A1
:1024B000212A0BD151B1416921F080014161206B8A
:1024C00008B1FEF797FD204601F006F92068416942
:1024D00094F83A20C1F38011222A0BD151B14169FD
:1024E00021F040014161606B08B1FEF783FD204699
:1024F00001F0E4F8002010BD7047000070B50268DC
:1025000004461068D168536910F00F0F50D003F0E3
:10251000010501F4907635435DD0C20705D0CA05A8
:1025200003D5E26B42F00102E263420705D5DA0708
:1025300003D0E26B42F00202E263820705D5DA07BC
:1025400003D0E26B42F00402E263020705D5DA072A
:1025500003D0E26B42F00802E263E26B002A33D060
:10256000800604D5880602D5204601F0BEF8206812
:102570004069E16BC0F38010090700D428B32046FE
:1025800001F09CF82068416949061AD5416921F09B
:1025900040014161606BA0B11B490165606BFEF7B2
:1025A00070FD002810D0606B016DBDE870400847D9
:1025B000830610D58B060ED52046BDE8704001F08D
:1025C00094B82046FFF798FF70BD2046FFF794FFB0
:1025D0000020E06370BD030606D50B0604D5204637
:1025E000BDE8704001F01EBA4006F3D54806F1D5AB
:1025F000D168204621F04001D160202184F83910B3
:1026000000F038F970BD0000E535000870B5040031
:1026100004D094F83900002510B106E0012070BD07
:1026200084F83850204600F023F8242084F839003C
:102630002068C16821F40051C160204601F09CF877
:102640002068016921F4904101612068416921F00D
:102650002A0141612068C16841F40051C160E5630D
:10266000202084F8390084F83A00002070BD000072
:102670002DE9F04186B0064614216846FDF7DEFDDF
:102680002F493068884257D12E480024016841F410
:1026900000310160006800F40030059029481038CE
:1026A000016841F0010101600068694600F0010025
:1026B00005900C2000900220019001200290032040
:1026C0000390072004902048FEF776FE204D1F4817
:1026D0004FF00067E5E8020740204FF48068A5E866
:1026E00011011B4845F81449AC61EC612C626C6225
:1026F000FEF7AAFD08B1FEF77CFC3563AE63134814
:10270000144D18382860C5E90174C5E903486C61A7
:10271000AC61EC612C6228466C62FEF795FD08B155
:10272000FEF767FC7563002211462620AE63FEF7B4
:102730007BFF2620FEF76CFF06B0BDE8F0810000AD
:10274000004400404038024000000240A0600240C7
:1027500088070020C8040020F8B5044690F83A0025
:1027600020283CD1C1B3BAB394F83800012836D040
:10277000012084F83800A162A2850025E5632220AB
:1027800084F83A00636B1748D863636B1648186483
:10279000636B1648D864606B134605650846666B24
:1027A000216802463046091DFEF7B8FD2068016821
:1027B0004168009184F83850C16841F48071C1606B
:1027C0002068416941F0010141612068416941F09F
:1027D000400141610020F8BDFFE70120FBE7022036
:1027E000F9E700003F3600087B360008F5350008A1
:1027F0007047704770B5044690F83900202830D1F2
:1028000069B362B394F8380001282AD0012084F813
:1028100038002162A284E2840025E563212084F847
:102820003900236B1048D863236B10481864236B5E
:102830000F48D864206B134605652668206B321D4F
:10284000FEF76CFD21686FF04000086084F8385096
:102850002068416941F080014161002070BD012084
:1028600070BD022070BD000085360008B336000838
:10287000F535000870B50068114988421FD1114C28
:1028800011492078401C00F0070020700978884228
:1028900015D00E4991F83910202910D10C4D05EBB7
:1028A0008010FDF7D6FC82B2207805EB8011074836
:1028B000FFF7A0FF2078002105EB8010017070BDAC
:1028C0000044004002000020030000208804002093
:1028D000280500207047FEE7154808B5016841F457
:1028E00000110160016801F400110091016841F4D8
:1028F000800101600068002200F480000090114611
:102900001020FEF791FE1020FEF782FE00221146F5
:102910001120FEF789FE1120FEF77AFE00221146F3
:102920004420FEF781FEBDE808404420FEF770BE5B
:102930003038024070B586B014216846FDF77EFC41
:1029400024480024016841F004010160016801F09D
:1029500004010591016841F080010160016801F006
:1029600080010591016841F001010160016801F0F9
:1029700001010591016841F0020101600068164EF5
:1029800000F00200059000224FF4C1513046FEF7DE
:10299000D7FD4FF4005000901048CDE9010469467E
:1029A0000F48FEF709FD4FF4026000900125CDE9C4
:1029B0000154694630460394FEF7FEFC2803CDE936
:1029C00000050320CDE9024069463046FEF7F4FCDD
:1029D00006B070BD303802400000024000002110F7
:1029E0000008024010B58CB024216846FDF726FC93
:1029F00000241348099411490A94C0E900144FF6C1
:102A0000FF71C0E90241046144610320CDE9000483
:102A10000120CDE9020405210491CDE90540CDE96D
:102A2000074169460648FFF70CFA2020CDE9090462
:102A300009A90348FFF7B6F80CB010BD000001402B
:102A4000E402002010B58AB0002407941C216846D7
:102A50000894FDF7F3FB13484FF08041C0E90014E0
:102A600041F26701C0E902410461FFF7D0FC07941D
:102A700007A90C480894FFF795F86020CDE90004F9
:102A800002940022694607480494FFF758FC042288
:102A900069460448FFF753FC0248FFF713FC0AB0ED
:102AA00010BD00002003002010B58AB0002420488B
:102AB000049405940694079408940994009401944E
:102AC00002941A490394C0E900148460C46004614C
:102AD000FFF790F84FF48050049004A91448FFF7D2
:102AE00037F91348FFF71FFB089408A91048099409
:102AF000FFF758F80120CDE9004002940022694612
:102B00000B480394FFF780FA042269460848FFF750
:102B10007BFA082269460648FFF776FA0C226946D6
:102B20000348FFF771FA0AB010BD0000000400402E
:102B30005C03002010B58AB000242048049405945A
:102B400006940794089409940094019402941A49F5
:102B50000394C0E900148460C4600461FFF74AF87C
:102B60004FF48050049004A91448FFF7F1F813487B
:102B7000FFF7D9FA089408A910480994FFF712F84A
:102B80000120CDE900400294002269460B480394DD
:102B9000FFF73AFA042269460848FFF735FA082297
:102BA00069460648FFF730FA0C2269460348FFF7EA
:102BB0002BFA0AB010BD0000000800409803002066
:102BC00010B58CB024216846FDF738FB002412486C
:102BD000099410490A94C0E900144FF6FF71C0E946
:102BE000024104610120CDE90004CDE9020404940E
:102BF000CDE905400794694607480894FFF721F995
:102C00002020CDE9090409A90348FEF7CBFF0CB049
:102C100010BD0000000C0040D4030020FEE7704708
:102C20000907090E002806DA00F00F0000F1E02085
:102C300080F8141D704700F1E02080F80014704700
:102C400070477047FEF788BC30B593B030216846B6
:102C5000FDF7F4FA14210CA8FDF7F0FA1A48002445
:102C6000016841F080510160006800F080501190CF
:102C70001648016821F4404141F4004101600068B8
:102C8000022500F44040119001200390102000958F
:102C900006950490CDE907404FF4A87009900420F0
:102CA0000A9007200B906846FEF7D8FD0F20CDE96B
:102CB0000C05E802CDE90E4002210CA81094FEF7A5
:102CC000E5FC13B030BD0000403802400070004009
:102CD0001048016841F4700101600F48016841F03B
:102CE000010101600C4A00210832116002680B4B9F
:102CF0001A400260031D0A4A1A60026822F4802208
:102D0000026005480C3001600249580680390860AD
:102D10007047000088ED00E000380240FFFFF6FE3B
:102D2000103000242DE9F05F01222DED068B1103F8
:102D3000F848FEF705FCF848FFF711FAF748FFF7E7
:102D40000EFAF748DFF8DCB30025017801290CD131
:102D50000570F548F54900680860F5480168F548D0
:102D6000CBF800100168F4480160F449F44CF548D0
:102D70000A78F54BDFF8D493F54F012A10D10D7086
:102D8000F44909682160F4490A68F449C9F8002047
:102D900009683960F24909880180F2490988198077
:102DA000F149B1F800C0F149A1F800C0F0490E881E
:102DB000F0490E80F049496BEB4A1180EF4A1268E6
:102DC000DFF8AC83A1EB0C0109B2A8F80020921B3C
:102DD00012B28E18B0F90000891A46434143B3F984
:102DE000000006EBD67691FBF0F0216876100844DF
:102DF0002060FDF78AFC41EC100B01F0FDF8B0EE0D
:102E0000408AF0EE608A3046FDF77FFC8A464AEC45
:102E1000110B064653EC182B51EC110BFDF703FC7C
:102E200041EC180BC846D9F80000FDF76EFC53ECD6
:102E3000182BFDF751FBFDF779FCC8F8000020685E
:102E4000FDF763FC41EC100B01F03AF94AEC116B11
:102E500053EC102B51EC110BFDF7E5FB41EC180B7B
:102E60003868FDF752FC53EC182BFDF735FBFDF7E6
:102E70005DFCC3493860DFF80C930A78DFF808A3DB
:102E8000C2B30D70C1490A88C1490A80C1490A8884
:102E9000C1490A80C1490A88C1490A80C1490A88D2
:102EA000C149A9F800200A88C0490A80C0490A8897
:102EB000C0490A80C0490A88C049AAF800200A8887
:102EC000BF490A80BF49C04A09881180BF49C04A2A
:102ED00009881180BF49C04A09881180BF49C04A8A
:102EE00009881180BF49C04A09881180BF49C04A7A
:102EF00009881180BF4909789FEDBF8B9FEDC09B6A
:102F0000C14C00297ED0BBF80020B8F80010511A3F
:102F10000FB289490988081A05B2A81C784080F0C8
:102F20000200FDF7F2FB41EC100B01F02DF951EC22
:102F3000100BFDF7FBFB06B22846FDF7E6FB41EC64
:102F40001A0B3846FDF7E1FB41EC100BB0EE4A1AC4
:102F5000F0EE6A1A00F058FF51EC100BFDF7E6FB9B
:102F600005B22846FDF7D1FB884648EC100B074612
:102F700053EC182B51EC100BFDF710FC0AD248EC67
:102F8000107B53EC192B51EC100BFDF746FBFDF7B2
:102F9000CDFB05B22846FDF7B8FB884648EC100B80
:102FA00007469FED9A1B51EC100B53EC112BFDF7CC
:102FB000DDFB0AD248EC107B53EC192B51EC100BC3
:102FC000FDF78AFAFDF7B2FB05B22846FDF79DFB37
:102FD000884648EC100B07469FED8E1B51EC100BFA
:102FE00053EC112BFDF7DAFB0AD348EC107B9FED75
:102FF0008B1B51EC100B53EC112BFDF7B7FB0ED2D2
:10300000704200E052E048EC107B06B253EC182B03
:1030100051EC100BFDF760FAFDF788FB05B2B4F92F
:103020000000811B00D549427E48B0F9000091FBA9
:10303000F0F10BB2B4F90210491B00D5494291FBE3
:10304000F0F10AB2B4F90410C91A00D5494291FB53
:10305000F0F1B4F90610891A00D5494291FBF0F15C
:1030600013FB03F7B9F900904FEA490197FBF1F11F
:103070000FB212FB02FCBAF900B04FEA4B019CFB05
:10308000F1F10FFA81F8310000D57142DFF830C15B
:10309000BCF900A017FB0A77B942B4F908100FDA9F
:1030A000002900DA494209FB10111BE025806580E8
:1030B000A580E58025816581BDEC068BBDE8F09F8C
:1030C000002901DB8C4601E0C1F1000C324FB7F959
:1030D0000070BC4507DA002900DA4942304F3F88CA
:1030E00017FB00110FB2002D01DB294600E06942F9
:1030F00018FB0A8C6145B4F90A1005DA002900DAD8
:1031000049420BFB1010A0E0002901DB88468DE04E
:103110008AE0000000000240E40200204C0400208D
:103120003D00002028000020300000202400002066
:1031300034000020380000202C0000203C0000203B
:103140000C0000204000002044000020100000205F
:1031500014000020180000201C0000202000002087
:10316000420000204600002006000020040000204D
:103170000A0000200800002000000140340C00403C
:103180003F000020520000205E0000204800002088
:10319000800000204C0000204A0000205000002049
:1031A0004E0000205400002058000020560000204F
:1031B0005C0000205A000020600000206400002015
:1031C000620000206A000020680000206E000020DD
:1031D0006C000020720000207000002076000020AB
:1031E000740000207A000020780000207E0000207B
:1031F0007C0000203E000020EA2E4454FB210940C0
:10320000EA2E4454FB21194082000020EA2E445447
:10321000FB2109C0EA2E4454FB21F93FEA2E445415
:10322000FB21F9BF66000020C1F10008DFF850C0A3
:10323000BCF900C0E0450ADA002900DA4942DFF8AB
:1032400044C0BCF800C01CFB00100FFA80FC002E2C
:1032500001DA784207B2002D03DACCF100000FFA50
:1032600080FC0948B0F90000864200DA0027268079
:103270006580A380E2802781A4F80AC01CE70000D3
:10328000560000205A00002080000020F0B502689F
:103290001B4B1C4C9F031C4D1C4E984207D0B84240
:1032A00005D0A04203D0A84201D0B04204D122F000
:1032B000700C4A6842EA0C02984210D0B8420ED014
:1032C000A0420CD0A8420AD0B04208D0104CA04274
:1032D00005D0104CA04202D00F4CA04203D122F4E2
:1032E0004074CA68224302608A68C2620A688262C5
:1032F000984201D10969016301214161F0BD0000DB
:10330000000001400004004000080040000C0040A4
:1033100000400140004401400048014010B5012335
:10332000046A8B409C430462036A8A40134303622D
:1033300010BD10B5846842EA032224F47F440A4396
:103340002243826010BD826822F070020A4342F07C
:10335000070181607047000030B5026A22F0010267
:103360000262026A4368846924F073050C682C4386
:1033700022F002058A682A430A4DA8420BD122F0A6
:103380000805CA6823F440732A434D6922F00402F9
:103390001D438B692B43436084614968416302622A
:1033A00030BD00000000014030B5026A22F010027A
:1033B0000262026A436884690D6824F4E64444EAC0
:1033C00005248D6822F0200242EA05120B4DA84226
:1033D0000ED1CD6822F0800242EA05124D6923F435
:1033E000406343EA85038D6922F0400243EA850386
:1033F0004360846149688163026230BD000001401E
:1034000030B5026A22F480720262036A4268C469BB
:1034100023F4007324F073050C682C438D6843EA91
:1034200005230C4DA8420ED1CD6823F4006343EA76
:1034300005234D6922F4405242EA05128D6923F4B6
:10344000806342EA05124260C4614968C163036255
:1034500030BD00000000014030B5026A22F4805205
:103460000262046A4268C3690D6823F4E64343EAD2
:1034700005238D6824F4005444EA0534064DA8421F
:1034800004D14D6922F4804242EA85124260C36150
:1034900049680164046230BD0000014010B5036A50
:1034A000046A24F001040462846924F0F00444EA0C
:1034B000021423F00A020A438461026210BD000074
:1034C00070B5046A24F0010404628469056A134E2D
:1034D000B0420ED0B0F1804F0BD0114EB04208D0A8
:1034E000104EB04205D0104EB04202D00F4EB04246
:1034F00003D124F00304144303E024F0030242F058
:1035000001041A0724F0F00444EA126225F00A03C9
:1035100001F00A0119438261016270BD000001409F
:103520000004004000080040000C00400040014042
:1035300010B5036A23F0100303628369046A23F45D
:10354000704343EA023224F0A00343EA011182618E
:10355000016210BD30B5046A24F01004046284696D
:10356000056A24F4407444EA022222F470444FF6BF
:10357000FF7202EA03322243A02425F0A00304EAEA
:10358000011119438261016230BD000070B5124C17
:103590000146104D207805EB8010FCF761FE207885
:1035A000401C00F0070020700C4890F839002028DB
:1035B0000ED10B4C207805EB8010FCF74AFE82B24E
:1035C000207805EB8011BDE870400448FFF712B980
:1035D00070BD0000280500200300002088040020A2
:1035E0000200002010B5806B0021C185C184FEF768
:1035F00083FF10BD70B5846B2068406994F8391062
:10360000C0F3C0100025212904D118B1E58420465B
:1036100000F062F82068406994F83A10C0F3801016
:10362000222904D118B1E585204600F047F8E06B67
:1036300040F01000E0632046FEF75EFF70BD10B55D
:103640000146806B09680968C90513D40021C1854A
:103650000168CA6822F48072CA6001684A6922F06F
:1036600001024A6101684A6922F040024A61202150
:1036700080F83A10FFF7BCF810BD10B5806BFFF76B
:10368000B8F810BD10B50146806B09680968C90516
:103690000CD40021C18401684A6922F080024A6189
:1036A0000068C16841F04001C16010BDFFF7E2F859
:1036B00010BD10B5806BFFF70DF910BD0168CA6829
:1036C00022F49072CA6001684A6922F001024A61DC
:1036D000202180F83A1070470168CA6822F0C002C1
:1036E000CA60202180F83910704710B590F83A1060
:1036F000222901D0022010BD8168B1F5805F11D070
:103700000169002901681FD0496801F07F03816ABF
:103710004A1C82620B70C18D491E0904090CC185C7
:1037200018D026E00269816A002A0268526805D032
:10373000D2B20A80816A491C8162ECE7C2F30802B6
:103740000A80816A891CF7E74A68816A4B1C836298
:103750000A70E0E70168CA6822F49072CA600168E2
:103760004A6922F001024A61202180F83A10FFF7ED
:103770003FF8002010BD00002DE9F041044600682C
:10378000016921F44052E168114301612168C86870
:1037900049F20C6290432369A268E5691A436369A0
:1037A0002B431A430243CA602168486920F44072DF
:1037B000A06910434861E1696425B1F5004F97485D
:1037C000974A21684FF032083FD0914201D08142A0
:1037D0007CD1FEF703F800EBC00101EB001061683B
:1037E0008900B0FBF1F6FDF7F9FF00EBC00101EB3A
:1037F000001061688900B0FBF1F0B0FBF5F06FF0EC
:103800001801484306EB800108EB0110B0FBF5F00E
:1038100000F0F006FDF7E2FF00EBC00101EB001045
:1038200061688900B0FBF1F0B0FBF5F006EB001623
:10383000FDF7D4FF00EBC00101EB001061688900C7
:10384000B0FBF1F7FDF7CAFFD2E0914201D081420F
:103850003DD1FDF7C3FF00EBC00101EB0010616833
:103860004900B0FBF1F0B0FBF5F00601FDF7B6FF43
:1038700000EBC00101EB001061684900B0FBF1F7FB
:10388000FDF7ACFF00EBC00101EB001061684900DF
:10389000B0FBF1F0B0FBF5F06FF01801484307EB17
:1038A000800108EBC100B0FBF5F000F0F80006EB7A
:1038B0004006FDF793FF00EBC00101EB00106168CB
:1038C0004900B0FBF1F7FDF789FF3CE055E0FDF75B
:1038D00075FF00EBC00101EB001061684900B0FB0F
:1038E000F1F0B0FBF5F00601FDF768FF00EBC00159
:1038F00001EB001061684900B0FBF1F7FDF75EFFD6
:1039000000EBC00101EB001061684900B0FBF1F071
:10391000B0FBF5F06FF01801484307EB800108EBAE
:10392000C100B0FBF5F000F0F80006EB4006FDF733
:1039300045FF00EBC00101EB001061684900B0FBDE
:10394000F1F7FDF73BFF00EBC00101EB00106168F0
:103950004900B0FBF1F0B0FBF5F06FF018014843FF
:1039600007EB800108EBC100B0FBF5F000F00700A9
:10397000216830448860BDE8F081FDF71FFF00EB4F
:10398000C00101EB001061688900B0FBF1F6FDF7A2
:1039900015FF00EBC00101EB001061688900B0FB6E
:1039A000F1F0B0FBF5F06FF01801484306EB800131
:1039B00008EB0110B0FBF5F000F0F006FDF7FEFE9D
:1039C00000EBC00101EB001061688900B0FBF1F071
:1039D000B0FBF5F006EB0016FDF7F0FE00EBC001C2
:1039E00001EB001061688900B0FBF1F7FDF7E6FE1E
:1039F00000EBC00101EB001061688900B0FBF1F041
:103A0000B0FBF5F06FF01801484307EB800108EBBD
:103A10000110B0FBF5F000F00F00A9E70014014021
:103A20000010014090F83910212901D00220704780
:103A30008168B1F5805F016A0BD04A1C026202689E
:103A400009785160C18C491E0904090CC1840ED04B
:103A500017E009880268C1F3080151600169002973
:103A6000016A02D0491C0162ECE7891CFBE701688E
:103A7000CA6822F08002CA600068C16841F0400153
:103A8000C16000207047000038B50F4C2068006806
:103A9000C00614D50D4D2878401C00F00700287092
:103AA0002046FEF7FDFC0A482978402200EB8111F0
:103AB0002046FEF751FE2068016840680090BDE88E
:103AC00038400148FEF71ABD88040020010000209C
:103AD000E4000020FEE700000FB4084B10B504A975
:103AE00002AA039800F0C2FF044602A9002001F0D8
:103AF00028F8204610BC5DF814FB0000434B00087A
:103B000003B401984100009850EAC12018BF042076
:103B10004A0D18BF40F0010040F2FF72B2EB515F56
:103B200008BF40F00200012808BF052002B070471E
:103B300070B59B482DED020B2DED068B079D25F0F2
:103B40000044A04218DC9748844202DC0AD106985F
:103B500040B19DED060BBDEC068B02B0BDE8704098
:103B600000F03ABF002DCCBF9FED8F0B9FED900B67
:103B7000BDEC068B02B070BD8F48A04215DD8F48AA
:103B8000A042D8BF4FF0FF3458DD9DED060B51EC3D
:103B9000100BFFF7B5FF042808BF00F041FF9DEDB3
:103BA000060BBDEC068B02B070BD9DED060B51EC13
:103BB000100B00F0D3FFCDE9060181489FED828B09
:103BC000A0423CDD8248A0421FDD00249FED82AB75
:103BD0009DED060B53EC1A2B51EC100BFCF77CFC03
:103BE0009DED060B41EC190B53EC1A2B51EC100B0D
:103BF000FCF719FD53EC182BFCF70FFD53EC192BB8
:103C0000FCF7B5FECDE9060149E09DED060B012468
:103C100053EC182B51EC100BFCF75EFC9DED060BE2
:103C200041EC190B53EC182B51EC100BFCF7F5FC85
:103C300053EC192BFCF79BFECDE906012FE06848F9
:103C4000A0421FDD02249FED689B9DED060B53EC07
:103C5000192B51EC100BFCF7E6FC53EC182BFCF77E
:103C60003BFC9DED060B41EC180B53EC192B51EC72
:103C7000100BFCF7D2FC53EC182BFCF778FECDE9C7
:103C800006010CE09DED060B032453EC102B9FED79
:103C9000580B51EC100BFCF76AFECDE906019DEDC7
:103CA000060B53EC102B51EC100BFCF7BCFC41EC59
:103CB000180B53EC182BFCF7B6FC41EC190B4E48D3
:103CC0000621B0EE490AF0EE690A784400F070FD72
:103CD00053EC182B51EC100BFCF7A5FC41EC180B26
:103CE0004648B0EE490AF0EE690A0521784400F032
:103CF0005FFD53EC192B51EC100BFCF794FC41ECDD
:103D0000100B51EC180B53EC102B002C0EDAFCF7B7
:103D1000E3FB9DED061B53EC112BFCF784FC9DEDA2
:103D2000061B53EC112BFCF77BFC35E0FCF7D4FBB6
:103D30009DED061B53EC112BFCF775FC41EC100BB1
:103D40002F48784400EBC40090ED001B51EC100BA1
:103D500053EC112BFCF761FC9DED061B53EC112B72
:103D6000FCF75BFC41EC100B2648784400EBC400E8
:103D700090ED001B51EC100B53EC112BFCF750FC99
:103D800041EC100B002DA2BFBDEC068B02B070BD44
:103D900051EC100B81F0004141EC100B01E70000E9
:103DA000000010440000F07F182D4454FB21F93F1F
:103DB000182D4454FB21F9BF0000DC3F0000203ED9
:103DC0000000F33F00000000000000000000F03F92
:103DD0000000E63F0000000000000000000000407E
:103DE0000080034000000000000000000000F83FD9
:103DF000000000000000F0BF62100000181000007A
:103E0000A20F00005A0F000070B56B4E2DED040B91
:103E10002DED028B82B0DDF81CC0DDE905235C428C
:103E20002CF000411C4341EAD474049D22F0004070
:103E3000B44205D86C422C4340EAD474B4420BD946
:103E40009DED061B9DED040B02B0BDEC028B04B092
:103E5000BDE8704000F0CABDACF14054A4F17F64ED
:103E60001C430BD0022404EAAC7444EAD274054328
:103E70009FED538B9FED542B07D015E09DED040B68
:103E800051EC100B00F062FE42E0002C11BF012C3F
:103E90009DED040B02B0BDEC028B04BF04B070BDFD
:103EA000022C38D0032C3BD00B439FED491B9FEDD8
:103EB0004A0B0AD0B14218D1B04209D121F0804159
:103EC00020F08040079105900FE0002A15DA10E0FD
:103ED000434B7B44002C08BF93ED000B0DD0012C0D
:103EE00010D0022C17D0032C1AD0B0421DD1002ABA
:103EF00003DAB0EE410AF0EE610A02B0BDEC028BCB
:103F000004B070BD93ED000B51EC100B81F000413B
:103F100041EC100BF1E7B0EE480AF0EE680AECE76E
:103F2000B0EE420AF0EE620AE7E7401A00153C28BC
:103F3000C8BF8DED000B19DCBCF1000FBEBF10F146
:103F40003C0F9FED290B8DED000B0FDB9DED060B5C
:103F500053EC102B9DED040B51EC100BFCF707FDFF
:103F600000F0FCFD00F0F2FDCDE90001002C08BFDF
:103F70009DED000BC1D0012C10D0022C9FED1C0B2D
:103F800053EC102B9DED000B51EC100B0DD0FCF7FA
:103F900044FB53EC182BFCF740FBB9E7019880F089
:103FA000004001909DED000BA7E7FCF736FB53ECBA
:103FB000182BFCF735FBABE70000F07F000000009A
:103FC000182D4454FB210940182D4454FB2109C0ED
:103FD000182D4454FB21F9BF182D4454FB21F93FFF
:103FE000BA0E000000000000000000000000000009
:103FF000075C143326A6A13C10B52F499FED2C1B5E
:104000002DED020B84B0059820F000408842D8BF07
:104010009DED040B2DDD2949884209D1049840B952
:104020004FF0010000F01CFD00F0EAFC06B010BDEE
:1040300005DB9DED040B00F0CFFC06B010BD68461B
:104040009DED040B00F0E0F810F0030004BF9DEDBF
:10405000021B9DED000B0CD001280ED09DED021B24
:104060009DED000B022817D0012000F01DFC06B0CA
:1040700010BD00F0E5FA06B010BD9DED021B9DEDF0
:10408000000B012000F010FC51EC100B81F00041FE
:1040900006B041EC100B10BD00F0D2FA51EC100B41
:1040A00081F0004106B041EC100B10BD0000000093
:1040B0000000000000000000FB21E93F0000F07F4D
:1040C00010B52F499FED2C1B2DED020B84B00598E8
:1040D00020F000408842DCBF00209DED040B32DD63
:1040E0002849884209D1049840B94FF0010000F0F6
:1040F000B7FC00F085FC06B010BD05DB9DED040BA0
:1041000000F06AFC06B010BD68469DED040B00F09F
:104110007BF810F0030011D0012818D09DED021B90
:104120009DED000B02281AD000F08AFA51EC100B1A
:1041300081F0004106B041EC100B10BD9DED021B5B
:104140009DED000B012000F0AFFB06B010BD9DED12
:10415000021B9DED000B00F073FA06B010BD0120AC
:1041600000F0A2FB51EC100B81F0004106B041ECD5
:10417000100B10BD00000000000000000000000057
:10418000FB21E93F0000F07F00B52DED048BB0EE80
:10419000409AF0EE609A83B051EC190BFCF756FC94
:1041A00041EC180B18EE100A18EE901A8DED008BEA
:1041B000002818BF0120084320F00040C0F17F60B4
:1041C00000F1E040C00F14D019EE101A19EE900A59
:1041D0008DED009B002918BF0121084320F000400D
:1041E000C0F17F6000F1E040C00F04BF012000F08B
:1041F00037FCB0EE480A03B0F0EE680ABDEC048B61
:1042000000BD0000000000002DE9F14F04462DED37
:10421000020B2DED088B8AB09FEDE70B80ED020BB2
:10422000139EE74826F0004585420ADC9DED120BFF
:10423000002084ED000B0AB0BDEC088B03B0BDE894
:10424000F08FE0489FEDE0AB9FEDE1BBA84247DD7A
:10425000E14F9FEDE39B9FEDE48B9DED120B53EC43
:104260001A2B51EC100B002E1CDDFCF7D6F941EC9B
:10427000100BBD4208D053EC1B2B51EC100BFCF77C
:10428000CCF9C4E900010BE053EC192B51EC100BF5
:10429000FCF7C3F953EC182BFCF7BFF9C4E9000194
:1042A0000120C8E7FCF718F941EC100BBD4208D01B
:1042B00053EC1B2B51EC100BFCF70EF9C4E9000179
:1042C0000BE053EC192B51EC100BFCF705F953ECF8
:1042D000182BFCF701F9C4E900014FF0FF30AAE701
:1042E000C348A84279DB9DED120B51EC100B00F096
:1042F00035FC41EC180B9FEDC00B53EC102BFCF779
:1043000092F99FEDBF1B53EC112BFCF7E5F8FCF77E
:104310000DFA0746FCF7F9F941EC190B53EC1A2B8F
:10432000FCF781F953EC182BFCF77AF941EC180BE8
:1043300053EC1B2B51EC190BFCF775F9DFF8C8A2F5
:1043400041EC100B4FEA15580125FA4453EC102BA1
:1043500051EC180BFCF761F9032DC4E900013DD0C5
:10436000C1F30A5005EB4511A8EB00001139814259
:1043700034DA0AEB051BB0EE48AA9BED000BF0EE19
:1043800068AA53EC102B51EC190BFCF74CF941ECDB
:104390001B0B51EC1A0B53EC1B2BFCF73EF941ECB9
:1043A000180B51EC1A0B53EC182BFCF736F953ECA5
:1043B0001B2BFCF732F99BED020B41EC1A0B53EC73
:1043C000102B51EC190BFCF72EF953EC1A2BFCF7C0
:1043D00024F941EC100B6D1CB8E70EE0002EA8BFCD
:1043E0003846BFF628AF94ED000B51EC100B81F06E
:1043F0000041C4E9000178421DE7C6F3130040F410
:10440000801EC6F30A50A0F2F530471100F01F05D8
:10441000C5F12000DDF848B0089000200690079014
:104420000520EC467949002D07EB0002794408BFCE
:1044300051F8221009D051F8223001EB8201AB4033
:104440004A68089922FA01F11943A1FB0E26A1FB43
:104450000B131A449A4234BF0123002303EB0608CE
:104460000CEB8003D3E901A60E448E4234BF012138
:10447000002192448A4411B1924502D903E0924549
:1044800001D2012100E00021C3E901A641444CF81A
:104490002010011EA0F10100C4DC029800F10050C0
:1044A000850F0298DDE903678000DDF81480FCF7D2
:1044B0002CF941EC1A0B3046FCF7C8FC9FED541B5D
:1044C00053EC112BFCF7AFF841EC1B0B3846FCF713
:1044D000BDFC9FED511B53EC112BFCF7A4F841ECF4
:1044E000180B4046FCF7B2FC9FED4D1B53EC112B13
:1044F000FCF799F841EC190B51EC180B53EC192B04
:10450000FBF7EAFF53EC1B2BFBF7E6FF53EC1A2BF0
:10451000FBF7E2FFCDE90801002008909DED080BB4
:1045200053EC1A2B51EC100BFCF777F853EC1B2BC8
:10453000FCF773F853EC182BFCF76FF853EC192BBE
:10454000FCF76EF89FED381B53EC112BFCF76BF862
:104550009FED370B41EC180B53EC102B9DED080B26
:1045600051EC100BFCF75FF853EC182BFBF7B4FF82
:104570009FED310B41EC180B53EC102B9DED080B0C
:1045800051EC100BFCF74FF853EC182BFBF7A4FF82
:1045900041EC100B139810F0004F06D06D4251EC17
:1045A000100B81F0004141EC100B284684ED000B0C
:1045B00041E60000000000000000000000000000D4
:1045C000FB21E93F7CD9024000004054FB21F93F28
:1045D0003163621A61B4D03DFB21F93F0000000055
:1045E0000000601A61B4D03D7370032E8A19A33B9A
:1045F000FB2139410000000083C8C96D305FE43FF2
:10460000000000000000E03F4A0A00009809000096
:10461000000000000000103E000000000000103C00
:10462000000000000000103A182D4454FB21F93D11
:104630003326A611460B113C00000054FB21F93D26
:1046400010B52DED040B2DED088B82B0B0EE419A24
:10465000F0EE619A0B9820F000449FED4BABB4F163
:10466000795F11DA9DED0A0B51EC100BFCF75EF847
:10467000002801BFB0EE4A0AF0EE6A0A02B0BDECB3
:10468000088B04BF04B010BD9DED0A0B53EC102B3A
:1046900051EC100BFBF7C7FF41EC180B3C4806210F
:1046A000B0EE480AF0EE680A784400F081F853EC66
:1046B000182B51EC100BFBF7B6FF9DED0A0B41ECEC
:1046C0001B0B53EC192B51EC100BFBF7ACFF41EC1F
:1046D000190B53EC1B2B51EC180BFBF7A4FF53ECFD
:1046E000192BFBF79AFF9FED2C0B41EC190B53ECA8
:1046F000102B51EC180BFBF796FF41EC100B2848E0
:10470000844210DA53EC192B51EC100BFBF785FFA8
:1047100053EC1A2BFBF784FF41EC100B02B0BDECFD
:10472000088B04B010BD1F48A042BCBF9FED1E1BEC
:104730008DED001B06DBA4F5001001900020009019
:104740009DED001B51EC100B53EC112BFBF765FF9B
:104750009DED000B41EC180B53EC102B51EC1A0B98
:10476000FBF75BFF41EC1A0B53EC192B51EC180BC8
:10477000FBF753FF53EC1A2BFBF752FF41EC100BE6
:10478000CCE7000000000000000000000000F03F47
:10479000B406000000000000000000000000E03F40
:1047A0003333D33F0000E93F000000000000D23F58
:1047B00070B504462DED028B4D1E00EBC500B0EE2A
:1047C000408AF0EE608A90ED000B35F0060017D0BD
:1047D00053EC182B51EC100BFBF725FF41EC100BA1
:1047E0006D1E04EBC50090ED001B51EC100B53EC5B
:1047F000112BFBF771FE41EC100B35F00600E7D1F1
:10480000022D36D0042D1CD0062D1CBFBDEC028B12
:1048100070BD53EC182B51EC100BFBF704FF94ED1B
:104820000A1B53EC112BFBF757FE53EC182BFBF72D
:10483000FAFE94ED081B53EC112BFBF74DFE41ECF7
:10484000100B53EC182B51EC100BFBF7ECFE94ED16
:10485000061B53EC112BFBF73FFE53EC182BFBF719
:10486000E2FE94ED040B53EC102BFBF735FE41EC0C
:10487000100B53EC182B51EC100BFBF7D4FE94EDFE
:10488000021B53EC112BFBF727FE53EC182BFBF705
:10489000CAFE94ED001B53EC112BFBF71DFEBDEC83
:1048A000028B41EC100B70BD31B504462DED040BAD
:1048B0002DED0A8BB0EE41BAF0EE61BA0B989DED8A
:1048C0000A0B20F00040B0F1795F0DDA51EC100BCB
:1048D000FFF716F9042808BF00F0A2F89DED0A0BB7
:1048E000BDEC0A8B05B030BD53EC102B51EC100B16
:1048F000FBF799FE41EC180B9DED0A0B53EC182BBE
:1049000051EC100BFBF78FFE41EC190B2C48B0EE6D
:10491000480AF0EE680A05217844FFF749FF9FED49
:104920002ACBB0EE40AAF0EE60AA9CB353EC1C2B4D
:1049300051EC190BFBF777FE41EC1C0B53EC1A2BD7
:1049400051EC190BFBF76FFE9FED210B41EC190B9E
:1049500053EC102B51EC1B0BFBF765FE53EC192BA2
:10496000FBF75BFE53EC182BFBF75DFE53EC1B2BA8
:10497000FBF753FE53EC1C2BFBF74FFE9DED0A1B80
:1049800053EC112BFBF74CFEBDEC0A8B05B041EC50
:10499000100B30BDFFE753EC1A2B51EC180BFBF753
:1049A00042FE53EC1C2BFBF797FD53EC192BFBF746
:1049B0003AFE9DED0A1B53EC112BFBF78DFDE3E74F
:1049C0004405000000000000495555555555C5BF28
:1049D000000000000000E03F10B553EC102B51EC3C
:1049E000100BFBF779FD41EC100B10BD10B553EC2B
:1049F000112B51EC100BFBF76FFD41EC100B10BDB0
:104A00009FED050B10B553EC102B51EC100BFBF781
:104A1000AEFF41EC100B10BD0000000000000000D4
:104A20009FED050B10B553EC102B51EC100BFBF761
:104A3000FAFD41EC100B10BD00000000000000105A
:104A400002E008C8121F08C1002AFAD17047704757
:104A5000002001E001C1121F002AFBD170470000B5
:104A60000149086070470000A00000202DE9F84FC0
:104A70009946924688460546002706E025280AD032
:104A800051464A4690476D1C7F1C28780028F5D176
:104A90003846BDE8F88F002315F8011F18462E2967
:104AA00015D115F8011F04232A290DD06FF02F020C
:104AB0002978A1F13004092C09D800EB800002EB21
:104AC000400008446D1CF3E758F8040B6D1C2A786D
:104AD000002ADDD0632A07D0732A0FD01046514632
:104AE0004A4690477F1C2AE018F8042B8DF80020D6
:104AF00000218DF801106E46012103E058F8046B87
:104B00004FF0FF315A074FF0000401D409E0641C54
:104B100084420BDA8C42FADB325D002AF7D105E0E1
:104B2000641C8C42FCDB305D0028F9D1274404E092
:104B300016F8010B51464A469047641EF8D26D1C88
:104B4000A3E70A68531C0B601070704710B541EC66
:104B5000100BFEF7EDFF51EC100B10BD82B0CDE94C
:104B6000000121F0004001909DED000B02B051ECDE
:104B7000100B70471FB5FCF7F7FCFEF765F8FDF763
:104B8000D9FEFDF7A9FEFDF72DFFFDF78DFF0024EF
:104B90003D480094019402943A490394C0E90014FA
:104BA0008460C4600461FDF725F84FF480566946BF
:104BB00035480096FDF7CCF8FDF7BCFFFEF700F88E
:104BC000FDF740FF304D3148783528604FF4E13033
:104BD000C5E901040C20EC60C5E90440AC6128463D
:104BE000EC61FDF713FDA5F13C00294901600121AD
:104BF000C0E9011443F69821C0E90314FCF7FAFF59
:104C00000021A5F5B470FDF731FC0421A5F5B470C1
:104C1000FDF72CFC2868C16841F01001C16005F166
:104C2000400001680A6842F010020A6000680168EA
:104C300021F0080101601749A5F569704022097843
:104C400000EB81112846FDF787FD1821A5F5D270EC
:104C5000FDF7BEF91821A5F1B400FDF7B9F9A5F1EA
:104C60003C00FDF769F80C4C002231462046FCF769
:104C700067FCFCF70DF909A0FEF788FC6420FCF73F
:104C800089FBF1E70040014010040020004400408F
:104C900000440140010000200000024042656565BB
:104CA000650D0A0000061016000610160000000030
:104CB00000000000010203040607080900000000CC
:104CC00001020304000000004FBB610567ACDD3F3B
:104CD000182D4454FB21E93F9BF681D20B73EF3F23
:104CE000182D4454FB21F93FE2652F227F2B7A3C9B
:104CF000075C143326A6813CBDCBF07A8807703C54
:104D0000075C143326A6913CC4EB98999999C9BFC6
:104D1000711623FEC671BCBF6D9A74AFF2B0B3BFFB
:104D20009AFDDE522DDEADBF2F6C6A2C44B4A2BFBB
:104D30000D5555555555D53FFF8300922449C23F27
:104D40006E204CC5CD45B73F513DD0A0660DB13F5B
:104D5000EB0D76244B7BA93F11DA22E33AAD903F6D
:104D60004C5555555555A53F7751C1166CC156BF89
:104D70009015CB19A001FA3EAD529C804F7E92BE99
:104D8000C4B1B4BD9EEE213ED43888BEE9FAA8BDB8
:104D9000000000000000000000004054FB21F93F2B
:104DA0003163621A61B4D03D0000601A61B4D03D35
:104DB0007370032E8A19A33B0000002E8A19A33BAF
:104DC000C14920259A837B390000000000000000C3
:104DD0006E83F9A22915444ED15727FCC0DD34F566
:104DE000999562DB4190433CAB6351FE61C5BBDEEC
:104DF0003A6E24B7E0D24D42EA2E49061C92D10900
:104E00001CEB1DFE3EA729B1F53582E88444BB2E7C
:104E100026709CE9417E5FB439D69139F4395383C9
:104E20008B5F849C3B28F9BDFF97F81F0F9805DE28
:104E30008B112FEF1F6D0A5ACF7E366DB709CB2726
:104E4000663F464F2DEA5F9EC7BA27757BF1E5EBBB
:104E5000F739073DEA92528AB15FFB6B085D8D1FFF
:104E6000A6F810111111813FD561C119A0012ABF07
:104E70007DFEB157E31DC73EEB9C2B8AE6E55ABE8B
:104E80007CD5CF5A3AD9E53DDDDDDDDDDCBBBBDDD0
:104E9000DDDDDDDDDDDDDDDD9888888888888888DA
:104EA00077777777778888888555555666666666FA
:104EB00066666666666888888333333222222222D9
:104EC000222222222228888DE84E0008000000209D
:104ED000A4000000404A00088C4F0008A4000020F5
:104EE000440B0000504A00080000000000000000D1
:104EF00000000000000000000000000000000000B2
:104F000000000000000000000000000000000000A1
:104F10000000000000000000000000000000000091
:104F20000000000000000000000000000000000081
:104F30000000000000000000000000000000000071
:104F40000000000000000000000000000000000061
:104F50000000000000000000000000000000000051
:104F60000000000000000000000000000000000041
:104F70000000000000000000010000001000000020
:0C4F8000000000000024F400000000000D
:040000050800019559
:00000001FF
