:020000040800F2
:10000000701C0020A90100089B450008134200084D
:1000100099450008390D000805550008000000004A
:10002000000000000000000000000000AF470008D2
:10003000D524000800000000AD47000875490008FD
:10004000C3010008C3010008C3010008C301000880
:10005000C3010008C3010008C3010008C301000870
:10006000C3010008C3010008C3010008C301000860
:10007000C3010008C3010008C3010008C301000850
:10008000F523000801240008110A00080000000000
:10009000000000000000000000000000C301000894
:1000A000C3010008754A0008554A0008C30100084A
:1000B000C3010008C3010008C3010008C301000810
:1000C000C3010008C3010008C3010008C301000800
:1000D000C3010008C30100085152000800000000DD
:1000E000C3010008C3010008C301000800000000AC
:1000F000000000000000000000000000C301000834
:1001000000000000C3010008C3010008C30100088B
:1001100000000000000000000000000000000000DF
:100120000D24000819240008C3010008C3010008B9
:10013000C3010008000000000000000000000000F3
:10014000000000000000000000000000C3010008E3
:10015000C301000825240008C30100089D520008BF
:10016000C3010008C30100080000000000000000F7
:10017000000000000000000000000000000000007F
:1001800000000000C30100080000000000000000A3
:10019000C3010008DFF80CD000F090FB00480047D6
:1001A000996D0008701C00200648804706480047EB
:1001B000FEE7FEE7FEE7FEE7FEE7FEE7FEE7FEE717
:1001C000FEE7FEE7014A0008950100082DE9F05F0F
:1001D0000546002092469B468846064681464024B6
:1001E0001BE0284641464746224600F0C0F95346E8
:1001F0005A46C01A914110D311461846224600F0C3
:10020000A7F92D1A67EB01084F462246012000216D
:1002100000F09EF917EB00094E41201EA4F10104E5
:10022000DFDC484631462A464346BDE8F09FD2B25D
:1002300001E000F8012B491EFBD270470022F6E7CF
:1002400010B513460A4604461946FFF7F0FF20464C
:1002500010BD421C10F8011B0029FBD1801A704709
:10026000034611F8012B00F8012B002AF9D118469A
:1002700070472DE9FE4F804681EA0300C00F0C460F
:10028000009021F0004123F00045B8EB0200A941A5
:1002900005D24046214690461C460B46024623F0B6
:1002A0000040104347D0270DC7F30A00C3F30A519B
:1002B0000290401A019040286BDAC3F3130040F417
:1002C000801B0098924620B10023D2EB030A63EB17
:1002D0000B0B01985946C0F14002504600F038F926
:1002E00006460D4650465946019A00F050F910EB6B
:1002F00008006141002487EA115284EAE7731A4337
:1003000040D0009A62B3019A012A4FEA075215DCE5
:10031000001B61EB02014FF0004202EA0752CDE9F7
:100320000042001C41F5801132462B4600F087F94F
:1003300003B0BDE8F08F40462146F9E7001B61EBB2
:100340000201001C41F5801300185B412018A2F542
:10035000001747EB030140EAD570B6196D4111E073
:100360006D084FEA360645EAC0754FEA0752001B92
:1003700061EB0201001C41F5801149084FEA300091
:100380000019514132462B4603B0BDE8F04F00F052
:1003900047B90098012240000023D0EB020263EB32
:1003A000E073009821464FEAE074B8EB000061EB7F
:1003B0000401E9E783F000435BE781F0004158E77F
:1003C0002DE9FE4F81EA030404F0004421F00041CE
:1003D00000944FF0000B23F0004350EA01045ED07C
:1003E00052EA03045BD0C3F30A54C1F30A552C4408
:1003F000A4F2F3340194A0FB0254C1F3130141F4BD
:100400008011C3F3130343F4801301FB024400FB88
:10041000034E840A970A44EA815447EA8357A4FBAF
:10042000076802958D0A05FB07854FEA932C04FBAC
:100430000C542705029D4FEA065847EA1637B5EBDC
:1004400008056EEB070C870E920E47EA811742EA09
:100450008312A7FB0201B6EB0B0164EB00042B0D2A
:1004600043EA0C335E1844EB1C50DA465146E7FB76
:100470000201C5F313044FEA0B3343EA14534FEA66
:100480000432019C43EA0603A4F10C040294009C8C
:10049000CDE900B400F0D3F803B0BDE8F08F002040
:1004A0000146F9E70EB5C10F80EAE0700844CA07BB
:1004B000002140F233438DE80E000A460B4600F05F
:1004C000BEF803B000BD00F0004230F000400AD09A
:1004D000C10D01F56071C0F3160042EA0151C20876
:1004E00040071143704700200146704701F0004368
:1004F00030B421F0004150EA010206D00A0DA2F505
:100500006072C1F31301002A02DC30BC0020704786
:10051000440F44EAC104C100E01830BC00EBC250F3
:1005200000F047B830B50B460146002020220124D8
:1005300009E021FA02F59D4205D303FA02F5491BB1
:1005400004FA02F52844151EA2F10102F1DC30BDC7
:10055000202A04DB203A00FA02F100207047914083
:10056000C2F1200320FA03F3194390407047202A78
:1005700004DB203A21FA02F00021704721FA02F34D
:10058000D040C2F120029140084319467047202A0A
:1005900006DBCB17203A41FA02F043EAE07306E0AB
:1005A00041FA02F3D040C2F12002914008431946BB
:1005B00070470029A8BF7047401C490008BF20F0C1
:1005C0000100704710B4B0FA80FC00FA0CF050EA59
:1005D000010404BF10BC704749B1CCF1200421FADA
:1005E00004F411FA0CF118BF012121430843A3EBD5
:1005F0000C01CB1D4FEA00614FEA102042BF0020E2
:1006000010BC704700EBC35010440029A4BF10BCBD
:100610007047401C490008BF20F0010010BC704723
:1006200010B5141E73F1000408DA401C41F10001FA
:1006300092185B411A4301D120F0010010BD2DE951
:10064000F04D92469B4611B1B1FA81F202E0B0FA48
:1006500080F220329046FFF77BFF04460F4640EAC7
:100660000A0041EA0B0153465A46084313D011468B
:1006700053EA010019D0C8F140025046FFF777FF56
:1006800005460E46504659464246FFF761FF08436D
:1006900005D0012004E020463946BDE8F08D002059
:1006A000054346EAE0762C4337430A986305E40A9B
:1006B000A0EB08000022FD0A44EA47540A3002D5A4
:1006C00000200146E9E7010510196941DDE9084507
:1006D00000196941BDE8F04DA2E72DE9F04D81EA2E
:1006E000030404F0004B21F0004514464FF0000ACB
:1006F00023F0004150EA050220D054EA01021DD047
:10070000C5F30A570246C5F31303C1F31300C1F33F
:100710000A5640F4801543F48013A7EB0608101B1B
:10072000D64608F2FD3873EB050002D308F1010844
:1007300001E092185B41B8F1000F03DA0020014696
:10074000BDE8F08D00204FF48011064684460EE08F
:10075000171B73EB050705D3121B63EB0503064359
:100760004CEA010C49084FEA300092185B4150EA0C
:100770000107EDD152EA030012D082EA040083EAB5
:100780000501084305D0101BAB4106D2012200230E
:1007900006E000224FF0004302E06FF00102531028
:1007A0001AEB06004CEB085110EB0A0041EB0B0171
:1007B000BDE8F04DFFF734BF2DE9F04D00231A4698
:1007C0001B1A8A4103DB00200146BDE8F08DC1F30E
:1007D0000A52C1F3130141F480154FF0000BD10709
:1007E00002D100186D41521E0027044640F2FF114D
:1007F000384601EB620A3E468046024600204FF42E
:100800008011FFF7B4FEC2197141BB1846EB01001D
:10081000B4EB030C75EB000C04D3E41A65EB000594
:1008200017460E46241908F101006D418046342810
:10083000E3DDF91946EB0600091BA84103D24FF08E
:10084000FF32134601E0002213461BEB070046EB84
:100850000A51BDE8F04DFFF7E3BEC1F30A52C1F300
:10086000130140F2FF3341F480119A4202DA002072
:100870000146704740F233439A42A2F2334202DC0F
:100880005242FFF774BEFFF763BE000030B5041E8E
:1008900071F1000404DB4FF00044404264EB0101BD
:1008A000141E73F1000405DB1C464FF00043524256
:1008B00063EB0403994208BF904230BD064C074DDC
:1008C00006E0E06840F0010394E807009847103420
:1008D000AC42F6D3FFF762FC507200087072000859
:1008E0000EB540F2334102910021CDE900110A46D4
:1008F0000B46FFF7A4FE03B000BD70B5C1F30A526A
:1009000001F000450024C1F3130140F2FF3341F42C
:1009100080119A4201DA002070BD40F233439A42BE
:10092000A2F2334203DC5242FFF721FE00E0904086
:100930002C43F1D0404270BD70B58C1810F8015BAB
:1009400015F0070301D110F8013B2A1106D110F868
:10095000012B03E010F8016B01F8016B5B1EF9D16C
:100960002B0705D40023521E0DD401F8013BFAE7F2
:1009700010F8013BCB1A921C03E013F8015B01F85D
:10098000015B521EF9D5A142D8D3002070BD10B52D
:100990000146806B026C12F0500F05D0806BC26C68
:1009A000BDE8104008461047016C41F40071016435
:1009B00001688A6812F0405F17D18269AAB9CA6AD1
:1009C00012F4700F02D08A6852050ED44A6822F0E1
:1009D00020024A60016C21F480710164016CC90439
:1009E00003D4016C41F00101016401F01DFE10BD52
:1009F00010B5806B40210164416C41F004014164F9
:100A000001F01BFE10BD10B5806B01F015FE10BD8E
:100A1000014801F013BE0000E00F0020454910B569
:100A20004A6822F440324A604A6843681A434A607E
:100A300001684A6822F480724A6001684A68036962
:100A400042EA03224A6001684A6822F040724A6022
:100A500001684A6883681A434A6001688A6822F418
:100A600000628A6001688A68C3681A438A60816A82
:100A70006FF07062D14201688A6822F070628A6009
:100A800001688A680CD0836A1A438A6001688A68A0
:100A900022F040528A6001688A68C36A1A4301E002
:100AA00022F040528A6001688A6822F002028A605D
:100AB00001688A68836942EA43028A60016A002900
:100AC00001684A680FD042F400624A6001684A68CF
:100AD00022F460424A6001684A68174C436A04EB9A
:100AE00043331A4301E022F400624A600168CA6A93
:100AF00022F47002CA620168CA6A838B0F4C04EB4D
:100B000003531A43CA6201688A6822F400728A6039
:100B100001688A68036B42EA43228A6001688A6836
:100B200022F480628A6001688A68406942EA802013
:100B3000886010BD0023014000E0FFFF0000F0FFCF
:100B40002DE9F0412D4C00262D4D20683F2805DB76
:100B5000002026602E54401C4028FBDBDFF8A4C098
:100B60002948DFF8ACE09CF80030007827499EF86F
:100B70000070834201EB871212D00021206802E04E
:100B80002F54401C491C575C0A2F02D00FB140293A
:100B9000F6DB5B1C03F0070120608CF8001016E008
:100BA0001C480078874227D00021206803E02B549E
:100BB0005654401C491C535C0A2B02D00BB14029EF
:100BC000F5DB7F1C07F0070120608EF80010002283
:100BD000114604E06B5C0D2B00D10122491C8142BF
:100BE000F8DB012A08D1064803F0E2FD00202E546C
:100BF000401C4028FBDB2660BDE8F081000000209F
:100C0000A80800204800002049000020A00D002076
:100C10004D0000204A000020F0B587B040F2D664B5
:100C200040F2DC5340F24655ADF80040ADF80240CA
:100C3000ADF80440ADF80640ADF80830ADF80C3022
:100C4000ADF81030ADF81450ADF80A30ADF80E30F4
:100C5000ADF81230ADF81650ADF81850D0ED000ACE
:100C6000314A9FED320AF5EEC00A1688F1EE10FA0D
:100C70002F4A0ADDD76AAF4205D8176BAF4202D8B8
:100C8000976AAF4201D9350712D4F5EEC00AF1EEEA
:100C900010FA0FD21568A54208D85568A54205D8A4
:100CA0009568A54202D8D568A54203D9F40701D0BA
:100CB00080ED000AD1ED000AF5EEC00AF1EE10FA5F
:100CC0000ADD9069984205D8506A984202D8D069E6
:100CD000984201D9B0070FD4F5EEC00AF1EE10FA30
:100CE0000CD21069984205D8106A984202D850690F
:100CF000984203D9700701D581ED000A0D49002003
:100D00006C4608805FF0010552F8203034F810601E
:100D1000B34204D90E8805FA00F333430B80401C1C
:100D20000C28F1DD07B0F0BDB0000020000000008D
:100D3000280B00204E010020FEE700002DE9F04FB7
:100D4000DFF8F8A03E4E3F4F9AF800303E4C3F4D42
:100D500091B09BB93E4B93ED000A3E4B84ED000AE7
:100D600093ED000A3C4B86ED000A93ED000A3B4BE5
:100D700087ED000A93ED000A85ED000A0023B346D3
:100D8000B846DFED370A9FED370A29E0C65C412EF1
:100D900014D0542E1DD0582E02D0592E1FD106E04B
:100DA00001EB830696ED001A8BED001A17E001EBBC
:100DB000830696ED001A88ED001A10E001EB830619
:100DC00096ED001A21EE201AC1EE001AC4ED001AA9
:100DD00005E001EB830696ED001A85ED001A5B1C19
:100DE0009342D3DB2868FFF76EFB06460F46206868
:100DF000FFF769FB04460D46D8F80000FFF763FBD8
:100E000080468946DBF80000FFF75DFB0DF1080C1A
:100E100041EC100B8CE8F00053EC102B12A106A84B
:100E2000CDE9008904F070FB06A803F069FF0121F9
:100E30008AF8001011B0BDE8F08F0000B300002068
:100E400080000020840000207C000020AC000020F6
:100E5000700000207400002078000020A80000200E
:100E6000560E4940000034434F4B3A20583D253040
:100E70002E326620593D25302E326620413D2530E8
:100E80002E326620543D25302E32660D0A000000B9
:100E90002DE9F043DFF8B4802D4E2E4C98F8003049
:100EA0002D4D8FB073B92D4B93ED000A2C4B86ED71
:100EB000000A93ED000A2B4B84ED000A93ED000A23
:100EC00085ED000A0023B1461CE0C65C4C2E0BD019
:100ED000522E02D0542E14D10DE001EB830696ED74
:100EE000000A89ED000A0CE001EB830696ED000A8A
:100EF00084ED000A05E001EB830696ED000A85ED1E
:100F0000000A5B1C9342E0DB2868FFF7DCFA064628
:100F10000F462068FFF7D7FA04460D46D9F80000BF
:100F2000FFF7D1FA41EC100B8DE8F00053EC102BD9
:100F30000DA104A804F0E8FA04A803F0E1FE0121E1
:100F400088F800100FB0BDE8F0830000B300002067
:100F50008C00002094000020AC00002088000020BD
:100F600090000020A80000204F4B3A20443D25303F
:100F70002E3266204C3D25302E326620543D2530E1
:100F80002E32660D0A0000002DE9F043DFF8B48030
:100F90002D4E2E4C98F800302D4D8FB073B92D4B3F
:100FA00093ED000A2C4B84ED000A93ED000A2B4BC5
:100FB00086ED000A93ED000A85ED000A0023B14694
:100FC0001CE0C65C4C2E0BD0522E02D0542E14D1F5
:100FD0000DE001EB830696ED000A89ED000A0CE0B6
:100FE00001EB830696ED000A84ED000A05E001EBB3
:100FF000830696ED000A85ED000A5B1C9342E0DB58
:101000002868FFF760FA06460F462068FFF75BFA8C
:1010100004460D46D9F80000FFF755FA41EC100BD5
:101020008DE8F00053EC102B0DA104A804F06CFA2D
:1010300004A803F065FE012188F800100FB0BDE898
:10104000F0830000B30000209C000020A4000020DA
:10105000AC000020A000002098000020A800002084
:101060004F4B3A20443D25302E3266204C3D2530F2
:101070002E326620543D25302E32660D0A000000C7
:101080002DE9F043DFF8C480314E324C98F800303F
:10109000314D8FB073B9314B93ED000A304B85ED74
:1010A000000A93ED000A2F4B86ED000A93ED000A2B
:1010B00084ED000A0023B1469FED2B0ADFED2B0AD9
:1010C00020E0C65C412E12D0582E02D0592E18D1E5
:1010D00006E001EB830696ED001A89ED001A10E098
:1010E00001EB830696ED001A84ED001A09E001EB8E
:1010F000830696ED001A21EE001AC1EE201AC5ED06
:10110000001A5B1C9342DCDB2868FFF7DCF906461B
:101110000F462068FFF7D7F904460D46D9F80000BE
:10112000FFF7D1F941EC100B8DE8F00053EC102BD8
:101130000FA104A804F0E8F904A803F0E1FD0121DF
:1011400088F800100FB0BDE8F0830000B200002066
:10115000680000206C00002064000020580000207F
:101160005C00002060000020560E4940000034431F
:101170004F4B3A20583D25302E326620593D2530C0
:101180002E326620413D25302E3266200D0A0000A9
:1011900000B508498BB0002008704FF080414863CB
:1011A000886305A1684604F0AFF9684603F0A8FD1E
:1011B0000BB000BDB40000204F4B3A20456D657266
:1011C00067656E63792053746F70200D0A0000000C
:1011D00000B502780B488BB0532A03D191ED000A79
:1011E00080ED000A0068FFF76EF941EC100B06A1D4
:1011F00053EC102B684604F087F9684603F080FD35
:101200000BB000BDF40000204F4B3A2054696D69CB
:101210006E67206C6F6F70203A2025302E3266206A
:101220000D0A00002DE9F0438DB01746894680462F
:101230004FF0FF360024214D2BE000BF18F80400CA
:10124000532807D109EB840090ED000ABDEEC00AD7
:1012500010EE106A012E06D0022E0FD0042E1DD0E3
:10126000082E15D121E0D5E90201CDE90001D5E92B
:10127000002313A102A804F047F906E0686A009071
:10128000D5E9062315A102A815E002A803F038FD50
:10129000641CBC42D2DB0DB0BDE8F08368690090ED
:1012A00014A102A82B6A2A6905E0286B0090D5E9F1
:1012B0000A2316A102A804F027F9E6E7280B00206C
:1012C0004D31352C204241434B3A2025643B256467
:1012D0003B25643B25640D0A000000004D31352C90
:1012E000204C4546543A2025643B25643B25640D3B
:1012F0000A0000004D31352C2052494748543A200D
:1013000025643B25643B25640D0A00004D31352CD6
:101310002046524F4E543A2025643B25643B2564B9
:101320000D0A00002DE9F04FDFF864918246594B19
:1013300099F80000584E594FDFF864C1594C5A4D86
:101340008BB08B4690B95948008820805848008857
:1013500018805848008838805748008828805748A7
:101360000088308056480088ACF800000020411EFC
:1013700066E000BF1AF80080B8F1410F12D0B8F152
:10138000420F29D0B8F1480F03D0B8F1530F56D10E
:101390003CE00BEB800191ED000ABDEEC00A10EEBF
:1013A000101A4CE011B101290BD048E00BEB80087A
:1013B00098ED000ABDEEC00A10EE108AA3F8008076
:1013C0003DE00BEB800898ED000ABDEEC00A10EE80
:1013D000108AA6F8008032E011B101290BD02EE06E
:1013E0000BEB800898ED000ABDEEC00A10EE108AE3
:1013F000A7F8008023E00BEB800898ED000ABDEE13
:10140000C00A10EE108AACF8008018E011B1012972
:101410000BD014E00BEB800898ED000ABDEEC00A7B
:1014200010EE108AA4F8008009E00BEB800898ED1C
:10143000000ABDEEC00A10EE108AA5F80080401C1C
:10144000904297DB71B1012915D01EA101A804F0CB
:101450005BF801A803F054FC012189F800100BB0DF
:10146000BDE8F08FB7F900000090B3F90030B4F98F
:1014700000201EA107E0BCF900000090B6F9003082
:10148000B5F9002021A101A804F03EF8E1E7000031
:10149000B5000020DA000020E6000020DE00002079
:1014A000EA000020D6000020E2000020D400002046
:1014B000D8000020DC000020E0000020E400002034
:1014C000E80000204B4F3A204E6F2050726F666943
:1014D0006C2073656C656374656420284830206FE8
:1014E0007220483129200D0A000000004F4B3A209D
:1014F000445F50726F66696C20533D256420413D06
:10150000256420423D2564200D0A00004F4B3A20FF
:10151000415F50726F66696C20533D256420413DE8
:10152000256420423D2564200D0A000070B5154D4C
:10153000154C8AB02B7823B9144B93ED000A84ED37
:10154000000A002309E0C65C442E05D101EB8306A6
:1015500096ED000A84ED000A5B1C9342F3DB2068E1
:10156000FEF7B1FF41EC100B09A153EC102B6846BC
:1015700003F0CAFF684603F0C3FB012028700AB0DD
:1015800070BD0000B5000020CC000020C800002085
:101590004F6B3A20426F6F6C5F445F6D6D3D25303D
:1015A0002E3266200D0A000070B51A4B1A4C8AB014
:1015B0001B7813B9194B1B782370194D00230F2684
:1015C0002E8019E0C65C482E02D0532E13D109E0BC
:1015D00001EB830696ED000ABCEEC00A10EE106A1D
:1015E000267008E001EB830696ED000ABCEEC00A07
:1015F00010EE106A2E805B1C9342E3DB2B8822786E
:1016000008A1684603F080FF684603F079FB0AB042
:1016100070BD0000B30000204D0100204C010020EF
:10162000B00000204F4B3A204D3320482564205312
:1016300025640D0A000000002DE9F04F8646814820
:10164000DFF804A2DFF804B20078814E814FDFF8A2
:1016500008C2824C824DDFF80C928FB068BB824882
:1016600090ED000A81488AED000A90ED000A80485A
:1016700084ED000A90ED000A7E4886ED000A90EDA8
:10168000000A7D488BED000A90ED000A7B4885ED4D
:10169000000A90ED000A7A4887ED000A90ED000AF2
:1016A000784880ED000A784890ED000A774889ED87
:1016B000000A90ED000A8CED000A0020431E6AE04B
:1016C0001EF80080B8F1440F2FD0B8F1480F06D0B3
:1016D000B8F1490F44D0B8F1500F5BD108E001EBED
:1016E000800393ED000ABDEEC00A10EE103A51E0FF
:1016F00023B1012B09D0022B0ED04BE001EB800867
:1017000098ED000A8AED000A44E001EB800898EDAC
:10171000000A8BED000A3DE001EB800898ED000A1D
:10172000DFF8608188ED000A34E023B1012B09D095
:10173000022B0ED02EE001EB800898ED000A86ED1A
:10174000000A27E001EB800898ED000A87ED000A07
:1017500020E001EB800898ED000A8CED000A19E00A
:1017600023B1012B09D0022B0ED013E001EB80082E
:1017700098ED000A84ED000A0CE001EB800898ED7A
:10178000000A85ED000A05E001EB800898ED000AEB
:1017900089ED000A401C904292DB83B1012B22D0DC
:1017A000022B34D03AA104A803F0AEFE04A803F043
:1017B000A7FA2448012101700FB0BDE8F08F30680E
:1017C000FEF781FE06460F462068FEF77CFE0446C3
:1017D0000D46DAF80000FEF776FE41EC100B38A15A
:1017E00053EC102B28E03868FEF76DFE06460F46D6
:1017F0002868FEF768FE04460D46DBF80000FEF799
:1018000062FE41EC100B38A153EC102B14E0DCF815
:101810000000FEF758FE06460F46D9F80000FEF716
:1018200052FE044617480D460068FEF74CFE41EC98
:10183000100B37A153EC102B8DE8F00004A803F037
:1018400063FEB3E7B500002008010020200100205E
:101850001801002030010020480100201001002064
:101860002801002040010020040100200C0100207C
:10187000140100201C010020240100202C01002064
:1018800034010020380100203C01002044010020E8
:101890004B4F3A204E6F2050494420747970652098
:1018A00073656C656374656420284830206F72200E
:1018B0004831206F7220483229200D0A00000000B4
:1018C0004F4B3A20535F50494420503D25302E3233
:1018D0006620493D25302E326620443D25302E328B
:1018E00066200D0A000000004F4B3A20415F50492E
:1018F0004420503D25302E326620493D25302E3281
:101900006620443D25302E3266200D0A000000007E
:101910004F4B3A20445F50494420503D25302E32F1
:101920006620493D25302E326620443D25302E323A
:1019300066200D0A00000000F0B5204F204C214D1C
:101940003B788DB04BB9204B93ED000A1F4B84EDD3
:10195000000A93ED000A85ED000A002312E0C65C40
:10196000412E08D0442E0CD101EB830696ED000ADF
:1019700084ED000A05E001EB830696ED000A85ED93
:10198000000A5B1C9342EADB2868FEF79CFD0546D3
:101990000E462068FEF797FD41EC100BCDE900568E
:1019A00053EC102B0AA102A803F0AEFD02A803F02D
:1019B000A7F9012038700DB0F0BD0000B200002082
:1019C000BC000020C4000020B8000020C00000209F
:1019D0004F4B3A204D393220546963732F4D4D20BF
:1019E000533D25302E32662053706163696E675710
:1019F0006865656C733D25302E32660D0A00000067
:101A000070B5002315468AB05C1E1A4617E0C65C06
:101A1000482E02D0532E11D108E001EB830494ED3F
:101A2000000ABDEEC00A10EE104A07E001EB830287
:101A300092ED000ABDEEC00A10EE102A5B1CAB420C
:101A4000E5DB00230C484FF08041012C09D064B144
:101A50000AA1684603F058FD684603F051F90AB040
:101A600070BD03704A630DA102E003708A6310A188
:101A7000684603F049FDEFE7B40000204B4F3A20E1
:101A800053656C656374206120746F6F6C284830F7
:101A9000206F72204831290D0A2000004F4B3A2058
:101AA00050574D20483120532564200D0A00000076
:101AB0004F4B3A2050574D20483020532564200D7D
:101AC0000A0000002DE9F04F2DED088B91B0FD4884
:101AD000426ADFF8F4B3FD495846ABF802200968C2
:101AE000ABF80410BBF80630FB4CD31A1EB200EE64
:101AF000106AF74BB8EEC00A93ED001AF54B20EED2
:101B0000010AD3ED000AC36820EE200A04EB830427
:101B100084ED000A04890C1B25B200EE105AEF4C2C
:101B2000B8EEC00A04EB83045B1C20EE010A20EE31
:101B3000200A84ED000AC82493FBF4F704FB173352
:101B4000C360C280E648ABF8081000240178002981
:101B50005AD00470E34890ED000AE34880ED000A93
:101B6000E2480188E2480180E248E34900880880B1
:101B7000E248E34900880880E2480188E2480180A1
:101B8000E248E34900880880E248E3490088088089
:101B9000E24890ED000AE24880ED000AE14890ED4D
:101BA000000AE14880ED000AE04890ED000AE048B4
:101BB00080ED000ADF4890ED000ADF4880ED000A62
:101BC000DE4890ED000ADE4880ED000ADD4890ED29
:101BD000000ADD4880ED000ADC4890ED000ADC4890
:101BE00080ED000ADB4890ED000ADB4880ED000A3A
:101BF000DA4890ED000ADA4880ED000AD94890ED05
:101C0000000AD94880ED000AD848DFF86CA3D84B09
:101C10000778D84A9AF800109FEDD89ADFF86093B9
:101C2000012F46D10470D748DFF8ACC2AB4F90ED1E
:101C3000000AD54880ED000AD44890ED000AD44847
:101C400083ED000A90ED000AD24882ED000A90ED83
:101C5000000AD14880ED000AD04890ED000AD04833
:101C600080ED000ACF4890ED000ACF4880ED000AD1
:101C7000CE4890ED000ACE4880ED000ACD4890EDA8
:101C8000000ACD4880ED000A89F800108BED049A17
:101C90009FEDCA0A8BF80040002000BF0CEB8008C3
:101CA00088ED000A07EB8008401C88ED000AC82870
:101CB000F4DBB3480078814205D0B14F8BF8004087
:101CC00039708BED049ABE4893ED000AD0ED000AFE
:101CD000BC4830EE600AD0ED000ABDEEC00A10EE3E
:101CE000108A92ED000A08FB08F030EE600ABDEEA3
:101CF000C00A10EE107A07FB0700FEF7D3FB41EC99
:101D0000100B03F065FF51EC100BFEF7EFFB059095
:101D1000AD480068FEF7D7FB41EC180B4046FEF7D4
:101D2000C1FB41EC1A0B3846FEF7BCFB41EC100B33
:101D3000B0EE4A1AF0EE6A1A03F07EFD53EC182B4F
:101D400051EC100BFEF736FBFEF7D0FB08EE100A45
:101D50009E489FED9F0A9F4902E000BF38EE408AEF
:101D600018EE102A8242F9DC02E000BF38EE008A49
:101D700018EE102A8A42F9D818EE102A964B9FEDD9
:101D800097AA9A4204DC18EE102A954B9A420BD976
:101D9000DDED050A38EE0A8AF1EE600ACDED050A9E
:101DA00002E000BF38EE408A18EE102A8242F9DCC9
:101DB00002E000BF38EE008A18EE100A8842F9D817
:101DC00018EE100AFEF77FFB41EC100B03F02CFE1F
:101DD00003F08EFEB0EE40BAF0EE60BA0598FEF762
:101DE00072FB53EC1B2BFEF7EBFAFEF77FFB00EECA
:101DF000100A3D488DED050AB0EEC00AD0ED000A8C
:101E00007848DFED79AAB4EEE00AF1EE10FA58D284
:101E10007649D1ED000AB4EEE00AF1EE10FA02D3F1
:101E20000178012937D10121017055488DED059ABE
:101E3000007803282FD19BF8000060BB624890ED2A
:101E4000000A60EE2A0A80EE8A0A10EE100AFEF7F7
:101E50003AFB82465B4888460068FEF734FB07463B
:101E6000574889460068FEF72EFB41EC100B60488E
:101E700053EC102B5FA10088CDE903808DE880062C
:101E800007A803F041FB07A802F03AFF01208BF8F6
:101E90000000394804709FED600A06A905A828EEE5
:101EA000000A8DED060AFEF7B7FE9DED060A02F068
:101EB00085FBF0EE402A9DED050A02F0BDFB0C48C3
:101EC000ACE0F0E0000001400400002024040040E9
:101ED000B8000020F4000020C8010020E804002021
:101EE000B5000020CC000020C8000020D600002053
:101EF000D4000020DA000020D8000020DE000020FE
:101F0000DC000020E2000020E0000020E6000020CD
:101F1000E4000020EA000020E8000020F00000209B
:101F2000EC00002008010020040100201001002026
:101F30000C010020180100201401002020010020C5
:101F40001C01002028010020240100203001002075
:101F50002C01002038010020340100204001002025
:101F60003C0100204801002044010020B300002073
:101F700074000020780000204D01002000000000C7
:101F80004C0100207C000020700000208000002018
:101F90008400002094000020900000208C0000208D
:101FA000880000209C00002098000020A400002051
:101FB000A0000020AC000020A80000200000344257
:101FC0005C0000206000002058000020560E4940B0
:101FD000560EC940560E49C06744F13F560E49405F
:101FE0006744F1BFF900002000003443D000002016
:101FF0004E0100204D30205825302E3266205925C4
:10200000302E3266204125302E3266205430205347
:1020100025640D0A000000009C306542B0F9000004
:1020200000EE900AF8EEE00AB4EEE00AF1EE10FAE3
:1020300009DC404200EE900AF8EEE00AB4EEE00A55
:10204000F1EE10FA03D200EE100AB8EEC00ABE4854
:10205000B0F9000000EE900AF8EEE00AF4EEE02A93
:10206000F1EE10FA09DC404200EE900AF8EEE00AC8
:10207000F4EEE02AF1EE10FA03D200EE900AF8EE48
:10208000E02ADFF8C892B0EE498A99F80020F0EE15
:10209000489A82B3012A28D0AD48AE49022A05D019
:1020A000032A53D128E0AC490C70F3E6AB4A00EEAA
:1020B000906A92ED000AB8EEE01A80ED000AA84896
:1020C000D0ED002AA748C1ED002AD0ED000AA648AD
:1020D00061EE201A90ED001A01EEC10A01EE905A4D
:1020E000F8EEE11A61EEA00A24E0A04890ED008A23
:1020F0009F48D0ED009A29E072EE800A70EE622AC5
:1021000000EE106AC0ED000A9648C1ED002AB8EE54
:10211000C00AD0ED001A944820EE212AB0EE600AE1
:1021200000EE905A90ED001AF8EEE00A02EE410A35
:1021300060EEA10A40EEC12A02F0FAFAB0EE408A3F
:10214000B0EE620A02F0B6FAF0EE409A9BED040A95
:10215000F7EE000A844830EE200A8BED040A90ED79
:10216000001ADFED841A8448C1EE210A90ED001AAE
:1021700060EE810AF4EEC00AF1EE10FA2FD899F859
:10218000000050B37D4890ED000A60EE2A0A80EE10
:102190008A0A10EE100AFEF796F907467848884634
:1021A0000068FEF790F9054676480E460068FEF78F
:1021B0008AF941EC100B744853EC102B73A1008882
:1021C000CDE903808DE8E00007A803F09DF907A89A
:1021D00002F096FD01208BF8000075480470F0EEC7
:1021E000488A18EE901A7348B0EE698ADFED720AD9
:1021F000724A9FED730A814202DDF0EE608A05E0CB
:1022000018EE901A914201D9F0EE408A18EE101A99
:10221000814202DDB0EE608A05E018EE100A9042BD
:1022200001D9B0EE408AF5EEC08A664DF1EE10FAA3
:102230004FF4805101DD002200E00122284600F029
:1022400051FEB5EEC08A4FF40061F1EE10FA01DDE7
:10225000002200E00122284600F044FEB0EEE80A29
:102260004FF08040BDEEC00A10EE101A8163B0EE50
:10227000C80ABDEEC00A10EE101AC16399F800003A
:1022800003285BD19BF80000002857D14E498DED03
:10229000009A8DED019A01F5487200BF01EB8003B1
:1022A000DDED000A93ED000A02EB8003401CB0EE66
:1022B000C00AC82830EE200A8DED000A93ED000A0E
:1022C000DDED010AB0EEC00A30EE200A8DED010A04
:1022D000E4DB3E480099814230DA10EE101A814268
:1022E0002CDA264890ED000A60EE2A0A80EE8A0A6F
:1022F00010EE100AFEF7E7F8074621488846006806
:10230000FEF7E1F805461F480E460068FEF7DBF8C9
:1023100041EC100B1C4853EC102B2DA10088CDE98B
:1023200003808DE8E00007A803F0EEF807A802F0AC
:10233000E7FC01208BF800001D48047011B0BDECD3
:10234000088BBDE8F08F0000E00000204C01002069
:10235000FC00002000010020F80000208800002080
:1023600090000020B8000020F40000209800002019
:10237000A000002000007A44A8000020580000209F
:10238000600000205C0000204E0100204D302058ED
:1023900025302E3266205925302E326620412530D8
:1023A0002E3266205431205325640D0A00000000AF
:1023B0004D0100200040034500400345004003C597
:1023C000004003C500000240C80100200000C843CF
:1023D0004D30205825302E3266205925302E326659
:1023E000204125302E3266205432205325640D0AB8
:1023F00000000000014800F03BBB0000101200206C
:10240000014800F035BB0000B0170020014800F083
:102410002FBB000050170020014800F029BB00002E
:1024200070120020014800F023BB000010180020AB
:1024300001681823CAB2103AB2FBF3F2054B6FF3EE
:102440000901032A9B5CC36500D9091D8165084603
:10245000704700006C70000810B5014600208B69C1
:102460008A6A4FF0C07453B1B3F5005F15D072B1F2
:10247000012A0CD0022A0AD0032A09D104E01AB199
:10248000012A06D0022A03D1C96AC90100D5012058
:1024900010BDC96AA142FAD010BD002AF7D0012AA6
:1024A000F2D0022AF3D0032AF3D010BD30B504686D
:1024B000256825F480252560046863608368402BC7
:1024C000036803D099600068C26030BD9A600068FC
:1024D000C16030BD704770477047000078B5002478
:1024E000009490F83C20012A19D0012280F83C2069
:1024F0000A6807230568092A13D9EE680A3A02EB2D
:10250000420293409E43EE600B788A680A3B03EBDD
:1025100043039A400368DD682A43DA6010E0022032
:1025200078BD2E6902EB420293409E432E610B78E8
:102530008A6803EB43039A4003681D692A431A61C2
:102540004A681F23072A13D205686E6B521E02EBDE
:10255000820293409E436E630B790A885B1E92B29F
:1025600003EB83039A4003685D6B2A435A6327E0B9
:1025700005680D2A12D22E6BD21F02EB8202934005
:102580009E432E630B790A88DB1F92B203EB830311
:102590009A4003681D6B2A431A6311E0EE6A0D3AF4
:1025A00002EB820293409E43EE620B790A880D3B58
:1025B00092B203EB83039A400368DD6A2A43DA622E
:1025C000164B0568144A9D4206D10D68122D03D1A1
:1025D000556845F48005556005689D4218D10B6823
:1025E000102B01D0112B13D1536843F40003536017
:1025F000096810290CD10A490A4A0968B1FBF2F1AD
:1026000001EB8101490000E0491E00910029FBD146
:1026100080F83C40002078BD0023014000200140AC
:102620005C01002040420F0002490D2201F5976035
:1026300000F044B9280B00207047704770B504467D
:10264000006801684268C1F34001C2F3401251B30F
:102650004AB3216CC90603D4216C41F40071216492
:10266000816811F0405F17D1A169A9B9C16A11F45D
:10267000700F02D0816849050ED4416821F0200115
:102680004160206C20F480702064206CC00403D46E
:10269000206C40F0010020642046FFF7C5FF216850
:1026A0006FF012000860206801684268C1F3800181
:1026B000C2F3C01289B382B3216CC90603D4216C62
:1026C00041F400512164816811F4401F1ED1816BD7
:1026D00011F4401F02D08168490517D441684905AB
:1026E00014D4816811F0405F10D1A16971B94168BB
:1026F00021F080014160206C20F480502064206C27
:10270000C00503D4206C40F0010020642046FFF790
:10271000E3FE21686FF00C000860206801684268E1
:1027200011F0010FC2F380120ED06AB10068C00729
:102730000AD0206C40F480302064204600F046F837
:1027400021686FF001000860206801684268C1F3E9
:102750004011C2F3806200290DD0002A0BD0616CB9
:1027600041F0020161646FF0200505602046FFF72B
:1027700064FF2068056070BD70B504004FF000056F
:1027800003D0206C002610B107E0012070BD666404
:1027900084F83C60204600F01BF8206CC00610D482
:1027A000206C20F4885040F0020020642046FEF7A0
:1027B00035F96664206C20F0020040F001002064CE
:1027C00000E0012584F83C60284670BD7047000099
:1027D00070B586B0064614216846FDF72FFD3049D6
:1027E0003068884259D12F480025016841F4807132
:1027F000016000682B4900F4807014390590086866
:1028000040F004000860086800F0040005900868C3
:1028100040F001000860086800F0010005900868B9
:1028200040F0020008600868032400F002000590F0
:102830003F208DE8310069461B4800F08FFAF320F5
:102840008DE831006946194800F088FA009469461D
:102850001748CDE9014500F081FA174C1548C4E945
:1028600000050015A560C4E9035080006061800088
:10287000A0618011C4E907052046656200F0C8F92F
:1028800008B1FFF728FEB463002211461220A663A8
:1028900000F09CFB122000F08DFB06B070BD000024
:1028A000002001404438024000080240000002407D
:1028B000000402401064024050170020F8B50E4694
:1028C00000210446009190F83C00012807D0012027
:1028D00084F83C0020688368DB0702D011E0022006
:1028E000F8BD836843F0010383602D482D4B0068D9
:1028F000B0FBF3F000EB400000E0401E0090002829
:10290000FBD120688368DB0748D0236C40F2016567
:10291000AB4343F4807323644068400505D5206CC5
:1029200020F4005040F480502064206CC00404D592
:10293000606C20F00600606400E0616484F83C1084
:10294000A16B1A48184DC863A16B19480864A16BA4
:102950001848C86421686FF0220008602068416848
:1029600041F0806141602068816841F4807181603C
:102970002168134632464C31A06B00F0B3F9686809
:10298000C006206802D00C49884207D1816811F046
:10299000405F03D1816841F0804181600020F8BD33
:1029A0005C01002040420F00002301408F09000815
:1029B000070A0008F1090008002001402DE9F04154
:1029C0000446876D00F094FA064694F83500002519
:1029D000022806D08020606584F834500120BDE8CC
:1029E000F0812068016821F01601016020684169CA
:1029F00021F080014161206C08B9A06C20B12068F1
:102A0000016821F0080101602068016821F00101DE
:102A100001600BE000F06CFA801B052806D920202D
:102A2000606504F8345F03206070D8E720680068B0
:102A3000C007EFD194F85C103F208840B86004F8DC
:102A4000345F012060700020C9E790F8351002293A
:102A500003D08021416501207047052180F83510A1
:102A60000068016821F0010101600020704700004A
:102A70002DE9F84304464FF00009CDF80090634873
:102A80004FF41651A56D0068B0FBF1F72E6894F86D
:102A90005C10082000FA01F131420FD021680A6869
:102AA00052070BD50A6822F004020A6094F85C1001
:102AB0008840A860606D40F00100606594F85C108B
:102AC0004FF0010808FA01F0304208D02168496946
:102AD000090604D5A860606D40F00200606594F8B6
:102AE0005C1004208840304208D0216809688907BA
:102AF00004D5A860606D40F00400606594F85C1037
:102B000010208840304218D021680968090714D580
:102B1000A86020680168490304D50068000308D54F
:102B2000A16C07E00168C90503D4016821F0080120
:102B30000160216C09B12046884794F85C10202080
:102B40008840304231D021680968C9062DD5A86077
:102B500094F8350005282068016806D0490347D558
:102B6000006800031DD4616C1CE021F016010160B7
:102B70002068416921F080014161206C08B9A06C96
:102B800020B12068016821F00801016094F85C1010
:102B90003F208840A86084F8349084F83580216D07
:102BA0001FE0E16B09B120468847606D00282BD0FB
:102BB000606DC00714D0052084F8350020680168D6
:102BC00021F0010101600098401C0090B84203D838
:102BD00020680068C007F6D184F8349084F8358006
:102BE000E16C002910D001B02046BDE8F043084751
:102BF0000168C905D5D4016821F01001016084F88D
:102C0000349084F83580CCE7BDE8F8835C0100207F
:102C10002DE9F041044600F06BF906465CB1002551
:102C200084F83450022084F835002068016821F0CF
:102C3000010101600DE00120BDE8F08100F058F9CC
:102C4000801B052805D920206065032084F8350005
:102C5000F2E720680068C007F0D1226811682048B8
:102C60000140D4E901031843D4E903363343184340
:102C700063691843A3691843E3691843236A184337
:102C80000843616A042903D1D4E90B1319430843AB
:102C9000106020684069666A20F0070130460E43E4
:102CA000012704280CD1A06A0643E06A40B12046FF
:102CB000FFF7D2FB20B14020606584F83570BAE799
:102CC000206846612046FFF7B3FB94F85C203F2163
:102CD00091408160656584F835700020ACE70000A4
:102CE0003F8010F02DE9F0410446866D90F83400E5
:102CF000002501280DD0012084F8340094F83570A7
:102D00000020012F07D084F8340002252846BDE8B2
:102D1000F0810220FBE7022784F8357060652046C9
:102D2000FFF7C4FB94F85C103F208840B060206837
:102D3000016841F0160101602068416941F080019D
:102D40004161206C20B12068016841F008010160F8
:102D50002068016841F001010160D7E72DE9F84FD3
:102D6000DFF860B100224FF001084FF0030A4FF086
:102D70000F090BF1040E00BF0B6808FA02F42340A0
:102D8000A3426ED14D68022D01D0122D0ED1D5086F
:102D900000EB850CDCF820505607F70E09FA07F611
:102DA000B5430E69BE402E43CCF82060066855003E
:102DB0000F790AFA05FC07F0030726EA0C06AF4074
:102DC000374307604E68012E05D0022E03D0112E26
:102DD00001D0122E0ED18668CF6826EA0C06AF40CD
:102DE000374387604668A6430C79C4F300149440C7
:102DF00034434460C6688C6826EA0C06AC40344311
:102E0000C4604C68E40056D52F4C256845F48045D5
:102E10002560246822F0030504F4804400942B4CC0
:102E20002E19D6F8084895072F0F09FA07F5AC4375
:102E3000274DA84201D1002515E0264DA84201D119
:102E4000012510E0244DA84201D102250BE0234DBD
:102E5000A84201D1032506E0214DA84202D1042554
:102E600001E028E00725BD402543C6F80858DBF8F7
:102E700000405D464E689C43F60300D51C432C6021
:102E8000DEF8004075464E689C43B60300D51C43EF
:102E90002C600C4D08352C684E689C43F60200D51A
:102EA0001C432C60074D0C352C684E689C43B602C1
:102EB00000D51C432C60521C102AFFF45DAFBDE806
:102EC000F88F0000003C01404438024000300140CF
:102ED000000002400004024000080240000C0240D2
:102EE000001002400AB1816170470904FBE700004D
:102EF0000148806870470000500100200248816846
:102F00000278114481607047500100200B4810B5D1
:102F1000016841F400710160016841F48061016061
:102F2000016841F480710160032000F06FF8002017
:102F300000F006F800F024F8002010BD003C02402C
:102F400070B50D4D04464FF47A712878B1FBF0F05E
:102F50000A490968B1FBF0F000F0E0FA48B9102C1A
:102F600007D200222146501E00F030F800206C608D
:102F700070BD012070BD0000500100205C010020E8
:102F80000B4882B0016841F480410160006800F4A0
:102F9000804000900648001F016841F080510160A8
:102FA000006800F080500090072002B000F02EB8BA
:102FB0004438024000F01F02012191404009800086
:102FC00000F1E020C0F8001170470000F0B40E4B93
:102FD0001B680C46C3F30223C3F10705042D00D977
:102FE0000425191D072901D2002300E0DB1E01265C
:102FF00006FA05F1491E214099409E40761E164072
:103000003143F0BC01F0CABA0CED00E0064900F013
:10301000070208684FF6FF03184040EA0220034AFF
:1030200010430860704700000CED00E00000FA0556
:103030002DE9F0470E46050065D0DFF81481D8F879
:103040000000F7B200F00F00B04207D288F800701D
:10305000D8F8000000F00F00B04254D128683D4C71
:10306000810712D5400703D5206840F4E050206066
:103070002878000703D5206840F46040206020686D
:10308000A96820F0F000084320602878C0072DD000
:10309000304968680839012812D0022813D0032863
:1030A00011D00968890700292DDA216821F0030170
:1030B00001432160FFF71CFF814641F2883A0EE090
:1030C00009688903EFE709688901ECE7FFF710FF5A
:1030D000A0EB0901514502D90320BDE8F087206823
:1030E000696800F00C00B0EB810FEFD1D8F8001048
:1030F000404601F00F01B14207D90770006800F0A7
:103100000F00B04201D00120E7E72878400705D53D
:103110002068E96820F4E050084320602878000720
:1031200006D52068296920F4604040EAC10020608B
:1031300000F036F82168084AC1F30311515CC84019
:10314000064908600020FFF7FBFE0020C5E70000ED
:10315000003C024008380240747000085C01002006
:103160000448054900680968044AC1F38221515C9A
:10317000C84070475C010020083802408470000895
:103180000448054900680968044AC1F34231515CAA
:10319000C84070475C010020083802408470000875
:1031A000154810B5006810F00C02144813D04110F7
:1031B000042A0FD0082A0ED10F4C241F226823683E
:1031C00002F03F025B0207D52068C0F38810A0FB25
:1031D000010106E0084610BD2168C1F38811A1FB7A
:1031E00000010023FCF7F2FF2168C1F30141491CF3
:1031F0004900B0FBF1F010BD083802400024F40093
:103200002DE9F84F050076D02878DFF8F8B2BE4CEB
:10321000C00749D0DBF800105846C1F381010129ED
:1032200008D00068C0F3810002280AD1201D006880
:10323000400206D52068800336D568680028E2D0B1
:1032400032E06868B0F5803F10D0B0F5A02F20685C
:1032500010D020F480302060206820F4802020608E
:103260006868A0B1FFF744FE06460CE0206840F411
:103270008030F4E740F480202060F7E7FFF738FE65
:10328000801B642873D820688003F7D50CE0FFF713
:103290002FFE064605E000BFFFF72AFE801B6428CC
:1032A000F0D820688003F7D42878DFF860828007A0
:1032B0004FF000093ED5DBF80010584611F00C0F16
:1032C00009D00068C0F3810002280BD18D48001F8F
:1032D0000068400206D42068800715D5E8680128F8
:1032E00009D111E0E868B8B10120C8F80000FFF783
:1032F000FFFD064605E002E1FFF7FAFD801B02280C
:10330000C0D820688007F7D52068296920F0F80028
:1033100040EAC10020600DE0C8F80090FFF7E8FD2A
:10332000064604E0FFF7E4FD801B02281FD8206852
:103330008007F7D42878000722D5724E744869694F
:103340006C3671B101210160FFF7D2FD074604E040
:10335000FFF7CEFDC01B022809D830688007F7D5DB
:103360000EE0C0F80090FFF7C3FD074605E083E0DC
:10337000FFF7BEFDC01B02287ED830688007F7D457
:103380002878400768D5DFF87CA100270AF1380AC1
:10339000DAF80000C0000BD4DAF8001041F08051D8
:1033A000CAF80010DAF80000012700F08050009001
:1033B000584E3068C00510D4306840F480703060DA
:1033C000FFF796FD009005E0FFF792FD0099401A87
:1033D000022851D83068C005F6D54A4EA86868362C
:1033E00001280FD00528306810D020F0010030608F
:1033F000306820F004003060A868B8B1FFF778FDAD
:1034000000900FE0306840F00100F4E740F0040065
:103410003060F7E7FFF76CFD0099411A41F2883000
:10342000814264D830688007F4D50EE0FFF760FD74
:10343000009007E0FFF75CFD0099411A41F28830E7
:10344000814254D830688007F4D42FB1DAF80010E4
:1034500021F08051CAF80010A869C0B3DBF8001051
:10346000C1F3810102294AD00228484607D0C8F892
:103470006000FFF73DFD00E039E005463AE04746D1
:10348000C8F86000FFF734FD064604E0FFF730FDA2
:10349000801B02282BD820688001F7D4D5E90701CA
:1034A0000843A96A1C4A490802EB01416A6A41EAD9
:1034B0008211084395F82C1040EA01611148001F61
:1034C000016001203866FFF713FD054605E014E0B2
:1034D000FFF70EFD401B022809D820688001F7D5B0
:1034E0000BE000BFFFF704FD401B022802D90320B8
:1034F000BDE8F88F20688001F4D40020F8E70120AF
:10350000F6E7000008380240003802400000474259
:10351000800E4742007000400000FFFF10B5401EC3
:10352000B0F1807F01D3012010BD4FF0E024606135
:103530000F21601701F032F80020A0610720206100
:10354000002010BD7047704730B590F83820012A30
:1035500020D0012280F83820022380F83930036817
:103560005C6824F070045C6003685C680D682C4340
:103570005C6003689C6824F080049C6003689C681D
:1035800049680C439C6080F83920002180F838108D
:10359000084630BD022030BD10B5040003D094F8B9
:1035A000390010B107E0012010BD002084F8380078
:1035B000204600F00DF8022084F83900211D206813
:1035C00001F072FA012084F83900002010BD0000DB
:1035D00008B50168B1F1804F0CD01F4A1F489142D5
:1035E00012D1016841F480310160006800F480303C
:1035F000009008BD1948001F016841F001010160F9
:10360000006800F00100F3E7154A91420ED101680D
:1036100041F4003101600068002200F400300090A5
:1036200011461920FFF7D2FC192010E00D4A9142F3
:10363000DFD1016841F4802101600068002200F4BC
:103640008020009011461A20FFF7C0FC1A20BDE828
:103650000840FFF7AFBC0000004001404438024082
:1036600000440140004801400168CA6842F001027C
:10367000CA600068016841F00101016000207047E4
:1036800070B5044690F83800012817D0012584F859
:103690003850022084F839002068826822F07702CE
:1036A00022F47F4282600868502837D00DDC202841
:1036B00059D005DC88B3102841D151E0022070BDFB
:1036C000302853D040283AD13FE060282ED07028CF
:1036D0000BD0B0F5805F03D0B0F5005F2FD110E0C4
:1036E0002068816821F0070115E0CB68D1E901214C
:1036F000206801F02CFA2168886840F07700886023
:103700001DE0CB68D1E90121206801F020FA206892
:10371000816841F48041816011E01EE0CA68496817
:10372000206801F0C9FA5021206806E0CA6849689B
:10373000206801F0D2FA6021206801F012FA84F8C2
:103740003950002084F8380070BDCA684968206884
:1037500001F0B2FA40212068EFE700212068ECE791
:1037600010212068E9E720212068E6E73021206861
:10377000E3E72DE9F0410D46040003D094F8390049
:1037800018B108E00120BDE8F081002084F838007D
:10379000204600F039F8022084F83900206881685A
:1037A00021F007018160211D206801F07DF9226868
:1037B00090689169166A2B68AF69034340F2033041
:1037C000814341EA0721A868EF6908434FF6FC41AD
:1037D0008843E96840EA0720014328692F6A00010D
:1037E00040EA0730084369686D6926F0AA0646EA90
:1037F00005152943936022689061206801620120C9
:1038000084F839000020BEE730B587B004461421A3
:103810006846FCF713FD2B4D21682B48022301223B
:103820000324A9422DD1284914310D6845F0010522
:103830000D60096801F001010591016841F0010185
:1038400001600068694600F00100059020020090C8
:10385000CDE90132CDE903421C48FFF77FFA00228F
:1038600011461920FFF7B2FB1920FFF7A3FB002236
:1038700011461A20FFF7AAFB1A20FFF79BFB07B09F
:1038800030BD134DA942FAD10F4910310D6845F0F2
:1038900002050D60096801F002010591016841F01F
:1038A000020101600068CDE9022400F002000590E9
:1038B0003020CDE90003694606480493FFF74EFA2D
:1038C000DDE7000000000140303802400000024007
:1038D000000400400004024010B50446006891B1A5
:1038E000042904D00122002101F026F920680122D8
:1038F0005FF0040101F020F92068016841F0010146
:103900000160002010BD01220021F3E7704770B56F
:103910000446006801694FF00005C943890715D4C2
:10392000C168C943890711D4E91E016101202076CD
:10393000206880698007204602D0FFF7E7FF04E097
:1039400000F0EBF8204600F0A1F925762068016927
:10395000C943490717D4C168C943490713D46FF055
:1039600004010161022020762068806910F4407F04
:10397000204602D0FFF7CAFF04E000F0CEF8204650
:1039800000F084F9257620680169C943090716D437
:10399000C168C943090712D46FF00801016104200E
:1039A00020762068C0698007204602D0FFF7AEFF6E
:1039B00004E000F0B2F8204600F068F925762068AF
:1039C0000169C943C90617D4C168C943C90613D4DC
:1039D0006FF010010161082020762068C06910F4A2
:1039E000407F204602D0FFF791FF04E000F095F8F9
:1039F000204600F04BF9257620680169C943C907C4
:103A000008D1C168C943C90704D1891E0161204694
:103A100000F056F920680169C943090609D4C16854
:103A2000C943090605D46FF0800101612046FFF704
:103A300089FD20680169C943490609D4C168C943A1
:103A4000490605D46FF040010161204600F039F9C4
:103A500020680169C94389060BD4C168C943890636
:103A600007D46FF0200101612046BDE87040FFF7E8
:103A70006ABD70BD10B586B0044614216846FCF7D7
:103A8000DDFB2068B0F1804F16D10C4800210268A0
:103A900042F002020260006800F0020005904FF45C
:103AA000816000900220CDE901010120CDE90310E1
:103AB00069460348FFF752F906B010BD303802409E
:103AC0000004024070B5044690F8380001280DD07B
:103AD000012584F83850022084F8390042B1042AC4
:103AE0000AD0082A0CD00C2A11D10DE0022070BD9A
:103AF000206801F03FF80AE0206801F063F806E072
:103B0000206801F08BF802E0206801F0B3F884F837
:103B10003950002084F8380070BD704710B504009B
:103B200003D094F8390010B107E0012010BD002047
:103B300084F83800204600F00CF8022084F83900A0
:103B4000211D206800F0B0FF012084F8390000201A
:103B500010BD704710B504460068012200F0ECFF6C
:103B600007492068884203D1416C41F40041416417
:103B70002068016841F001010160002010BD0000D3
:103B80000000014070B5044690F838000D46012849
:103B90000DD0012684F83860022084F8390042B143
:103BA000042A18D0082A2AD00C2A4DD139E0022044
:103BB00070BD206800F0DEFF2068816941F00801D7
:103BC00081612068816921F0040181612068816937
:103BD0002A69114311E0206800F0F4FF2068816930
:103BE00041F4006181612068816921F48061816113
:103BF000206881692A6941EA0221816124E0206804
:103C000001F00CF82068C16941F00801C161206829
:103C1000C16921F00401C1612068C1692A691143A9
:103C200011E0206801F026F82068C16941F40061C4
:103C3000C1612068C16921F48061C1612068C169E6
:103C40002A6941EA0221C16184F83960002084F8C0
:103C5000380070BD10B5040003D094F8390010B1DD
:103C600007E0012010BD002084F83800204600F055
:103C70000CF8022084F83900211D206800F014FFA0
:103C8000012084F83900002010BD70477047000003
:103C900010B504460068012200F04EFF0749206875
:103CA000884203D1416C41F40041416420680168BD
:103CB00041F001010160002010BD00000000014042
:103CC0007047704710B504460068416994F8392080
:103CD000C1F3C011212A0BD151B1416921F08001FA
:103CE0004161206B08B1FEF769FE204601F0D8F86B
:103CF0002068416994F83A20C1F38011222A0BD13F
:103D000051B1416921F040014161606B08B1FEF79A
:103D100055FE204601F0B6F8002010BD70470000A7
:103D200070B5026804461068D168536910F00F0F2F
:103D300050D003F0010501F4907635435DD0C20701
:103D400005D0CA0503D5E26B42F00102E2634207E7
:103D500005D5DA0703D0E26B42F00202E263820784
:103D600005D5DA0703D0E26B42F00402E2630207F2
:103D700005D5DA0703D0E26B42F00802E263E26B9A
:103D8000002A33D0800604D5880602D5204601F0EB
:103D900090F820684069E16BC0F38010090700D4F7
:103DA00028B3204601F06EF82068416949061AD50B
:103DB000416921F040014161606BA0B11B4901657F
:103DC000606BFEF742FE002810D0606B016DBDE80D
:103DD00070400847830610D58B060ED52046BDE8F7
:103DE000704001F066B82046FFF798FF70BD20468E
:103DF000FFF794FF0020E06370BD030606D50B06B5
:103E000004D52046BDE8704001F0F0B94006F3D576
:103E10004806F1D5D168204621F04001D16020212B
:103E200084F8391000F094F970BD0000AD4D000821
:103E300070B5040004D094F83900002510B106E0F4
:103E4000012070BD84F83850204600F023F824206B
:103E500084F839002068C16821F40051C16020460F
:103E600001F06EF82068016921F490410161206839
:103E7000416921F02A0141612068C16841F4005183
:103E8000C160E563202084F8390084F83A000020FE
:103E900070BD00002DE9F04387B004461421684648
:103EA000FCF7CCF95948DFF860C1276802210122EC
:103EB0000323002506154FF0400967454ED1534FA7
:103EC0001037D7F800C04CF4003CC7F800C03F687A
:103ED00007F400370597076847F001070760006897
:103EE00000F0010005900C208DE80F0007200490E1
:103EF00069464748FEF732FF474F46484FF0006893
:103F00003860C7E90185C7E9035680157D61C7E9B7
:103F100006503D6238467D62FEF77AFE08B1FEF734
:103F2000DAFA6763BC633D4F3A48C7E903567D61DF
:103F3000BD61FD613D6218307D6287E8010338464E
:103F4000FEF766FE08B1FEF7C6FA276300221146A7
:103F50002620BC63FFF73AF8262050E0DFF8C0C007
:103F600067454ED1294F1437D7F800C04CF0200CCC
:103F7000C7F800C03F6807F020070597076847F0BB
:103F800004070760006800F004000590C0208DE879
:103F90000F000820049069462248FEF7DFFE234FF9
:103FA00021484FF020683860C7E90185C7E903560A
:103FB0007D61BD61FD613D6238467D62FEF728FE90
:103FC00008B1FEF788FA6763BC63194F1648C7E962
:103FD00003567D61BD61FD613D6278307D6287E899
:103FE00001033846FEF714FE08B1FEF774FA2763A2
:103FF000002211464720BC63FEF7E8FF4720FEF78A
:10400000D9FF07B0BDE8F0830044004030380240DB
:10401000000002408860024010120020B01700200B
:104020000014014000080240286402407012002081
:1040300010180020F8B5044690F83A0020283CD12A
:10404000C1B3BAB394F83800012836D0012084F8FF
:104050003800A162A2850025E563222084F83A0099
:10406000636B1748D863636B16481864636B164814
:10407000D864606B134605650846666B2168024686
:104080003046091DFEF72EFE206801684168009148
:1040900084F83850C16841F48071C160206841697A
:1040A00041F0010141612068416941F040014161F5
:1040B0000020F8BDFFE70120FBE70220F9E7000040
:1040C000074E0008434E0008BD4D0008704770477A
:1040D00070B5044690F83900202830D169B362B336
:1040E00094F8380001282AD0012084F83800216291
:1040F000A284E2840025E563212084F83900236B43
:104100001048D863236B10481864236B0F48D86499
:10411000206B134605652668206B321DFEF7E2FD15
:1041200021686FF04000086084F8385020684169C9
:1041300041F080014161002070BD012070BD02206E
:1041400070BD00004D4E00087B4E0008BD4D0008BC
:104150002DE9F041074600682349002688421ED118
:10416000224C23492078401C00F007002070097879
:10417000884214D01F4991F8391020290FD11E4DC3
:1041800005EB8010FCF765F882B2207805EB801112
:104190001848FFF79DFF207805EB8010067017493F
:1041A000386888421ED1164C16492078401C00F011
:1041B000070020700978884214D0134991F839100B
:1041C00020290FD1114D05EB8010FCF742F882B287
:1041D000207805EB80110C48FFF77AFF207805EB7B
:1041E00080100670BDE8F081001401404B000020F3
:1041F0004C000020D0110020D012002000440040CC
:104200004E0000204F0000209011002010150020CB
:104210007047FEE72DE9FF5F00243E4800940194BB
:1042200002943B49039401604FF48031C0E90114CA
:10423000846139490462C0E90A140D260125C6616A
:10424000C0E9034505634461FEF796FACDE90045F0
:10425000694630480294FEF741F90220CDE900504A
:1042600069462C48FEF73AF904250320CDE90050B1
:1042700069462848FEF732F9082469462548CDE901
:104280000045FEF72BF94FF00B0B0525CDE900B5E6
:1042900069462048FEF722F90A274FF00609CDE9C2
:1042A000007969461B48FEF719F94FF00C0A4FF0E8
:1042B0000708CDE900A869461648FEF70FF9CDE9D1
:1042C000006469461348FEF709F90924CDE9005452
:1042D00069461048FEF702F9CDE9009769460D4896
:1042E000FEF7FCF8CDE9008B69460A48FEF7F6F8C0
:1042F000CDE9004A69460748FEF7F0F80E20CDE9FF
:10430000000669460348FEF7E9F8BDE8FF9F000094
:1043100000200140E00F00200100000F1D4808B5FB
:10432000016841F480010160016801F4800100919D
:10433000016841F4001101600068002200F40010DF
:10434000009011461020FEF741FE1020FEF732FECD
:10435000002211461120FEF739FE1120FEF72AFE39
:10436000002211463820FEF731FE3820FEF722FEEB
:10437000002211463920FEF729FE3920FEF71AFEE9
:10438000002211464520FEF721FEBDE808404520E9
:10439000FEF710BE3038024070B586B01421684672
:1043A000FBF74CFF24480024016841F00401016040
:1043B000016801F004010591016841F0800101608C
:1043C000016801F080010591016841F0010101607F
:1043D000016801F001010591016841F002010160ED
:1043E0000068164E00F00200059000224FF4E051E4
:1043F0003046FEF777FD4FF4005000901048CDE9AD
:10440000010469460F48FEF7A9FC3015009001250C
:10441000CDE90154694630460394FEF79FFC4FF402
:10442000C050CDE900050320CDE902406946304681
:10443000FEF794FC06B070BD303802400000024028
:10444000000021100008024010B58CB024216846FD
:10445000FBF7F4FE00241348099411490A94C0E9BB
:1044600000144FF6FF71C0E902410461446103206A
:10447000CDE900040120CDE902040494CDE9054012
:104480000794694607480894FFF773F92020CDE99F
:10449000090409A90348FFF757F80CB010BD000044
:1044A000000001402810002010B58EB000240794B1
:1044B000089409940A940B941C2168460C94FBF709
:1044C000BDFE1D484FF08041C0E9001420218160ED
:1044D00040F63401C0E90314FFF75EF84FF4805052
:1044E000079007A91448FFF7CBF81348FFF7B2FB72
:1044F0001148FFF713FB0B940BA90F480C94FFF71F
:1045000023F86020CDE900040294042269460A4899
:104510000494FFF737FB082269460748FFF732FB90
:10452000302000900C2269460348FFF7CBFA02487E
:10453000FFF7A0FA0EB010BD6410002010B58CB0CB
:1045400024216846FBF77AFE00241248099410499A
:104550000A94C0E900144FF6FF71C0E902410461FA
:104560000320CDE900040120CDE902040494CDE943
:1045700005400794694607480894FFF7FAF809943C
:1045800009A904480A94FEF7DFFF0CB010BD000033
:1045900000040040A0100020FEE770470907090E44
:1045A000002806DA00F00F0000F1E02080F8141D6A
:1045B000704700F1E02080F800147047194810B5EA
:1045C00090ED0C1A80ED0C0A1749426B30EE411A3F
:1045D00001EB8203521C83ED000A0A2392FBF3F4E1
:1045E00003FB14224263002001EB8002401CD2ED49
:1045F000001A0A2871EEA00AF6DBB2EE042A0B4874
:10460000C0EE821AD0ED000A094820EE800AD0EDF3
:10461000000A084800EEA10AD0ED000A00EE810A67
:1046200010BD000004000020580800201C010020DC
:10463000240100202C010020194810B590ED0F1A1C
:1046400080ED0F0A1749026C30EE411A01EB82032C
:10465000521C83ED000A0A2392FBF3F403FB14229D
:104660000264002001EB8002401CD2ED001A0A28EF
:1046700071EEA00AF6DBB2EE042A0B48C0EE821AF5
:10468000D0ED000A094820EE800AD0ED000A084863
:1046900000EEA10AD0ED000A00EE810A10BD000074
:1046A0000400002080080020340100203C0100208C
:1046B00044010020194810B590ED091A80ED090A4F
:1046C0001749826A30EE411A01EB8203521C83EDD6
:1046D000000A0A2392FBF3F403FB142282620020F7
:1046E00001EB8002401CD2ED001A0A2871EEA00AEC
:1046F000F6DBB2EE042A0B48C0EE821AD0ED000AB7
:10470000094820EE800AD0ED000A084800EEA10A10
:10471000D0ED000A00EE810A10BD00000400002068
:1047200030080020040100200C01002014010020AA
:10473000194810B590ED061A80ED060A1749C269AE
:1047400030EE411A01EB8203521C83ED000A0A236A
:1047500092FBF3F403FB1422C261002001EB800200
:10476000401CD2ED001A0A2871EEA00AF6DBB2EE68
:10477000042A0B48C0EE821AD0ED000A094820EE48
:10478000800AD0ED000A084800EEA10AD0ED000A28
:1047900000EE810A10BD000004000020080800207F
:1047A000040100200C010020140100207047704714
:1047B0002DE9F0418EB00026664F0B968DF82860EB
:1047C000BFEE000A80468DED0C0A344607F1500515
:1047D0000AE000BF9DED0C0A07EB840080ED000AA3
:1047E0009DF828002855641C0BAB42460CA90AA86A
:1047F00002F0B2FB0028EDD1002C1DD02821684624
:10480000FBF71CFD2878472819D04D2840D04F28A9
:1048100073D0514A51A1684600F076FE684600F018
:104820006FFA00209FED520A07EB800181ED000A2C
:104830002E54401C1428F7DB0EB0BDE8F08197ED34
:10484000000ABDEEC00A10EE100A60B1012811D0B6
:10485000022816D05C28E4D1641E62B2391D681C9F
:10486000FCF70EFCDDE7641E62B2391D681CFCF724
:1048700065FAD6E7641E62B2391D681CFCF708FBB6
:10488000CFE7641E62B2391D681CFCF77DFBC8E7E8
:1048900097ED000ABDEEC00A10EE100A872834D04A
:1048A0000EDC03281BD00F2820D05C2826D07028CF
:1048B000B7D1641E62B2391D681CFCF769FCB0E711
:1048C000C92829D0CA282ED0A0F580702D38A8D1AB
:1048D000641E62B2391D681CFCF7AEFEA1E7641EBF
:1048E00062B2391D681CFCF75FFE9AE7641E62B273
:1048F000391D681CFCF796FC93E71BE0641E62B24E
:10490000391D681CFDF718F88BE7641E62B2391D6B
:10491000681CFCF75DFC84E7641E62B2391D681CEC
:10492000FCF700FD7DE7641E62B2391D681CFCF7D0
:10493000FDFD76E797ED000ABDEEC00A10EE100A05
:1049400001288FD1641E62B2391D681CFDF758F82A
:1049500067E7000064010020A8080020556E72651A
:10496000636F676E697A65642025730D0A00000025
:1049700000000000FEF7C2BA30B593B0302168469F
:10498000FBF75CFC14210CA8FBF758FC1A48002428
:10499000016841F080510160006800F08050119082
:1049A0001648016821F4404141F40041016000686B
:1049B000022500F440401190012003901020009542
:1049C00006950490CDE907404FF4A87009900420A3
:1049D0000A9007200B906846FEF712FC0F20CDE9E5
:1049E0000C05E802CDE90E4002210CA81094FEF758
:1049F0001FFB13B030BD0000403802400070004083
:104A00001048016841F4700101600F48016841F0ED
:104A1000010101600C4A00210832116002680B4B51
:104A20001A400260031D0A4A1A60026822F48022BA
:104A3000026005480C300160024958068039086060
:104A40007047000088ED00E000380240FFFFF6FEEE
:104A50001030002410B50548FEF759FF0448FEF752
:104A600056FFBDE8104000F03FBC000028100020B9
:104A7000541100200A4810B500680069C043C007FF
:104A8000084803D0BDE81040FEF741BFFEF73FFFE6
:104A90000348FEF73CFFBDE81040FDF713B80000E7
:104AA0001811002028100020F0B502681B4B1C4C88
:104AB0009F031C4D1C4E984207D0B84205D0A0421F
:104AC00003D0A84201D0B04204D122F0700C4A6851
:104AD00042EA0C02984210D0B8420ED0A0420CD04C
:104AE000A8420AD0B04208D0104CA04205D0104CC9
:104AF000A04202D00F4CA04203D122F44074CA68F5
:104B0000224302608A68C2620A688262984201D1C6
:104B10000969016301214161F0BD0000000001400D
:104B20000004004000080040000C0040004001402C
:104B3000004401400048014010B50123046A8B4045
:104B40009C430462036A8A401343036210BD10B59C
:104B5000846842EA032224F47F440A4322438260A9
:104B600010BD826822F070020A4342F007018160A2
:104B70007047000030B5026A22F001020262026A48
:104B80004368846924F073050C682C4322F0020505
:104B90008A682A430A4DA8420BD122F00805CA6848
:104BA00023F440732A434D6922F004021D438B69AC
:104BB0002B434360846149684163026230BD000059
:104BC0000000014030B5026A22F010020262026A5F
:104BD000436884690D6824F4E64444EA05248D683A
:104BE00022F0200242EA05120B4DA8420ED1CD68F8
:104BF00022F0800242EA05124D6923F4406343EA41
:104C000085038D6922F0400243EA85034360846195
:104C100049688163026230BD0000014030B5026A1C
:104C200022F480720262036A4268C46923F400734A
:104C300024F073050C682C438D6843EA05230C4D62
:104C4000A8420ED1CD6823F4006343EA05234D69E1
:104C500022F4405242EA05128D6923F4806342EA4D
:104C600005124260C4614968C163036230BD00003F
:104C70000000014030B5026A22F480520262046AE8
:104C80004268C3690D6823F4E64343EA05238D684F
:104C900024F4005444EA0534064DA84204D14D6979
:104CA00022F4804242EA85124260C361496801648D
:104CB000046230BD0000014010B5036A046A24F0AC
:104CC00001040462846924F0F00444EA021423F02D
:104CD0000A020A438461026210BD10B5036A23F020
:104CE000100303628369046A23F4704343EA0232C7
:104CF00024F0A00343EA01118261016210BD0000AB
:104D00002DE9F041224D8046204C2878414604EBA5
:104D10008010FBF7A5FA204E1E4F4146307807EB76
:104D20008010FBF79DFA2878401C00F007002870DF
:104D30003078401C00F007003070184890F83900B7
:104D400020280CD1164D287804EB8010FBF781FA4F
:104D500082B2287804EB80111048FFF7B9F91148A6
:104D600090F8390020280ED10F4C207807EB8010E6
:104D7000FBF76FFA82B2207807EB8011BDE8F041B3
:104D80000848FFF7A5B9BDE8F0810000D012002067
:104D90004C000020101500204F000020D0110020F2
:104DA0004B000020901100204E00002010B5806BB9
:104DB0000021C185C184FEF7B1FF10BD70B5846BC1
:104DC0002068406994F83910C0F3C01000252129EB
:104DD00004D118B1E584204600F062F820684069EB
:104DE00094F83A10C0F38010222904D118B1E58557
:104DF000204600F047F8E06B40F01000E0632046EA
:104E0000FEF78CFF70BD10B50146806B096809681C
:104E1000C90513D40021C1850168CA6822F48072D3
:104E2000CA6001684A6922F001024A6101684A6960
:104E300022F040024A61202180F83A10FFF746F93B
:104E400010BD10B5806BFFF742F910BD10B50146DB
:104E5000806B09680968C9050CD40021C184016808
:104E60004A6922F080024A610068C16841F040014D
:104E7000C16010BDFFF76CF910BD10B5806BFFF776
:104E8000C7F910BD0168CA6822F49072CA6001684F
:104E90004A6922F001024A61202180F83A107047E5
:104EA0000168CA6822F0C002CA60202180F8391067
:104EB000704710B590F83A10222901D0022010BD99
:104EC0008168B1F5805F11D00169002901681FD0A8
:104ED000496801F07F03816A4A1C82620B70C18DB0
:104EE000491E0904090CC18518D026E00269816AAF
:104EF000002A0268526805D0D2B20A80816A491C31
:104F00008162ECE7C2F308020A80816A891CF7E734
:104F10004A68816A4B1C83620A70E0E70168CA68CC
:104F200022F49072CA6001684A6922F001024A6163
:104F3000202180F83A10FFF7C9F8002010BD0000CA
:104F40002DE9F04104460068016921F44052E1680E
:104F5000114301612168C86849F20C6290432369DA
:104F6000A268E5691A4363692B431A430243CA6086
:104F70002168486920F44072A06910434861E169E2
:104F80006425B1F5004F9748974A21684FF03208E1
:104F90003FD0914201D081427CD1FEF7F1F800EB85
:104FA000C00101EB001061688900B0FBF1F6FEF76B
:104FB000E7F800EBC00101EB001061688900B0FB6D
:104FC000F1F0B0FBF5F06FF01801484306EB8001FB
:104FD00008EB0110B0FBF5F000F0F006FEF7D0F89A
:104FE00000EBC00101EB001061688900B0FBF1F03B
:104FF000B0FBF5F006EB0016FEF7C2F800EBC001BF
:1050000001EB001061688900B0FBF1F7FEF7B8F81A
:10501000D2E0914201D081423DD1FEF7B1F800EBE0
:10502000C00101EB001061684900B0FBF1F0B0FB7A
:10503000F5F00601FEF7A4F800EBC00101EB00104B
:1050400061684900B0FBF1F7FEF79AF800EBC00188
:1050500001EB001061684900B0FBF1F0B0FBF5F026
:105060006FF01801484307EB800108EBC100B0FB6B
:10507000F5F000F0F80006EB4006FEF781F800EBD3
:10508000C00101EB001061684900B0FBF1F7FEF7C9
:1050900077F83CE055E0FEF763F800EBC00101EB68
:1050A000001061684900B0FBF1F0B0FBF5F00601BB
:1050B000FEF756F800EBC00101EB001061684900F3
:1050C000B0FBF1F7FEF74CF800EBC00101EB00106C
:1050D00061684900B0FBF1F0B0FBF5F06FF018012A
:1050E000484307EB800108EBC100B0FBF5F000F08E
:1050F000F80006EB4006FEF733F800EBC00101EBC9
:10510000001061684900B0FBF1F7FEF729F800EBE9
:10511000C00101EB001061684900B0FBF1F0B0FB89
:10512000F5F06FF01801484307EB800108EBC10070
:10513000B0FBF5F000F00700216830448860BDE85E
:10514000F081FEF70DF800EBC00101EB0010616883
:105150008900B0FBF1F6FEF703F800EBC00101EBAC
:10516000001061688900B0FBF1F0B0FBF5F06FF062
:105170001801484306EB800108EB0110B0FBF5F085
:1051800000F0F006FDF7ECFF00EBC00101EB0010B2
:1051900061688900B0FBF1F0B0FBF5F006EB00169A
:1051A000FDF7DEFF00EBC00101EB00106168890034
:1051B000B0FBF1F7FDF7D4FF00EBC00101EB0010ED
:1051C00061688900B0FBF1F0B0FBF5F06FF01801F9
:1051D000484307EB800108EB0110B0FBF5F000F04D
:1051E0000F00A9E7001401400010014090F83910A9
:1051F000212901D0022070478168B1F5805F016AE2
:105200000BD04A1C0262026809785160C18C491EA9
:105210000904090CC1840ED017E009880268C1F3A3
:105220000801516001690029016A02D0491C01622C
:10523000ECE7891CFBE70168CA6822F08002CA60BB
:105240000068C16841F04001C16000207047000063
:1052500038B50F4C20680068C00614D50D4D28786D
:10526000401C00F0070028702046FEF72BFD0A487E
:105270002978402200EB81112046FEF7DBFE2068F2
:10528000016840680090BDE838400148FEF748BD1D
:10529000901100204A000020A00D002038B50F4CCE
:1052A00020680068C00614D50D4D2878401C00F019
:1052B000070028702046FEF705FD0A48297840229D
:1052C00000EB81112046FEF7B5FE206801684068BA
:1052D0000090BDE838400148FEF722BDD011002003
:1052E00049000020600B00202DE9F04F01222DED38
:1052F000088B81B091026D48FDF7F4FD6C49DFF831
:10530000B481DFF8B4910A78DFF8B0A16C486D4E33
:10531000012A1AD100220A706B4991ED000A6B49EB
:1053200088ED000A91ED000A694989ED000A91EDC6
:10533000000A68498AED000A91ED000A664980ED8D
:10534000000A91ED000A86ED000A6449644A654D41
:105350000C881480644A2B881380644A526A0A803D
:10536000634909682980121B90ED008AC91A15B299
:105370000CB218EE100AFBF7A6F841EC190B204608
:10538000FBF790F804469FED5BAB009153EC1A2BB2
:10539000FBF716F841EC1B0B2846FBF783F88B460E
:1053A0004BEC100B054653EC1B2B51EC100BFAF792
:1053B00060FF53EC192BFBF703F89FED501B53ECE8
:1053C000112BFAF7FDFFFBF791F80099074641EC26
:1053D000104B53EC1A2B51EC100BFAF7F1FF41EC88
:1053E000100B4BEC115B53EC102B51EC110BFAF73B
:1053F000E1FFFBF77BF800EE100A96ED001A444639
:1054000060EE080A80EE810AD8ED000A30EE800ACC
:1054100088ED000A10EE100AFBF755F841EC100B6E
:1054200000F002FBB0EE408AF0EE608A3846FBF7EF
:105430004AF853EC182BFAF7C3FF41EC180B4D4612
:10544000D9F80000FBF73FF853EC182BFAF711FFDF
:10545000FBF74CF828602068FBF735F841EC100B9F
:1054600000F052FBB0EE408AF0EE608A3846FBF75F
:105470002AF853EC182BFAF7A3FF41EC180B54460B
:10548000DAF80000FBF71FF853EC182BFAF7F1FEDF
:10549000FBF72CF8206001B00022BDEC088B4FF424
:1054A0008061BDE8F04F0148FDF71CBD00000240DF
:1054B000B2000020580000205C00002060000020A6
:1054C000B8000020C0000020640000206800002018
:1054D0006C000020BC000020C4000020520000200E
:1054E0005000002056000020540000200000014021
:1054F00024040040A01A2FDD2406F03F0000000025
:105500000000E03FFEE700000FB4084B10B504A90F
:1055100002AA039801F090F8044602A9002001F0C5
:1055200022FC204610BC5DF814FB0000676D0008EB
:1055300003B401984100009850EAC12018BF04202C
:105540004A0D18BF40F0010040F2FF72B2EB515F0C
:1055500008BF40F00200012808BF052002B07047D4
:1055600070B59B482DED020B2DED068B079D25F0A8
:105570000044A04218DC9748844202DC0AD1069815
:1055800040B19DED060BBDEC068B02B0BDE870404E
:1055900000F046BF002DCCBF9FED8F0B9FED900B11
:1055A000BDEC068B02B070BD8F48A04215DD8F4860
:1055B000A042D8BF4FF0FF3458DD9DED060B51ECF3
:1055C000100BFFF7B5FF042808BF00F04DFF9DED5D
:1055D000060BBDEC068B02B070BD9DED060B51ECC9
:1055E000100B01F0CDFBCDE9060181489FED828BC8
:1055F000A0423CDD8248A0421FDD00249FED82AB2B
:105600009DED060B53EC1A2B51EC100BFAF731FE03
:105610009DED060B41EC190B53EC1A2B51EC100BC2
:10562000FAF7CEFE53EC182BFAF7C4FE53EC192B05
:10563000FBF753F8CDE9060149E09DED060B012487
:1056400053EC182B51EC100BFAF713FE9DED060BE3
:1056500041EC190B53EC182B51EC100BFAF7AAFE86
:1056600053EC192BFBF739F8CDE906012FE0684818
:10567000A0421FDD02249FED689B9DED060B53ECBD
:10568000192B51EC100BFAF79BFE53EC182BFAF781
:10569000F0FD9DED060B41EC180B53EC192B51EC72
:1056A000100BFAF787FE53EC182BFBF716F8CDE931
:1056B00006010CE09DED060B032453EC102B9FED2F
:1056C000580B51EC100BFBF708F8CDE906019DEDE6
:1056D000060B53EC102B51EC100BFAF771FE41EC5A
:1056E000180B53EC182BFAF76BFE41EC190B4E48D4
:1056F0000621B0EE490AF0EE690A784400F07CFD1C
:1057000053EC182B51EC100BFAF75AFE41EC180B26
:105710004648B0EE490AF0EE690A0521784400F0E7
:105720006BFD53EC192B51EC100BFAF749FE41ECD1
:10573000100B51EC180B53EC102B002C0EDAFAF76F
:1057400098FD9DED061B53EC112BFAF739FE9DEDEC
:10575000061B53EC112BFAF730FE35E0FAF789FD02
:105760009DED061B53EC112BFAF72AFE41EC100BB2
:105770002F48784400EBC40090ED001B51EC100B57
:1057800053EC112BFAF716FE9DED061B53EC112B73
:10579000FAF710FE41EC100B2648784400EBC400E9
:1057A00090ED001B51EC100B53EC112BFAF705FE9A
:1057B00041EC100B002DA2BFBDEC068B02B070BDFA
:1057C00051EC100B81F0004141EC100B01E700009F
:1057D000000010440000F07F182D4454FB21F93FD5
:1057E000182D4454FB21F9BF0000DC3F0000203E8F
:1057F0000000F33F00000000000000000000F03F48
:105800000000E63F00000000000000000000004033
:105810000080034000000000000000000000F83F8E
:10582000000000000000F0BFFA190000B0190000ED
:105830003A190000F218000070B56B4E2DED040B04
:105840002DED028B82B0DDF81CC0DDE905235C4242
:105850002CF000411C4341EAD474049D22F0004026
:10586000B44205D86C422C4340EAD474B4420BD9FC
:105870009DED061B9DED040B02B0BDEC028B04B048
:10588000BDE8704000F0D6BDACF14054A4F17F6497
:105890001C430BD0022404EAAC7444EAD2740543DE
:1058A0009FED538B9FED542B07D015E09DED040B1E
:1058B00051EC100B01F05CFA42E0002C11BF012CFE
:1058C0009DED040B02B0BDEC028B04BF04B070BDB3
:1058D000022C38D0032C3BD00B439FED491B9FED8E
:1058E0004A0B0AD0B14218D1B04209D121F080410F
:1058F00020F08040079105900FE0002A15DA10E0B3
:10590000434B7B44002C08BF93ED000B0DD0012CC2
:1059100010D0022C17D0032C1AD0B0421DD1002A6F
:1059200003DAB0EE410AF0EE610A02B0BDEC028B80
:1059300004B070BD93ED000B51EC100B81F00041F1
:1059400041EC100BF1E7B0EE480AF0EE680AECE724
:10595000B0EE420AF0EE620AE7E7401A00153C2872
:10596000C8BF8DED000B19DCBCF1000FBEBF10F1FC
:105970003C0F9FED290B8DED000B0FDB9DED060B12
:1059800053EC102B9DED040B51EC100BFAF7A5FE18
:1059900001F0F6F901F0ECF9CDE90001002C08BFA7
:1059A0009DED000BC1D0012C10D0022C9FED1C0BE3
:1059B00053EC102B9DED000B51EC100B0DD0FAF7B2
:1059C000F9FC53EC182BFAF7F5FCB9E7019880F0D5
:1059D000004001909DED000BA7E7FAF7EBFC53ECBC
:1059E000182BFAF7EAFCABE70000F07F000000009C
:1059F000182D4454FB210940182D4454FB2109C0A3
:105A0000182D4454FB21F9BF182D4454FB21F93FB4
:105A1000521800000000000000000000000000001C
:105A2000075C143326A6A13C10B52F499FED2C1B13
:105A30002DED020B84B0059820F000408842D8BFBD
:105A40009DED040B2DDD2949884209D1049840B908
:105A50004FF0010000F028FD00F0F6FC06B010BD8C
:105A600005DB9DED040B00F0DBFC06B010BD6846C5
:105A70009DED040B00F0ECF810F0030004BF9DED69
:105A8000021B9DED000B0CD001280ED09DED021BDA
:105A90009DED000B022817D0012000F029FC06B074
:105AA00010BD00F0F1FA06B010BD9DED021B9DED9A
:105AB000000B012000F01CFC51EC100B81F00041A8
:105AC00006B041EC100B10BD00F0DEFA51EC100BEB
:105AD00081F0004106B041EC100B10BD0000000049
