:020000040800F2
:10000000F0100020A9010008D32700086B24000885
:10001000D1270008890900082937000800000000DE
:10002000000000000000000000000000F7270008AA
:100030006D0A000800000000F5270008F9270008F5
:10004000C3010008C3010008C3010008C301000880
:10005000C3010008C3010008C3010008C301000870
:10006000C3010008C3010008C3010008C301000860
:10007000C3010008C3010008C3010008C301000850
:100080008D09000899090008C3010008000000005C
:10009000000000000000000000000000C301000894
:1000A000C3010008D9280008C3010008C3010008E3
:1000B000C3010008C3010008C3010008C301000810
:1000C000C3010008C3010008C3010008C301000800
:1000D000C3010008C30100089136000800000000B9
:1000E000C3010008C3010008C301000800000000AC
:1000F000000000000000000000000000C301000834
:1001000000000000C3010008C3010008C30100088B
:1001100000000000000000000000000000000000DF
:10012000C3010008A5090008C3010008C3010008B5
:10013000C3010008000000000000000000000000F3
:10014000000000000000000000000000C3010008E3
:10015000B1090008BD090008C3010008DD36000828
:10016000C3010008C30100080000000000000000F7
:10017000000000000000000000000000000000007F
:1001800000000000C30100080000000000000000A3
:10019000C3010008DFF80CD000F056FB0048004710
:1001A000CD470008F0100020064880470648004769
:1001B000FEE7FEE7FEE7FEE7FEE7FEE7FEE7FEE717
:1001C000FEE7FEE785280008950100082DE9F05FAD
:1001D0000546002092469B468846064681464024B6
:1001E0001BE0284641464746224600F0EEF95346BA
:1001F0005A46C01A914110D311461846224600F0C3
:10020000D5F92D1A67EB01084F462246012000213F
:1002100000F0CCF917EB00094E41201EA4F10104B7
:10022000DFDC484631462A464346BDE8F09FD2B25D
:1002300001E000F8012B491EFBD270470022F6E7CF
:1002400010B513460A4604461946FFF7F0FF20464C
:1002500010BD421C10F8011B0029FBD1801A704709
:10026000034611F8012B00F8012B002AF9D118469A
:100270007047000070B50F4D00B92868002412E0E7
:100280000A4602E09E4203D0521C1378002BF9D19B
:10029000DAB2224305D02BB124B1002100F8011BB2
:1002A00004E00446401C0678002EE9D12860204670
:1002B00070BD0000A40000202DE9FE4F804681EAB9
:1002C0000300C00F0C46009021F0004123F00045D0
:1002D000B8EB0200A94105D24046214690461C4693
:1002E0000B46024623F00040104347D0270DC7F3CA
:1002F0000A00C3F30A510290401A019040286BDAB9
:10030000C3F3130040F4801B0098924620B10023F1
:10031000D2EB030A63EB0B0B01985946C0F1400284
:10032000504600F043F906460D4650465946019A9C
:1003300000F05BF910EB08006141002487EA1152DC
:1003400084EAE7731A4340D0009A62B3019A012A03
:100350004FEA075215DC001B61EB02014FF000422F
:1003600002EA0752CDE90042001C41F580113246F5
:100370002B4600F05BF903B0BDE8F08F4046214604
:10038000F9E7001B61EB0201001C41F58013001826
:100390005B412018A2F5001747EB030140EAD57036
:1003A000B6196D4111E06D084FEA360645EAC07591
:1003B0004FEA0752001B61EB0201001C41F580115E
:1003C00049084FEA30000019514132462B4603B02C
:1003D000BDE8F04F00F01BB9009801224000002357
:1003E000D0EB020263EBE073009821464FEAE07421
:1003F000B8EB000061EB0401E9E783F000435BE741
:1004000081F0004158E72DE9FE4F81EA030404F032
:10041000004421F0004100944FF0000B23F0004312
:1004200050EA01045ED052EA03045BD0C3F30A54DD
:10043000C1F30A552C44A4F2F3340194A0FB0254F6
:10044000C1F3130141F48011C3F3130343F4801388
:1004500001FB024400FB034E840A970A44EA8154DC
:1004600047EA8357A4FB076802958D0A05FB0785B9
:100470004FEA932C04FB0C542705029D4FEA0658C3
:1004800047EA1637B5EB08056EEB070C870E920EA0
:1004900047EA811742EA8312A7FB0201B6EB0B0180
:1004A00064EB00042B0D43EA0C335E1844EB1C5044
:1004B000DA465146E7FB0201C5F313044FEA0B335A
:1004C00043EA14534FEA0432019C43EA0603A4F1C1
:1004D0000C040294009CCDE900B400F0A7F803B02E
:1004E000BDE8F08F00200146F9E70EB5C10F80EAA4
:1004F000E0700844CA07002140F233438DE80E0043
:100500000A460B4600F092F803B000BD70B5C1F387
:100510000A5201F000450024C1F3130140F2FF33F9
:1005200041F480119A4201DA002070BD40F2334359
:100530009A42A2F2334203DC524200F046F800E055
:1005400090402C43F1D0404270BD000030B5041EF5
:1005500071F1000404DB4FF00044404264EB010100
:10056000141E73F1000405DB1C464FF00043524299
:1005700063EB04038B4208BF824230BD30B5041EDA
:1005800071F1000404DB4FF00044404264EB0101D0
:10059000141E73F1000405DB1C464FF00043524269
:1005A00063EB0403994208BF904230BD202A04DB6C
:1005B000203A00FA02F1002070479140C2F1200376
:1005C00020FA03F3194390407047202A04DB203AB5
:1005D00021FA02F00021704721FA02F3D040C2F163
:1005E00020029140084319467047202A06DBCB17AA
:1005F000203A41FA02F043EAE07306E041FA02F3DE
:10060000D040C2F12002914008431946704710B50E
:10061000141E73F1000408DA401C41F10001921825
:100620005B411A4301D120F0010010BD2DE9F04DCE
:1006300092469B4611B1B1FA81F202E0B0FA80F223
:1006400020329046FFF7B2FF04460F4640EA0A0008
:1006500041EA0B0153465A46084313D0114653EA68
:10066000010019D0C8F140025046FFF7AEFF054621
:100670000E46504659464246FFF798FF084305D0BC
:10068000012004E020463946BDE8F08D00200543F6
:1006900046EAE0762C4337430A986305E40AA0EB68
:1006A00008000022FD0A44EA47540A3002D500201F
:1006B0000146E9E7010510196941DDE9084500191E
:1006C0006941BDE8F04DA2E72DE9F04D81EA030450
:1006D00004F0004B21F0004514464FF0000A23F0CF
:1006E000004150EA050220D054EA01021DD0C5F3B2
:1006F0000A570246C5F31303C1F31300C1F30A56A8
:1007000040F4801543F48013A7EB0608101BD6466F
:1007100008F2FD3873EB050002D308F1010801E08F
:1007200092185B41B8F1000F03DA00200146BDE8E2
:10073000F08D00204FF48011064684460EE0171B12
:1007400073EB050705D3121B63EB050306434CEA65
:10075000010C49084FEA300092185B4150EA01074A
:10076000EDD152EA030012D082EA040083EA0501C7
:10077000084305D0101BAB4106D20122002306E03E
:1007800000224FF0004302E06FF0010253101AEB19
:1007900006004CEB085110EB0A0041EB0B01BDE8E1
:1007A000F04DFFF734BF2DE9F04D00231A461B1A18
:1007B0008A4103DB00200146BDE8F08DC1F30A52F7
:1007C000C1F3130141F480154FF0000BD10702D1A2
:1007D00000186D41521E0027044640F2FF113846B2
:1007E00001EB620A3E468046024600204FF480112B
:1007F000FFF7EBFEC2197141BB1846EB0100B4EBE9
:10080000030C75EB000C04D3E41A65EB00051746E6
:100810000E46241908F101006D4180463428E3DDBD
:10082000F91946EB0600091BA84103D24FF0FF322D
:10083000134601E0002213461BEB070046EB0A516A
:10084000BDE8F04DFFF7E3BE064C074D06E0E0685B
:1008500040F0010394E8070098471034AC42F6D307
:10086000FFF79CFC284B0008484B00080EB540F2EF
:10087000334102910021CDE900110A460B46FFF7F2
:10088000D5FE03B000BD000010B52B4C2B4992B033
:1008900020780978884201D0294906E0294C2A4964
:1008A0002078097888422FD0284901EB8011284808
:1008B000FFF7D6FC20784021401C00F00700207094
:1008C0006846FFF7BBFC224B22A224A1684602F037
:1008D0002DFF24A010A9006810901D4807E000BF5C
:1008E00002F02EFC20A002F02BFC10A90020FFF744
:1008F000C1FC0028F4D1472E08D04D2E01D04F2E38
:1009000002D1684602F01CFC12B010BD5C2DFBD178
:100910001648017811B100210170F5E71448154916
:1009200000680860144815490068086014481549B3
:1009300000680860E8E700000000002001000020D7
:10094000EC0000200500002002000020EC02002046
:10095000AC0000204F4B3A200000000025732025FA
:1009600073000000200000000A000000400000208A
:10097000100000201C000020140000202000002097
:100980001800002024000020FEE70000014800F0CD
:10099000C9B8000010070020014800F0C3B80000EB
:1009A000300C0020014800F0BDB8000070070020A6
:1009B000014800F0B7B80000D00B0020014800F05B
:1009C000B1B80000900C002001681823CAB2103A98
:1009D000B2FBF3F2054B6FF30901032A9B5CC3657D
:1009E00000D9091D81650846704700004849000884
:1009F00010B5014600208B698A6A4FF0C07453B16C
:100A0000B3F5005F15D072B1012A0CD0022A0AD0CA
:100A1000032A09D104E01AB1012A06D0022A03D11F
:100A2000C96AC90100D5012010BDC96AA142FAD026
:100A300010BD002AF7D0012AF2D0022AF3D0032AEF
:100A4000F3D010BD30B50468256825F480252560F5
:100A5000046863608368402B036803D09960006872
:100A6000C26030BD9A600068C16030BD7047704799
:100A70002DE9F0410446876D00F0A6FA064694F889
:100A800035000025022806D08020606584F83450A7
:100A90000120BDE8F0812068016821F016010160A5
:100AA0002068416921F080014161206C08B9A06C87
:100AB00020B12068016821F0080101602068016808
:100AC00021F0010101600BE000F07EFA801B052897
:100AD00006D92020606504F8345F03206070D8E7F1
:100AE00020680068C007EFD194F85C103F20884070
:100AF000B86004F8345F012060700020C9E790F806
:100B00003510022903D0802141650120704705215D
:100B100080F835100068016821F0010101600020B3
:100B2000704700002DE9F84304464FF00009CDF866
:100B3000009063484FF41651A56D0068B0FBF1F7C3
:100B40002E6894F85C10082000FA01F131420FD0B1
:100B500021680A6852070BD50A6822F004020A606D
:100B600094F85C108840A860606D40F001006065FA
:100B700094F85C104FF0010808FA01F0304208D0F8
:100B800021684969090604D5A860606D40F002003B
:100B9000606594F85C1004208840304208D02168D9
:100BA0000968890704D5A860606D40F0040060659D
:100BB00094F85C1010208840304218D021680968F1
:100BC000090714D5A86020680168490304D50068A6
:100BD000000308D5A16C07E00168C90503D40168CA
:100BE00021F008010160216C09B12046884794F882
:100BF0005C1020208840304231D021680968C90645
:100C00002DD5A86094F8350005282068016806D025
:100C1000490347D5006800031DD4616C1CE021F036
:100C2000160101602068416921F080014161206C5A
:100C300008B9A06C20B12068016821F008010160AA
:100C400094F85C103F208840A86084F8349084F8C1
:100C50003580216D1FE0E16B09B120468847606D4A
:100C600000282BD0606DC00714D0052084F8350013
:100C70002068016821F0010101600098401C00908B
:100C8000B84203D820680068C007F6D184F83490D1
:100C900084F83580E16C002910D001B02046BDE811
:100CA000F04308470168C905D5D4016821F0100157
:100CB000016084F8349084F83580CCE7BDE8F8838F
:100CC000A00000202DE9F041044600F07DF9064621
:100CD0005CB1002584F83450022084F83500206887
:100CE000016821F0010101600DE00120BDE8F08103
:100CF00000F06AF9801B052805D9202060650320D3
:100D000084F83500F2E720680068C007F0D1226857
:100D1000116820480140D4E901031843D4E903369F
:100D20003343184363691843A3691843E3691843BD
:100D3000236A18430843616A042903D1D4E90B13D9
:100D400019430843106020684069666A20F0070173
:100D500030460E43012704280CD1A06A0643E06AFE
:100D600040B12046FFF744FE20B14020606584F882
:100D70003570BAE7206846612046FFF725FE94F8F3
:100D80005C203F2191408160656584F835700020CA
:100D9000ACE700003F8010F02DE9F0410446866D7D
:100DA00090F83400002501280DD0012084F834008B
:100DB00094F835700020012F07D084F83400022504
:100DC0002846BDE8F0810220FBE7022784F8357051
:100DD00060652046FFF736FE94F85C103F2088409F
:100DE000B0602068016841F0160101602068416927
:100DF00041F080014161206C20B12068016841F020
:100E0000080101602068016841F001010160D7E735
:100E100070B5044600F0D8F80546601C02D00448BE
:100E20000078044400F0D0F8401BA042FAD370BD13
:100E3000940000202DE9F84FDFF860B100224FF058
:100E400001084FF0030A4FF00F090BF1040E00BF29
:100E50000B6808FA02F42340A3426ED14D68022DBC
:100E600001D0122D0ED1D50800EB850CDCF82050F6
:100E70005607F70E09FA07F6B5430E69BE402E4332
:100E8000CCF82060066855000F790AFA05FC07F0D7
:100E9000030726EA0C06AF40374307604E68012E71
:100EA00005D0022E03D0112E01D0122E0ED186684D
:100EB000CF6826EA0C06AF40374387604668A643F2
:100EC0000C79C4F30014944034434460C6688C68C1
:100ED00026EA0C06AC403443C4604C68E40056D5A6
:100EE0002F4C256845F480452560246822F00305D1
:100EF00004F4804400942B4C2E19D6F8084895072A
:100F00002F0F09FA07F5AC43274DA84201D1002560
:100F100015E0264DA84201D1012510E0244DA8423C
:100F200001D102250BE0234DA84201D1032506E0A3
:100F3000214DA84202D1042501E028E00725BD404B
:100F40002543C6F80858DBF800405D464E689C43D0
:100F5000F60300D51C432C60DEF8004075464E6851
:100F60009C43B60300D51C432C600C4D08352C68FF
:100F70004E689C43F60200D51C432C60074D0C358F
:100F80002C684E689C43B60200D51C432C60521C52
:100F9000102AFFF45DAFBDE8F88F0000003C01406F
:100FA000443802400030014000000240000402408A
:100FB00000080240000C0240001002400AB18161AA
:100FC00070470904FBE70000014880687047000093
:100FD00094000020024881680278114481607047C3
:100FE000940000200B4810B5016841F400710160C5
:100FF000016841F480610160016841F48071016021
:10100000032000F06FF8002000F006F800F024F84C
:10101000002010BD003C024070B50D4D04464FF459
:101020007A712878B1FBF0F00A490968B1FBF0F059
:1010300000F0E0FA48B9102C07D200222146501ED9
:1010400000F030F800206C6070BD012070BD000021
:1010500094000020A00000200B4882B0016841F4F9
:1010600080410160006800F4804000900648001F45
:10107000016841F080510160006800F080500090EC
:10108000072002B000F02EB84438024000F01F02E2
:10109000012191404009800000F1E020C0F80011DA
:1010A00070470000F0B40E4B1B680C46C3F30223DC
:1010B000C3F10705042D00D90425191D072901D204
:1010C000002300E0DB1E012606FA05F1491E21403F
:1010D00099409E40761E16403143F0BC01F07ABB29
:1010E0000CED00E0064900F0070208684FF6FF0328
:1010F000184040EA0220034A10430860704700008D
:101100000CED00E00000FA052DE9F0470E46050061
:1011100065D0DFF81481D8F80000F7B200F00F00B6
:10112000B04207D288F80070D8F8000000F00F0035
:10113000B04254D128683D4C810712D5400703D5F1
:10114000206840F4E05020602878000703D520682C
:1011500040F4604020602068A96820F0F000084357
:1011600020602878C0072DD03049686808390128E8
:1011700012D0022813D0032811D00968890700294A
:101180002DDA216821F0030101432160FFF71CFFE4
:10119000814641F2883A0EE009688903EFE7096861
:1011A0008901ECE7FFF710FFA0EB0901514502D9D7
:1011B0000320BDE8F0872068696800F00C00B0EB00
:1011C000810FEFD1D8F80010404601F00F01B14275
:1011D00007D90770006800F00F00B04201D001206D
:1011E000E7E72878400705D52068E96820F4E05053
:1011F000084320602878000706D52068296920F474
:10120000604040EAC100206000F036F82168084ADA
:10121000C1F30311515CC840064908600020FFF784
:10122000FBFE0020C5E70000003C024008380240F9
:1012300050490008A00000200448054900680968DA
:10124000044AC1F38221515CC8407047A0000020CD
:1012500008380240604900080448054900680968E8
:10126000044AC1F34231515CC8407047A0000020DD
:101270000838024060490008154810B5006810F0B1
:101280000C02144813D04110042A0FD0082A0ED1A2
:101290000F4C241F2268236802F03F025B0207D52F
:1012A0002068C0F38810A0FB010106E0084610BDCD
:1012B0002168C1F38811A1FB00010023FEF786FF1E
:1012C0002168C1F30141491C4900B0FBF1F010BD98
:1012D000083802400024F4002DE9F84F050076D0CC
:1012E0002878DFF8F8B2BE4CC00749D0DBF8001010
:1012F0005846C1F38101012908D00068C0F381007C
:1013000002280AD1201D0068400206D5206880030B
:1013100036D568680028E2D032E06868B0F5803FD2
:1013200010D0B0F5A02F206810D020F480302060BD
:10133000206820F4802020606868A0B1FFF744FE98
:1013400006460CE0206840F48030F4E740F480204A
:101350002060F7E7FFF738FE801B642873D8206809
:101360008003F7D50CE0FFF72FFE064605E000BF2F
:10137000FFF72AFE801B6428F0D820688003F7D48A
:101380002878DFF8608280074FF000093ED5DBF84F
:101390000010584611F00C0F09D00068C0F381000E
:1013A00002280BD18D48001F0068400206D4206837
:1013B000800715D5E868012809D111E0E868B8B1BF
:1013C0000120C8F80000FFF7FFFD064605E002E136
:1013D000FFF7FAFD801B0228C0D820688007F7D5E8
:1013E0002068296920F0F80040EAC10020600DE083
:1013F000C8F80090FFF7E8FD064604E0FFF7E4FDBB
:10140000801B02281FD820688007F7D4287800079F
:1014100022D5724E744869696C3671B10121016040
:10142000FFF7D2FD074604E0FFF7CEFDC01B022800
:1014300009D830688007F7D50EE0C0F80090FFF7B4
:10144000C3FD074605E083E0FFF7BEFDC01B022891
:101450007ED830688007F7D42878400768D5DFF851
:101460007CA100270AF1380ADAF80000C0000BD48A
:10147000DAF8001041F08051CAF80010DAF80000E4
:10148000012700F080500090584E3068C00510D4FD
:10149000306840F480703060FFF796FD009005E002
:1014A000FFF792FD0099401A022851D83068C00514
:1014B000F6D54A4EA868683601280FD0052830684E
:1014C00010D020F001003060306820F0040030605F
:1014D000A868B8B1FFF778FD00900FE0306840F0E1
:1014E0000100F4E740F004003060F7E7FFF76CFD1F
:1014F0000099411A41F28830814264D830688007EF
:10150000F4D50EE0FFF760FD009007E0FFF75CFD0B
:101510000099411A41F28830814254D830688007DE
:10152000F4D42FB1DAF8001021F08051CAF800107D
:10153000A869C0B3DBF80010C1F3810102294AD0C9
:101540000228484607D0C8F86000FFF73DFD00E0DC
:1015500039E005463AE04746C8F86000FFF734FD39
:10156000064604E0FFF730FD801B02282BD82068D8
:101570008001F7D4D5E907010843A96A1C4A490844
:1015800002EB01416A6A41EA8211084395F82C1086
:1015900040EA01611148001F016001203866FFF731
:1015A00013FD054605E014E0FFF70EFD401B022881
:1015B00009D820688001F7D50BE000BFFFF704FDD4
:1015C000401B022802D90320BDE8F88F2068800163
:1015D000F4D40020F8E70120F6E7000008380240C4
:1015E0000038024000004742800E47420070004031
:1015F0000000FFFF10B5401EB0F1807F01D3012035
:1016000010BD4FF0E02460610F21601701F0E2F897
:101610000020A06107202061002010BD70477047A6
:1016200030B590F83820012A20D0012280F83820E7
:10163000022380F8393003685C6824F070045C6031
:1016400003685C680D682C435C6003689C6824F048
:1016500080049C6003689C6849680C439C6080F827
:101660003920002180F83810084630BD022030BDF6
:1016700010B5040003D094F8390010B107E0012040
:1016800010BD002084F83800204600F00DF802203C
:1016900084F83900211D206801F0D2FB012084F874
:1016A0003900002010BD000070B586B0044614213A
:1016B0006846FEF7C3FD3949374B22680024374896
:1016C00010390225364E9A4223D1026842F00202B6
:1016D0000260006800F002000590086840F0010018
:1016E0000860086800F001000590086840F00200FA
:1016F00008600868694600F002000590C02000906C
:10170000CDE901542748CDE90345FFF793FB0320BA
:1017100014E0254B9A421CD1026842F00402026098
:10172000006800F004000590086840F002000860BE
:10173000086800F0020005904FF470700090CDE949
:10174000015469463046CDE90345FFF773FB06B007
:1017500070BD12481549001D8A4208D1016841F444
:1017600080310160006800F480300590EFE7104997
:101770008A42ECD1016841F4003101600068002226
:1017800000F40030059011461920FFF78BFC19205A
:10179000FFF77CFCDBE7000000040040403802401B
:1017A00000040240000002400008004000400140E8
:1017B000004401400168CA6842F00102CA60006842
:1017C000016841F0010101600020704770B50446D6
:1017D00090F83800012817D0012584F838500220ED
:1017E00084F839002068826822F0770222F47F4270
:1017F00082600868502837D00DDC202859D005DCDD
:1018000088B3102841D151E0022070BD302853D058
:1018100040283AD13FE060282ED070280BD0B0F598
:10182000805F03D0B0F5005F2FD110E020688168A1
:1018300021F0070115E0CB68D1E90121206801F012
:1018400052FB2168886840F0770088601DE0CB6813
:10185000D1E90121206801F046FB2068816841F44C
:101860008041816011E01EE0CA684968206801F08B
:10187000EFFB5021206806E0CA684968206801F043
:1018800031FC6021206801F038FB84F839500020D9
:1018900084F8380070BDCA684968206801F0D8FB38
:1018A00040212068EFE700212068ECE71021206844
:1018B000E9E720212068E6E730212068E3E72DE909
:1018C000F0410D46040003D094F8390018B108E047
:1018D0000120BDE8F081002084F83800204600F0A7
:1018E00039F8022084F839002068816821F0070166
:1018F0008160211D206801F0A3FA22689068916937
:10190000166A2B68AF69034340F20330814341EA12
:101910000721A868EF6908434FF6FC418843E9684E
:1019200040EA0720014328692F6A000140EA073096
:10193000084369686D6926F0AA0646EA0515294339
:1019400093602268906120680162012084F8390068
:101950000020BEE7F0B587B0064614216846FEF7C2
:101960006DFC344F32680025334802210324334B89
:10197000BA4240D1304A1432176847F00107176065
:10198000126802F001020592026842F00102026050
:101990000068CDE9021400F0010005902002CDE9B5
:1019A00000010120049069461846FFF743FA254CD0
:1019B000234820604FF04060C4E901054FF4806087
:1019C000C4E90350400060618000C4E90605256257
:1019D00020466562FFF776F908B1FFF748F8F46131
:1019E000002211461920A663FFF75CFB1920FFF7C0
:1019F0004DFB07B0F0BD144EB242FAD10E4A103280
:101A0000166846F008061660126802F00802059291
:101A1000026842F00102026000680094CDE90115FD
:101A200000F00100CDE90410039569461846FFF760
:101A300001FADEE7000001403038024000000240B9
:101A400088640240D00B0020000C004010B5044612
:101A5000006891B1042904D00122002101F038FA74
:101A6000206801225FF0040101F032FA2068016869
:101A700041F001010160002010BD01220021F3E7C7
:101A8000704700002DE9F041044690F838000D46FB
:101A900001283DD0012684F83860022084F83900FE
:101AA000AAB3042A46D02068082A55D0D5E90027D1
:101AB000E968036A23F480530362D0F81CC0036A08
:101AC0002CF4407C4CEA07274FF6FF7C27F4704744
:101AD0000CEA013139434FF4204723F4204307EA4D
:101AE00002321A43C16102622068C16921F4406177
:101AF000C1612068C169AA6841EA0221C0F81C10CE
:101B000084F83960002084F83800BDE8F08101E0F5
:101B10000220FAE7D5E90012EB68206801F0AAFA82
:101B20002068816921F00C01816120688169AA68BF
:101B300011430FE0D5E90012EB68206801F0E4FAE8
:101B40002068816921F44061816120688169AA6807
:101B500041EA02218161D3E7D5E9002C2F7B016A9C
:101B600021F480710162C169036A21F0030141EA35
:101B70000C0121F0F00C39074FF420674CEA116199
:101B800023F4206307EA02221A43C161026220683B
:101B9000C16921F00C01C1612068C169AA681143C3
:101BA000ACE710B5040003D094F8390010B107E099
:101BB000012010BD002084F83800204600F00CF809
:101BC000022084F83900211D206801F039F9012034
:101BD00084F83900002010BD704770B504460068D5
:101BE00001694FF00005C943890715D4C168C9438D
:101BF000890711D4E91E01610120207620688069DF
:101C00008007204602D0FFF73BFF04E000F0D4F845
:101C1000204600F067F9257620680169C943490725
:101C200017D4C168C943490713D46FF00401016197
:101C3000022020762068806910F4407F204602D080
:101C4000FFF71EFF04E000F0B7F8204600F04AF965
:101C5000257620680169C943090716D4C168C943BC
:101C6000090712D46FF00801016104202076206872
:101C7000C0698007204602D0FFF702FF04E000F0B1
:101C80009BF8204600F02EF9257620680169C943AB
:101C9000C90617D4C168C943C90613D46FF010012F
:101CA0000161082020762068C06910F4407F20463A
:101CB00002D0FFF7E5FE04E000F07EF8204600F0D9
:101CC00011F9257620680169C943C90708D1C1689F
:101CD000C943C90704D1891E0161204600F01CF9DF
:101CE00020680169C943090609D4C168C9430906C6
:101CF00005D46FF0800101612046FFF78FFC20685A
:101D00000169C943490609D4C168C943490605D4D4
:101D10006FF040010161204600F0FFF82068016982
:101D2000C94389060BD4C168C943890607D46FF03B
:101D3000200101612046BDE87040FFF770BC70BD16
:101D400070B586B0044614216846FEF777FA20681D
:101D5000B0F1804F28D11548016841F001010160C0
:101D6000016801F001010591016841F00201016083
:101D70000068022400F0020005904FF40040CDE915
:101D8000000402AA0325012682E87000694608487B
:101D9000FFF750F80820CDE9000402AA694682E85E
:101DA00070000448FFF746F806B070BD30380240B6
:101DB0000000024000040240704770B5044690F8ED
:101DC00038000D4601280DD0012684F83860022025
:101DD00084F8390042B1042A18D0082A2AD00C2AE3
:101DE0004DD139E0022070BD206801F08FF82068E5
:101DF000816941F0080181612068816921F0040155
:101E00008161206881692A69114311E0206801F02D
:101E1000A5F82068816941F40061816120688169C9
:101E200021F480618161206881692A6941EA022187
:101E3000816124E0206801F0BDF82068C16941F0AB
:101E40000801C1612068C16921F00401C1612068F5
:101E5000C1692A69114311E0206801F0D7F82068B0
:101E6000C16941F40061C1612068C16921F48061E8
:101E7000C1612068C1692A6941EA0221C16184F80F
:101E80003960002084F8380070BD10B5040003D01C
:101E900094F8390010B107E0012010BD002084F84B
:101EA0003800204600F00CF8022084F83900211D8B
:101EB000206800F0C5FF012084F83900002010BD23
:101EC00008B50068B0F1804F08D10548016841F0BD
:101ED00001010160006800F00100009008BD0000F1
:101EE000403802407047000010B5044600680122E7
:101EF00000F0EEFF07492068884203D1416C41F4AD
:101F0000004141642068016841F001010160002046
:101F100010BD0000000001407047704710B5044636
:101F20000068416994F83920C1F3C011212A0BD10E
:101F300051B1416921F080014161206B08B1FEF788
:101F400097FD204601F0CCF92068416994F83A20C9
:101F5000C1F38011222A0BD151B1416921F0400116
:101F60004161606B08B1FEF783FD204601F0AAF9DC
:101F7000002010BD7047000070B50268044610686C
:101F8000D168536910F00F0F50D003F0010501F430
:101F9000907635435DD0C20705D0CA0503D5E26B04
:101FA00042F00102E263420705D5DA0703D0E26B93
:101FB00042F00202E263820705D5DA0703D0E26B42
:101FC00042F00402E263020705D5DA0703D0E26BB0
:101FD00042F00802E263E26B002A33D0800604D5A7
:101FE000880602D5204601F084F920684069E16B3B
:101FF000C0F38010090700D428B3204601F062F92D
:102000002068416949061AD5416921F040014161C2
:10201000606BA0B11B490165606BFEF770FD002885
:1020200010D0606B016DBDE870400847830610D585
:102030008B060ED52046BDE8704001F05AB9204607
:10204000FFF798FF70BD2046FFF794FF0020E06384
:1020500070BD030606D50B0604D52046BDE87040CA
:1020600001F0E4BA4006F3D54806F1D5D168204620
:1020700021F04001D160202184F8391000F094F95A
:1020800070BD0000ED31000870B5040004D094F874
:102090003900002510B106E0012070BD84F83850E9
:1020A000204600F023F8242084F839002068C16815
:1020B00021F40051C160204601F062F920680169F5
:1020C00021F4904101612068416921F02A014161B8
:1020D0002068C16841F40051C160E563202084F8A4
:1020E000390084F83A00002070BD00002DE9F0436B
:1020F00087B0044614216846FEF7A0F85948DFF877
:1021000060C12768022101220323002506154FF034
:10211000400967454DD1534F1037D7F800C04CF4F4
:10212000003CC7F800C03F6807F400370597076810
:1021300047F001070760006800F0010005900C20DF
:102140008DE80F000720049069464748FEF772FEAD
:10215000474F46484FF000683860C7E90185C7E936
:1021600003567D61BD61FD613D6238467D62FEF7CB
:10217000A9FD08B1FEF77BFC6763BC633D4F3B489C
:10218000C7E903567D61BD61FD613D6218307D6226
:1021900087E801033846FEF795FD08B1FEF767FCB6
:1021A0002763002211462620BC63FEF77BFF262012
:1021B00050E0DFF8C4C067454ED12A4F1437D7F836
:1021C00000C04CF0200CC7F800C03F6807F02007A3
:1021D0000597076847F004070760006800F00400EF
:1021E0000590C0208DE80F00082004906946234820
:1021F000FEF720FE234F22484FF020683860C7E9E1
:102200000185C7E903567D61BD61FD613D623846C8
:102210007D62FEF757FD08B1FEF729FC6763BC63DA
:10222000194F1748C7E903567D61BD61FD613D62E5
:1022300078307D6287E801033846FEF743FD08B138
:10224000FEF715FC2763002211464720BC63FEF70A
:1022500029FF4720FEF71AFF07B0BDE8F083000012
:1022600000440040303802400000024088600240D4
:1022700010070020300C002000140140000802402C
:102280002864024070070020900C0020F8B5044636
:1022900090F83A0020283CD1C1B3BAB394F8380082
:1022A000012836D0012084F83800A162A2850025DB
:1022B000E563222084F83A00636B1748D863636BA8
:1022C00016481864636B1648D864606B134605653E
:1022D0000846666B216802463046091DFEF75CFD24
:1022E000206801684168009184F83850C16841F461
:1022F0008071C1602068416941F00101416120683D
:10230000416941F0400141610020F8BDFFE7012033
:10231000FBE70220F9E7000047320008833200089B
:10232000FD3100087047704770B5044690F83900D9
:10233000202830D169B362B394F8380001282AD03C
:10234000012084F838002162A284E2840025E5633C
:10235000212084F83900236B1048D863236B104880
:102360001864236B0F48D864206B134605652668F4
:10237000206B321DFEF710FD21686FF040000860F1
:1023800084F838502068416941F0800141610020A3
:1023900070BD012070BD022070BD00008D320008AC
:1023A000BB320008FD3100082DE9F0410746006806
:1023B0002349002688421ED1224C23492078401C04
:1023C00000F0070020700978884214D01F4991F866
:1023D000391020290FD11E4D05EB8010FDF739FF74
:1023E00082B2207805EB80111848FFF79DFF207816
:1023F00005EB801006701749386888421ED1164CCC
:1024000016492078401C00F00700207009788842A7
:1024100014D0134991F8391020290FD1114D05EB33
:102420008010FDF716FF82B2207805EB80110C4872
:10243000FFF77AFF207805EB80100670BDE8F08189
:10244000001401400300002004000020D0060020FA
:10245000D0070020004400400600002007000020B4
:1024600090060020D00900207047FEE71D4808B5FF
:10247000016841F480010160016801F4800100916C
:10248000016841F4001101600068002200F40010AE
:10249000009011461020FEF705FE1020FEF7F6FD15
:1024A000002211461120FEF7FDFD1120FEF7EEFD82
:1024B000002211463920FEF7F5FD3920FEF7E6FD32
:1024C000002211464420FEF7EDFD4420FEF7DEFD1C
:1024D000002211464520FEF7E5FDBDE808404520F5
:1024E000FEF7D4BD3038024070B586B0142168467E
:1024F000FDF7A4FE24480024016841F004010160B6
:10250000016801F004010591016841F0800101605A
:10251000016801F080010591016841F0010101604D
:10252000016801F001010591016841F002010160BB
:102530000068164E00F00200059000224FF4C151D1
:102540003046FEF73BFD4FF4005000901048CDE9B7
:10255000010469460F48FEF76DFC4FF402600090DD
:102560000125CDE90154694630460394FEF762FC2B
:102570002803CDE900050320CDE902406946304635
:10258000FEF758FC06B070BD303802400000024033
:10259000000021100008024010B58CB024216846CC
:1025A000FDF74CFE00241348099411490A94C0E930
:1025B00000144FF6FF71C0E9024104614461032039
:1025C000CDE900040120CDE9020405210491CDE903
:1025D0000540CDE9074169460648FFF770F920201C
:1025E000CDE9090409A90348FFF71AF80CB010BD9A
:1025F00000000140EC04002010B58AB000240794CC
:102600001C2168460894FDF719FE13484FF08041DD
:10261000C0E9001441F26701C0E902410461FFF71B
:1026200034FC079407A90C480894FEF7F9FF6020D2
:10263000CDE9000402940022694607480494FFF79C
:10264000BCFB042269460448FFF7B7FB0248FFF7CA
:1026500077FB0AB010BD00002805002010B58AB035
:10266000002420480494059406940794089409943F
:102670000094019402941A490394C0E90014846000
:10268000C4600461FEF7F4FF4FF48050049004A985
:102690001448FFF79BF81348FFF783FA089408A93A
:1026A00010480994FEF7BCFF0120CDE900400294D8
:1026B000002269460B480394FFF7E4F904226946B7
:1026C0000848FFF7DFF9082269460648FFF7DAF9FC
:1026D0000C2269460348FFF7D5F90AB010BD000087
:1026E000000400406405002010B58AB00024204892
:1026F0000494059406940794089409940094019412
:1027000002941A490394C0E900148460C46004610F
:10271000FEF7AEFF4FF48050049004A91448FFF771
:1027200055F81348FFF73DFA089408A91048099492
:10273000FEF776FF0120CDE90040029400226946B1
:102740000B480394FFF79EF9042269460848FFF7F7
:1027500099F9082269460648FFF794F90C22694660
:102760000348FFF78FF90AB010BD000000080040D1
:10277000A005002010B58CB024216846FDF75EFD51
:1027800000241248099410490A94C0E900144FF635
:10279000FF71C0E9024104610120CDE90004CDE9E7
:1027A00002040494CDE9054007946946074808945B
:1027B000FFF785F82020CDE9090409A90348FEF7B1
:1027C0002FFF0CB010BD0000000C0040DC05002005
:1027D000FEE770470907090E002806DA00F00F002F
:1027E00000F1E02080F8141D704700F1E02080F82F
:1027F0000014704770477047FEF7ECBB30B593B0DC
:1028000030216846FDF71AFD14210CA8FDF716FDCE
:102810001A480024016841F080510160006800F00E
:10282000805011901648016821F4404141F4004164
:1028300001600068022500F44040119001200390DF
:102840001020009506950490CDE907404FF4A8703C
:10285000099004200A9007200B906846FEF73CFD83
:102860000F20CDE90C05E802CDE90E4002210CA8AD
:102870001094FEF749FC13B030BD00004038024010
:10288000007000401048016841F4700101600F4879
:10289000016841F0010101600C4A00210832116019
:1028A00002680B4B1A400260031D0A4A1A60026854
:1028B00022F48022026005480C300160024958066B
:1028C000803908607047000088ED00E00038024061
:1028D000FFFFF6FE103000242DE9F05F01222DED00
:1028E000068B1103F848FEF769FBF848FFF775F906
:1028F000F748FFF772F9F748DFF8DCB300250178F5
:1029000001290CD10570F548F54900680860F548C3
:102910000168F548CBF800100168F4480160F449FB
:10292000F44CF5480A78F54BDFF8D493F54F012ABB
:1029300010D10D70F44909682160F4490A68F4491E
:10294000C9F8002009683960F24909880180F24914
:1029500009881980F149B1F800C0F149A1F800C017
:10296000F0490E88F0490E80F049496BEB4A11801E
:10297000EF4A1268DFF8AC83A1EB0C0109B2A8F8AA
:102980000020921B12B28E18B0F90000891A46433B
:102990004143B3F9000006EBD67691FBF0F02168D5
:1029A000761008442060FDF7A0FD41EC100B01F00B
:1029B0004FF9B0EE408AF0EE608A3046FDF795FDA3
:1029C0008A464AEC110B064653EC182B51EC110BBE
:1029D000FDF719FD41EC180BC846D9F80000FDF7CA
:1029E00084FD53EC182BFDF767FCFDF78FFDC8F84D
:1029F00000002068FDF779FD41EC100B01F08CF927
:102A00004AEC116B53EC102B51EC110BFDF7FBFC56
:102A100041EC180B3868FDF768FD53EC182BFDF7F7
:102A20004BFCFDF773FDC3493860DFF80C930A785F
:102A3000DFF808A3C2B30D70C1490A88C1490A80F2
:102A4000C1490A88C1490A80C1490A88C1490A8026
:102A5000C1490A88C149A9F800200A88C0490A80EA
:102A6000C0490A88C0490A80C0490A88C049AAF8F2
:102A700000200A88BF490A80BF49C04A09881180DE
:102A8000BF49C04A09881180BF49C04A09881180DE
:102A9000BF49C04A09881180BF49C04A09881180CE
:102AA000BF49C04A09881180BF4909789FEDBF8B93
:102AB0009FEDC09BC14C00297ED0BBF80020B8F828
:102AC0000010511A0FB289490988081A05B2A81CCA
:102AD000784080F00200FDF708FD41EC100B01F09A
:102AE0007FF951EC100BFDF711FD06B22846FDF7FA
:102AF000FCFC41EC1A0B3846FDF7F7FC41EC100BDF
:102B0000B0EE4A1AF0EE6A1A00F0AAFF51EC100B70
:102B1000FDF7FCFC05B22846FDF7E7FC884648ECCB
:102B2000100B074653EC182B51EC100BFDF726FD4C
:102B30000AD248EC107B53EC192B51EC100BFDF72B
:102B40005CFCFDF7E3FC05B22846FDF7CEFC8846A9
:102B500048EC100B07469FED9A1B51EC100B53EC01
:102B6000112BFDF7F3FC0AD248EC107B53EC192B28
:102B700051EC100BFDF7A0FBFDF7C8FC05B2284691
:102B8000FDF7B3FC884648EC100B07469FED8E1B03
:102B900051EC100B53EC112BFDF7F0FC0AD348EC71
:102BA000107B9FED8B1B51EC100B53EC112BFDF7A1
:102BB000CDFC0ED2704200E052E048EC107B06B231
:102BC00053EC182B51EC100BFDF776FBFDF79EFC38
:102BD00005B2B4F90000811B00D549427E48B0F926
:102BE000000091FBF0F10BB2B4F90210491B00D5C3
:102BF000494291FBF0F10AB2B4F90410C91A00D5A8
:102C0000494291FBF0F1B4F90610891A00D5494206
:102C100091FBF0F113FB03F7B9F900904FEA49017A
:102C200097FBF1F10FB212FB02FCBAF900B04FEAC8
:102C30004B019CFBF1F10FFA81F8310000D5714294
:102C4000DFF830C1BCF900A017FB0A77B942B4F92C
:102C500008100FDA002900DA494209FB10111BE0C5
:102C600025806580A580E58025816581BDEC068B8A
:102C7000BDE8F09F002901DB8C4601E0C1F1000CAA
:102C8000324FB7F90070BC4507DA002900DA494233
:102C9000304F3F8817FB00110FB2002D01DB294692
:102CA00000E0694218FB0A8C6145B4F90A1005DAA4
:102CB000002900DA49420BFB1010A0E0002901DBDB
:102CC00088468DE08AE0000000000240EC0400200D
:102CD00054060020410000202C0000203400002079
:102CE00028000020380000203C0000203000002098
:102CF0004000002010000020440000204800002078
:102D000014000020180000201C00002020000020DB
:102D100024000020460000204A0000200A00002075
:102D2000080000200E0000200C00002000000140E0
:102D3000340C0040430000205600002062000020B8
:102D40004C00002084000020500000204E00002095
:102D50005400002052000020580000205C00002099
:102D60005A000020600000205E0000206400002067
:102D700068000020660000206E0000206C0000202B
:102D800072000020700000207600002074000020F7
:102D90007A000020780000207E0000207C000020C7
:102DA000820000208000002042000020EA2E4454CF
:102DB000FB210940EA2E4454FB21194086000020E3
:102DC000EA2E4454FB2109C0EA2E4454FB21F93F6A
:102DD000EA2E4454FB21F9BF6A000020C1F100082B
:102DE000DFF850C0BCF900C0E0450ADA002900DA7B
:102DF0004942DFF844C0BCF800C01CFB00100FFAC9
:102E000080FC002E01DA784207B2002D03DACCF103
:102E100000000FFA80FC0948B0F90000864200DA91
:102E2000002726806580A380E2802781A4F80AC05D
:102E30001CE700005A0000205E00002084000020F3
:102E4000F0B502681B4B1C4C9F031C4D1C4E984256
:102E500007D0B84205D0A04203D0A84201D0B0426A
:102E600004D122F0700C4A6842EA0C02984210D059
:102E7000B8420ED0A0420CD0A8420AD0B04208D02E
:102E8000104CA04205D0104CA04202D00F4CA042E2
:102E900003D122F44074CA68224302608A68C26285
:102EA0000A688262984201D1096901630121416186
:102EB000F0BD000000000140000400400008004098
:102EC000000C004000400140004401400048014027
:102ED00010B50123046A8B409C430462036A8A4054
:102EE0001343036210BD10B5846842EA032224F440
:102EF0007F440A432243826010BD826822F0700240
:102F00000A4342F0070181607047000030B5026A51
:102F100022F001020262026A4368846924F07305A8
:102F20000C682C4322F002058A682A430A4DA84205
:102F30000BD122F00805CA6823F440732A434D6977
:102F400022F004021D438B692B434360846149686E
:102F50004163026230BD00000000014030B5026AEA
:102F600022F010020262026A436884690D6824F448
:102F7000E64444EA05248D6822F0200242EA051264
:102F80000B4DA8420ED1CD6822F0800242EA051214
:102F90004D6923F4406343EA85038D6922F04002C2
:102FA00043EA85034360846149688163026230BDFE
:102FB0000000014030B5026A22F480720262036AA6
:102FC0004268C46923F4007324F073050C682C4331
:102FD0008D6843EA05230C4DA8420ED1CD6823F439
:102FE000006343EA05234D6922F4405242EA051288
:102FF0008D6923F4806342EA05124260C461496826
:10300000C163036230BD00000000014030B5026AB8
:1030100022F480520262046A4268C3690D6823F494
:10302000E64343EA05238D6824F4005444EA05345A
:10303000064DA84204D14D6922F4804242EA85122D
:103040004260C36149680164046230BD0000014010
:1030500010B5036A046A24F001040462846924F050
:10306000F00444EA021423F00A020A438461026273
:1030700010BD000070B5046A24F001040462846984
:10308000056A134EB0420ED0B0F1804F0BD0114EF6
:10309000B04208D0104EB04205D0104EB04202D01F
:1030A0000F4EB04203D124F00304144303E024F094
:1030B000030242F001041A0724F0F00444EA126209
:1030C00025F00A0301F00A0119438261016270BD13
:1030D000000001400004004000080040000C0040D7
:1030E0000040014010B5036A23F0100303628369B6
:1030F000046A23F4704343EA023224F0A00343EA53
:1031000001118261016210BD30B5046A24F010041F
:1031100004628469056A24F4407444EA022222F4B9
:1031200070444FF6FF7202EA03322243A02425F0D6
:10313000A00304EA011119438261016230BD00005D
:103140002DE9F041224D8046204C2878414604EB81
:103150008010FDF785F8204E1E4F4146307807EB72
:103160008010FDF77DF82878401C00F007002870DB
:103170003078401C00F007003070184890F8390093
:1031800020280CD1164D287804EB8010FDF761F84B
:1031900082B2287804EB80111048FFF7C5F8114877
:1031A00090F8390020280ED10F4C207807EB8010C2
:1031B000FDF74FF882B2207807EB8011BDE8F041AF
:1031C0000848FFF7B1B8BDE8F0810000D007002043
:1031D00004000020D009002007000020D0060020B5
:1031E00003000020900600200600002010B5806B30
:1031F0000021C185C184FEF7BDFE10BD70B5846B92
:103200002068406994F83910C0F3C01000252129C6
:1032100004D118B1E584204600F062F820684069C6
:1032200094F83A10C0F38010222904D118B1E58532
:10323000204600F047F8E06B40F01000E0632046C5
:10324000FEF798FE70BD10B50146806B09680968ED
:10325000C90513D40021C1850168CA6822F48072AF
:10326000CA6001684A6922F001024A6101684A693C
:1032700022F040024A61202180F83A10FFF752F80C
:1032800010BD10B5806BFFF74EF810BD10B50146AC
:10329000806B09680968C9050CD40021C1840168E4
:1032A0004A6922F080024A610068C16841F0400129
:1032B000C16010BDFFF778F810BD10B5806BFFF747
:1032C000D3F810BD0168CA6822F49072CA60016820
:1032D0004A6922F001024A61202180F83A107047C1
:1032E0000168CA6822F0C002CA60202180F8391043
:1032F000704710B590F83A10222901D0022010BD75
:103300008168B1F5805F11D00169002901681FD083
:10331000496801F07F03816A4A1C82620B70C18D8B
:10332000491E0904090CC18518D026E00269816A8A
:10333000002A0268526805D0D2B20A80816A491C0C
:103340008162ECE7C2F308020A80816A891CF7E710
:103350004A68816A4B1C83620A70E0E70168CA68A8
:1033600022F49072CA6001684A6922F001024A613F
:10337000202180F83A10FEF7D5FF002010BD000094
:103380002DE9F04104460068016921F44052E168EA
:10339000114301612168C86849F20C6290432369B6
:1033A000A268E5691A4363692B431A430243CA6062
:1033B0002168486920F44072A06910434861E169BE
:1033C0006425B1F5004F9748974A21684FF03208BD
:1033D0003FD0914201D081427CD1FDF73DFF00EB0F
:1033E000C00101EB001061688900B0FBF1F6FDF748
:1033F00033FF00EBC00101EB001061688900B0FBF6
:10340000F1F0B0FBF5F06FF01801484306EB8001D6
:1034100008EB0110B0FBF5F000F0F006FDF71CFF23
:1034200000EBC00101EB001061688900B0FBF1F016
:10343000B0FBF5F006EB0016FDF70EFF00EBC00148
:1034400001EB001061688900B0FBF1F7FDF704FFA4
:10345000D2E0914201D081423DD1FDF7FDFE00EB6B
:10346000C00101EB001061684900B0FBF1F0B0FB56
:10347000F5F00601FDF7F0FE00EBC00101EB0010D6
:1034800061684900B0FBF1F7FDF7E6FE00EBC00113
:1034900001EB001061684900B0FBF1F0B0FBF5F002
:1034A0006FF01801484307EB800108EBC100B0FB47
:1034B000F5F000F0F80006EB4006FDF7CDFE00EB5E
:1034C000C00101EB001061684900B0FBF1F7FDF7A6
:1034D000C3FE3CE055E0FDF7AFFE00EBC00101EBA1
:1034E000001061684900B0FBF1F0B0FBF5F0060197
:1034F000FDF7A2FE00EBC00101EB0010616849007E
:10350000B0FBF1F7FDF798FE00EBC00101EB0010F6
:1035100061684900B0FBF1F0B0FBF5F06FF0180105
:10352000484307EB800108EBC100B0FBF5F000F069
:10353000F80006EB4006FDF77FFE00EBC00101EB53
:10354000001061684900B0FBF1F7FDF775FE00EB74
:10355000C00101EB001061684900B0FBF1F0B0FB65
:10356000F5F06FF01801484307EB800108EBC1004C
:10357000B0FBF5F000F00700216830448860BDE83A
:10358000F081FDF759FE00EBC00101EB001061680E
:103590008900B0FBF1F6FDF74FFE00EBC00101EB37
:1035A000001061688900B0FBF1F0B0FBF5F06FF03E
:1035B0001801484306EB800108EB0110B0FBF5F061
:1035C00000F0F006FDF738FE00EBC00101EB001043
:1035D00061688900B0FBF1F0B0FBF5F006EB001676
:1035E000FDF72AFE00EBC00101EB001061688900C5
:1035F000B0FBF1F7FDF720FE00EBC00101EB00107E
:1036000061688900B0FBF1F0B0FBF5F06FF01801D4
:10361000484307EB800108EB0110B0FBF5F000F028
:103620000F00A9E7001401400010014090F8391084
:10363000212901D0022070478168B1F5805F016ABD
:103640000BD04A1C0262026809785160C18C491E85
:103650000904090CC1840ED017E009880268C1F37F
:103660000801516001690029016A02D0491C016208
:10367000ECE7891CFBE70168CA6822F08002CA6097
:103680000068C16841F04001C1600020704700003F
:1036900038B50F48FEF770FC0D4C20680068C00676
:1036A00014D50C4D2878401C00F0070028702046E7
:1036B000FEF734FC08482978402200EB81112046AF
:1036C000FEF7E4FD206801684068009038BD000006
:1036D0009006002002000020EC02002038B50F4CBC
:1036E00020680068C00614D50D4D2878401C00F0F5
:1036F000070028702046FEF711FC0A48297840226E
:1037000000EB81112046FEF7C1FD2068016840688A
:103710000090BDE838400148FEF72EBCD0060020DE
:1037200001000020EC000020FEE700000FB4084B71
:1037300010B504A902AA039800F0C4FF044602A928
:10374000002001F02AF8204610BC5DF814FB0000B0
:103750009B47000803B401984100009850EAC1203B
:1037600018BF04204A0D18BF40F0010040F2FF725C
:10377000B2EB515F08BF40F00200012808BF0520EE
:1037800002B070470000000070B59B482DED020BA1
:103790002DED068B079D25F00044A04218DC9748CC
:1037A000844202DC0AD1069840B19DED060BBDECC7
:1037B000068B02B0BDE8704000F03ABF002DCCBFD0
:1037C0009FED8F0B9FED900BBDEC068B02B070BD93
:1037D0008F48A04215DD8F48A042D8BF4FF0FF347C
:1037E00058DD9DED060B51EC100BFFF7B3FF0428DD
:1037F00008BF00F041FF9DED060BBDEC068B02B04B
:1038000070BD9DED060B51EC100B00F0D3FFCDE920
:10381000060181489FED828BA0423CDD8248A04298
:103820001FDD00249FED82AB9DED060B53EC1A2BA0
:1038300051EC100BFCF740FD9DED060B41EC190B14
:1038400053EC1A2B51EC100BFCF7DDFD53EC182B4D
:10385000FCF7D3FD53EC192BFCF736FFCDE906013D
:1038600049E09DED060B012453EC182B51EC100B95
:10387000FCF722FD9DED060B41EC190B53EC182BC8
:1038800051EC100BFCF7B9FD53EC192BFCF71CFFA6
:10389000CDE906012FE06848A0421FDD02249FED1C
:1038A000689B9DED060B53EC192B51EC100BFCF7AC
:1038B000AAFD53EC182BFCF7FFFC9DED060B41EC29
:1038C000180B53EC192B51EC100BFCF796FD53EC35
:1038D000182BFCF7F9FECDE906010CE09DED060B77
:1038E000032453EC102B9FED580B51EC100BFCF7FD
:1038F000EBFECDE906019DED060B53EC102B51ECD0
:10390000100BFCF780FD41EC180B53EC182BFCF767
:103910007AFD41EC190B4E480621B0EE490AF0EE53
:10392000690A784400F070FD53EC182B51EC100B31
:10393000FCF769FD41EC180B4648B0EE490AF0EE81
:10394000690A0521784400F05FFD53EC192B51EC16
:10395000100BFCF758FD41EC100B51EC180B53EC1D
:10396000102B002C0EDAFCF7A7FC9DED061B53EC88
:10397000112BFCF748FD9DED061B53EC112BFCF7BA
:103980003FFD35E0FCF798FC9DED061B53EC112B39
:10399000FCF739FD41EC100B2F48784400EBC400D4
:1039A00090ED001B51EC100B53EC112BFCF725FD97
:1039B0009DED061B53EC112BFCF71FFD41EC100B8A
:1039C0002648784400EBC40090ED001B51EC100B2E
:1039D00053EC112BFCF714FD41EC100B002DA2BF92
:1039E000BDEC068B02B070BD51EC100B81F00041B4
:1039F00041EC100B01E70000000010440000F07FD4
:103A0000182D4454FB21F93F182D4454FB21F9BFD4
:103A10000000DC3F0000203E0000F33F00000000FB
:103A2000000000000000F03F0000E63F0000000042
:103A30000000000000000040008003400000000083
:103A4000000000000000F83F000000000000F0BF90
:103A5000AA10000060100000EA0F0000A20F000092
:103A600070B56B4E2DED040B2DED028B82B0DDF8A1
:103A70001CC0DDE905235C422CF000411C4341EAF7
:103A8000D474049D22F00040B44205D86C422C430B
:103A900040EAD474B4420BD99DED061B9DED040B96
:103AA00002B0BDEC028B04B0BDE8704000F0CABDAE
:103AB000ACF14054A4F17F641C430BD0022404EA0F
:103AC000AC7444EAD27405439FED538B9FED542BA5
:103AD00007D015E09DED040B51EC100B00F062FED9
:103AE00042E0002C11BF012C9DED040B02B0BDEC97
:103AF000028B04BF04B070BD022C38D0032C3BD025
:103B00000B439FED491B9FED4A0B0AD0B14218D1E0
:103B1000B04209D121F0804120F08040079105900A
:103B20000FE0002A15DA10E0434B7B44002C08BF5D
:103B300093ED000B0DD0012C10D0022C17D0032CCC
:103B40001AD0B0421DD1002A03DAB0EE410AF0EEDD
:103B5000610A02B0BDEC028B04B070BD93ED000BA6
:103B600051EC100B81F0004141EC100BF1E7B0EE8D
:103B7000480AF0EE680AECE7B0EE420AF0EE620A9C
:103B8000E7E7401A00153C28C8BF8DED000B19DC93
:103B9000BCF1000FBEBF10F13C0F9FED290B8DED66
:103BA000000B0FDB9DED060B53EC102B9DED040B72
:103BB00051EC100BFCF788FD00F0FCFD00F0F2FD6D
:103BC000CDE90001002C08BF9DED000BC1D0012CF8
:103BD00010D0022C9FED1C0B53EC102B9DED000B15
:103BE00051EC100B0DD0FCF708FC53EC182BFCF734
:103BF00004FCB9E7019880F0004001909DED000BB6
:103C0000A7E7FCF7FAFB53EC182BFCF7F9FBABE743
:103C10000000F07F00000000182D4454FB210940F3
:103C2000182D4454FB2109C0182D4454FB21F9BF21
:103C3000182D4454FB21F93F020F00000000000042
:103C40000000000000000000075C143326A6A13C21
:103C500010B52F499FED2C1B2DED020B84B005985C
:103C600020F000408842D8BF9DED040B2DDD29498E
:103C7000884209D1049840B94FF0010000F01CFDC2
:103C800000F0EAFC06B010BD05DB9DED040B00F072
:103C9000CFFC06B010BD68469DED040B00F0E0F8C7
:103CA00010F0030004BF9DED021B9DED000B0CD036
:103CB00001280ED09DED021B9DED000B022817D0B0
:103CC000012000F01DFC06B010BD00F0E5FA06B0C2
:103CD00010BD9DED021B9DED000B012000F010FCBE
:103CE00051EC100B81F0004106B041EC100B10BDFF
:103CF00000F0D2FA51EC100B81F0004106B041EC1B
:103D0000100B10BD000000000000000000000000CB
:103D1000FB21E93F0000F07F10B52F499FED2C1BE0
:103D20002DED020B84B0059820F000408842DCBFE6
:103D300000209DED040B32DD2849884209D104980A
:103D400040B94FF0010000F0B7FC00F085FC06B070
:103D500010BD05DB9DED040B00F06AFC06B010BD44
:103D600068469DED040B00F07BF810F0030011D0C5
:103D7000012818D09DED021B9DED000B02281AD0E2
:103D800000F08AFA51EC100B81F0004106B041ECD2
:103D9000100B10BD9DED021B9DED000B012000F0EE
:103DA000AFFB06B010BD9DED021B9DED000B00F0BA
:103DB00073FA06B010BD012000F0A2FB51EC100B0D
:103DC00081F0004106B041EC100B10BD0000000076
:103DD0000000000000000000FB21E93F0000F07F30
:103DE00000B52DED048BB0EE409AF0EE609A83B0F2
:103DF00051EC190BFCF7D7FC41EC180B18EE100A2C
:103E000018EE901A8DED008B002818BF0120084392
:103E100020F00040C0F17F6000F1E040C00F14D0FE
:103E200019EE101A19EE900A8DED009B002918BFAB
:103E30000121084320F00040C0F17F6000F1E04024
:103E4000C00F04BF012000F037FCB0EE480A03B0F9
:103E5000F0EE680ABDEC048B00BD0000000000001D
:103E60002DE9F14F04462DED020B2DED088B8AB0A4
:103E70009FEDE70B80ED020B139EE74826F000450F
:103E800085420ADC9DED120B002084ED000B0AB088
:103E9000BDEC088B03B0BDE8F08FE0489FEDE0ABD0
:103EA0009FEDE1BBA84247DDE14F9FEDE39B9FED16
:103EB000E48B9DED120B53EC1A2B51EC100B002EE2
:103EC0001CDDFCF79AFA41EC100BBD4208D053EC14
:103ED0001B2B51EC100BFCF790FAC4E900010BE02E
:103EE00053EC192B51EC100BFCF787FA53EC182B01
:103EF000FCF783FAC4E900010120C8E7FCF7DCF90C
:103F000041EC100BBD4208D053EC1B2B51EC100BB5
:103F1000FCF7D2F9C4E900010BE053EC192B51EC8A
:103F2000100BFCF7C9F953EC182BFCF7C5F9C4E9E1
:103F300000014FF0FF30AAE7C348A84279DB9DEDAE
:103F4000120B51EC100B00F035FC41EC180B9FEDFF
:103F5000C00B53EC102BFCF756FA9FEDBF1B53EC34
:103F6000112BFCF7A9F9FCF7D1FA0746FCF7BDFACB
:103F700041EC190B53EC1A2BFCF745FA53EC182BB8
:103F8000FCF73EFA41EC180B53EC1B2B51EC190BD0
:103F9000FCF739FADFF8C8A241EC100B4FEA1558CC
:103FA0000125FA4453EC102B51EC180BFCF725FAC1
:103FB000032DC4E900013DD0C1F30A5005EB4511C2
:103FC000A8EB00001139814234DA0AEB051BB0EE90
:103FD00048AA9BED000BF0EE68AA53EC102B51ECB5
:103FE000190BFCF710FA41EC1B0B51EC1A0B53ECBC
:103FF0001B2BFCF702FA41EC180B51EC1A0B53EC9B
:10400000182BFCF7FAF953EC1B2BFCF7F6F99BED98
:10401000020B41EC1A0B53EC102B51EC190BFCF773
:10402000F2F953EC1A2BFCF7E8F941EC100B6D1C7C
:10403000B8E70EE0002EA8BF3846BFF628AF94EDD3
:10404000000B51EC100B81F00041C4E900017842F3
:104050001DE7C6F3130040F4801EC6F30A50A0F219
:10406000F530471100F01F05C5F12000DDF848B01C
:1040700008900020069007900520EC467949002D15
:1040800007EB0002794408BF51F8221009D051F81B
:10409000223001EB8201AB404A68089922FA01F113
:1040A0001943A1FB0E26A1FB0B131A449A4234BFFD
:1040B0000123002303EB06080CEB8003D3E901A6E0
:1040C0000E448E4234BF0121002192448A4411B132
:1040D000924502D903E0924501D2012100E000217E
:1040E000C3E901A641444CF82010011EA0F10100D3
:1040F000C4DC029800F10050850F0298DDE90367E7
:104100008000DDF81480FCF7F0F941EC1A0B304622
:10411000FCF7ACFB9FED541B53EC112BFCF773F930
:1041200041EC1B0B3846FCF7A1FB9FED511B53ECF8
:10413000112BFCF768F941EC180B4046FCF796FB95
:104140009FED4D1B53EC112BFCF75DF941EC190B66
:1041500051EC180B53EC192BFCF7AEF853EC1B2B5E
:10416000FCF7AAF853EC1A2BFCF7A6F8CDE90801E6
:10417000002008909DED080B53EC1A2B51EC100B0E
:10418000FCF73BF953EC1B2BFCF737F953EC182BDE
:10419000FCF733F953EC192BFCF732F99FED381B80
:1041A00053EC112BFCF72FF99FED370B41EC180B5B
:1041B00053EC102B9DED080B51EC100BFCF723F981
:1041C00053EC182BFCF778F89FED310B41EC180BF2
:1041D00053EC102B9DED080B51EC100BFCF713F971
:1041E00053EC182BFCF768F841EC100B139810F007
:1041F000004F06D06D4251EC100B81F0004141ECB4
:10420000100B284684ED000B41E600000000000082
:104210000000000000000000FB21E93F7CD90240C3
:1042200000004054FB21F93F3163621A61B4D03D74
:10423000FB21F93F000000000000601A61B4D03D8E
:104240007370032E8A19A33BFB2139410000000043
:1042500083C8C96D305FE43F000000000000E03F0C
:10426000920A0000E0090000000000000000103E7B
:10427000000000000000103C000000000000103AA8
:10428000182D4454FB21F93D3326A611460B113C51
:1042900000000054FB21F93D10B52DED040B2DED70
:1042A000088B82B0B0EE419AF0EE619A0B9820F044
:1042B00000449FED4BABB4F1795F11DA9DED0A0B31
:1042C00051EC100BFCF722F9002801BFB0EE4A0AAE
:1042D000F0EE6A0A02B0BDEC088B04BF04B010BD5A
:1042E0009DED0A0B53EC102B51EC100BFCF78BF8E7
:1042F00041EC180B3C480621B0EE480AF0EE680A83
:10430000784400F081F853EC182B51EC100BFCF7BB
:104310007AF89DED0A0B41EC1B0B53EC192B51EC79
:10432000100BFCF770F841EC190B53EC1B2B51EC04
:10433000180BFCF768F853EC192BFCF75EF89FEDAF
:104340002C0B41EC190B53EC102B51EC180BFCF718
:104350005AF841EC100B2848844210DA53EC192B20
:1043600051EC100BFCF749F853EC1A2BFCF748F80A
:1043700041EC100B02B0BDEC088B04B010BD1F481F
:10438000A042BCBF9FED1E1B8DED001B06DBA4F5FC
:1043900000100190002000909DED001B51EC100BCF
:1043A00053EC112BFCF729F89DED000B41EC180B99
:1043B00053EC102B51EC1A0BFCF71FF841EC1A0BC5
:1043C00053EC192B51EC180BFCF717F853EC1A2B84
:1043D000FCF716F841EC100BCCE7000000000000E1
:1043E000000000000000F03FFC060000000000009C
:1043F000000000000000E03F3333D33F0000E93FFE
:10440000000000000000D23F70B504462DED028B85
:104410004D1E00EBC500B0EE408AF0EE608A90EDD4
:10442000000B35F0060017D053EC182B51EC100B95
:10443000FBF7E9FF41EC100B6D1E04EBC50090ED9E
:10444000001B51EC100B53EC112BFBF735FF41EC2B
:10445000100B35F00600E7D1022D36D0042D1CD00C
:10446000062D1CBFBDEC028B70BD53EC182B51EC1C
:10447000100BFBF7C8FF94ED0A1B53EC112BFBF755
:104480001BFF53EC182BFBF7BEFF94ED081B53ECFE
:10449000112BFBF711FF41EC100B53EC182B51ECD7
:1044A000100BFBF7B0FF94ED061B53EC112BFBF741
:1044B00003FF53EC182BFBF7A6FF94ED040B53EC12
:1044C000102BFBF7F9FE41EC100B53EC182B51ECC1
:1044D000100BFBF798FF94ED021B53EC112BFBF72D
:1044E000EBFE53EC182BFBF78EFF94ED001B53EC07
:1044F000112BFBF7E1FEBDEC028B41EC100B70BD04
:1045000031B504462DED040B2DED0A8BB0EE41BA0A
:10451000F0EE61BA0B989DED0A0B20F00040B0F16F
:10452000795F0DDA51EC100BFFF714F9042808BF7E
:1045300000F0A2F89DED0A0BBDEC0A8B05B030BD72
:1045400053EC102B51EC100BFBF75DFF41EC180BFB
:104550009DED0A0B53EC182B51EC100BFBF753FF9E
:1045600041EC190B2C48B0EE480AF0EE680A052120
:104570007844FFF749FF9FED2ACBB0EE40AAF0EE5A
:1045800060AA9CB353EC1C2B51EC190BFBF73BFFBF
:1045900041EC1C0B53EC1A2B51EC190BFBF733FFBE
:1045A0009FED210B41EC190B53EC102B51EC1B0B25
:1045B000FBF729FF53EC192BFBF71FFF53EC182BCC
:1045C000FBF721FF53EC1B2BFBF717FF53EC1C2BC6
:1045D000FBF713FF9DED0A1B53EC112BFBF710FFAC
:1045E000BDEC0A8B05B041EC100B30BDFFE753EC7E
:1045F0001A2B51EC180BFBF706FF53EC1C2BFBF7A7
:104600005BFE53EC192BFBF7FEFE9DED0A1B53ECF2
:10461000112BFBF751FEE3E78C05000000000000C2
:10462000495555555555C5BF000000000000E03FF5
:1046300010B553EC102B51EC100BFBF73DFE41EC89
:10464000100B10BD10B553EC112B51EC100BFBF7F8
:1046500033FE41EC100B10BD9FED050B10B553EC74
:10466000102B51EC100BFCF72FF841EC100B10BD88
:1046700000000000000000009FED050B10B553EC9A
:10468000102B51EC100BFBF7BEFE41EC100B10BDD4
:10469000000000000000001002E008C8121F08C15E
:1046A000002AFAD170477047002001E001C1121FB3
:1046B000002AFBD1704700000149086070470000E4
:1046C000A80000202DE9F84F9946924688460546F5
:1046D000002706E025280AD051464A4690476D1C1F
:1046E0007F1C28780028F5D13846BDE8F88F0023D4
:1046F00015F8011F18462E2915D115F8011F04239E
:104700002A290DD06FF02F022978A1F13004092C4D
:1047100009D800EB800002EB400008446D1CF3E771
:1047200058F8040B6D1C2A78002ADDD0632A07D0C4
:10473000732A0FD0104651464A4690477F1C2AE004
:1047400018F8042B8DF8002000218DF801106E461A
:10475000012103E058F8046B4FF0FF315A074FF086
:10476000000401D409E0641C84420BDA8C42FADBB9
:10477000325D002AF7D105E0641C8C42FCDB305D21
:104780000028F9D1274404E016F8010B51464A46A7
:104790009047641EF8D26D1CA3E70A68531C0B6097
:1047A0001070704710B541EC100BFEF7EDFF51ECA7
:1047B000100B10BD82B0CDE9000121F00040019046
:1047C0009DED000B02B051EC100B70471FB5FCF7CC
:1047D00009FCFEF713F8FDF787FEFDF747FEFDF72E
:1047E000DBFEFDF73BFF0024514800940194029446
:1047F0004E490394C0E900148460C4600461FCF76E
:1048000037FF4FF4805969464948CDF80090FCF7CE
:10481000DDFFFDF769FFFDF7ADFFFDF7EDFE444855
:1048200044493C3001600421C0E901144AF21041BE
:10483000C0E90314FCF71CFF3D4D3F48B8354FF469
:10484000E1372860C5E901744FF00C08EC60C5E958
:104850000448AC612846EC61FDF716FCA5F1400662
:1048600036483060C6E90174F460C6E90448B461B2
:104870003046F461FDF708FC0021A5F5D470FDF782
:1048800033FB0421A5F5D470FDF72EFB2868C16821
:1048900041F01001C16005F1A00001680A6842F012
:1048A00010020A600068016821F008010160244CD0
:1048B000A5F2E4504022217800EB81112846FDF753
:1048C000E5FC3068C16841F01001C16005F14000AD
:1048D00001680A6842F010020A600068016821F06D
:1048E000080101606178A5F5797000EB8111402223
:1048F0003046FDF7CBFC1821A5F5F270FDF7A6F8C0
:104900001821A5F1F400FDF7A1F8A5F17C00FCF752
:1049100051FF0C4D4C46002221462846FCF74EFB29
:10492000FBF7B2FF6420FCF773FAF4E700400140A4
:1049300018060020004401400014014000440040DB
:1049400001000020000002400006101600061016AC
:10495000000000000000000001020304060708092F
:1049600000000000010203044FBB610567ACDD3F9E
:10497000182D4454FB21E93F9BF681D20B73EF3F86
:10498000182D4454FB21F93FE2652F227F2B7A3CFE
:10499000075C143326A6813CBDCBF07A8807703CB7
:1049A000075C143326A6913CC4EB98999999C9BF2A
:1049B000711623FEC671BCBF6D9A74AFF2B0B3BF5F
:1049C0009AFDDE522DDEADBF2F6C6A2C44B4A2BF1F
:1049D0000D5555555555D53FFF8300922449C23F8B
:1049E0006E204CC5CD45B73F513DD0A0660DB13FBF
:1049F000EB0D76244B7BA93F11DA22E33AAD903FD1
:104A00004C5555555555A53F7751C1166CC156BFEC
:104A10009015CB19A001FA3EAD529C804F7E92BEFC
:104A2000C4B1B4BD9EEE213ED43888BEE9FAA8BD1B
:104A3000000000000000000000004054FB21F93F8E
:104A40003163621A61B4D03D0000601A61B4D03D98
:104A50007370032E8A19A33B0000002E8A19A33B12
:104A6000C14920259A837B39000000000000000026
:104A70006E83F9A22915444ED15727FCC0DD34F5C9
:104A8000999562DB4190433CAB6351FE61C5BBDE4F
:104A90003A6E24B7E0D24D42EA2E49061C92D10963
:104AA0001CEB1DFE3EA729B1F53582E88444BB2EE0
:104AB00026709CE9417E5FB439D69139F43953832D
:104AC0008B5F849C3B28F9BDFF97F81F0F9805DE8C
:104AD0008B112FEF1F6D0A5ACF7E366DB709CB278A
:104AE000663F464F2DEA5F9EC7BA27757BF1E5EB1F
:104AF000F739073DEA92528AB15FFB6B085D8D1F63
:104B0000A6F810111111813FD561C119A0012ABF6A
:104B10007DFEB157E31DC73EEB9C2B8AE6E55ABEEE
:104B20007CD5CF5A3AD9E53D484B0008000000201B
:104B3000AC00000098460008F44B0008AC000020D0
:104B400044100000A846000800000000000000001B
:104B50000000000000000000000000000000000055
:104B60000000000000000000000000000000000045
:104B70000000000000000000000000000000000035
:104B80000000000000000000000000000000000025
:104B90000000000000000000000000000000000015
:104BA0000000000000000000000000000000000005
:104BB00000000000000000000000000000000000F5
:104BC00000000000000000000000000000000000E5
:104BD00000000000000000000000000001000000D4
:104BE00010000000000000000024F400000000009D
:044BF00000000000C1
:040000050800019559
:00000001FF
