:020000040800F2
:1000000038120020A9010008C73D00083B3A00084B
:10001000C53D0008790B0008954900080000000064
:100020000000000000000000000000008B3E0008FF
:100030005D1C000800000000893E0008F53F000834
:10004000C3010008C3010008C3010008C301000880
:10005000C3010008C3010008C3010008C301000870
:10006000C3010008C3010008C3010008C301000860
:10007000C3010008C3010008C3010008C301000850
:10008000711B00087D1B0008BD090008000000006E
:10009000000000000000000000000000C301000894
:1000A000C3010008D5400008C3010008C3010008CF
:1000B000C3010008C301000809410008C30100088A
:1000C000C3010008C3010008C3010008C301000800
:1000D000C3010008C3010008FD480008000000003B
:1000E000C3010008C3010008C301000800000000AC
:1000F000000000000000000000000000C301000834
:1001000000000000C3010008C3010008C30100088B
:1001100000000000000000000000000000000000DF
:10012000891B0008951B0008C3010008C3010008D3
:10013000C3010008000000000000000000000000F3
:10014000000000000000000000000000C3010008E3
:10015000A11B0008AD1B0008C301000849490008A5
:10016000C3010008C30100080000000000000000F7
:10017000000000000000000000000000000000007F
:1001800000000000C30100080000000000000000A3
:10019000C3010008DFF80CD000F090FB00480047D6
:1001A00011620008381200200648804706480047C0
:1001B000FEE7FEE7FEE7FEE7FEE7FEE7FEE7FEE717
:1001C000FEE7FEE781400008950100082DE9F05F99
:1001D0000546002092469B468846064681464024B6
:1001E0001BE0284641464746224600F0C0F95346E8
:1001F0005A46C01A914110D311461846224600F0C3
:10020000A7F92D1A67EB01084F462246012000216D
:1002100000F09EF917EB00094E41201EA4F10104E5
:10022000DFDC484631462A464346BDE8F09FD2B25D
:1002300001E000F8012B491EFBD270470022F6E7CF
:1002400010B513460A4604461946FFF7F0FF20464C
:1002500010BD421C10F8011B0029FBD1801A704709
:10026000034611F8012B00F8012B002AF9D118469A
:1002700070472DE9FE4F804681EA0300C00F0C460F
:10028000009021F0004123F00045B8EB0200A941A5
:1002900005D24046214690461C460B46024623F0B6
:1002A0000040104347D0270DC7F30A00C3F30A519B
:1002B0000290401A019040286BDAC3F3130040F417
:1002C000801B0098924620B10023D2EB030A63EB17
:1002D0000B0B01985946C0F14002504600F038F926
:1002E00006460D4650465946019A00F050F910EB6B
:1002F00008006141002487EA115284EAE7731A4337
:1003000040D0009A62B3019A012A4FEA075215DCE5
:10031000001B61EB02014FF0004202EA0752CDE9F7
:100320000042001C41F5801132462B4600F087F94F
:1003300003B0BDE8F08F40462146F9E7001B61EBB2
:100340000201001C41F5801300185B412018A2F542
:10035000001747EB030140EAD570B6196D4111E073
:100360006D084FEA360645EAC0754FEA0752001B92
:1003700061EB0201001C41F5801149084FEA300091
:100380000019514132462B4603B0BDE8F04F00F052
:1003900047B90098012240000023D0EB020263EB32
:1003A000E073009821464FEAE074B8EB000061EB7F
:1003B0000401E9E783F000435BE781F0004158E77F
:1003C0002DE9FE4F81EA030404F0004421F00041CE
:1003D00000944FF0000B23F0004350EA01045ED07C
:1003E00052EA03045BD0C3F30A54C1F30A552C4408
:1003F000A4F2F3340194A0FB0254C1F3130141F4BD
:100400008011C3F3130343F4801301FB024400FB88
:10041000034E840A970A44EA815447EA8357A4FBAF
:10042000076802958D0A05FB07854FEA932C04FBAC
:100430000C542705029D4FEA065847EA1637B5EBDC
:1004400008056EEB070C870E920E47EA811742EA09
:100450008312A7FB0201B6EB0B0164EB00042B0D2A
:1004600043EA0C335E1844EB1C50DA465146E7FB76
:100470000201C5F313044FEA0B3343EA14534FEA66
:100480000432019C43EA0603A4F10C040294009C8C
:10049000CDE900B400F0D3F803B0BDE8F08F002040
:1004A0000146F9E70EB5C10F80EAE0700844CA07BB
:1004B000002140F233438DE80E000A460B4600F05F
:1004C000BEF803B000BD00F0004230F000400AD09A
:1004D000C10D01F56071C0F3160042EA0151C20876
:1004E00040071143704700200146704701F0004368
:1004F00030B421F0004150EA010206D00A0DA2F505
:100500006072C1F31301002A02DC30BC0020704786
:10051000440F44EAC104C100E01830BC00EBC250F3
:1005200000F047B830B50B460146002020220124D8
:1005300009E021FA02F59D4205D303FA02F5491BB1
:1005400004FA02F52844151EA2F10102F1DC30BDC7
:10055000202A04DB203A00FA02F100207047914083
:10056000C2F1200320FA03F3194390407047202A78
:1005700004DB203A21FA02F00021704721FA02F34D
:10058000D040C2F120029140084319467047202A0A
:1005900006DBCB17203A41FA02F043EAE07306E0AB
:1005A00041FA02F3D040C2F12002914008431946BB
:1005B00070470029A8BF7047401C490008BF20F0C1
:1005C0000100704710B4B0FA80FC00FA0CF050EA59
:1005D000010404BF10BC704749B1CCF1200421FADA
:1005E00004F411FA0CF118BF012121430843A3EBD5
:1005F0000C01CB1D4FEA00614FEA102042BF0020E2
:1006000010BC704700EBC35010440029A4BF10BCBD
:100610007047401C490008BF20F0010010BC704723
:1006200010B5141E73F1000408DA401C41F10001FA
:1006300092185B411A4301D120F0010010BD2DE951
:10064000F04D92469B4611B1B1FA81F202E0B0FA48
:1006500080F220329046FFF77BFF04460F4640EAC7
:100660000A0041EA0B0153465A46084313D011468B
:1006700053EA010019D0C8F140025046FFF777FF56
:1006800005460E46504659464246FFF761FF08436D
:1006900005D0012004E020463946BDE8F08D002059
:1006A000054346EAE0762C4337430A986305E40A9B
:1006B000A0EB08000022FD0A44EA47540A3002D5A4
:1006C00000200146E9E7010510196941DDE9084507
:1006D00000196941BDE8F04DA2E72DE9F04D81EA2E
:1006E000030404F0004B21F0004514464FF0000ACB
:1006F00023F0004150EA050220D054EA01021DD047
:10070000C5F30A570246C5F31303C1F31300C1F33F
:100710000A5640F4801543F48013A7EB0608101B1B
:10072000D64608F2FD3873EB050002D308F1010844
:1007300001E092185B41B8F1000F03DA0020014696
:10074000BDE8F08D00204FF48011064684460EE08F
:10075000171B73EB050705D3121B63EB0503064359
:100760004CEA010C49084FEA300092185B4150EA0C
:100770000107EDD152EA030012D082EA040083EAB5
:100780000501084305D0101BAB4106D2012200230E
:1007900006E000224FF0004302E06FF00102531028
:1007A0001AEB06004CEB085110EB0A0041EB0B0171
:1007B000BDE8F04DFFF734BF2DE9F04D00231A4698
:1007C0001B1A8A4103DB00200146BDE8F08DC1F30E
:1007D0000A52C1F3130141F480154FF0000BD10709
:1007E00002D100186D41521E0027044640F2FF114D
:1007F000384601EB620A3E468046024600204FF42E
:100800008011FFF7B4FEC2197141BB1846EB01001D
:10081000B4EB030C75EB000C04D3E41A65EB000594
:1008200017460E46241908F101006D418046342810
:10083000E3DDF91946EB0600091BA84103D24FF08E
:10084000FF32134601E0002213461BEB070046EB84
:100850000A51BDE8F04DFFF7E3BEC1F30A52C1F300
:10086000130140F2FF3341F480119A4202DA002072
:100870000146704740F233439A42A2F2334202DC0F
:100880005242FFF774BEFFF763BE000030B5041E8E
:1008900071F1000404DB4FF00044404264EB0101BD
:1008A000141E73F1000405DB1C464FF00043524256
:1008B00063EB0403994208BF904230BD064C074DDC
:1008C00006E0E06840F0010394E807009847103420
:1008D000AC42F6D3FFF762FCB0660008D0660008B1
:1008E0000EB540F2334102910021CDE900110A46D4
:1008F0000B46FFF7A4FE03B000BD70B5C1F30A526A
:1009000001F000450024C1F3130140F2FF3341F42C
:1009100080119A4201DA002070BD40F233439A42BE
:10092000A2F2334203DC5242FFF721FE00E0904086
:100930002C43F1D0404270BD10B50146806B026C73
:1009400012F0500F05D0806BC26CBDE81040084615
:100950001047016C41F40071016401688A6812F06B
:10096000405F17D18269AAB9CA6A12F4700F02D027
:100970008A6852050ED44A6822F020024A60016C4F
:1009800021F480710164016CC90403D4016C41F04D
:100990000101016401F00CFA10BD10B5806B40211B
:1009A0000164416C41F00401416401F003FA10BD9F
:1009B00010B5806B01F0FDF910BD000000B58BB0E3
:1009C000074801F0F8F9074807A1D0E90023684675
:1009D00003F0E2FF684603F0E9FC0BB000BD000045
:1009E000880500202400002053656E736F72202557
:1009F000643B2564200D0A00454910B54A6822F47D
:100A000040324A604A6843681A434A6001684A684B
:100A100022F480724A6001684A68036942EA03224C
:100A20004A6001684A6822F040724A6001684A6878
:100A300083681A434A6001688A6822F400628A6007
:100A400001688A68C3681A438A60816A6FF07062BD
:100A5000D14201688A6822F070628A6001688A68FF
:100A60000CD0836A1A438A6001688A6822F0405277
:100A70008A6001688A68C36A1A4301E022F0405222
:100A80008A6001688A6822F002028A6001688A68C6
:100A9000836942EA43028A60016A002901684A6860
:100AA0000FD042F400624A6001684A6822F4604252
:100AB0004A6001684A68174C436A04EB43331A439F
:100AC00001E022F400624A600168CA6A22F47002FE
:100AD000CA620168CA6A838B0F4C04EB03531A4342
:100AE000CA6201688A6822F400728A6001688A68B2
:100AF000036B42EA43228A6001688A6822F48062BA
:100B00008A6001688A68406942EA8020886010BD76
:100B10000023014000E0FFFF0000F0FF10B50F4C84
:100B20000F4920780978884201D00E4906E00E4C22
:100B30000E492078097888420FD00D4901EB8011C9
:100B40000C48FFF78DFB2078401C00F00700207058
:100B5000BDE81040074803F099B910BD1C00002003
:100B600020000020880100202E000020210000200D
:100B70008803002048010020FEE700002DE9F04333
:100B8000DFF8C480314E324C98F80030314D8FB0D0
:100B900073B9314B93ED000A304B85ED000A93EDAC
:100BA000000A2F4B86ED000A93ED000A84ED000A3F
:100BB0000023B1469FED2B0ADFED2B0A20E0C65C37
:100BC000412E12D0582E02D0592E18D106E001EB3A
:100BD000830696ED001A89ED001A10E001EB8306FA
:100BE00096ED001A84ED001A09E001EB830696EDFC
:100BF000001A21EE001AC1EE201AC5ED001A5B1C86
:100C00009342DCDB2868FFF75EFC06460F4620684F
:100C1000FFF759FC04460D46D9F80000FFF753FCD6
:100C200041EC100B8DE8F00053EC102B0FA104A841
:100C300003F0B2FE04A803F0B9FB012188F800100C
:100C40000FB0BDE8F08300006D00002064000020BC
:100C500068000020600000205400002058000020A0
:100C60005C000020560E4940000034434F4B3A20B0
:100C7000583D25302E326620593D25302E326620D3
:100C8000413D25302E3266200D0A000070B58CB033
:100C90000023194C194D12E0C65C4C2E08D0522E80
:100CA0000CD101EB830696ED000A84ED000A05E005
:100CB00001EB830696ED000A85ED000A5B1C93426A
:100CC000EADB2868FFF7FFFB05460E462068FFF7C2
:100CD000FAFB41EC100BCDE9005653EC102B08A1A8
:100CE00002A803F059FE02A803F060FB0A490120A4
:100CF00008700CB070BD0000AC000020B0000020F7
:100D00004F4B3A20443D25302E326620473D25305A
:100D10002E3266200D0A00006D0000202DE9F04300
:100D2000DFF8B4802D4E2E4C98F800302D4D8FB04A
:100D300073B92D4B93ED000A2C4B85ED000A93ED12
:100D4000000A2B4B86ED000A93ED000A84ED000AA1
:100D50000023B1461CE0C65C412E12D0582E02D0B2
:100D6000592E14D106E001EB830696ED000A89EDB9
:100D7000000A0CE001EB830696ED000A84ED000A00
:100D800005E001EB830696ED000A85ED000A5B1C89
:100D90009342E0DB2868FFF796FB06460F46206883
:100DA000FFF791FB04460D46D9F80000FFF78BFBD7
:100DB00041EC100B8DE8F00053EC102B0DA104A8B2
:100DC00003F0EAFD04A803F0F1FA012188F800100D
:100DD0000FB0BDE8F08300006C0000204C00002044
:100DE00050000020480000203C000020400000206F
:100DF000440000204F4B3A20583D25302E326620CB
:100E0000593D25302E326620413D25302E32662058
:100E10000D0A000000B508498BB0002008704FF0A3
:100E200080414863886305A1684603F0B5FD6846C4
:100E300003F0BCFA0BB000BD6E0000204F4B3A200F
:100E4000456D657267656E63792053746F70200D10
:100E50000A00000000B502780B488BB0532A03D17A
:100E600091ED000A80ED000A0068FFF72CFB41ECD1
:100E7000100B06A153EC102B684603F08DFD68465D
:100E800003F094FA0BB000BDA80000204F4B3A20AD
:100E900054696D696E67206C6F6F70203A20253041
:100EA0002E3266200D0A00002DE9F04FDFF8649124
:100EB0008246594B99F80000584E594FDFF864C1EB
:100EC000594C5A4D8BB08B4690B9594800882080B8
:100ED000584800881880584800883880574800884B
:100EE000288057480088308056480088ACF80000B9
:100EF0000020411E66E000BF1AF80080B8F1410FE3
:100F000012D0B8F1420F29D0B8F1480F03D0B8F190
:100F1000530F56D13CE00BEB800191ED000ABDEE82
:100F2000C00A10EE101A4CE011B101290BD048E0B4
:100F30000BEB800898ED000ABDEEC00A10EE108A97
:100F4000A3F800803DE00BEB800898ED000ABDEEB1
:100F5000C00A10EE108AA6F8008032E011B1012913
:100F60000BD02EE00BEB800898ED000ABDEEC00A16
:100F700010EE108AA7F8008023E00BEB800898EDB4
:100F8000000ABDEEC00A10EE108AACF8008018E02E
:100F900011B101290BD014E00BEB800898ED000A89
:100FA000BDEEC00A10EE108AA4F8008009E00BEB39
:100FB000800898ED000ABDEEC00A10EE108AA5F870
:100FC0000080401C904297DB71B1012915D01EA111
:100FD00001A803F0E1FC01A803F0E8F9012189F878
:100FE00000100BB0BDE8F08FB7F900000090B3F926
:100FF0000030B4F900201EA107E0BCF90000009009
:10100000B6F90030B5F9002021A101A803F0C4FC15
:10101000E1E700006F0000208E0000209A00002011
:10102000920000209E0000208A00002096000020F0
:10103000880000208C0000209000002094000020F8
:10104000980000209C0000204B4F3A204E6F20500B
:10105000726F66696C2073656C65637465642028C3
:101060004830206F7220483129200D0A000000000E
:101070004F4B3A20445F50726F66696C20533D2598
:101080006420413D256420423D2564200D0A000076
:101090004F4B3A20415F50726F66696C20533D257B
:1010A0006420413D256420423D2564200D0A000056
:1010B00070B5154D154C8AB02B7823B9144B93EDB0
:1010C000000A84ED000A002309E0C65C442E05D125
:1010D00001EB830696ED000A84ED000A5B1C934247
:1010E000F3DB2068FFF7EFF941EC100B09A153EC9B
:1010F000102B684603F050FC684603F057F90120B6
:1011000028700AB070BD00006F000020840000202D
:10111000800000204F6B3A20426F6F6C5F445F6D20
:101120006D3D25302E3266200D0A000000B50649BF
:101130008BB00120087005A1684603F02DFC6846BD
:1011400003F034F90BB000BD6E0000204F4B3A2085
:10115000436F6E74726F6C20456E61626C656420C3
:101160000D0A00002DE9F04FDFF878B1DFF8789133
:10117000DFF878A19BF800305D4FDFF878C15E4C56
:101180005E4D8FB0EBB95E4B93ED000A5D4B89ED80
:10119000000A93ED000A5C4B84ED000A93ED000A0F
:1011A0005A4B87ED000A93ED000A594B8AED000A6D
:1011B00093ED000A574B85ED000A93ED000A8CED84
:1011C000000A00235E1E4DE010F80380B8F1440FC2
:1011D00024D0B8F1480F06D0B8F1490F30D0B8F19B
:1011E000500F3ED108E001EB830696ED000ABDEEFC
:1011F000C00A10EE106A34E016B1012E07D030E0BC
:1012000001EB830898ED000A89ED000A29E001EB63
:10121000830898ED000A8AED000A22E016B1012E3B
:1012200007D01EE001EB830898ED000A87ED000A65
:1012300017E001EB830898ED000A8CED000A10E03E
:1012400016B1012E07D00CE001EB830898ED000ADF
:1012500084ED000A05E001EB830898ED000A85EDB6
:10126000000A5B1C9342AFDB76B1012E20D02AA18D
:1012700004A803F091FB04A803F098F801218BF86F
:1012800000100FB0BDE8F08F3868FFF71CF9064674
:101290000F462068FFF717F904460D46D9F80000FD
:1012A000FFF711F941EC100B25A153EC102B13E0C3
:1012B000DCF80000FFF707F906460F462868FFF73D
:1012C00002F904460D46DAF80000FFF7FCF841EC9D
:1012D000100B25A153EC102B8DE8F00004A803F0AF
:1012E0005BFBC8E76F000020B8000020D0000020A2
:1012F000C8000020E0000020C0000020D80000202E
:10130000B4000020BC000020C4000020CC0000205D
:10131000D4000020DC0000204B4F3A204E6F2050BC
:10132000494420747970652073656C6563746564E5
:1013300020284830206F7220483129200D0A0000F3
:101340004F4B3A20445F50494420503D25302E32C7
:101350006620493D25302E326620443D25302E3210
:1013600066200D0A000000004F4B3A20415F5049B3
:101370004420503D25302E326620493D25302E3206
:101380006620443D25302E3266200D0A0000000004
:10139000F0B5204F204C214D3B788DB04BB9204B00
:1013A00093ED000A1F4B84ED000A93ED000A85EDD2
:1013B000000A002312E0C65C412E08D0442E0CD156
:1013C00001EB830696ED000A84ED000A05E001EBCF
:1013D000830696ED000A85ED000A5B1C9342EADB6A
:1013E0002868FFF770F805460E462068FFF76BF88F
:1013F00041EC100BCDE9005653EC102B0AA102A8CA
:1014000003F0CAFA02A802F0D1FF012038700DB033
:10141000F0BD00006C000020740000207C00002063
:1014200070000020780000204F4B3A204D393220C8
:10143000546963732F4D4D20533D25302E32662065
:1014400053706163696E67576865656C733D2530DD
:101450002E32660D0A00000070B5002315468AB0D2
:101460005C1E1A4617E0C65C482E02D0532E11D1DE
:1014700008E001EB830494ED000ABDEEC00A10EE13
:10148000104A07E001EB830292ED000ABDEEC00AAC
:1014900010EE102A5B1CAB42E5DB00230C484FF03A
:1014A0008041012C09D064B10AA1684603F074FAA6
:1014B000684602F07BFF0AB070BD03704A630DA15D
:1014C00002E003708A6310A1684603F065FAEFE753
:1014D0006E0000204B4F3A2053656C6563742061A9
:1014E00020746F6F6C284830206F72204831290DAE
:1014F0000A2000004F4B3A2050574D2048312053CE
:101500002564200D0A0000004F4B3A2050574D2013
:10151000483020532564200D0A0000002DE9F04FCB
:101520002DED048B01229BB09102FD4801F074F86F
:10153000FC4800260178012912D10670FA4890ED86
:10154000000AFA4880ED000AF94890ED000AF948CF
:1015500080ED000AF84890ED000AF84880ED000A96
:10156000F748DFF8E093DFF8E0A30178DFF8DCB3B9
:10157000F74C01291AD10670F64890ED000AF6489A
:101580008AED000A90ED000AF44880ED000AF44864
:1015900090ED000AF3488BED000A90ED000AF24846
:1015A00084ED000A90ED000A89ED000AEF48F04949
:1015B000F04D03880B80F0492A880A80EF490968BA
:1015C0000180EF48406A2880C91A0DB200EE105A17
:1015D000801A07B2B8EEC00AD4ED000AE948EB4918
:1015E00020EE200A90ED001AE74A086820EE010A72
:1015F00002EB800282ED000A00EE107AE24AB8EEB9
:10160000C00A283202EB8002401C20EE200A20EEA5
:10161000010A82ED000A0A2290FBF2F302FB13009A
:1016200008600020401C0A28FCDB43F6FF702A18E3
:1016300041008A4202D83844884206D9D4A111A870
:1016400003F0AAF911A802F0B1FEE81900EE100AA1
:10165000B6EE001AE81BF8EEC00A94ED000AA046A8
:10166000544660EE800A20EE818A00EE900A99EDE1
:10167000001AF8EEE00A60EE800A80EE810ADAEDE8
:10168000000A30EE800A8AED000A10EE100AFEF71A
:101690001AFF41EC100B03F00FFCB0EE409AF0EE95
:1016A000609A18EE100AFEF70EFF53EC192BFEF7A6
:1016B00087FEDFF8A89241EC190BD9F80000FEF77D
:1016C00002FF53EC192BFEF7D4FDFEF70FFFC9F80C
:1016D00000002068FEF7F7FE41EC100B03F050FC11
:1016E000B0EE409AF0EE609A18EE100AFEF7EBFEAC
:1016F00053EC192BFEF764FE41EC180B5C46DBF84B
:101700000000FEF7E0FE53EC182BFEF7B2FDFEF7EB
:10171000EDFE00EE100AA74884ED000A0178E9B357
:101720000670A548A749D0ED000AA448C0ED000AFC
:10173000A34800880880A448A44900880880A448D9
:10174000A44900880880A448A44900880880A448C7
:10175000A44900880880A448A44900880880A448B7
:10176000D0ED000AA348C0ED000AA348D0ED000A5E
:10177000A248C0ED000AA248D0ED000AA148C0ED81
:10178000000AA148D0ED000AA048C0ED000AA04818
:10179000D0ED000A9F48C0ED000A00E00BE09E4833
:1017A000D0ED000A9D48C0ED000A9D48D0ED000A2A
:1017B0009C48C0ED000A9C48007800286FD05D4826
:1017C00099ED001AD0ED000A5C4870EEC10AFDEEFA
:1017D000E00A10EE906AD0ED000ADAF8000030EE70
:1017E000C00ABDEEC00A10EE104AFEF76CFE41ECD6
:1017F000180B3046FEF756FE41EC190B2046FEF75B
:1018000051FE41EC100BB0EE491AF0EE691A03F0EC
:101810005BFA53EC182B51EC100BFEF7CBFDFEF7E7
:1018200065FE08EE100A764304FB0460FEF73AFEFC
:1018300041EC100B03F008FC7C4CDFED7D8A7D4E03
:1018400002E000BF38EE688A18EE100AA042F9DC08
:1018500002E000BF38EE288A18EE100AB042F9D82C
:1018600018EE100AFEF72FFE41EC100B03F024FBDC
:1018700018EE100A7049884204DC18EE100A6F490D
:10188000884207D99FED6E0A38EE008A02E000BF59
:1018900038EE688A18EE100AA042F9DC02E052E144
:1018A00038EE288A18EE100AB042F9D800EE105A25
:1018B00098ED001AC146B8EEC00ADFF8C880DFF81C
:1018C00084A1614B60EE011AD8ED000A9AED000A7E
:1018D00093ED002A524601EEE00A01EE907AF8EE0E
:1018E000E11A21EE811A01EE602A02F0A5FABDEE9E
:1018F000C00A10EE104AB0EE420A02F075FABDEED0
:10190000C00A10EE106A92ED000AB5EEC00AF1EEC0
:1019100010FA01DD002C02DBB5EEC00A96E09AE079
:10192000000002406D0000206000002054000020F4
:101930006400002058000020680000205C000020A7
:101940006C000020780000203C00002044000020B3
:1019500070000020480000204C00002040000020C3
:1019600050000020740000207C0000203600002081
:10197000340000203A00002038000020240C0040F1
:1019800000000140A8000020F80000200000002016
:101990004552524F523A2044656C746120656E6323
:1019A0006F646572206973206869676820200D0A7A
:1019B000000000006F000020840000208000002054
:1019C0008A000020880000208E0000208C0000206B
:1019D000920000209000002096000020940000203B
:1019E0009A000020980000209E0000209C0000200B
:1019F000A4000020A0000020B8000020B4000020B7
:101A0000C0000020BC000020C8000020C40000204E
:101A1000D0000020CC000020D8000020D4000020FE
:101A2000E0000020DC0000206E000020560E49403F
:101A3000560EC940560E49C0560EC93F560EC9BF74
:101A4000560E4940AC000020B0000020F1EE10FA24
:101A500002D2002C00DD002493ED000AB5EEC00A8E
:101A6000F1EE10FA01DD002E06DBB5EEC00AF1EE54
:101A700010FA02D2002E00DD002640F6B37041427B
:101A8000844201DD044602E08C4200DA0C468642C4
:101A900001DD064602E08E4200DA0E464FF4805128
:101AA000002C01DD002200E00122294800F0B4FDF5
:101AB0004FF40061002E01DD002200E001222448E5
:101AC00000F0AAFD002C01DB214600E061424FF04E
:101AD00080408163002E00DA7642466300EE107A81
:101AE000D9ED008A98ED008AB8EEC00A20EE280AE7
:101AF00020EE080A10EE100AFEF7E5FC00EE105A80
:101B000007468846B8EEC00A20EE280A20EE080AEA
:101B100010EE100AFEF7D7FC05460E46DAF8000074
:101B2000FEF7D1FC0497CDE9058441EC100B00953C
:101B3000CDE9016453EC102B06A107A802F02CFF9D
:101B400007A802F033FC1BB0BDEC048BBDE8F08F9E
:101B50000000024025302E32663B25302E32663B97
:101B600025643B25302E32663B25640D0A000000BB
:101B7000014800F017BB0000F4070020014800F006
:101B800011BB0000740D0020014800F00BBB0000E9
:101B9000B40C0020014800F005BB000054080020F0
:101BA000014800F0FFBA0000140D0020014800F0C9
:101BB000F9BA0000D40D002001681823CAB2103A07
:101BC000B2FBF3F2054B6FF30901032A9B5CC3657B
:101BD00000D9091D8165084670470000CC640008E3
:101BE00010B5014600208B698A6A4FF0C07453B16A
:101BF000B3F5005F15D072B1012A0CD0022A0AD0C9
:101C0000032A09D104E01AB1012A06D0022A03D11D
:101C1000C96AC90100D5012010BDC96AA142FAD024
:101C200010BD002AF7D0012AF2D0022AF3D0032AED
:101C3000F3D010BD30B50468256825F480252560F3
:101C4000046863608368402B036803D09960006870
:101C5000C26030BD9A600068C16030BD7047704797
:101C60007047000078B50024009490F83C20012AC9
:101C700019D0012280F83C200A6807230568092A48
:101C800013D9EE680A3A02EB420293409E43EE609B
:101C90000B788A680A3B03EB43039A400368DD68CC
:101CA0002A43DA6010E0022078BD2E6902EB42027E
:101CB00093409E432E610B788A6803EB43039A405E
:101CC00003681D692A431A614A681F23072A13D231
:101CD00005686E6B521E02EB820293409E436E6358
:101CE0000B790A885B1E92B203EB83039A40036868
:101CF0005D6B2A435A6327E005680D2A12D22E6BCA
:101D0000D21F02EB820293409E432E630B790A8816
:101D1000DB1F92B203EB83039A4003681D6B2A43D7
:101D20001A6311E0EE6A0D3A02EB820293409E4381
:101D3000EE620B790A880D3B92B203EB83039A4063
:101D40000368DD6A2A43DA62164B0568144A9D422D
:101D500006D10D68122D03D1556845F480055560F4
:101D600005689D4218D10B68102B01D0112B13D19F
:101D7000536843F400035360096810290CD10A49E1
:101D80000A4A0968B1FBF2F101EB8101490000E068
:101D9000491E00910029FBD180F83C40002078BD0D
:101DA0000023014000200140F000002040420F00CD
:101DB00070477047704770B5044600680168426814
:101DC000C1F34001C2F3401251B34AB3216CC906BA
:101DD00003D4216C41F400712164816811F0405FEB
:101DE00017D1A169A9B9C16A11F4700F02D0816835
:101DF00049050ED4416821F020014160206C20F497
:101E000080702064206CC00403D4206C40F001007A
:101E100020642046FFF7CCFF21686FF012000860B5
:101E2000206801684268C1F38001C2F3C01289B31F
:101E300082B3216CC90603D4216C41F400512164A2
:101E4000816811F4401F1ED1816B11F4401F02D034
:101E50008168490517D44168490514D4816811F097
:101E6000405F10D1A16971B9416821F080014160E2
:101E7000206C20F480502064206CC00503D4206CBA
:101E800040F0010020642046FFF7EAFE21686FF071
:101E90000C00086020680168426811F0010FC2F36D
:101EA00080120ED06AB10068C0070AD0206C40F4DE
:101EB00080302064204600F046F821686FF0010071
:101EC0000860206801684268C1F34011C2F3806273
:101ED00000290DD0002A0BD0616C41F00201616431
:101EE0006FF0200505602046FFF764FF206805605D
:101EF00070BD70B504004FF0000503D0206C0026C3
:101F000010B107E0012070BD666484F83C60204693
:101F100000F01AF8206CC00610D4206C20F4885011
:101F200040F0020020642046FEF766FD6664206CE7
:101F300020F0020040F00100206400E0012584F858
:101F40003C60284670BD704770B586B006461421C7
:101F50006846FEF773F92149306888423CD1204831
:101F60000025016841F480710160006800F4807010
:101F700005901B481438016841F0010101600068B8
:101F8000694600F001000590502000900320CDE943
:101F90000105144800F07CFA144C1348C4E900050C
:101FA0000015A560C4E90350800060618000A06155
:101FB0008011C4E907052046656200F0C3F908B145
:101FC000FFF74DFEB463002211461220A66300F015
:101FD00097FB122000F088FB06B070BD0020014086
:101FE000443802400000024010640240B40C00205B
:101FF000F8B50E4600210446009190F83C000128F7
:1020000007D0012084F83C0020688368DB0702D0F9
:1020100011E00220F8BD836843F0010383602D487E
:102020002D4B0068B0FBF3F000EB400000E0401ED9
:1020300000900028FBD120688368DB0748D0236C20
:1020400040F20165AB4343F480732364406840056C
:1020500005D5206C20F4005040F480502064206CA2
:10206000C00404D5606C20F00600606400E0616488
:1020700084F83C10A16B1A48184DC863A16B19482D
:102080000864A16B1848C86421686FF022000860DA
:102090002068416841F0806141602068816841F4B6
:1020A000807181602168134632464C31A06B00F08C
:1020B000B3F96868C006206802D00C49884207D18D
:1020C000816811F0405F03D1816841F080418160F7
:1020D0000020F8BDF000002040420F000023014026
:1020E00039090008B10900089B09000800200140D7
:1020F0002DE9F0410446876D00F094FA064694F805
:1021000035000025022806D08020606584F8345010
:102110000120BDE8F0812068016821F0160101600E
:102120002068416921F080014161206C08B9A06CF0
:1021300020B12068016821F0080101602068016871
:1021400021F0010101600BE000F06CFA801B052812
:1021500006D92020606504F8345F03206070D8E75A
:1021600020680068C007EFD194F85C103F208840D9
:10217000B86004F8345F012060700020C9E790F86F
:102180003510022903D080214165012070470521C7
:1021900080F835100068016821F00101016000201D
:1021A000704700002DE9F84304464FF00009CDF8D0
:1021B000009063484FF41651A56D0068B0FBF1F72D
:1021C0002E6894F85C10082000FA01F131420FD01B
:1021D00021680A6852070BD50A6822F004020A60D7
:1021E00094F85C108840A860606D40F00100606564
:1021F00094F85C104FF0010808FA01F0304208D062
:1022000021684969090604D5A860606D40F00200A4
:10221000606594F85C1004208840304208D0216842
:102220000968890704D5A860606D40F00400606506
:1022300094F85C1010208840304218D0216809685A
:10224000090714D5A86020680168490304D500680F
:10225000000308D5A16C07E00168C90503D4016833
:1022600021F008010160216C09B12046884794F8EB
:102270005C1020208840304231D021680968C906AE
:102280002DD5A86094F8350005282068016806D08F
:10229000490347D5006800031DD4616C1CE021F0A0
:1022A000160101602068416921F080014161206CC4
:1022B00008B9A06C20B12068016821F00801016014
:1022C00094F85C103F208840A86084F8349084F82B
:1022D0003580216D1FE0E16B09B120468847606DB4
:1022E00000282BD0606DC00714D0052084F835007D
:1022F0002068016821F0010101600098401C0090F5
:10230000B84203D820680068C007F6D184F834903A
:1023100084F83580E16C002910D001B02046BDE87A
:10232000F04308470168C905D5D4016821F01001C0
:10233000016084F8349084F83580CCE7BDE8F883F8
:10234000F00000202DE9F041044600F06BF906464C
:102350005CB1002584F83450022084F835002068F0
:10236000016821F0010101600DE00120BDE8F0816C
:1023700000F058F9801B052805D92020606503204E
:1023800084F83500F2E720680068C007F0D12268C1
:10239000116820480140D4E901031843D4E9033609
:1023A0003343184363691843A3691843E369184327
:1023B000236A18430843616A042903D1D4E90B1343
:1023C00019430843106020684069666A20F00701DD
:1023D00030460E43012704280CD1A06A0643E06A68
:1023E00040B12046FFF7FCFB20B14020606584F837
:1023F0003570BAE7206846612046FFF7DDFB94F8A8
:102400005C203F2191408160656584F83570002033
:10241000ACE700003F8010F02DE9F0410446866DE6
:1024200090F83400002501280DD0012084F83400F4
:1024300094F835700020012F07D084F8340002256D
:102440002846BDE8F0810220FBE7022784F83570BA
:1024500060652046FFF7EEFB94F85C103F20884053
:10246000B0602068016841F0160101602068416990
:1024700041F080014161206C20B12068016841F089
:10248000080101602068016841F001010160D7E79F
:102490002DE9F84FDFF860B100224FF001084FF04E
:1024A000030A4FF00F090BF1040E00BF0B6808FA86
:1024B00002F42340A3426ED14D68022D01D0122DAB
:1024C0000ED1D50800EB850CDCF820505607F70E2E
:1024D00009FA07F6B5430E69BE402E43CCF82060DA
:1024E000066855000F790AFA05FC07F0030726EA8B
:1024F0000C06AF40374307604E68012E05D0022E10
:1025000003D0112E01D0122E0ED18668CF6826EA94
:102510000C06AF40374387604668A6430C79C4F386
:102520000014944034434460C6688C6826EA0C0664
:10253000AC403443C4604C68E40056D52F4C256849
:1025400045F480452560246822F0030504F48044A6
:1025500000942B4C2E19D6F8084895072F0F09FA2E
:1025600007F5AC43274DA84201D1002515E0264DC3
:10257000A84201D1012510E0244DA84201D1022535
:102580000BE0234DA84201D1032506E0214DA842CE
:1025900002D1042501E028E00725BD402543C6F807
:1025A0000858DBF800405D464E689C43F60300D5B2
:1025B0001C432C60DEF8004075464E689C43B60311
:1025C00000D51C432C600C4D08352C684E689C438C
:1025D000F60200D51C432C60074D0C352C684E6864
:1025E0009C43B60200D51C432C60521C102AFFF4F9
:1025F0005DAFBDE8F88F0000003C01404438024068
:102600000030014000000240000402400008024087
:10261000000C0240001002400AB1816170470904B9
:10262000FBE700000148806870470000E4000020DC
:10263000024881680278114481607047E4000020FC
:102640000B4810B5016841F400710160016841F464
:1026500080610160016841F480710160032000F035
:102660006FF8002000F006F800F024F8002010BDFC
:10267000003C024070B50D4D04464FF47A71287845
:10268000B1FBF0F00A490968B1FBF0F000F0E0FAA4
:1026900048B9102C07D200222146501E00F030F815
:1026A00000206C6070BD012070BD0000E4000020BF
:1026B000F00000200B4882B0016841F480410160C5
:1026C000006800F4804000900648001F016841F057
:1026D00080510160006800F080500090072002B037
:1026E00000F02EB84438024000F01F020121914052
:1026F0004009800000F1E020C0F8001170470000A0
:10270000F0B40E4B1B680C46C3F30223C3F107055C
:10271000042D00D90425191D072901D2002300E04A
:10272000DB1E012606FA05F1491E214099409E4014
:10273000761E16403143F0BC01F046BB0CED00E0C4
:10274000064900F0070208684FF6FF03184040EA08
:102750000220034A10430860704700000CED00E0BF
:102760000000FA052DE9F0470E46050065D0DFF8B8
:102770001481D8F80000F7B200F00F00B04207D281
:1027800088F80070D8F8000000F00F00B04254D173
:1027900028683D4C810712D5400703D5206840F4D6
:1027A000E05020602878000703D5206840F460409E
:1027B00020602068A96820F0F00008432060287895
:1027C000C0072DD0304968680839012812D0022886
:1027D00013D0032811D00968890700292DDA216850
:1027E00021F0030101432160FFF71CFF814641F204
:1027F000883A0EE009688903EFE709688901ECE788
:10280000FFF710FFA0EB0901514502D90320BDE8F5
:10281000F0872068696800F00C00B0EB810FEFD101
:10282000D8F80010404601F00F01B14207D90770F7
:10283000006800F00F00B04201D00120E7E72878DF
:10284000400705D52068E96820F4E050084320607F
:102850002878000706D52068296920F4604040EAFE
:10286000C100206000F036F82168084AC1F3031166
:10287000515CC840064908600020FFF7FBFE0020BD
:10288000C5E70000003C024008380240D46400085C
:10289000F00000200448054900680968044AC1F3B3
:1028A0008221515CC8407047F00000200838024087
:1028B000E46400080448054900680968044AC1F353
:1028C0004231515CC8407047F00000200838024097
:1028D000E4640008154810B5006810F00C021448B4
:1028E00013D04110042A0FD0082A0ED10F4C241FF8
:1028F0002268236802F03F025B0207D52068C0F31C
:102900008810A0FB010106E0084610BD2168C1F354
:102910008811A1FB00010023FDF758FC2168C1F3D9
:102920000141491C4900B0FBF1F010BD08380240DC
:102930000024F4002DE9F84F050076D02878DFF860
:10294000F8B2BE4CC00749D0DBF800105846C1F3BE
:102950008101012908D00068C0F3810002280AD152
:10296000201D0068400206D52068800336D56868BF
:102970000028E2D032E06868B0F5803F10D0B0F5B2
:10298000A02F206810D020F480302060206820F430
:10299000802020606868A0B1FFF744FE06460CE086
:1029A000206840F48030F4E740F480202060F7E7AE
:1029B000FFF738FE801B642873D820688003F7D5A2
:1029C0000CE0FFF72FFE064605E000BFFFF72AFEEA
:1029D000801B6428F0D820688003F7D42878DFF8BB
:1029E000608280074FF000093ED5DBF800105846A2
:1029F00011F00C0F09D00068C0F3810002280BD140
:102A00008D48001F0068400206D42068800715D555
:102A1000E868012809D111E0E868B8B10120C8F8D8
:102A20000000FFF7FFFD064605E002E1FFF7FAFDB3
:102A3000801B0228C0D820688007F7D52068296944
:102A400020F0F80040EAC10020600DE0C8F80090D6
:102A5000FFF7E8FD064604E0FFF7E4FD801B0228CF
:102A60001FD820688007F7D42878000722D5724E37
:102A7000744869696C3671B101210160FFF7D2FDBC
:102A8000074604E0FFF7CEFDC01B022809D83068D6
:102A90008007F7D50EE0C0F80090FFF7C3FD0746AA
:102AA00005E083E0FFF7BEFDC01B02287ED830683A
:102AB0008007F7D42878400768D5DFF87CA1002785
:102AC0000AF1380ADAF80000C0000BD4DAF8001076
:102AD00041F08051CAF80010DAF80000012700F038
:102AE00080500090584E3068C00510D4306840F4D3
:102AF00080703060FFF796FD009005E0FFF792FDD3
:102B00000099401A022851D83068C005F6D54A4EBF
:102B1000A868683601280FD00528306810D020F04A
:102B200001003060306820F004003060A868B8B15F
:102B3000FFF778FD00900FE0306840F00100F4E707
:102B400040F004003060F7E7FFF76CFD0099411A90
:102B500041F28830814264D830688007F4D50EE0B5
:102B6000FFF760FD009007E0FFF75CFD0099411A58
:102B700041F28830814254D830688007F4D42FB1B4
:102B8000DAF8001021F08051CAF80010A869C0B32B
:102B9000DBF80010C1F3810102294AD0022848461F
:102BA00007D0C8F86000FFF73DFD00E039E00546BA
:102BB0003AE04746C8F86000FFF734FD064604E0F7
:102BC000FFF730FD801B02282BD820688001F7D446
:102BD000D5E907010843A96A1C4A490802EB0141EB
:102BE0006A6A41EA8211084395F82C1040EA0161B3
:102BF0001148001F016001203866FFF713FD0546EC
:102C000005E014E0FFF70EFD401B022809D82068FC
:102C10008001F7D50BE000BFFFF704FD401B022841
:102C200002D90320BDE8F88F20688001F4D4002089
:102C3000F8E70120F6E700000838024000380240BB
:102C400000004742800E4742007000400000FFFF36
:102C500010B5401EB0F1807F01D3012010BD4FF0B0
:102C6000E02460610F21601701F0AEF80020A06140
:102C700007202061002010BD7047704730B590F8E4
:102C80003820012A20D0012280F83820022380F841
:102C9000393003685C6824F070045C6003685C6829
:102CA0000D682C435C6003689C6824F080049C6081
:102CB00003689C6849680C439C6080F839200021B7
:102CC00080F83810084630BD022030BD10B5040031
:102CD00003D094F8390010B107E0012010BD0020A6
:102CE00084F83800204600F00DF8022084F83900FE
:102CF000211D206801F02EFA012084F839000020FF
:102D000010BD000008B5214A01682148914207D151
:102D1000016841F002010160006800F002001DE05E
:102D20001C4A91420ED1016841F004010160006823
:102D3000002200F00400009011461E20FFF7E0FC86
:102D40001E201EE01248144A001D914208D101685D
:102D500041F480310160006800F48030009008BDCB
:102D60000E4A9142FBD1016841F4003101600068D4
:102D7000002200F40030009011461920FFF7C0FC3B
:102D80001920BDE80840FFF7AFBC00000004004078
:102D9000403802400008004000400140004401402B
:102DA0000168CA6842F00102CA600068016841F027
:102DB000010101600020704770B5044690F83800AA
:102DC000012817D0012584F83850022084F83900F2
:102DD0002068826822F0770222F47F4282600868CD
:102DE000502837D00DDC202859D005DC88B31028B6
:102DF00041D151E0022070BD302853D040283AD153
:102E00003FE060282ED070280BD0B0F5805F03D053
:102E1000B0F5005F2FD110E02068816821F0070134
:102E200015E0CB68D1E90121206801F0E6F92168BD
:102E3000886840F0770088601DE0CB68D1E9012107
:102E4000206801F0DAF92068816841F480418160EE
:102E500011E01EE0CA684968206801F083FA502139
:102E6000206806E0CA684968206801F08CFA602191
:102E7000206801F0CCF984F83950002084F838003B
:102E800070BDCA684968206801F06CFA402120686A
:102E9000EFE700212068ECE710212068E9E7202116
:102EA0002068E6E730212068E3E72DE9F0410D4690
:102EB000040003D094F8390018B108E00120BDE8FF
:102EC000F081002084F83800204600F039F8022014
:102ED00084F839002068816821F007018160211D94
:102EE000206801F037F9226890689169166A2B68AA
:102EF000AF69034340F20330814341EA0721A868E8
:102F0000EF6908434FF6FC418843E96840EA07202F
:102F1000014328692F6A000140EA073008436968C5
:102F20006D6926F0AA0646EA0515294393602268D2
:102F3000906120680162012084F839000020BEE71A
:102F4000F0B587B0064614216846FDF777F9344F8F
:102F500032680025334802210324334BBA4240D162
:102F6000304A1432176847F001071760126802F000
:102F700001020592026842F0010202600068CDE998
:102F8000021400F0010005902002CDE900010120AB
:102F9000049069461846FFF77BFA254C23482060C9
:102FA0004FF04060C4E901054FF48060C4E903506C
:102FB000400060618000C4E9060525622046656224
:102FC000FFF7C0F908B1FEF74AFEF461002211468E
:102FD0001920A663FFF794FB1920FFF785FB07B0C4
:102FE000F0BD144EB242FAD10E4A1032166846F0C5
:102FF00008061660126802F008020592026842F0A4
:103000000102026000680094CDE9011500F00100A2
:10301000CDE90410039569461846FFF739FADEE753
:103020000000014030380240000002408864024045
:10303000140D0020000C004010B50446006891B14A
:10304000042904D00122002101F0CCF820680122DB
:103050005FF0040101F0C6F82068016841F0010149
:103060000160002010BD01220021F3E7704710B578
:1030700004460068012201F0B5F82068016841F0BB
:1030800001010160002010BD70B5044600680169AF
:103090004FF00005C943890715D4C168C9438907A2
:1030A00011D4E91E01610120207620688069800723
:1030B000204602D0FFF7DAFF04E000F000F92046D6
:1030C00000F0C8F9257620680169C943490717D47B
:1030D000C168C943490713D46FF00401016102209C
:1030E00020762068806910F4407F204602D0FFF7E8
:1030F000BDFF04E000F0E3F8204600F0ABF92576D0
:1031000020680169C943090716D4C168C943090782
:1031100012D46FF008010161042020762068C06994
:103120008007204602D0FFF7A1FF04E000F0C7F8B7
:10313000204600F08FF9257620680169C943C90649
:1031400017D4C168C943C90613D46FF010010161D7
:10315000082020762068C06910F4407F204602D005
:10316000FFF784FF04E000F0AAF8204600F072F9AF
:10317000257620680169C943C90708D1C168C943D8
:10318000C90704D1891E0161204600F0ADF920680D
:103190000169C943090609D4C168C943090605D4B0
:1031A0006FF0800101612046FFF766FD206801692C
:1031B000C943490609D4C168C943490605D46FF01B
:1031C00040010161204600F090F920680169C9437F
:1031D00089060BD4C168C943890607D46FF0200162
:1031E00001612046BDE87040FFF747BD70BD00009B
:1031F00070B586B0044614216846FDF71FF82068B4
:10320000B0F1804F28D11548016841F001010160FB
:10321000016801F001010591016841F002010160BE
:103220000068022400F0020005904FF40040CDE950
:10323000000402AA0325012682E8700069460848B6
:10324000FFF726F90820CDE9000402AA694682E8C2
:1032500070000448FFF71CF906B070BD303802401A
:10326000000002400004024070B5044690F83800A7
:1032700001280DD0012584F83850022084F8390047
:1032800042B1042A0AD0082A0CD00C2A11D10DE030
:10329000022070BD206800F0C3FF0AE0206800F043
:1032A000E7FF06E0206801F00FF802E0206801F077
:1032B00037F884F83950002084F8380070BD704722
:1032C00010B5040003D094F8390010B107E00120D4
:1032D00010BD002084F83800204600F00CF80220D1
:1032E00084F83900211D206800F034FF012084F8A3
:1032F0003900002010BD704710B504460068012257
:1033000000F070FF07492068884203D1416C41F406
:10331000004141642068016841F001010160002022
:1033200010BD00000000014070B5044690F8380060
:103330000D4601280DD0012684F83860022084F85B
:10334000390042B1042A18D0082A2AD00C2A4DD1BB
:1033500039E0022070BD206800F062FF20688169BA
:1033600041F0080181612068816921F004018161D7
:10337000206881692A69114311E0206800F078FF14
:103380002068816941F4006181612068816921F4CC
:1033900080618161206881692A6941EA0221816135
:1033A00024E0206800F090FF2068C16941F0080126
:1033B000C1612068C16921F00401C1612068C1694F
:1033C0002A69114311E0206800F0AAFF2068C16952
:1033D00041F40061C1612068C16921F48061C1616B
:1033E0002068C1692A6941EA0221C16184F8396013
:1033F000002084F8380070BD10B5040003D094F8A4
:10340000390010B107E0012010BD002084F8380019
:10341000204600F00DF8022084F83900211D2068B4
:1034200000F098FE012084F83900002010BD000053
:1034300008B50068B0F1804F08D10548016841F037
:1034400001010160006800F00100009008BD00006B
:10345000403802407047000010B504460068012261
:1034600000F0C0FE07492068884203D1416C41F456
:10347000004141642068016841F0010101600020C1
:1034800010BD00000000014010B50268044631B1D3
:10349000042908D008291DD00C2908D11EE0D068C5
:1034A00040F0020002E0D06840F00400D060012249
:1034B000206800F097FE0B492068884203D1416CD8
:1034C00041F4004141642068016841F0010101605C
:1034D000002010BDD06840F00800E7E7D06840F059
:1034E0001000E3E7000001407047704710B5044644
:1034F0000068416994F83920C1F3C011212A0BD129
:1035000051B1416921F080014161206B08B1FEF7A2
:10351000EFFD204601F01AF82068416994F83A203E
:10352000C1F38011222A0BD151B1416921F0400130
:103530004161606B08B1FEF7DBFD204600F0F8FF4B
:10354000002010BD7047000070B502680446106886
:10355000D168536910F00F0F50D003F0010501F44A
:10356000907635435DD0C20705D0CA0503D5E26B1E
:1035700042F00102E263420705D5DA0703D0E26BAD
:1035800042F00202E263820705D5DA0703D0E26B5C
:1035900042F00402E263020705D5DA0703D0E26BCA
:1035A00042F00802E263E26B002A33D0800604D5C1
:1035B000880602D5204600F0D2FF20684069E16B02
:1035C000C0F38010090700D428B3204600F0B0FFF4
:1035D0002068416949061AD5416921F040014161DD
:1035E000606BA0B11B490165606BFEF7C8FD002848
:1035F00010D0606B016DBDE870400847830610D5A0
:103600008B060ED52046BDE8704000F0A8BF2046CE
:10361000FFF798FF70BD2046FFF794FF0020E0639E
:1036200070BD030606D50B0604D52046BDE87040E4
:1036300001F032B94006F3D54806F1D5D1682046ED
:1036400021F04001D160202184F8391000F094F974
:1036500070BD00005944000870B5040004D094F80F
:103660003900002510B106E0012070BD84F8385003
:10367000204600F023F8242084F839002068C1682F
:1036800021F40051C160204600F0B0FF20680169BC
:1036900021F4904101612068416921F02A014161D2
:1036A0002068C16841F40051C160E563202084F8BE
:1036B000390084F83A00002070BD00002DE9F04385
:1036C00087B0044614216846FCF7B8FD5948DFF876
:1036D00060C12768022101220323002506154FF04F
:1036E000400967454DD1534F1037D7F800C04CF40F
:1036F000003CC7F800C03F6807F40037059707682B
:1037000047F001070760006800F0010005900C20F9
:103710008DE80F000720049069464748FEF7B8FE81
:10372000474F46484FF000683860C7E90185C7E950
:1037300003567D61BD61FD613D6238467D62FEF7E5
:1037400001FE08B1FEF78BFA6763BC633D4F3B484F
:10375000C7E903567D61BD61FD613D6218307D6240
:1037600087E801033846FEF7EDFD08B1FEF777FA6A
:103770002763002211462620BC63FEF7C1FF2620E6
:1037800050E0DFF8C4C067454ED12A4F1437D7F850
:1037900000C04CF0200CC7F800C03F6807F02007BD
:1037A0000597076847F004070760006800F0040009
:1037B0000590C0208DE80F0008200490694623483A
:1037C000FEF766FE234F22484FF020683860C7E9B5
:1037D0000185C7E903567D61BD61FD613D623846E3
:1037E0007D62FEF7AFFD08B1FEF739FA6763BC638F
:1037F000194F1748C7E903567D61BD61FD613D6200
:1038000078307D6287E801033846FEF79BFD08B1FA
:10381000FEF725FA2763002211464720BC63FEF716
:103820006FFF4720FEF760FF07B0BDE8F0830000A0
:1038300000440040303802400000024088600240EE
:10384000F4070020740D002000140140000802401D
:103850002864024054080020D40D0020F8B5044626
:1038600090F83A0020283CD1C1B3BAB394F838009C
:10387000012836D0012084F83800A162A2850025F5
:10388000E563222084F83A00636B1748D863636BC2
:1038900016481864636B1648D864606B1346056558
:1038A0000846666B216802463046091DFEF7B4FDE6
:1038B000206801684168009184F83850C16841F47B
:1038C0008071C1602068416941F001014161206857
:1038D000416941F0400141610020F8BDFFE701204E
:1038E000FBE70220F9E70000B3440008EF440008BA
:1038F000694400087047704770B5044690F8390075
:10390000202830D169B362B394F8380001282AD056
:10391000012084F838002162A284E2840025E56356
:10392000212084F83900236B1048D863236B10489A
:103930001864236B0F48D864206B1346056526680E
:10394000206B321DFEF768FD21686FF040000860B3
:1039500084F838502068416941F0800141610020BD
:1039600070BD012070BD022070BD0000F944000848
:1039700027450008694400082DE9F0410746006822
:103980002349002688421ED1224C23492078401C1E
:1039900000F0070020700978884214D01F4991F880
:1039A000391020290FD11E4D05EB8010FCF751FC7A
:1039B00082B2207805EB80111848FFF79DFF207830
:1039C00005EB801006701749386888421ED1164CE6
:1039D00016492078401C00F00700207009788842C2
:1039E00014D0134991F8391020290FD1114D05EB4E
:1039F0008010FCF72EFC82B2207805EB80110C4879
:103A0000FFF77AFF207805EB80100670BDE8F081A3
:103A1000001401402C0000202D000020B4070020DD
:103A2000B4080020004400402F0000203000002097
:103A300074070020B40A00207047FEE77FB5002419
:103A400016480094019402941349039401604FF4C2
:103A50008031C0E9011484614FF040510462C162B9
:103A600002264FF0E061C66101258162C0E903458D
:103A700005634461FEF73DFA0420CDE9000569467F
:103A800002940648FEF7EEF80620CDE900066946E6
:103A90000248FEF7E7F87FBD0020014088050020BE
:103AA000214808B5016841F480010160016801F412
:103AB00080010091016841F400110160006800225A
:103AC00000F40010009011461020FEF719FE10209F
:103AD000FEF70AFE002211461120FEF711FE11200A
:103AE000FEF702FE002211463820FEF709FE3820BC
:103AF000FEF7FAFD002211463920FEF701FE3920BB
:103B0000FEF7F2FD002211464420FEF7F9FD4420A5
:103B1000FEF7EAFD002211464520FEF7F1FDBDE863
:103B200008404520FEF7E0BD3038024070B586B051
:103B300014216846FCF782FB25480024016841F007
:103B400004010160016801F004010591016841F080
:103B500080010160016801F080010591016841F078
:103B600001010160016801F001010591016841F066
:103B7000020101600068174E00F00200059000226B
:103B80004FF4E1513046FEF747FD4FF400500090EE
:103B90001148CDE9010469461048FEF779FC4FF45D
:103BA000846000900125CDE90154694630460394B4
:103BB000FEF76EFC4FF4C050CDE900050320CDE9BF
:103BC000024069463046FEF763FC06B070BD000057
:103BD000303802400000024000002110000802407E
:103BE00010B58CB024216846FCF728FB002413484C
:103BF000099411490A94C0E900144FF6FF71C0E915
:103C00000241046144610320CDE900040120CDE9B3
:103C1000020405210491CDE90540CDE9074169463B
:103C20000648FFF742F92020CDE9090409A9034815
:103C3000FFF724F80CB010BD00000140D0050020B3
:103C400010B58AB0002407941C2168460894FCF73C
:103C5000F5FA13484FF08041C0E9001441F26701C2
:103C6000C0E902410461FFF7C7FB079407A90C48AC
:103C70000894FFF703F86020CDE9000402940022C5
:103C8000694607480494FFF74FFB0422694604483D
:103C9000FFF74AFB0248FFF7ABFA0AB010BD00007D
:103CA0000C06002010B58EB00024079408940994E7
:103CB0000A940B941C2168460C94FCF7BFFA154833
:103CC000134901602021C0E9011445F20821C0E92F
:103CD0000314FEF7FBFF4FF48050079007A90D482F
:103CE000FFF76AF80B48FFF7EBFA0B940BA90948AA
:103CF0000C94FEF7C3FF3020CDE9000402940022AB
:103D0000694604480494FFF7AFFA0EB010BD0000F6
:103D1000000400404806002010B586B00024114879
:103D2000009401940294039404940D490594016055
:103D30002021C0E9011445F20821C0E90314FEF76F
:103D4000C5FF4FF48050009069460648FFF734F8ED
:103D5000049404A903480594FEF790FF06B010BD33
:103D6000000800408406002010B58CB0242168466D
:103D7000FCF764FA00241248099410490A94C0E937
:103D800000144FF6FF71C0E9024104610320CDE940
:103D900000040120CDE902040494CDE90540079414
:103DA000694607480894FFF780F82020CDE9090408
:103DB00009A90348FEF762FF0CB010BD000C0040DB
:103DC000C0060020FEE770470907090E002806DA42
:103DD00000F00F0000F1E02080F8141D704700F1A2
:103DE000E02080F8001470470F481049D0ED050A14
:103DF00080ED050AD0ED061A30EE601AD1ED000A0A
:103E00000B4960EE800A30EE210AD1ED001A094913
:103E100041EE800A91ED000A40EE010AB0EE600A20
:103E200080ED060A7047000000000020B40000206A
:103E3000BC000020C40000200F481049D0ED020A49
:103E400080ED020AD0ED031A30EE601AD1ED000ABF
:103E50000B4960EE800A30EE210AD1ED001A0949C3
:103E600041EE800A91ED000A40EE010AB0EE600AD0
:103E700080ED030A7047000000000020B40000201D
:103E8000BC000020C400002070477047F0B5A7B008
:103E90000746002004466D4614AE23900AE000BF9A
:103EA0009DED250A05EB840080ED000A9DF8900049
:103EB0003055641C23AB3A4625A924A802F07CFAAD
:103EC0000028EDD1002C0FD09DF8500047280DD0D0
:103ED0004D282BD04F2872D0404A41A119A800F09C
:103EE0005BFD19A800F062FA27B0F0BD9DED000A55
:103EF000BDEEC00A10EE100A50B101280FD05C28A8
:103F0000F2D1641E62B2291D701CFCF707FFEBE7BB
:103F1000641E62B2291D701CFCF730FEE4E7641ECB
:103F200062B2291D701CFCF7B1FEDDE79DED000AB1
:103F3000BDEEC00A10EE100A87282AD00CDC032838
:103F400019D05C281ED07028CED1641E62B2291D03
:103F5000701CFCF75FFFC7E7C92821D0CA2826D00C
:103F6000A0F580702D38BFD1641E62B2291D701C6F
:103F7000FDF7F8F8B8E7641E62B2291D701CFDF762
:103F8000D5F8B1E7641E62B2291D701CFDF700FA76
:103F9000AAE7641E62B2291D701CFCF75BFFA3E751
:103FA000641E62B2291D701CFCF77EFF9CE7641E34
:103FB00062B2291D701CFDF77BF895E7FFE79DEDC8
:103FC000000ABDEEC00A10EE100A01288CD1641E52
:103FD00062B2291D701CFDF73FFA85E748010020F9
:103FE000556E7265636F676E697A65642025730D1F
:103FF0000A000000FEF71CBB30B593B030216846C4
:10400000FCF71CF914210CA8FCF718F91A48002435
:10401000016841F080510160006800F0805011900B
:104020001648016821F4404141F4004101600068F4
:10403000022500F4404011900120039010200095CB
:1040400006950490CDE907404FF4A870099004202C
:104050000A9007200B906846FEF76CFC0F20CDE914
:104060000C05E802CDE90E4002210CA81094FEF7E1
:1040700079FB13B030BD00004038024000700040B2
:104080001048016841F4700101600F48016841F077
:10409000010101600C4A00210832116002680B4BDB
:1040A0001A400260031D0A4A1A60026822F4802244
:1040B000026005480C3001600249580680390860EA
:1040C0007047000088ED00E000380240FFFFF6FE78
:1040D000103000240A4810B500680069C043C007CA
:1040E000084803D0BDE81040FEF7CEBFFEF7CCFF76
:1040F0000348FEF7C9FFBDE81040FDF70FBA000006
:1041000038070020D005002000B58BB00948FEF725
:10411000BBFF09480068406B08490880084809A1AE
:10412000D0E90023684600F037FC684600F03EF90D
:104130000BB000BD8406002048060020320000209D
:104140002400002053656E736F722025643B256444
:104150000D0A0000F0B502681B4B1C4C9F031C4D60
:104160001C4E984207D0B84205D0A04203D0A842C6
:1041700001D0B04204D122F0700C4A6842EA0C022D
:10418000984210D0B8420ED0A0420CD0A8420AD01B
:10419000B04208D0104CA04205D0104CA04202D032
:1041A0000F4CA04203D122F44074CA68224302603B
:1041B0008A68C2620A688262984201D10969016311
:1041C00001214161F0BD00000000014000040040F9
:1041D00000080040000C0040004001400044014045
:1041E0000048014010B50123046A8B409C430462DF
:1041F000036A8A401343036210BD10B5846842EA23
:10420000032224F47F440A432243826010BD826863
:1042100022F070020A4342F00701816070470000FB
:1042200030B5026A22F001020262026A43688469C0
:1042300024F073050C682C4322F002058A682A4397
:104240000A4DA8420BD122F00805CA6823F4407336
:104250002A434D6922F004021D438B692B434360BE
:10426000846149684163026230BD00000000014082
:1042700030B5026A22F010020262026A4368846961
:104280000D6824F4E64444EA05248D6822F02002F7
:1042900042EA05120B4DA8420ED1CD6822F08002F1
:1042A00042EA05124D6923F4406343EA85038D69B0
:1042B00022F0400243EA85034360846149688163D8
:1042C000026230BD0000014030B5026A22F4807203
:1042D0000262036A4268C46923F4007324F0730520
:1042E0000C682C438D6843EA05230C4DA8420ED17F
:1042F000CD6823F4006343EA05234D6922F440525C
:1043000042EA05128D6923F4806342EA0512426095
:10431000C4614968C163036230BD00000000014010
:1043200030B5026A22F480520262046A4268C369AC
:104330000D6823F4E64343EA05238D6824F4005412
:1043400044EA0534064DA84204D14D6922F4804266
:1043500042EA85124260C36149680164046230BD6B
:104360000000014010B5036A046A24F001040462ED
:10437000846924F0F00444EA021423F00A020A4398
:104380008461026210BD10B5036A23F0100303625A
:104390008369046A23F4704343EA023224F0A003E1
:1043A00043EA01118261016210BD00002DE9F04174
:1043B000224D8046204C2878414604EB8010FBF7C4
:1043C0004FFF204E1E4F4146307807EB8010FBF721
:1043D00047FF2878401C00F0070028703078401C08
:1043E00000F007003070184890F8390020280CD1F0
:1043F000164D287804EB8010FBF72BFF82B228784B
:1044000004EB80111048FFF777FA114890F8390053
:1044100020280ED10F4C207807EB8010FBF719FFF6
:1044200082B2207807EB8011BDE8F0410848FFF721
:1044300063BABDE8F0810000B40800202D00002020
:10444000B40A002030000020B40700202C00002017
:10445000740700202F00002010B5806B0021C1855B
:10446000C184FFF76FF810BD70B5846B2068406998
:1044700094F83910C0F3C0100025212904D118B1D7
:10448000E584204600F062F82068406994F83A100C
:10449000C0F38010222904D118B1E585204600F030
:1044A00047F8E06B40F01000E0632046FFF74AF861
:1044B00070BD10B50146806B09680968C90513D441
:1044C0000021C1850168CA6822F48072CA6001684F
:1044D0004A6922F001024A6101684A6922F04002F9
:1044E0004A61202180F83A10FFF704FA10BD10B598
:1044F000806BFFF700FA10BD10B50146806B0968AC
:104500000968C9050CD40021C18401684A6922F0F8
:1045100080024A610068C16841F04001C16010BD7D
:10452000FFF72AFA10BD10B5806BFFF785FA10BDB2
:104530000168CA6822F49072CA6001684A6922F070
:1045400001024A61202180F83A1070470168CA6868
:1045500022F0C002CA60202180F83910704710B5DF
:1045600090F83A10222901D0022010BD8168B1F5DF
:10457000805F11D00169002901681FD0496801F0EE
:104580007F03816A4A1C82620B70C18D491E090437
:10459000090CC18518D026E00269816A002A0268E8
:1045A000526805D0D2B20A80816A491C8162ECE768
:1045B000C2F308020A80816A891CF7E74A68816AA7
:1045C0004B1C83620A70E0E70168CA6822F49072AB
:1045D000CA6001684A6922F001024A61202180F81C
:1045E0003A10FFF787F9002010BD00002DE9F041D7
:1045F00004460068016921F44052E16811430161F9
:104600002168C86849F20C6290432369A268E56991
:104610001A4363692B431A430243CA6021684869FD
:1046200020F44072A06910434861E1696425B1F546
:10463000004F9748974A21684FF032083FD0914287
:1046400001D081427CD1FEF735F900EBC00101EBCE
:10465000001061688900B0FBF1F6FEF72BF900EB62
:10466000C00101EB001061688900B0FBF1F0B0FB04
:10467000F5F06FF01801484306EB800108EB0110DC
:10468000B0FBF5F000F0F006FEF714F900EBC00106
:1046900001EB001061688900B0FBF1F0B0FBF5F0B0
:1046A00006EB0016FEF706F900EBC00101EB001067
:1046B00061688900B0FBF1F7FEF7FCF8D2E09142A7
:1046C00001D081423DD1FEF7F5F800EBC00101EBCE
:1046D000001061684900B0FBF1F0B0FBF5F0060195
:1046E000FEF7E8F800EBC00101EB0010616849003B
:1046F000B0FBF1F7FEF7DEF800EBC00101EB0010B4
:1047000061684900B0FBF1F0B0FBF5F06FF0180103
:10471000484307EB800108EBC100B0FBF5F000F067
:10472000F80006EB4006FEF7C5F800EBC00101EB10
:10473000001061684900B0FBF1F7FEF7BBF83CE000
:1047400055E0FEF7A7F800EBC00101EB001061682F
:104750004900B0FBF1F0B0FBF5F00601FEF79AF866
:1047600000EBC00101EB001061684900B0FBF1F7FC
:10477000FEF790F800EBC00101EB00106168490002
:10478000B0FBF1F0B0FBF5F06FF01801484307EB18
:10479000800108EBC100B0FBF5F000F0F80006EB7B
:1047A0004006FEF777F800EBC00101EB00106168EE
:1047B0004900B0FBF1F7FEF76DF800EBC00101EB2B
:1047C000001061684900B0FBF1F0B0FBF5F06FF04C
:1047D0001801484307EB800108EBC100B0FBF5F07E
:1047E00000F00700216830448860BDE8F081FEF7E2
:1047F00051F800EBC00101EB001061688900B0FBCB
:10480000F1F6FEF747F800EBC00101EB001061681C
:104810008900B0FBF1F0B0FBF5F06FF018014843F0
:1048200006EB800108EB0110B0FBF5F000F0F0069C
:10483000FEF730F800EBC00101EB00106168890061
:10484000B0FBF1F0B0FBF5F006EB0016FEF722F836
:1048500000EBC00101EB001061688900B0FBF1F7CB
:10486000FEF718F800EBC00101EB00106168890049
:10487000B0FBF1F0B0FBF5F06FF01801484307EB27
:10488000800108EB0110B0FBF5F000F00F00A9E784
:10489000001401400010014090F83910212901D086
:1048A000022070478168B1F5805F016A0BD04A1C15
:1048B0000262026809785160C18C491E0904090C22
:1048C000C1840ED017E009880268C1F30801516065
:1048D00001690029016A02D0491C0162ECE7891CC8
:1048E000FBE70168CA6822F08002CA600068C168FC
:1048F00041F04001C16000207047000038B50F480A
:10490000FEF722FE0D4C20680068C00614D50C4D41
:104910002878401C00F0070028702046FEF7E6FDCE
:1049200008482978402200EB81112046FEF796FFC7
:10493000206801684068009038BD000074070020BE
:10494000210000208803002038B50F4C2068006843
:10495000C00614D50D4D2878401C00F007002870C3
:104960002046FEF7C3FD0A482978402200EB81115A
:104970002046FEF773FF2068016840680090BDE89C
:1049800038400148FEF7E0BDB407002020000020B9
:1049900088010020FEE700000FB4084B10B504A901
:1049A00002AA039801F084F8044602A9002001F04D
:1049B00016FC204610BC5DF814FB0000DF61000807
:1049C00003B401984100009850EAC12018BF0420A8
:1049D0004A0D18BF40F0010040F2FF72B2EB515F88
:1049E00008BF40F00200012808BF052002B0704750
:1049F00070B59B482DED020B2DED068B079D25F024
:104A00000044A04218DC9748844202DC0AD1069890
:104A100040B19DED060BBDEC068B02B0BDE87040C9
:104A200000F03ABF002DCCBF9FED8F0B9FED900B98
:104A3000BDEC068B02B070BD8F48A04215DD8F48DB
:104A4000A042D8BF4FF0FF3458DD9DED060B51EC6E
:104A5000100BFFF7B5FF042808BF00F041FF9DEDE4
:104A6000060BBDEC068B02B070BD9DED060B51EC44
:104A7000100B01F0C1FBCDE9060181489FED828B4F
:104A8000A0423CDD8248A0421FDD00249FED82ABA6
:104A90009DED060B53EC1A2B51EC100BFBF7E9FBC9
:104AA0009DED060B41EC190B53EC1A2B51EC100B3E
:104AB000FBF786FC53EC182BFBF77CFC53EC192B13
:104AC000FBF70BFECDE9060149E09DED060B012445
:104AD00053EC182B51EC100BFBF7CBFB9DED060BA9
:104AE00041EC190B53EC182B51EC100BFBF762FC4B
:104AF00053EC192BFBF7F1FDCDE906012FE06848D7
:104B0000A0421FDD02249FED689B9DED060B53EC38
:104B1000192B51EC100BFBF753FC53EC182BFBF744
:104B2000A8FB9DED060B41EC180B53EC192B51EC37
:104B3000100BFBF73FFC53EC182BFBF7CEFDCDE938
:104B400006010CE09DED060B032453EC102B9FEDAA
:104B5000580B51EC100BFBF7C0FDCDE906019DEDA4
:104B6000060B53EC102B51EC100BFBF729FC41EC1E
:104B7000180B53EC182BFBF723FC41EC190B4E4898
:104B80000621B0EE490AF0EE690A784400F070FDA3
:104B900053EC182B51EC100BFBF712FC41EC180BEB
:104BA0004648B0EE490AF0EE690A0521784400F063
:104BB0005FFD53EC192B51EC100BFBF701FC41ECA2
:104BC000100B51EC180B53EC102B002C0EDAFBF7EA
:104BD00050FB9DED061B53EC112BFBF7F1FB9DEDFC
:104BE000061B53EC112BFBF7E8FB35E0FBF741FB11
:104BF0009DED061B53EC112BFBF7E2FB41EC100B78
:104C00002F48784400EBC40090ED001B51EC100BD2
:104C100053EC112BFBF7CEFB9DED061B53EC112B38
:104C2000FBF7C8FB41EC100B2648784400EBC400AE
:104C300090ED001B51EC100B53EC112BFBF7BDFB5F
:104C400041EC100B002DA2BFBDEC068B02B070BD75
:104C500051EC100B81F0004141EC100B01E700001A
:104C6000000010440000F07F182D4454FB21F93F50
:104C7000182D4454FB21F9BF0000DC3F0000203E0A
:104C80000000F33F00000000000000000000F03FC3
:104C90000000E63F000000000000000000000040AF
:104CA0000080034000000000000000000000F83F0A
:104CB000000000000000F0BFCA19000080190000C9
:104CC0000A190000C218000070B56B4E2DED040BE0
:104CD0002DED028B82B0DDF81CC0DDE905235C42BE
:104CE0002CF000411C4341EAD474049D22F00040A2
:104CF000B44205D86C422C4340EAD474B4420BD978
:104D00009DED061B9DED040B02B0BDEC028B04B0C3
:104D1000BDE8704000F0CABDACF14054A4F17F641E
:104D20001C430BD0022404EAAC7444EAD274054359
:104D30009FED538B9FED542B07D015E09DED040B99
:104D400051EC100B01F050FA42E0002C11BF012C85
:104D50009DED040B02B0BDEC028B04BF04B070BD2E
:104D6000022C38D0032C3BD00B439FED491B9FED09
:104D70004A0B0AD0B14218D1B04209D121F080418A
:104D800020F08040079105900FE0002A15DA10E02E
:104D9000434B7B44002C08BF93ED000B0DD0012C3E
:104DA00010D0022C17D0032C1AD0B0421DD1002AEB
:104DB00003DAB0EE410AF0EE610A02B0BDEC028BFC
:104DC00004B070BD93ED000B51EC100B81F000416D
:104DD00041EC100BF1E7B0EE480AF0EE680AECE7A0
:104DE000B0EE420AF0EE620AE7E7401A00153C28EE
:104DF000C8BF8DED000B19DCBCF1000FBEBF10F178
:104E00003C0F9FED290B8DED000B0FDB9DED060B8D
:104E100053EC102B9DED040B51EC100BFBF75DFCDC
:104E200001F0EAF901F0E0F9CDE90001002C08BF3A
:104E30009DED000BC1D0012C10D0022C9FED1C0B5E
:104E400053EC102B9DED000B51EC100B0DD0FBF72C
:104E5000B1FA53EC182BFBF7ADFAB9E7019880F0E3
:104E6000004001909DED000BA7E7FBF7A3FA53EC80
:104E7000182BFBF7A2FAABE70000F07F0000000060
:104E8000182D4454FB210940182D4454FB2109C01E
:104E9000182D4454FB21F9BF182D4454FB21F93F30
:104EA00022180000000000000000000000000000C8
:104EB000075C143326A6A13C10B52F499FED2C1B8F
:104EC0002DED020B84B0059820F000408842D8BF39
:104ED0009DED040B2DDD2949884209D1049840B984
:104EE0004FF0010000F01CFD00F0EAFC06B010BD20
:104EF00005DB9DED040B00F0CFFC06B010BD68464D
:104F00009DED040B00F0E0F810F0030004BF9DEDF0
:104F1000021B9DED000B0CD001280ED09DED021B55
:104F20009DED000B022817D0012000F01DFC06B0FB
:104F300010BD00F0E5FA06B010BD9DED021B9DED21
:104F4000000B012000F010FC51EC100B81F000412F
:104F500006B041EC100B10BD00F0D2FA51EC100B72
:104F600081F0004106B041EC100B10BD00000000C4
:104F70000000000000000000FB21E93F0000F07F7E
:104F800010B52F499FED2C1B2DED020B84B0059819
:104F900020F000408842DCBF00209DED040B32DD94
:104FA0002849884209D1049840B94FF0010000F027
:104FB000B7FC00F085FC06B010BD05DB9DED040BD1
:104FC00000F06AFC06B010BD68469DED040B00F0D1
:104FD0007BF810F0030011D0012818D09DED021BC2
:104FE0009DED000B02281AD000F08AFA51EC100B4C
:104FF00081F0004106B041EC100B10BD9DED021B8D
:105000009DED000B012000F0AFFB06B010BD9DED43
:10501000021B9DED000B00F073FA06B010BD0120DD
:1050200000F0A2FB51EC100B81F0004106B041EC06
:10503000100B10BD00000000000000000000000088
:10504000FB21E93F0000F07F00B52DED048BB0EEB1
:10505000409AF0EE609A83B051EC190BFBF7ACFB71
:1050600041EC180B18EE100A18EE901A8DED008B1B
:10507000002818BF0120084320F00040C0F17F60E5
:1050800000F1E040C00F14D019EE101A19EE900A8A
:105090008DED009B002918BF0121084320F000403E
:1050A000C0F17F6000F1E040C00F04BF012000F0BC
:1050B00037FCB0EE480A03B0F0EE680ABDEC048B92
:1050C00000BD0000000000002DE9F14F04462DED69
:1050D000020B2DED088B8AB09FEDE70B80ED020BE4
:1050E000139EE74826F0004585420ADC9DED120B31
:1050F000002084ED000B0AB0BDEC088B03B0BDE8C6
:10510000F08FE0489FEDE0AB9FEDE1BBA84247DDAB
:10511000E14F9FEDE39B9FEDE48B9DED120B53EC74
:105120001A2B51EC100B002E1CDDFBF743F941EC60
:10513000100BBD4208D053EC1B2B51EC100BFBF7AE
:1051400039F9C4E900010BE053EC192B51EC100BB9
:10515000FBF730F953EC182BFBF72CF9C4E90001ED
:105160000120C8E7FBF785F841EC100BBD4208D0E1
:1051700053EC1B2B51EC100BFBF77BF8C4E900013F
:105180000BE053EC192B51EC100BFBF772F853ECBE
:10519000182BFBF76EF8C4E900014FF0FF30AAE7C7
:1051A000C348A84279DB9DED120B51EC100B01F0C6
:1051B00023F841EC180B9FEDC00B53EC102BFBF7C1
:1051C000FFF89FEDBF1B53EC112BFBF752F8FBF7D9
:1051D00094FB0746FBF766F941EC190B53EC1A2BCD
:1051E000FBF7EEF853EC182BFBF7E7F841EC180B44
:1051F00053EC1B2B51EC190BFBF7E2F8DFF8C8A2BC
:1052000041EC100B4FEA15580125FA4453EC102BD2
:1052100051EC180BFBF7CEF8032DC4E900013DD08B
:10522000C1F30A5005EB4511A8EB0000113981428A
:1052300034DA0AEB051BB0EE48AA9BED000BF0EE4A
:1052400068AA53EC102B51EC190BFBF7B9F841ECA1
:105250001B0B51EC1A0B53EC1B2BFBF7ABF841EC7F
:10526000180B51EC1A0B53EC182BFBF7A3F853EC6B
:105270001B2BFBF79FF89BED020B41EC1A0B53EC39
:10528000102B51EC190BFBF79BF853EC1A2BFBF787
:1052900091F841EC100B6D1CB8E70EE0002EA8BF92
:1052A0003846BFF628AF94ED000B51EC100B81F09F
:1052B0000041C4E9000178421DE7C6F3130040F441
:1052C000801EC6F30A50A0F2F530471100F01F050A
:1052D000C5F12000DDF848B0089000200690079046
:1052E0000520EC467949002D07EB0002794408BF00
:1052F00051F8221009D051F8223001EB8201AB4065
:105300004A68089922FA01F11943A1FB0E26A1FB74
:105310000B131A449A4234BF0123002303EB0608FF
:105320000CEB8003D3E901A60E448E4234BF012169
:10533000002192448A4411B1924502D903E092457A
:1053400001D2012100E00021C3E901A641444CF84B
:105350002010011EA0F10100C4DC029800F10050F1
:10536000850F0298DDE903678000DDF81480FBF704
:1053700099F841EC1A0B3046FBF7B2FA9FED541B3B
:1053800053EC112BFBF71CF841EC1B0B3846FBF7D9
:10539000A7FA9FED511B53EC112BFBF711F841ECD1
:1053A000180B4046FBF79CFA9FED4D1B53EC112B5D
:1053B000FBF706F841EC190B51EC180B53EC192BC9
:1053C000FAF757FF53EC1B2BFAF753FF53EC1A2B4A
:1053D000FAF74FFFCDE90801002008909DED080B7A
:1053E00053EC1A2B51EC100BFAF7E4FF53EC1B2B88
:1053F000FAF7E0FF53EC182BFAF7DCFF53EC192B0C
:10540000FAF7DBFF9FED381B53EC112BFAF7D8FFAF
:105410009FED370B41EC180B53EC102B9DED080B57
:1054200051EC100BFAF7CCFF53EC182BFAF721FFD5
:105430009FED310B41EC180B53EC102B9DED080B3D
:1054400051EC100BFAF7BCFF53EC182BFAF711FFD5
:1054500041EC100B139810F0004F06D06D4251EC48
:10546000100B81F0004141EC100B284684ED000B3D
:1054700041E6000000000000000000000000000005
:10548000FB21E93F7CD9024000004054FB21F93F59
:105490003163621A61B4D03DFB21F93F0000000086
:1054A0000000601A61B4D03D7370032E8A19A33BCB
:1054B000FB2139410000000083C8C96D305FE43F23
:1054C000000000000000E03FB213000000130000E5
:1054D000000000000000103E000000000000103C32
:1054E000000000000000103A182D4454FB21F93D43
:1054F0003326A611460B113C00000054FB21F93D58
:1055000010B52DED040B2DED088B82B0B0EE419A55
:10551000F0EE619A0B9820F000449FED4BABB4F194
:10552000795F11DA9DED0A0B51EC100BFBF7E5F9F1
:10553000002801BFB0EE4A0AF0EE6A0A02B0BDECE4
:10554000088B04BF04B010BD9DED0A0B53EC102B6B
:1055500051EC100BFAF734FF41EC180B3C480621D4
:10556000B0EE480AF0EE680A784400F081F853EC97
:10557000182B51EC100BFAF723FF9DED0A0B41ECB1
:105580001B0B53EC192B51EC100BFAF719FF41ECE4
:10559000190B53EC1B2B51EC180BFAF711FF53ECC2
:1055A000192BFAF707FF9FED2C0B41EC190B53EC6D
:1055B000102B51EC180BFAF703FF41EC100B2848A5
:1055C000844210DA53EC192B51EC100BFAF7F2FE6F
:1055D00053EC1A2BFAF7F1FE41EC100B02B0BDECC4
:1055E000088B04B010BD1F48A042BCBF9FED1E1B1E
:1055F0008DED001B06DBA4F500100190002000904B
:105600009DED001B51EC100B53EC112BFAF7D2FE61
:105610009DED000B41EC180B53EC102B51EC1A0BC9
:10562000FAF7C8FE41EC1A0B53EC192B51EC180B8E
:10563000FAF7C0FE53EC1A2BFAF7BFFE41EC100B41
:10564000CCE7000000000000000000000000F03F78
:105650001C10000000000000000000000000E03FFF
:105660003333D33F0000E93F000000000000D23F89
:1056700070B504462DED028B4D1E00EBC500B0EE5B
:10568000408AF0EE608A90ED000B35F0060017D0EE
:1056900053EC182B51EC100BFAF792FE41EC100B67
:1056A0006D1E04EBC50090ED001B51EC100B53EC8C
:1056B000112BFAF7DEFD41EC100B35F00600E7D1B7
:1056C000022D36D0042D1CD0062D1CBFBDEC028B44
:1056D00070BD53EC182B51EC100BFAF771FE94EDE2
:1056E0000A1B53EC112BFAF7C4FD53EC182BFAF7F5
:1056F00067FE94ED081B53EC112BFAF7BAFD41EC51
:10570000100B53EC182B51EC100BFAF759FE94EDDB
:10571000061B53EC112BFAF7ACFD53EC182BFAF7E0
:105720004FFE94ED040B53EC102BFAF7A2FD41EC65
:10573000100B53EC182B51EC100BFAF741FE94EDC3
:10574000021B53EC112BFAF794FD53EC182BFAF7CC
:1057500037FE94ED001B53EC112BFAF78AFDBDECDC
:10576000028B41EC100B70BD31B504462DED040BDE
:105770002DED0A8BB0EE41BAF0EE61BA0B989DEDBB
:105780000A0B20F00040B0F1795F0DDA51EC100BFC
:10579000FFF716F9042808BF00F0A2F89DED0A0BE8
:1057A000BDEC0A8B05B030BD53EC102B51EC100B47
:1057B000FAF706FE41EC180B9DED0A0B53EC182B83
:1057C00051EC100BFAF7FCFD41EC190B2C48B0EE34
:1057D000480AF0EE680A05217844FFF749FF9FED7B
:1057E0002ACBB0EE40AAF0EE60AA9CB353EC1C2B7F
:1057F00051EC190BFAF7E4FD41EC1C0B53EC1A2B9E
:1058000051EC190BFAF7DCFD9FED210B41EC190B64
:1058100053EC102B51EC1B0BFAF7D2FD53EC192B68
:10582000FAF7C8FD53EC182BFAF7CAFD53EC1B2B03
:10583000FAF7C0FD53EC1C2BFAF7BCFD9DED0A1BDB
:1058400053EC112BFAF7B9FDBDEC0A8B05B041EC16
:10585000100B30BDFFE753EC1A2B51EC180BFAF785
:10586000AFFD53EC1C2BFAF704FD53EC192BFAF7A0
:10587000A7FD9DED0A1B53EC112BFAF7FAFCE3E7A9
:10588000AC0E000000000000495555555555C5BFE8
:10589000000000000000E03F10B553EC102B51EC6D
:1058A000100BFAF7E6FC41EC100B10BD10B553ECF1
:1058B000112B51EC100BFAF7DCFC41EC100B10BD76
:1058C0009FED050B10B553EC102B51EC100BFAF7B4
:1058D00004FF41EC100B10BD0000000000000000B0
:1058E0009FED050B10B553EC102B51EC100BFAF794
:1058F00067FD41EC100B10BD00000000000000101F
:1059000002E008C8121F08C1002AFAD17047704788
:10591000002001E001C1121F002AFBD170470000E6
:105920000149086070470000F40000202DE9FF5F86
:1059300082B00021DDE90430020DDDF840B0034300
:1059400018D044F61050A2F2FF32424315141198B9
:1059500001281FD0A5EB0B00401C5FEA000A4FF0A6
:1059600000064E4FDFF83891B046504615D5CAF1C3
:10597000000413E0119801244AA3012801D16FEA21
:105980000B010298119AC0E90031C0E9024206B049
:10599000BDE8F09FCBF10000DFE704460021404A5C
:1059A000491842EB0450CDE9001012E0E00707D09F
:1059B00032463B4640464946FAF702FD8046894654
:1059C00032463B4610461946FAF7FAFC06460F46A1
:1059D0006410002CEAD1DDE90401DDE90023BAF10D
:1059E000000F06DAFAF7ECFC42464B46FAF7E8FC01
:1059F00005E0FAF772FE42464B46FAF76EFE0446A1
:105A00000E460022284BFAF741FF03D84FF0FF3033
:105A1000014607E00022254B20463146FAF729FCD3
:105A2000FAF71BFF102409E0002C0ADB0A220023EE
:105A3000FAF7CCFB039B30321A55641E50EA010280
:105A4000F2D1641C039AC4F111031444119A012A7F
:105A500003D0012208430DD10AE0084304D00020FE
:105A60004FF0110B119072E7A3EB0B056D1E0DE0CB
:105A70005B4504DD4FF0000205F1010504E003DAA7
:105A80004FF00002A5F10105002AECD0029811990F
:105A9000C0E90231C0E9004579E700000000144088
:105AA0000000F03F300000000000F0430000E03F45
:105AB0002DE9FF4F95B09B468946064600250FE22B
:105AC000252877D100242746F84A0121059400E0D3
:105AD000044316F8013F203B01FA03F01042F7D1CE
