:020000040800F2
:1000000028110020A9010008EB3000087F2D00080E
:10001000E9300008C9090008AD44000800000000EC
:100020000000000000000000000000000F31000888
:10003000A5130008000000000D310008653200081B
:10004000C3010008C3010008C3010008C301000880
:10005000C3010008C3010008C3010008C301000870
:10006000C3010008C3010008C3010008C301000860
:10007000C3010008C3010008C3010008C301000850
:10008000C5120008D1120008C301000800000000DA
:10009000000000000000000000000000C301000894
:1000A000C301000845330008C3010008C30100086C
:1000B000C3010008C3010008C3010008C301000810
:1000C000C3010008C3010008C3010008C301000800
:1000D000C3010008C3010008154400080000000027
:1000E000C3010008C3010008C301000800000000AC
:1000F000000000000000000000000000C301000834
:1001000000000000C3010008C3010008C30100088B
:1001100000000000000000000000000000000000DF
:10012000C3010008DD120008C3010008C301000874
:10013000C3010008000000000000000000000000F3
:10014000000000000000000000000000C3010008E3
:10015000E9120008F5120008C30100086144000814
:10016000C3010008C30100080000000000000000F7
:10017000000000000000000000000000000000007F
:1001800000000000C30100080000000000000000A3
:10019000C3010008DFF80CD000F0C8FB004800479E
:1001A000415D0008281100200648804706480047A6
:1001B000FEE7FEE7FEE7FEE7FEE7FEE7FEE7FEE717
:1001C000FEE7FEE7F1320008950100082DE9F05F37
:1001D0000546002092469B468846064681464024B6
:1001E0001BE0284641464746224600F0F8F95346B0
:1001F0005A46C01A914110D311461846224600F0C3
:10020000DFF92D1A67EB01084F4622460120002135
:1002100000F0D6F917EB00094E41201EA4F10104AD
:10022000DFDC484631462A464346BDE8F09FD2B25D
:1002300001E000F8012B491EFBD270470022F6E7CF
:1002400010B513460A4604461946FFF7F0FF20464C
:1002500010BD421C10F8011B0029FBD1801A704709
:10026000034611F8012B00F8012B002AF9D118469A
:1002700070472DE9FE4F804681EA0300C00F0C460F
:10028000009021F0004123F00045B8EB0200A941A5
:1002900005D24046214690461C460B46024623F0B6
:1002A0000040104347D0270DC7F30A00C3F30A519B
:1002B0000290401A019040286BDAC3F3130040F417
:1002C000801B0098924620B10023D2EB030A63EB17
:1002D0000B0B01985946C0F14002504600F070F9EE
:1002E00006460D4650465946019A00F088F910EB33
:1002F00008006141002487EA115284EAE7731A4337
:1003000040D0009A62B3019A012A4FEA075215DCE5
:10031000001B61EB02014FF0004202EA0752CDE9F7
:100320000042001C41F5801132462B4600F0BFF917
:1003300003B0BDE8F08F40462146F9E7001B61EBB2
:100340000201001C41F5801300185B412018A2F542
:10035000001747EB030140EAD570B6196D4111E073
:100360006D084FEA360645EAC0754FEA0752001B92
:1003700061EB0201001C41F5801149084FEA300091
:100380000019514132462B4603B0BDE8F04F00F052
:100390007FB90098012240000023D0EB020263EBFA
:1003A000E073009821464FEAE074B8EB000061EB7F
:1003B0000401E9E783F000435BE781F0004158E77F
:1003C0002DE9FE4F81EA030404F0004421F00041CE
:1003D00000944FF0000B23F0004350EA01045ED07C
:1003E00052EA03045BD0C3F30A54C1F30A552C4408
:1003F000A4F2F3340194A0FB0254C1F3130141F4BD
:100400008011C3F3130343F4801301FB024400FB88
:10041000034E840A970A44EA815447EA8357A4FBAF
:10042000076802958D0A05FB07854FEA932C04FBAC
:100430000C542705029D4FEA065847EA1637B5EBDC
:1004400008056EEB070C870E920E47EA811742EA09
:100450008312A7FB0201B6EB0B0164EB00042B0D2A
:1004600043EA0C335E1844EB1C50DA465146E7FB76
:100470000201C5F313044FEA0B3343EA14534FEA66
:100480000432019C43EA0603A4F10C040294009C8C
:10049000CDE900B400F00BF903B0BDE8F08F002007
:1004A0000146F9E70EB5C10F80EAE0700844CA07BB
:1004B000002140F233438DE80E000A460B4600F05F
:1004C000F6F803B000BD70B5C1F30A5201F0004563
:1004D0000024C1F3130140F2FF3341F480119A422A
:1004E00001DA002070BD40F233439A42A2F2334257
:1004F00003DC524200F073F800E090402C43F1D04E
:10050000404270BD00F0004230F000400AD0C10D02
:1005100001F56071C0F3160042EA0151C2084007BC
:1005200011437047002001467047000030B5041E9B
:1005300071F1000404DB4FF00044404264EB010120
:10054000141E73F1000405DB1C464FF000435242B9
:1005500063EB04038B4208BF824230BD01F00043CD
:1005600030B421F0004150EA010206D00A0DA2F594
:100570006072C1F31301002A02DC30BC0020704716
:10058000440F44EAC104C100E01830BC00EBC25083
:1005900000F047B830B50B46014600202022012468
:1005A00009E021FA02F59D4205D303FA02F5491B41
:1005B00004FA02F52844151EA2F10102F1DC30BD57
:1005C000202A04DB203A00FA02F100207047914013
:1005D000C2F1200320FA03F3194390407047202A08
:1005E00004DB203A21FA02F00021704721FA02F3DD
:1005F000D040C2F120029140084319467047202A9A
:1006000006DBCB17203A41FA02F043EAE07306E03A
:1006100041FA02F3D040C2F120029140084319464A
:1006200070470029A8BF7047401C490008BF20F050
:100630000100704710B4B0FA80FC00FA0CF050EAE8
:10064000010404BF10BC704749B1CCF1200421FA69
:1006500004F411FA0CF118BF012121430843A3EB64
:100660000C01CB1D4FEA00614FEA102042BF002071
:1006700010BC704700EBC35010440029A4BF10BC4D
:100680007047401C490008BF20F0010010BC7047B3
:1006900010B5141E73F1000408DA401C41F100018A
:1006A00092185B411A4301D120F0010010BD2DE9E1
:1006B000F04D92469B4611B1B1FA81F202E0B0FAD8
:1006C00080F220329046FFF77BFF04460F4640EA57
:1006D0000A0041EA0B0153465A46084313D011461B
:1006E00053EA010019D0C8F140025046FFF777FFE6
:1006F00005460E46504659464246FFF761FF0843FD
:1007000005D0012004E020463946BDE8F08D0020E8
:10071000054346EAE0762C4337430A986305E40A2A
:10072000A0EB08000022FD0A44EA47540A3002D533
:1007300000200146E9E7010510196941DDE9084596
:1007400000196941BDE8F04DA2E72DE9F04D81EABD
:10075000030404F0004B21F0004514464FF0000A5A
:1007600023F0004150EA050220D054EA01021DD0D6
:10077000C5F30A570246C5F31303C1F31300C1F3CF
:100780000A5640F4801543F48013A7EB0608101BAB
:10079000D64608F2FD3873EB050002D308F10108D4
:1007A00001E092185B41B8F1000F03DA0020014626
:1007B000BDE8F08D00204FF48011064684460EE01F
:1007C000171B73EB050705D3121B63EB05030643E9
:1007D0004CEA010C49084FEA300092185B4150EA9C
:1007E0000107EDD152EA030012D082EA040083EA45
:1007F0000501084305D0101BAB4106D2012200239E
:1008000006E000224FF0004302E06FF001025310B7
:100810001AEB06004CEB085110EB0A0041EB0B0100
:10082000BDE8F04DFFF734BF2DE9F04D00231A4627
:100830001B1A8A4103DB00200146BDE8F08DC1F39D
:100840000A52C1F3130141F480154FF0000BD10798
:1008500002D100186D41521E0027044640F2FF11DC
:10086000384601EB620A3E468046024600204FF4BD
:100870008011FFF7B4FEC2197141BB1846EB0100AD
:10088000B4EB030C75EB000C04D3E41A65EB000524
:1008900017460E46241908F101006D4180463428A0
:1008A000E3DDF91946EB0600091BA84103D24FF01E
:1008B000FF32134601E0002213461BEB070046EB14
:1008C0000A51BDE8F04DFFF7E3BEC1F30A52C1F390
:1008D000130140F2FF3341F480119A4202DA002002
:1008E0000146704740F233439A42A2F2334202DC9F
:1008F0005242FFF774BEFFF763BE000030B5041E1E
:1009000071F1000404DB4FF00044404264EB01014C
:10091000141E73F1000405DB1C464FF000435242E5
:1009200063EB0403994208BF904230BD064C074D6B
:1009300006E0E06840F0010394E8070098471034AF
:10094000AC42F6D3FFF72AFC98610008B8610008B2
:100950000EB540F2334102910021CDE900110A4663
:100960000B46FFF7A4FE03B000BD000010B50F4C0E
:100970000F4920780978884201D00E4906E00E4CD4
:100980000E492078097888420FD00D4901EB80117B
:100990000C48FFF765FC2078401C00F00700207031
:1009A000BDE81040074802F0B3BB10BD00000020B6
:1009B000010000202001002005000020020000208E
:1009C00020030020E0000020FEE700002DE9F043B6
:1009D000DFF8B4802D4E2E4C98F800302D4D8FB09E
:1009E00073B92D4B93ED000A2C4B85ED000A93ED66
:1009F000000A2B4B86ED000A93ED000A84ED000AF5
:100A00000023B1461CE0C65C412E12D0582E02D005
:100A1000592E14D106E001EB830696ED000A89ED0C
:100A2000000A0CE001EB830696ED000A84ED000A53
:100A300005E001EB830696ED000A85ED000A5B1CDC
:100A40009342E0DB2868FFF75DFD06460F4620680D
:100A5000FFF758FD04460D46D9F80000FFF752FD98
:100A600041EC100B8DE8F00053EC102B0DA104A805
:100A700003F01EFD04A803F025FA012188F80010F8
:100A80000FB0BDE8F08300004100002038000020D6
:100A90003C00002034000020280000202C00002012
:100AA000300000204F4B3A20583D25302E32662032
:100AB000593D25302E326620413D25302E326620AC
:100AC0000D0A00002DE9F043DFF8B4802D4E2E4CC6
:100AD00098F800302D4D8FB073B92D4B93ED000A6F
:100AE0002C4B85ED000A93ED000A2B4B86ED000A96
:100AF00093ED000A84ED000A0023B1461CE0C65CB9
:100B0000412E12D0582E02D0592E14D106E001EBFE
:100B1000830696ED000A89ED000A0CE001EB8306DE
:100B200096ED000A84ED000A05E001EB830696EDE0
:100B3000000A85ED000A5B1C9342E0DB2868FFF7A2
:100B4000E1FC06460F462068FFF7DCFC04460D4634
:100B5000D9F80000FFF7D6FC41EC100B8DE8F0004F
:100B600053EC102B0DA104A803F0A2FC04A803F081
:100B7000A9F9012188F800100FB0BDE8F08300004A
:100B80004000002020000020240000201C00002045
:100B90001000002014000020180000204F4B3A20C5
:100BA000583D25302E326620593D25302E326620A4
:100BB000413D25302E3266200D0A000000B508495F
:100BC0008BB0002008704FF080414863886305A116
:100BD000684603F06DFC684603F074F90BB000BD85
:100BE000420000204F4B3A20456D657267656E6389
:100BF000792053746F70200D0A00000000B5027850
:100C00000B488BB0532A03D191ED000A80ED000A06
:100C10000068FFF777FC41EC100B06A153EC102B9A
:100C2000684603F045FC684603F04CF90BB000BD84
:100C30007C0000204F4B3A2054696D696E67206C30
:100C40006F6F70203A2025302E3266200D0A00008A
:100C50002DE9F04FDFF864918246594B99F8000076
:100C6000584E594FDFF864C1594C5A4D8BB08B46E2
:100C700090B9594800882080584800881880584802
:100C8000008838805748008828805748008830807E
:100C900056480088ACF800000020411E66E000BF06
:100CA0001AF80080B8F1410F12D0B8F1420F29D0E4
:100CB000B8F1480F03D0B8F1530F56D13CE00BEB1D
:100CC000800191ED000ABDEEC00A10EE101A4CE052
:100CD00011B101290BD048E00BEB800898ED000A18
:100CE000BDEEC00A10EE108AA3F800803DE00BEBC9
:100CF000800898ED000ABDEEC00A10EE108AA6F832
:100D0000008032E011B101290BD02EE00BEB8008FE
:100D100098ED000ABDEEC00A10EE108AA7F8008018
:100D200023E00BEB800898ED000ABDEEC00A10EE40
:100D3000108AACF8008018E011B101290BD014E042
:100D40000BEB800898ED000ABDEEC00A10EE108A89
:100D5000A4F8008009E00BEB800898ED000ABDEED6
:100D6000C00A10EE108AA5F80080401C904297DB64
:100D700071B1012915D01EA101A803F099FB01A8AA
:100D800003F0A0F8012189F800100BB0BDE8F08F46
:100D9000B7F900000090B3F90030B4F900201EA1AB
:100DA00007E0BCF900000090B6F90030B5F900206A
:100DB00021A101A803F07CFBE1E700004300002033
:100DC000620000206E0000206600002072000020FB
:100DD0005E0000206A0000205C000020600000200F
:100DE00064000020680000206C00002070000020DB
:100DF0004B4F3A204E6F2050726F66696C207365BE
:100E00006C656374656420284830206F7220483117
:100E100029200D0A000000004F4B3A20445F507219
:100E20006F66696C20533D256420413D2564204256
:100E30003D2564200D0A00004F4B3A20415F50725F
:100E40006F66696C20533D256420413D2564204236
:100E50003D2564200D0A000070B5154D154C8AB073
:100E60002B7823B9144B93ED000A84ED000A00237C
:100E700009E0C65C442E05D101EB830696ED000A1D
:100E800084ED000A5B1C9342F3DB2068FFF73AFB1A
:100E900041EC100B09A153EC102B684603F008FB42
:100EA000684603F00FF8012028700AB070BD0000FA
:100EB0004300002058000020540000204F6B3A20CF
:100EC000426F6F6C5F445F6D6D3D25302E32662042
:100ED0000D0A000000B506498BB00120087005A17D
:100EE000684603F0E5FA684602F0ECFF0BB000BD7F
:100EF000420000204F4B3A20436F6E74726F6C209B
:100F0000456E61626C6564200D0A00002DE9F04FAA
:100F1000DFF878B1DFF87891DFF878A19BF800303E
:100F20005D4C5E4DDFF878C15E4F8FB0EBB95E4B24
:100F300093ED000A5D4B89ED000A93ED000A5C4BCE
:100F40008CED000A93ED000A5A4B84ED000A93EDF4
:100F5000000A594B8AED000A93ED000A574B87EDC2
:100F6000000A93ED000A85ED000A00235E1E4DE0A5
:100F700010F80380B8F1440F36D0B8F1480F06D00E
:100F8000B8F1490F1ED0B8F1500F3ED108E001EB87
:100F9000830696ED000ABDEEC00A10EE106A34E03A
:100FA00016B1012E07D030E001EB830898ED000A5E
:100FB00089ED000A29E001EB830898ED000A8AED2B
:100FC000000A22E016B1012E07D01EE001EB8308D3
:100FD00098ED000A84ED000A17E001EB830898ED14
:100FE000000A85ED000A10E016B1012E07D00CE0D2
:100FF00001EB830898ED000A8CED000A05E001EB97
:10100000830898ED000A87ED000A5B1C9342AFDB72
:1010100076B1012E21D02AA104A803F049FA04A830
:1010200002F050FF01218BF800100FB0BDE8F08FE7
:10103000DCF80000FFF766FA06460F462068FFF767
:1010400061FA04460D46D9F80000FFF75BFA41EC5F
:10105000100B25A153EC102B12E03868FFF752FA61
:1010600006460F462868FFF74DFA04460D46DAF8A3
:101070000000FFF747FA41EC100B25A153EC102BB1
:101080008DE8F00004A803F013FAC8E7430000203D
:10109000840000209C00002094000020AC00002070
:1010A0008C000020A4000020800000208800002088
:1010B0009000002098000020A0000020A800002040
:1010C0004B4F3A204E6F2050494420747970652070
:1010D00073656C656374656420284830206F7220E6
:1010E000483129200D0A00004F4B3A20445F5049F7
:1010F0004420503D25302E326620493D25302E3289
:101100006620443D25302E3266200D0A0000000086
:101110004F4B3A20415F50494420503D25302E32FC
:101120006620493D25302E326620443D25302E3242
:1011300066200D0A00000000F0B5204F204C214D24
:101140003B788DB04BB9204B93ED000A1F4B84EDDB
:10115000000A93ED000A85ED000A002312E0C65C48
:10116000412E08D0442E0CD101EB830696ED000AE7
:1011700084ED000A05E001EB830696ED000A85ED9B
:10118000000A5B1C9342EADB2868FFF7BBF90546BF
:101190000E462068FFF7B6F941EC100BCDE900567A
:1011A00053EC102B0AA102A803F082F902A802F066
:1011B00089FE012038700DB0F0BD00004000002015
:1011C0004800002050000020440000204C00002077
:1011D0004F4B3A204D393220546963732F4D4D20C7
:1011E000533D25302E32662053706163696E675718
:1011F0006865656C733D25302E32660D0A0000006F
:1012000070B5002315468AB05C1E1A4617E0C65C0E
:10121000482E02D0532E11D108E001EB830494ED47
:10122000000ABDEEC00A10EE104A07E001EB83028F
:1012300092ED000ABDEEC00A10EE102A5B1CAB4214
:10124000E5DB00230C484FF08041012C09D064B14C
:101250000AA1684603F02CF9684602F033FE0AB092
:1012600070BD03704A630DA102E003708A6310A190
:10127000684603F01DF9EFE7420000204B4F3A208B
:1012800053656C656374206120746F6F6C284830FF
:10129000206F72204831290D0A2000004F4B3A2060
:1012A00050574D20483120532564200D0A0000007E
:1012B0004F4B3A2050574D20483020532564200D85
:1012C0000A000000014800F0C9B8000044070020EF
:1012D000014800F0C3B80000640C0020014800F091
:1012E000BDB80000A4070020014800F0B7B8000016
:1012F000040C0020014800F0B1B80000C40C00202C
:1013000001681823CAB2103AB2FBF3F2054B6FF32F
:101310000901032A9B5CC36500D9091D8165084644
:1013200070470000B85F000810B5014600208B69C7
:101330008A6A4FF0C07453B1B3F5005F15D072B133
:10134000012A0CD0022A0AD0032A09D104E01AB1DA
:10135000012A06D0022A03D1C96AC90100D5012099
:1013600010BDC96AA142FAD010BD002AF7D0012AE7
:10137000F2D0022AF3D0032AF3D010BD30B50468AE
:10138000256825F480252560046863608368402B08
:10139000036803D099600068C26030BD9A6000683D
:1013A000C16030BD704770472DE9F0410446876D3C
:1013B00000F094FA064694F835000025022806D07D
:1013C0008020606584F834500120BDE8F0812068F9
:1013D000016821F0160101602068416921F0800157
:1013E0004161206C08B9A06C20B12068016821F02F
:1013F000080101602068016821F0010101600BE033
:1014000000F06CFA801B052806D92020606504F8DE
:10141000345F03206070D8E720680068C007EFD110
:1014200094F85C103F208840B86004F8345F0120D5
:1014300060700020C9E790F83510022903D08021A0
:10144000416501207047052180F83510006801686A
:1014500021F0010101600020704700002DE9F843F0
:1014600004464FF00009CDF8009063484FF4165140
:10147000A56D0068B0FBF1F72E6894F85C100820A9
:1014800000FA01F131420FD021680A6852070BD5EA
:101490000A6822F004020A6094F85C108840A86090
:1014A000606D40F00100606594F85C104FF0010839
:1014B00008FA01F0304208D021684969090604D5CC
:1014C000A860606D40F00200606594F85C10042034
:1014D0008840304208D021680968890704D5A8608F
:1014E000606D40F00400606594F85C101020884046
:1014F000304218D021680968090714D5A86020680F
:101500000168490304D50068000308D5A16C07E011
:101510000168C90503D4016821F008010160216C4C
:1015200009B12046884794F85C102020884030425A
:1015300031D021680968C9062DD5A86094F8350016
:1015400005282068016806D0490347D500680003D4
:101550001DD4616C1CE021F0160101602068416916
:1015600021F080014161206C08B9A06C20B1206895
:10157000016821F00801016094F85C103F20884068
:10158000A86084F8349084F83580216D1FE0E16B09
:1015900009B120468847606D00282BD0606DC007D8
:1015A00014D0052084F835002068016821F001017D
:1015B00001600098401C0090B84203D82068006881
:1015C000C007F6D184F8349084F83580E16C0029A6
:1015D00010D001B02046BDE8F04308470168C905B6
:1015E000D5D4016821F01001016084F8349084F8AA
:1015F0003580CCE7BDE8F883D80000202DE9F04124
:10160000044600F06BF906465CB1002584F83450BE
:10161000022084F835002068016821F00101016092
:101620000DE00120BDE8F08100F058F9801B05288D
:1016300005D920206065032084F83500F2E7206892
:101640000068C007F0D12268116820480140D4E941
:1016500001031843D4E9033633431843636918433D
:10166000A3691843E3691843236A18430843616A6E
:10167000042903D1D4E90B131943084310602068EF
:101680004069666A20F0070130460E4301270428AE
:101690000CD1A06A0643E06A40B12046FFF744FE41
:1016A00020B14020606584F83570BAE72068466153
:1016B0002046FFF725FE94F85C203F219140816091
:1016C000656584F835700020ACE700003F8010F0BD
:1016D0002DE9F0410446866D90F83400002501287C
:1016E0000DD0012084F8340094F835700020012FCB
:1016F00007D084F8340002252846BDE8F081022096
:10170000FBE7022784F8357060652046FFF736FE58
:1017100094F85C103F208840B0602068016841F078
:10172000160101602068416941F080014161206C2F
:1017300020B12068016841F008010160206801685B
:1017400041F001010160D7E72DE9F84FDFF860B102
:1017500000224FF001084FF0030A4FF00F090BF180
:10176000040E00BF0B6808FA02F42340A3426ED1B6
:101770004D68022D01D0122D0ED1D50800EB850C3D
:10178000DCF820505607F70E09FA07F6B5430E6944
:10179000BE402E43CCF82060066855000F790AFA47
:1017A00005FC07F0030726EA0C06AF403743076045
:1017B0004E68012E05D0022E03D0112E01D0122E1C
:1017C0000ED18668CF6826EA0C06AF4037438760A3
:1017D0004668A6430C79C4F3001494403443446033
:1017E000C6688C6826EA0C06AC403443C4604C687A
:1017F000E40056D52F4C256845F4804525602468C3
:1018000022F0030504F4804400942B4C2E19D6F8E2
:10181000084895072F0F09FA07F5AC43274DA84252
:1018200001D1002515E0264DA84201D1012510E087
:10183000244DA84201D102250BE0234DA84201D13D
:10184000032506E0214DA84202D1042501E028E04D
:101850000725BD402543C6F80858DBF800405D4623
:101860004E689C43F60300D51C432C60DEF8004014
:1018700075464E689C43B60300D51C432C600C4D46
:1018800008352C684E689C43F60200D51C432C603A
:10189000074D0C352C684E689C43B60200D51C439E
:1018A0002C60521C102AFFF45DAFBDE8F88F0000D9
:1018B000003C01404438024000300140000002403A
:1018C0000004024000080240000C024000100240E8
:1018D0000AB1816170470904FBE700000148806894
:1018E00070470000CC000020024881680278114453
:1018F00081607047CC0000200B4810B5016841F4AE
:1019000000710160016841F480610160016841F487
:1019100080710160032000F06FF8002000F006F8ED
:1019200000F024F8002010BD003C024070B50D4DC1
:1019300004464FF47A712878B1FBF0F00A4909683F
:10194000B1FBF0F000F0E0FA48B9102C07D2002209
:101950002146501E00F030F800206C6070BD012060
:1019600070BD0000CC000020D80000200B4882B0E1
:10197000016841F480410160006800F480400090FB
:101980000648001F016841F080510160006800F0C6
:1019900080500090072002B000F02EB8443802407A
:1019A00000F01F02012191404009800000F1E02079
:1019B000C0F8001170470000F0B40E4B1B680C46D5
:1019C000C3F30223C3F10705042D00D90425191D13
:1019D000072901D2002300E0DB1E012606FA05F1EB
:1019E000491E214099409E40761E16403143F0BC6E
:1019F00001F07CBB0CED00E0064900F0070208682E
:101A00004FF6FF03184040EA0220034A10430860E3
:101A1000704700000CED00E00000FA052DE9F047EA
:101A20000E46050065D0DFF81481D8F80000F7B243
:101A300000F00F00B04207D288F80070D8F800001C
:101A400000F00F00B04254D128683D4C810712D5F8
:101A5000400703D5206840F4E05020602878000754
:101A600003D5206840F4604020602068A96820F019
:101A7000F000084320602878C0072DD030496868FE
:101A80000839012812D0022813D0032811D0096880
:101A9000890700292DDA216821F003010143216023
:101AA000FFF71CFF814641F2883A0EE0096889037E
:101AB000EFE709688901ECE7FFF710FFA0EB0901E8
:101AC000514502D90320BDE8F0872068696800F01D
:101AD0000C00B0EB810FEFD1D8F80010404601F0B8
:101AE0000F01B14207D90770006800F00F00B04243
:101AF00001D00120E7E72878400705D52068E9688C
:101B000020F4E050084320602878000706D52068BC
:101B1000296920F4604040EAC100206000F036F8F6
:101B20002168084AC1F30311515CC84006490860A6
:101B30000020FFF7FBFE0020C5E70000003C02404C
:101B400008380240C05F0008D8000020044805495A
:101B500000680968044AC1F38221515CC84070479B
:101B6000D800002008380240D05F0008044805492A
:101B700000680968044AC1F34231515CC8407047AB
:101B8000D800002008380240D05F0008154810B582
:101B9000006810F00C02144813D04110042A0FD032
:101BA000082A0ED10F4C241F2268236802F03F023E
:101BB0005B0207D52068C0F38810A0FB010106E096
:101BC000084610BD2168C1F38811A1FB0001002364
:101BD000FEF7FCFA2168C1F30141491C4900B0FB42
:101BE000F1F010BD083802400024F4002DE9F84F50
:101BF000050076D02878DFF8F8B2BE4CC00749D08F
:101C0000DBF800105846C1F38101012908D00068B3
:101C1000C0F3810002280AD1201D0068400206D5C9
:101C20002068800336D568680028E2D032E0686812
:101C3000B0F5803F10D0B0F5A02F206810D020F470
:101C400080302060206820F4802020606868A0B187
:101C5000FFF744FE06460CE0206840F48030F4E7CD
:101C600040F480202060F7E7FFF738FE801B6428EF
:101C700073D820688003F7D50CE0FFF72FFE0646E7
:101C800005E000BFFFF72AFE801B6428F0D820681B
:101C90008003F7D42878DFF8608280074FF00009CE
:101CA0003ED5DBF80010584611F00C0F09D0006843
:101CB000C0F3810002280BD18D48001F006840024C
:101CC00006D42068800715D5E868012809D111E0FD
:101CD000E868B8B10120C8F80000FFF7FFFD06462C
:101CE00005E002E1FFF7FAFD801B0228C0D820685A
:101CF0008007F7D52068296920F0F80040EAC10084
:101D000020600DE0C8F80090FFF7E8FD064604E00B
:101D1000FFF7E4FD801B02281FD820688007F7D456
:101D20002878000722D5724E744869696C3671B103
:101D300001210160FFF7D2FD074604E0FFF7CEFD69
:101D4000C01B022809D830688007F7D50EE0C0F81C
:101D50000090FFF7C3FD074605E083E0FFF7BEFDF7
:101D6000C01B02287ED830688007F7D42878400747
:101D700068D5DFF87CA100270AF1380ADAF80000FC
:101D8000C0000BD4DAF8001041F08051CAF80010FE
:101D9000DAF80000012700F080500090584E3068BB
:101DA000C00510D4306840F480703060FFF796FDB5
:101DB000009005E0FFF792FD0099401A022851D8E3
:101DC0003068C005F6D54A4EA868683601280FD09D
:101DD0000528306810D020F001003060306820F015
:101DE00004003060A868B8B1FFF778FD00900FE0FC
:101DF000306840F00100F4E740F004003060F7E79D
:101E0000FFF76CFD0099411A41F28830814264D895
:101E100030688007F4D50EE0FFF760FD009007E022
:101E2000FFF75CFD0099411A41F28830814254D895
:101E300030688007F4D42FB1DAF8001021F0805117
:101E4000CAF80010A869C0B3DBF80010C1F3810123
:101E500002294AD00228484607D0C8F86000FFF798
:101E60003DFD00E039E005463AE04746C8F860002D
:101E7000FFF734FD064604E0FFF730FD801B022823
:101E80002BD820688001F7D4D5E907010843A96A57
:101E90001C4A490802EB01416A6A41EA821108437F
:101EA00095F82C1040EA01611148001F01600120E3
:101EB0003866FFF713FD054605E014E0FFF70EFD59
:101EC000401B022809D820688001F7D50BE000BF2D
:101ED000FFF704FD401B022802D90320BDE8F88F5C
:101EE00020688001F4D40020F8E70120F6E7000024
:101EF000083802400038024000004742800E474246
:101F0000007000400000FFFF10B5401EB0F1807F60
:101F100001D3012010BD4FF0E02460610F21601754
:101F200001F0E4F80020A06107202061002010BD2E
:101F30007047704730B590F83820012A20D0012230
:101F400080F83820022380F8393003685C6824F078
:101F500070045C6003685C680D682C435C60036817
:101F60009C6824F080049C6003689C6849680C436A
:101F70009C6080F83920002180F83810084630BD78
:101F8000022030BD10B5040003D094F8390010B120
:101F900007E0012010BD002084F83800204600F042
:101FA0000DF8022084F83900211D206801F00AFE96
:101FB000012084F83900002010BD000070B586B003
:101FC000044614216846FEF739F93949374B22682F
:101FD0000024374810390225364E9A4223D1026830
:101FE00042F002020260006800F0020005900868FA
:101FF00040F001000860086800F0010005900868E2
:1020000040F0020008600868694600F00200059090
:10201000C0200090CDE901542748CDE90345FFF7E2
:1020200093FB032014E0254B9A421CD1026842F036
:1020300004020260006800F004000590086840F0A7
:1020400002000860086800F0020005904FF470700C
:102050000090CDE9015469463046CDE90345FFF7CC
:1020600073FB06B070BD12481549001D8A4208D1A5
:10207000016841F480310160006800F4803005900F
:10208000EFE710498A42ECD1016841F40031016068
:102090000068002200F40030059011461920FFF777
:1020A0008BFC1920FFF77CFCDBE7000000040040FC
:1020B0004038024000040240000002400008004096
:1020C00000400140004401400168CA6842F001023A
:1020D000CA600068016841F001010160002070479A
:1020E00070B5044690F83800012817D0012584F80F
:1020F0003850022084F839002068826822F0770284
:1021000022F47F4282600868502837D00DDC2028F6
:1021100059D005DC88B3102841D151E0022070BDB0
:10212000302853D040283AD13FE060282ED0702884
:102130000BD0B0F5805F03D0B0F5005F2FD110E079
:102140002068816821F0070115E0CB68D1E9012101
:10215000206801F08AFD2168886840F07700886077
:102160001DE0CB68D1E90121206801F07EFD2068E7
:10217000816841F48041816011E01EE0CA684968CD
:10218000206801F027FE5021206806E0CA684968EF
:10219000206801F069FE6021206801F070FD84F87C
:1021A0003950002084F8380070BDCA68496820683A
:1021B00001F010FE40212068EFE700212068ECE7E5
:1021C00010212068E9E720212068E6E73021206817
:1021D000E3E72DE9F0410D46040003D094F83900FF
:1021E00018B108E00120BDE8F081002084F8380033
:1021F000204600F039F8022084F839002068816810
:1022000021F007018160211D206801F0DBFC2268BC
:1022100090689169166A2B68AF69034340F20330F6
:10222000814341EA0721A868EF6908434FF6FC4162
:102230008843E96840EA0720014328692F6A0001C2
:1022400040EA0730084369686D6926F0AA0646EA45
:10225000051529439360226890612068016201207E
:1022600084F839000020BEE7F0B587B00646142197
:102270006846FDF7E3FF344F3268002533480221FA
:102280000324334BBA4240D1304A1432176847F026
:1022900001071760126802F001020592026842F01D
:1022A000010202600068CDE9021400F0010005900F
:1022B0002002CDE900010120049069461846FFF78D
:1022C00043FA254C234820604FF04060C4E90105E3
:1022D0004FF48060C4E90350400060618000C4E9AD
:1022E0000605256220466562FFF788F908B1FFF709
:1022F0005AF8F461002211461920A663FFF75CFB2F
:102300001920FFF74DFB07B0F0BD144EB242FAD1D1
:102310000E4A1032166846F008061660126802F07F
:1023200008020592026842F001020260006800940F
:10233000CDE9011500F00100CDE9041003956946CF
:102340001846FFF701FADEE700000140303802408E
:102350000000024088640240040C0020000C004091
:1023600010B50446006891B1042904D0012200216F
:1023700001F070FC206801225FF0040101F06AFCAA
:102380002068016841F001010160002010BD0122B8
:102390000021F3E7704700002DE9F041044690F872
:1023A00038000D4601283DD0012684F8386002200F
:1023B00084F83900AAB3042A46D02068082A55D0E8
:1023C000D5E90027E968036A23F480530362D0F853
:1023D0001CC0036A2CF4407C4CEA07274FF6FF7CB4
:1023E00027F470470CEA013139434FF4204723F4B6
:1023F000204307EA02321A43C16102622068C169C0
:1024000021F44061C1612068C169AA6841EA0221E2
:10241000C0F81C1084F83960002084F83800BDE84A
:10242000F08101E00220FAE7D5E90012EB682068AC
:1024300001F0E2FC2068816921F00C0181612068D3
:102440008169AA6811430FE0D5E90012EB682068A2
:1024500001F01CFD2068816921F4406181612068E0
:102460008169AA6841EA02218161D3E7D5E9002C9C
:102470002F7B016A21F480710162C169036A21F036
:10248000030141EA0C0121F0F00C39074FF42067F9
:102490004CEA116123F4206307EA02221A43C16166
:1024A00002622068C16921F00C01C1612068C16924
:1024B000AA681143ACE710B5040003D094F83900C2
:1024C00010B107E0012010BD002084F8380020463C
:1024D00000F00CF8022084F83900211D206801F07A
:1024E00071FB012084F83900002010BD704770B5E1
:1024F0000446006801694FF00005C943890715D4F7
:10250000C168C943890711D4E91E01610120207601
:10251000206880698007204602D0FFF73BFF04E077
:1025200000F0D4F8204600F067F9257620680169AC
:10253000C943490717D4C168C943490713D46FF089
:1025400004010161022020762068806910F4407F38
:10255000204602D0FFF71EFF04E000F0B7F8204647
:1025600000F04AF9257620680169C943090716D4A5
:10257000C168C943090712D46FF008010161042042
:1025800020762068C0698007204602D0FFF702FF4E
:1025900004E000F09BF8204600F02EF92576206834
:1025A0000169C943C90617D4C168C943C90613D410
:1025B0006FF010010161082020762068C06910F4D6
:1025C000407F204602D0FFF7E5FE04E000F07EF8F1
:1025D000204600F011F9257620680169C943C90732
:1025E00008D1C168C943C90704D1891E01612046C9
:1025F00000F01CF920680169C943090609D4C168C3
:10260000C943090605D46FF0800101612046FFF738
:102610008FFC20680169C943490609D4C168C943D0
:10262000490605D46FF040010161204600F0FFF833
:1026300020680169C94389060BD4C168C94389066A
:1026400007D46FF0200101612046BDE87040FFF71C
:1026500070BC70BD70B586B0044614216846FDF7A5
:10266000EDFD2068B0F1804F28D11548016841F098
:1026700001010160016801F001010591016841F06B
:10268000020101600068022400F0020005904FF48E
:102690000040CDE9000402AA0325012682E870006B
:1026A00069460848FFF750F80820CDE9000402AA5F
:1026B000694682E870000448FFF746F806B070BD2E
:1026C000303802400000024000040240704770B5FC
:1026D000044690F838000D4601280DD0012684F8F4
:1026E0003860022084F8390042B1042A18D0082A40
:1026F0002AD00C2A4DD139E0022070BD206801F0AB
:10270000C7FA2068816941F0080181612068816908
:1027100021F004018161206881692A69114311E077
:10272000206801F0DDFA2068816941F4006181616F
:102730002068816921F480618161206881692A694A
:1027400041EA0221816124E0206801F0F5FA206865
:10275000C16941F00801C1612068C16921F004012B
:10276000C1612068C1692A69114311E0206801F044
:102770000FFB2068C16941F40061C1612068C16933
:1027800021F48061C1612068C1692A6941EA02219E
:10279000C16184F83960002084F8380070BD10B53C
:1027A000040003D094F8390010B107E0012010BDF7
:1027B000002084F83800204600F00CF8022084F84D
:1027C0003900211D206801F0FDF9012084F839004D
:1027D000002010BD08B50068B0F1804F08D1054851
:1027E000016841F001010160006800F00100009003
:1027F00008BD0000403802407047000010B5044694
:102800000068012201F026FA07492068884203D1B6
:10281000416C41F4004141642068016841F00101CC
:102820000160002010BD00000000014070477047AB
:1028300010B504460068416994F83920C1F3C0110D
:10284000212A0BD151B1416921F080014161206BF6
:1028500008B1FEF7A9FD204601F004FC206841699B
:1028600094F83A20C1F38011222A0BD151B1416969
:1028700021F040014161606B08B1FEF795FD2046F3
:1028800001F0E2FB002010BD7047000070B5026847
:1028900004461068D168536910F00F0F50D003F050
:1028A000010501F4907635435DD0C20705D0CA0515
:1028B00003D5E26B42F00102E263420705D5DA0775
:1028C00003D0E26B42F00202E263820705D5DA0729
:1028D00003D0E26B42F00402E263020705D5DA0797
:1028E00003D0E26B42F00802E263E26B002A33D0CD
:1028F000800604D5880602D5204601F0BCFB20687E
:102900004069E16BC0F38010090700D428B320466A
:1029100001F09AFB2068416949061AD5416921F006
:1029200040014161606BA0B11B490165606BFEF71E
:1029300082FD002810D0606B016DBDE87040084733
:10294000830610D58B060ED52046BDE8704001F0F9
:1029500092BB2046FFF798FF70BD2046FFF794FF1B
:102960000020E06370BD030606D50B0604D52046A3
:10297000BDE8704001F01CBD4006F3D54806F1D516
:10298000D168204621F04001D160202184F839101F
:1029900000F094F970BD0000713F000870B50400AC
:1029A00004D094F83900002510B106E0012070BD74
:1029B00084F83850204600F023F8242084F83900A9
:1029C0002068C16821F40051C160204601F09AFBE3
:1029D0002068016921F4904101612068416921F07A
:1029E0002A0141612068C16841F40051C160E5637A
:1029F000202084F8390084F83A00002070BD0000DF
:102A00002DE9F04387B0044614216846FDF716FC13
:102A10005948DFF860C127680221012203230025FD
:102A200006154FF0400967454DD1534F1037D7F881
:102A300000C04CF4003CC7F800C03F6807F4003702
:102A40000597076847F001070760006800F001007C
:102A500005900C208DE80F00072004906946474838
:102A6000FEF772FE474F46484FF000683860C7E9EE
:102A70000185C7E903567D61BD61FD613D62384650
:102A80007D62FEF7BBFD08B1FEF78DFC6763BC639A
:102A90003D4F3B48C7E903567D61BD61FD613D6225
:102AA00018307D6287E801033846FEF7A7FD08B1BC
:102AB000FEF779FC2763002211462620BC63FEF74F
:102AC0007BFF262050E0DFF8C4C067454ED12A4F77
:102AD0001437D7F800C04CF0200CC7F800C03F688E
:102AE00007F020070597076847F0040707600068AC
:102AF00000F004000590C0208DE80F00082004902D
:102B000069462348FEF720FE234F22484FF02068F5
:102B10003860C7E90185C7E903567D61BD61FD6184
:102B20003D6238467D62FEF769FD08B1FEF73BFC69
:102B30006763BC63194F1748C7E903567D61BD61E0
:102B4000FD613D6278307D6287E801033846FEF71B
:102B500055FD08B1FEF727FC2763002211464720E8
:102B6000BC63FEF729FF4720FEF71AFF07B0BDE858
:102B7000F083000000440040303802400000024072
:102B80008860024044070020640C002000140140CB
:102B90000008024028640240A4070020C40C002062
:102BA000F8B5044690F83A0020283CD1C1B3BAB336
:102BB00094F83800012836D0012084F83800A1624A
:102BC000A2850025E563222084F83A00636B17484C
:102BD000D863636B16481864636B1648D864606BDF
:102BE000134605650846666B216802463046091D96
:102BF000FEF76EFD206801684168009184F8385046
:102C0000C16841F48071C1602068416941F00101EF
:102C100041612068416941F0400141610020F8BDF7
:102C2000FFE70120FBE70220F9E70000CB3F0008A7
:102C300007400008813F00087047704770B50446A0
:102C400090F83900202830D169B362B394F8380085
:102C500001282AD0012084F838002162A284E2846D
:102C60000025E563212084F83900236B1048D863E0
:102C7000236B10481864236B0F48D864206B1346ED
:102C800005652668206B321DFEF722FD21686FF076
:102C90004000086084F838502068416941F08001A4
:102CA0004161002070BD012070BD022070BD000098
:102CB000114000083F400008813F00082DE9F04125
:102CC000074600682349002688421ED1224C23492A
:102CD0002078401C00F0070020700978884214D04A
:102CE0001F4991F8391020290FD11E4D05EB801096
:102CF000FDF7AFFA82B2207805EB80111848FFF794
:102D00009DFF207805EB80100670174938688842CF
:102D10001ED1164C16492078401C00F00700207088
:102D20000978884214D0134991F8391020290FD11D
:102D3000114D05EB8010FDF78CFA82B2207805EB7F
:102D400080110C48FFF77AFF207805EB80100670A1
:102D5000BDE8F081001401400300002004000020C1
:102D60000407002004080020004400400600002062
:102D700007000020C4060020040A00207047FEE778
:102D80001D4808B5016841F480010160016801F443
:102D900080010091016841F4001101600068002287
:102DA00000F40010009011461020FEF705FE1020E0
:102DB000FEF7F6FD002211461120FEF7FDFD112061
:102DC000FEF7EEFD002211463920FEF7F5FD392011
:102DD000FEF7E6FD002211464420FEF7EDFD4420FB
:102DE000FEF7DEFD002211464520FEF7E5FDBDE8B9
:102DF00008404520FEF7D4BD3038024070B586B09B
:102E000014216846FDF71AFA25480024016841F0AC
:102E100004010160016801F004010591016841F0BD
:102E200080010160016801F080010591016841F0B5
:102E300001010160016801F001010591016841F0A3
:102E4000020101600068174E00F0020005900022A8
:102E50004FF4E1513046FEF73BFD4FF40050009037
:102E60001148CDE9010469461048FEF76DFC4FF4A6
:102E7000846000900125CDE90154694630460394F1
:102E8000FEF762FC4FF4C050CDE900050320CDE908
:102E9000024069463046FEF757FC06B070BD0000A0
:102EA00030380240000002400000211000080240BB
:102EB00010B58CB024216846FDF7C0F900241348F2
:102EC000099411490A94C0E900144FF6FF71C0E952
:102ED0000241046144610320CDE900040120CDE9F1
:102EE000020405210491CDE90540CDE90741694679
:102EF0000648FFF76EF92020CDE9090409A9034827
:102F0000FFF718F80CB010BD0000014020050020AC
:102F100010B58AB0002407941C2168460894FDF778
:102F20008DF913484FF08041C0E9001441F2670168
:102F3000C0E902410461FFF732FC079407A90C487D
:102F40000894FEF7F7FF6020CDE900040294002208
:102F5000694607480494FFF7BAFB0422694604480F
:102F6000FFF7B5FB0248FFF775FB0AB010BD000084
:102F70005C05002010B58AB0002420480494059414
:102F800006940794089409940094019402941A49B1
:102F90000394C0E900148460C4600461FEF7F2FF8A
:102FA0004FF48050049004A91448FFF799F813488F
:102FB000FFF781FA089408A910480994FEF7BAFFB0
:102FC0000120CDE900400294002269460B48039499
:102FD000FFF7E2F9042269460848FFF7DDF9082205
:102FE00069460648FFF7D8F90C2269460348FFF7FF
:102FF000D3F90AB010BD000000040040980500207D
:1030000010B58AB0002420480494059406940794CF
:10301000089409940094019402941A490394C0E915
:1030200000148460C4600461FEF7ACFF4FF480506C
:10303000049004A91448FFF753F81348FFF73BFA2C
:10304000089408A910480994FEF774FF0120CDE9FF
:1030500000400294002269460B480394FFF79CF954
:10306000042269460848FFF797F90822694606488E
:10307000FFF792F90C2269460348FFF78DF90AB071
:1030800010BD000000080040D405002010B58CB031
:1030900024216846FDF7D2F800241248099410490B
:1030A0000A94C0E900144FF6FF71C0E902410461BF
:1030B0000320CDE900040120CDE902040494CDE908
:1030C00005400794694607480894FFF782F82020D6
:1030D000CDE9090409A90348FEF72CFF0CB010BD87
:1030E000000C004010060020FEE770470907090E9B
:1030F000002806DA00F00F0000F1E02080F8141D2F
:10310000704700F1E02080F8001470477047704766
:10311000F0B5A7B00746002004466D4614AE2390D4
:103120000AE000BF9DED250A05EB840080ED000A52
:103130009DF890003055641C23AB3A4625A924A87D
:1031400002F0B0FE0028EDD1002C0FD09DF8500009
:1031500047280DD04D2822D04F2868D03B4A3CA1AB
:1031600019A801F0A5F919A800F0ACFE27B0F0BD30
:103170009DED000ABDEEC00A10EE100A40B15C28B9
:10318000F4D1641E62B2291D701CFDF79BFCEDE7B3
:10319000641E62B2291D701CFDF718FCE6E79DED68
:1031A000000ABDEEC00A10EE100A87282AD00CDCF7
:1031B000032819D05C281ED07028D7D1641E62B2B3
:1031C000291D701CFDF7FAFCD0E7C92821D0CA28B8
:1031D00026D0A0F580702D38C8D1641E62B2291D9A
:1031E000701CFDF793FEC1E7641E62B2291D701CBE
:1031F000FDF770FEBAE7641E62B2291D701CFDF770
:103200009BFFB3E7641E62B2291D701CFDF7F6FC3C
:10321000ACE7641E62B2291D701CFDF719FDA5E71D
:10322000641E62B2291D701CFDF716FE9EE79DED1F
:10323000000ABDEEC00A10EE100A012896D1641EE5
:1032400062B2291D701CFDF7DBFF8FE7E000002054
:10325000556E7265636F676E697A65642025730DBC
:103260000A000000FEF740BB30B593B0302168463D
:10327000FCF7E4FF14210CA8FCF7E0FF1A48002437
:10328000016841F080510160006800F080501190A9
:103290001648016821F4404141F400410160006892
:1032A000022500F440401190012003901020009569
:1032B00006950490CDE907404FF4A87009900420CA
:1032C0000A9007200B906846FEF790FC0F20CDE98E
:1032D0000C05E802CDE90E4002210CA81094FEF77F
:1032E0009DFB13B030BD000040380240007000402C
:1032F0001048016841F4700101600F48016841F015
:10330000010101600C4A00210832116002680B4B78
:103310001A400260031D0A4A1A60026822F48022E1
:10332000026005480C300160024958068039086087
:103330007047000088ED00E000380240FFFFF6FE15
:10334000103000242DE9F04F2DED068B9DB0FE4886
:1033500000680069C043C007FC4806D0FFF7C7F803
:103360001DB0BDEC068BBDE8F08FFFF7C0F8F64846
:10337000FFF7BDF8F64800250178012912D1057044
:10338000F44890ED000AF44880ED000AF34890ED0F
:10339000000AF34880ED000AF24890ED000AF24876
:1033A00080ED000AF148F24FDFF8C8930178F24E41
:1033B000DFF8C8A3DFF8C883012919D10570F148E7
:1033C00090ED000AF04887ED000A90ED000AEF4802
:1033D0008AED000A90ED000AED4888ED000A90EDB4
:1033E000000AEC4889ED000A90ED000A86ED000A1B
:1033F000E948EA49EA4C03880B80EA4922880A80B6
:10340000E94909680180E948406A2080C91AE84C06
:10341000801A09B2218043F6FF728B1800B2510066
:1034200060808B4202D81044884206D9E1A112A8DC
:1034300001F03EF812A800F045FDB4F90000B4F91F
:103440000210B6EE001A421800EE102A401AF8EEEA
:10345000C00A99ED000A60EE800A60EE810ACDEDA7
:10346000020A00EE900AF8EEE00A20EE800AD6ED9D
:10347000000A80EE201A8DED001A97ED000A30EE5A
:10348000010A87ED000A9FEDD4AA10EE100AFDF79D
:1034900039F841EC100B01F09BFAB0EE408AF0EEE7
:1034A000608A0298FDF72EF853EC182BFCF788FF82
:1034B00041EC180B5646DAF80000FDF723F853EC00
:1034C000182BFCF7D6FEFDF749F8AC4908603868C0
:1034D000FDF718F841EC100B01F0EAFAB0EE408A63
:1034E000F0EE608A0298FDF70DF853EC182BFCF70C
:1034F00067FF41EC180BD8F80000FDF703F853EC18
:10350000182BFCF7B6FEFDF729F800EE100A9C48D0
:10351000DFF8CCB2B34980ED000AB048B24FDFF813
:10352000CC920278DFF8C882DFF8C8A2F2B3057047
:10353000B148D0ED000AB148C0ED000AB048028899
:10354000B048AAF800200288AF48ABF800200088F5
:103550003880AE480288AE480280AE480288AE4845
:103560000280AE480288AE48A9F80020D0ED000ADB
:10357000AC48C8ED000AD0ED000AAB48C0ED000A27
:10358000AA48D0ED000AAA48C0ED000AA948D0ED2B
:10359000000AA948C0ED000AA848D0ED000AA848D2
:1035A000C1ED000AD0ED000AA64800E007E0C0ED3A
:1035B000000AA548D0ED000AA448C0ED000AA448BE
:1035C00000789FEDA48AE8B3654896ED001AD0ED27
:1035D000000A654870EEC10AFDEEE00ACDED000A72
:1035E000D0ED000A30EEC00ABDEEC00A8DED010A32
:1035F000009810EE102A404302FB0200FCF752FF35
:1036000041EC100B01F0B8FA51EC100BFCF75BFF2A
:1036100005900098FCF746FF41EC190B0198FCF768
:1036200041FF41EC100BB0EE491AF0EE691A01F0BF
:10363000D7F851EC100BFCF791FF9FED870A8749F3
:10364000129013E0FFE784ED018A84ED028A84ED95
:10365000038A84ED048A84ED058A84ED068A7FE678
:1036600000EE900A70EEC00ACDED120A1298884260
:10367000F6DC7B491298884206D900EE900A70EE7B
:10368000800ACDED120AF5E77649774E884202DAD4
:103690007649884208D90598404205909DED120A66
:1036A00030EE0A0A8DED120AD6ED008A18EE900A65
:1036B000FCF728FF9DED050AD4ED010A41EC190B3A
:1036C000B8EEC00A30EEC00AB0EEC00A10EE100A22
:1036D000FCF718FF53EC192BFCF772FEFCF7F3FE16
:1036E000149094ED020ADDED120A18EE900A30EE05
:1036F000600AB0EEC00A20EE280A8DED130AFCF72E
:1037000001FF9DED140AD4ED030A41EC190BB8EE4C
:10371000C00A30EEC00AB0EEC00A10EE100AFCF784
:10372000F1FE53EC192BFCF74BFEFCF7CCFE01909D
:1037300094ED040ADDED130A30EE600AB0EEC00A23
:1037400020EE280A94E000008806002020050020D2
:103750004100002034000020280000203800002014
:103760002C0000203C000020300000204000002001
:1037700010000020440000204C0000201400002015
:10378000180000201C000020200000202400002041
:1037900048000020500000200A00002008000020FF
:1037A0000E0000200C000020240C0040000001400E
:1037B000B00000204552524F523A2044656C74616B
:1037C00020656E636F64657220697320686967683D
:1037D00020200D0A00000000560E49404300002042
:1037E000600000209800002064000020700000208D
:1037F000740000205C0000205800002054000020CD
:103800005E00002062000020660000206A000020A8
:10381000680000206E0000206C0000207200002074
:103820007800002084000020800000208C00002010
:103830008800002094000020900000209C000020C0
:10384000A4000020A0000020AC000020A800002060
:103850004200002000000000560EC940560E4940AC
:10386000560E49C09D11C93F7C0000209D11C9BF63
:103870008DED000A1498B7F900104043490090FB01
:10388000F1F00090B9F9000060EEA00A400000EEEF
:10389000100AB8EEC00A80EE801A8DED021A049567
:1038A0008DED158A9DED000ADDED000A98ED001AF8
:1038B000B8EEC00AF8EEE00A00EE810A10EE100A37
:1038C000FCF720FE41EC190B0598FCF7EBFD41ECF1
:1038D000100B01F0E1F853EC192B51EC100BFCF735
:1038E00025FE1CD2B7F9000096ED001A00EE100A72
:1038F000F8EEC00A80EE810A10EE100AFCF702FE14
:1039000094ED050A41EC190BB0EEC00A10EE100A56
:10391000FCF7F8FD53EC192BFCF74CFD2FE0574654
:10392000BAF90000FCF7BEFD94ED050A41EC190B55
:10393000B0EEC00A10EE100AFCF7E4FD53EC192BB0
:10394000FCF7F4FD1ED2BBF9000096ED001A00EE64
:10395000100AF8EEC00A80EE810A10EE100AFCF799
:10396000D1FD94ED050A41EC190BB0EEC00A10EE42
:10397000100AFCF7C7FD53EC192BFCF77AFCFCF797
:10398000A2FD01E0B7F9000004909DED120AD8ED08
:10399000001AF0EEC00A9DED020A00EE210AF4EED4
:1039A000C00AF1EE10FA10D294ED060AB9F900003F
:1039B00096ED001AF0EEC00A00EE100AB8EEC00A4A
:1039C000C0EE011A30EEE10A2BE06D4FB7F90000AE
:1039D000FCF768FD94ED060A41EC190BB0EEC00A45
:1039E00010EE100AFCF78EFD53EC192BFCF79EFD30
:1039F00011D2644894ED060A96ED001AB0F9000061
:103A0000F0EEC00A00EE100AB8EEC00AC0EE011ACD
:103A100030EEA10A05E0B7F9000000EE100AB8EE9A
:103A2000C00A8DED150A0598002802DA0498404274
:103A300004909DED120AB5EEC00AF1EE10FA05D21F
:103A40009DED150AB1EE400A8DED150A4E4800684D
:103A5000FCF758FD41EC190B0598FCF723FD41ECF0
:103A6000100B01F019F853EC192B51EC100BFCF76B
:103A70005DFD11D204959DED120ADFED440A444923
:103A800020EE200AC0EE0A0AB0EEE00A10EE100A9C
:103A9000884201DA8DED158A9DED040A3D48B8EEA5
:103AA000C00AD0ED000A40F6B370414220EE200A71
:103AB000BDEEC00A8DED000A01958DED060A8DED73
:103AC000070A069A824201DD069002E08A4200DA85
:103AD0000691079A824201DD079002E08A4200DAED
:103AE000079106982C4D4FF48051002801DD0022EB
:103AF00000E001222846FDF7EBFE07984FF4006135
:103B0000002801DD002200E001222846FDF7E0FE4A
:103B100006994FF0804001F5FA718163079941637E
:103B20001298FCF7EFFCDDE9042303928DE80B000B
:103B3000DDE9062319A108A800F0BAFC08A800F0E6
:103B4000C1F99DED050AB8EEC00A84ED010A9DEDAC
:103B5000120A84ED020A9DED140AB8EEC00A84ED43
:103B6000030A9DED130A84ED040A9DED040AB8EEE4
:103B7000C00A84ED050A9DED150A84ED060A6EE57E
:103B8000680000206C000020540000200000344336
:103B90000000A04080000020000002405049442066
:103BA0003A20443A256420473A25642045413A2585
:103BB000302E32662045443A25642045533A256428
:103BC0000D0A0000F0B502681B4B1C4C9F031C4DF6
:103BD0001C4E984207D0B84205D0A04203D0A8425C
:103BE00001D0B04204D122F0700C4A6842EA0C02C3
:103BF000984210D0B8420ED0A0420CD0A8420AD0B1
:103C0000B04208D0104CA04205D0104CA04202D0C7
:103C10000F4CA04203D122F44074CA6822430260D0
:103C20008A68C2620A688262984201D109690163A6
:103C300001214161F0BD000000000140000400408E
:103C400000080040000C00400040014000440140DA
:103C50000048014010B50123046A8B409C43046274
:103C6000036A8A401343036210BD10B5846842EAB8
:103C7000032224F47F440A432243826010BD8268F9
:103C800022F070020A4342F0070181607047000091
:103C900030B5026A22F001020262026A4368846956
:103CA00024F073050C682C4322F002058A682A432D
:103CB0000A4DA8420BD122F00805CA6823F44073CC
:103CC0002A434D6922F004021D438B692B43436054
:103CD000846149684163026230BD00000000014018
:103CE00030B5026A22F010020262026A43688469F7
:103CF0000D6824F4E64444EA05248D6822F020028D
:103D000042EA05120B4DA8420ED1CD6822F0800286
:103D100042EA05124D6923F4406343EA85038D6945
:103D200022F0400243EA850343608461496881636D
:103D3000026230BD0000014030B5026A22F4807298
:103D40000262036A4268C46923F4007324F07305B5
:103D50000C682C438D6843EA05230C4DA8420ED114
:103D6000CD6823F4006343EA05234D6922F44052F1
:103D700042EA05128D6923F4806342EA051242602B
:103D8000C4614968C163036230BD000000000140A6
:103D900030B5026A22F480520262046A4268C36942
:103DA0000D6823F4E64343EA05238D6824F40054A8
:103DB00044EA0534064DA84204D14D6922F48042FC
:103DC00042EA85124260C36149680164046230BD01
:103DD0000000014010B5036A046A24F00104046283
:103DE000846924F0F00444EA021423F00A020A432E
:103DF0008461026210BD000070B5046A24F0010401
:103E000004628469056A134EB0420ED0B0F1804F4F
:103E10000BD0114EB04208D0104EB04205D0104E1B
:103E2000B04202D00F4EB04203D124F00304144339
:103E300003E024F0030242F001041A0724F0F00426
:103E400044EA126225F00A0301F00A011943826173
:103E5000016270BD00000140000400400008004005
:103E6000000C00400040014010B5036A23F010032D
:103E700003628369046A23F4704343EA023224F044
:103E8000A00343EA01118261016210BD30B5046AEA
:103E900024F0100404628469056A24F4407444EA3E
:103EA000022222F470444FF6FF7202EA03322243E8
:103EB000A02425F0A00304EA0111194382610162E4
:103EC00030BD00002DE9F041224D8046204C28787D
:103ED000414604EB8010FCF7C3F9204E1E4F4146CB
:103EE000307807EB8010FCF7BBF92878401C00F015
:103EF000070028703078401C00F007003070184828
:103F000090F8390020280CD1164D287804EB801049
:103F1000FCF79FF982B2287804EB80111048FEF775
:103F20008DFE114890F8390020280ED10F4C2078D2
:103F300007EB8010FCF78DF982B2207807EB801137
:103F4000BDE8F0410848FEF779BEBDE8F081000009
:103F50000408002004000020040A002007000020BC
:103F60000407002003000020C406002006000020F3
:103F700010B5806B0021C185C184FEF785FC10BDA2
:103F800070B5846B2068406994F83910C0F3C01094
:103F90000025212904D118B1E584204600F062F8FB
:103FA0002068406994F83A10C0F38010222904D1A7
:103FB00018B1E585204600F047F8E06B40F01000AE
:103FC000E0632046FEF760FC70BD10B50146806BD3
:103FD00009680968C90513D40021C1850168CA6848
:103FE00022F48072CA6001684A6922F001024A61C3
:103FF00001684A6922F040024A61202180F83A10A3
:10400000FEF71AFE10BD10B5806BFEF716FE10BD50
:1040100010B50146806B09680968C9050CD40021F8
:10402000C18401684A6922F080024A610068C1685F
:1040300041F04001C16010BDFEF740FE10BD10B55B
:10404000806BFEF79BFE10BD0168CA6822F4907277
:10405000CA6001684A6922F001024A61202180F8A1
:104060003A1070470168CA6822F0C002CA60202175
:1040700080F83910704710B590F83A10222901D015
:10408000022010BD8168B1F5805F11D0016900295F
:1040900001681FD0496801F07F03816A4A1C82626F
:1040A0000B70C18D491E0904090CC18518D026E08A
:1040B0000269816A002A0268526805D0D2B20A8079
:1040C000816A491C8162ECE7C2F308020A80816AB6
:1040D000891CF7E74A68816A4B1C83620A70E0E733
:1040E0000168CA6822F49072CA6001684A6922F0C5
:1040F00001024A61202180F83A10FEF79DFD002060
:1041000010BD00002DE9F04104460068016921F46A
:104110004052E168114301612168C86849F20C62AC
:1041200090432369A268E5691A4363692B431A43E4
:104130000243CA602168486920F44072A0691043B4
:104140004861E1696425B1F5004F9748974A2168B5
:104150004FF032083FD0914201D081427CD1FDF72F
:1041600005FD00EBC00101EB001061688900B0FBA8
:10417000F1F6FDF7FBFC00EBC00101EB00106168FC
:104180008900B0FBF1F0B0FBF5F06FF01801484387
:1041900006EB800108EB0110B0FBF5F000F0F00633
:1041A000FDF7E4FC00EBC00101EB00106168890041
:1041B000B0FBF1F0B0FBF5F006EB0016FDF7D6FC16
:1041C00000EBC00101EB001061688900B0FBF1F762
:1041D000FDF7CCFCD2E0914201D081423DD1FDF708
:1041E000C5FC00EBC00101EB001061684900B0FBA9
:1041F000F1F0B0FBF5F00601FDF7B8FC00EBC001F3
:1042000001EB001061684900B0FBF1F7FDF7AEFC6F
:1042100000EBC00101EB001061684900B0FBF1F058
:10422000B0FBF5F06FF01801484307EB800108EB95
:10423000C100B0FBF5F000F0F80006EB4006FDF71A
:1042400095FC00EBC00101EB001061684900B0FB78
:10425000F1F7FDF78BFC3CE055E0FDF777FC00EB58
:10426000C00101EB001061684900B0FBF1F0B0FB48
:10427000F5F00601FDF76AFC00EBC00101EB001050
:1042800061684900B0FBF1F7FDF760FC00EBC0018D
:1042900001EB001061684900B0FBF1F0B0FBF5F0F4
:1042A0006FF01801484307EB800108EBC100B0FB39
:1042B000F5F000F0F80006EB4006FDF747FC00EBD8
:1042C000C00101EB001061684900B0FBF1F7FDF798
:1042D0003DFC00EBC00101EB001061684900B0FB40
:1042E000F1F0B0FBF5F06FF01801484307EB8001E7
:1042F00008EBC100B0FBF5F000F007002168304486
:104300008860BDE8F081FDF721FC00EBC00101EB06
:10431000001061688900B0FBF1F6FDF717FC00EBB7
:10432000C00101EB001061688900B0FBF1F0B0FB47
:10433000F5F06FF01801484306EB800108EB01101F
:10434000B0FBF5F000F0F006FDF700FC00EBC0015B
:1043500001EB001061688900B0FBF1F0B0FBF5F0F3
:1043600006EB0016FDF7F2FB00EBC00101EB0010BD
:1043700061688900B0FBF1F7FDF7E8FB00EBC001D5
:1043800001EB001061688900B0FBF1F0B0FBF5F0C3
:104390006FF01801484307EB800108EB0110B0FBF8
:1043A000F5F000F00F00A9E70014014000100140F3
:1043B00090F83910212901D0022070478168B1F5A9
:1043C000805F016A0BD04A1C026202680978516062
:1043D000C18C491E0904090CC1840ED017E009885C
:1043E0000268C1F30801516001690029016A02D025
:1043F000491C0162ECE7891CFBE70168CA6822F0EE
:104400008002CA600068C16841F04001C1600020BC
:104410007047000038B50F48FEF738FA0D4C206899
:104420000068C00614D50C4D2878401C00F0070029
:1044300028702046FEF7FCF908482978402200EB56
:1044400081112046FEF7ACFB2068016840680090AF
:1044500038BD0000C4060020020000202003002018
:1044600038B50F4C20680068C00614D50D4D28786B
:10447000401C00F0070028702046FEF7D9F90A48D2
:104480002978402200EB81112046FEF789FB206845
:10449000016840680090BDE838400148FEF7F6B971
:1044A000040700200100002020010020FEE700009A
:1044B0000FB4084B10B504A902AA039801F090F8B4
:1044C000044602A9002001F022FC204610BC5DF841
:1044D00014FB00000F5D000803B401984100009830
:1044E00050EAC12018BF04204A0D18BF40F0010057
:1044F00040F2FF72B2EB515F08BF40F002000128AA
:1045000008BF052002B0704770B59B482DED020B27
:104510002DED068B079D25F00044A04218DC97483E
:10452000844202DC0AD1069840B19DED060BBDEC39
:10453000068B02B0BDE8704000F046BF002DCCBF36
:104540009FED8F0B9FED900BBDEC068B02B070BD05
:104550008F48A04215DD8F48A042D8BF4FF0FF34EE
:1045600058DD9DED060B51EC100BFFF7B5FF04284D
:1045700008BF00F04DFF9DED060BBDEC068B02B0B1
:1045800070BD9DED060B51EC100B01F0CDFBCDE99C
:10459000060181489FED828BA0423CDD8248A0420B
:1045A0001FDD00249FED82AB9DED060B53EC1A2B13
:1045B00051EC100BFBF75DFE9DED060B41EC190B6A
:1045C00053EC1A2B51EC100BFBF7FAFE53EC182BA3
:1045D000FBF7F0FE53EC192BFCF7B7F8CDE9060119
:1045E00049E09DED060B012453EC182B51EC100B08
:1045F000FBF73FFE9DED060B41EC190B53EC182B1E
:1046000051EC100BFBF7D6FE53EC192BFCF79DF881
:10461000CDE906012FE06848A0421FDD02249FED8E
:10462000689B9DED060B53EC192B51EC100BFBF71F
:10463000C7FE53EC182BFBF71CFE9DED060B41EC5F
:10464000180B53EC192B51EC100BFBF7B3FE53EC8A
:10465000182BFCF77AF8CDE906010CE09DED060B6E
:10466000032453EC102B9FED580B51EC100BFCF76F
:104670006CF8CDE906019DED060B53EC102B51ECC7
:10468000100BFBF79DFE41EC180B53EC182BFBF7BE
:1046900097FE41EC190B4E480621B0EE490AF0EEA8
:1046A000690A784400F07CFD53EC182B51EC100B98
:1046B000FBF786FE41EC180B4648B0EE490AF0EED7
:1046C000690A0521784400F06BFD53EC192B51EC7D
:1046D000100BFBF775FE41EC100B51EC180B53EC73
:1046E000102B002C0EDAFBF7C4FD9DED061B53ECDE
:1046F000112BFBF765FE9DED061B53EC112BFBF711
:104700005CFE35E0FBF7B5FD9DED061B53EC112B70
:10471000FBF756FE41EC100B2F48784400EBC40029
:1047200090ED001B51EC100B53EC112BFBF742FEEC
:104730009DED061B53EC112BFBF73CFE41EC100BDF
:104740002648784400EBC40090ED001B51EC100BA0
:1047500053EC112BFBF731FE41EC100B002DA2BFE7
:10476000BDEC068B02B070BD51EC100B81F0004126
:1047700041EC100B01E70000000010440000F07F46
:10478000182D4454FB21F93F182D4454FB21F9BF47
:104790000000DC3F0000203E0000F33F000000006E
:1047A000000000000000F03F0000E63F00000000B5
:1047B00000000000000000400080034000000000F6
:1047C000000000000000F83F000000000000F0BF03
:1047D0009A19000050190000DA1800009218000021
:1047E00070B56B4E2DED040B2DED028B82B0DDF814
:1047F0001CC0DDE905235C422CF000411C4341EA6A
:10480000D474049D22F00040B44205D86C422C437D
:1048100040EAD474B4420BD99DED061B9DED040B08
:1048200002B0BDEC028B04B0BDE8704000F0D6BD14
:10483000ACF14054A4F17F641C430BD0022404EA81
:10484000AC7444EAD27405439FED538B9FED542B17
:1048500007D015E09DED040B51EC100B01F05CFA54
:1048600042E0002C11BF012C9DED040B02B0BDEC09
:10487000028B04BF04B070BD022C38D0032C3BD097
:104880000B439FED491B9FED4A0B0AD0B14218D153
:10489000B04209D121F0804120F08040079105907D
:1048A0000FE0002A15DA10E0434B7B44002C08BFD0
:1048B00093ED000B0DD0012C10D0022C17D0032C3F
:1048C0001AD0B0421DD1002A03DAB0EE410AF0EE50
:1048D000610A02B0BDEC028B04B070BD93ED000B19
:1048E00051EC100B81F0004141EC100BF1E7B0EE00
:1048F000480AF0EE680AECE7B0EE420AF0EE620A0F
:10490000E7E7401A00153C28C8BF8DED000B19DC05
:10491000BCF1000FBEBF10F13C0F9FED290B8DEDD8
:10492000000B0FDB9DED060B53EC102B9DED040BE4
:1049300051EC100BFBF709FF01F0F6F901F0ECF96F
:10494000CDE90001002C08BF9DED000BC1D0012C6A
:1049500010D0022C9FED1C0B53EC102B9DED000B87
:1049600051EC100B0DD0FBF725FD53EC182BFBF78A
:1049700021FDB9E7019880F0004001909DED000B0A
:10498000A7E7FBF717FD53EC182BFBF716FDABE77A
:104990000000F07F00000000182D4454FB21094066
:1049A000182D4454FB2109C0182D4454FB21F9BF94
:1049B000182D4454FB21F93FF217000000000000BD
:1049C0000000000000000000075C143326A6A13C94
:1049D00010B52F499FED2C1B2DED020B84B00598CF
:1049E00020F000408842D8BF9DED040B2DDD294901
:1049F000884209D1049840B94FF0010000F028FD29
:104A000000F0F6FC06B010BD05DB9DED040B00F0D8
:104A1000DBFC06B010BD68469DED040B00F0ECF821
:104A200010F0030004BF9DED021B9DED000B0CD0A8
:104A300001280ED09DED021B9DED000B022817D022
:104A4000012000F029FC06B010BD00F0F1FA06B01C
:104A500010BD9DED021B9DED000B012000F01CFC24
:104A600051EC100B81F0004106B041EC100B10BD71
:104A700000F0DEFA51EC100B81F0004106B041EC81
:104A8000100B10BD0000000000000000000000003E
:104A9000FB21E93F0000F07F2DED020B019820F093
:104AA000004001909DED000B02B070470000000037
:104AB00010B52F499FED2C1B2DED020B84B00598EE
:104AC00020F000408842DCBF00209DED040B32DD69
:104AD0002849884209D1049840B94FF0010000F0FC
:104AE000B7FC00F085FC06B010BD05DB9DED040BA6
:104AF00000F06AFC06B010BD68469DED040B00F0A6
:104B00007BF810F0030011D0012818D09DED021B96
:104B10009DED000B02281AD000F08AFA51EC100B20
:104B200081F0004106B041EC100B10BD9DED021B61
:104B30009DED000B012000F0AFFB06B010BD9DED18
:104B4000021B9DED000B00F073FA06B010BD0120B2
:104B500000F0A2FB51EC100B81F0004106B041ECDB
:104B6000100B10BD0000000000000000000000005D
:104B7000FB21E93F0000F07F00B52DED048BB0EE86
:104B8000409AF0EE609A83B051EC190BFBF74CFEA3
:104B900041EC180B18EE100A18EE901A8DED008BF0
:104BA000002818BF0120084320F00040C0F17F60BA
:104BB00000F1E040C00F14D019EE101A19EE900A5F
:104BC0008DED009B002918BF0121084320F0004013
:104BD000C0F17F6000F1E040C00F04BF012000F091
:104BE00037FCB0EE480A03B0F0EE680ABDEC048B67
:104BF00000BD0000000000002DE9F14F04462DED3E
:104C0000020B2DED088B8AB09FEDE70B80ED020BB8
:104C1000139EE74826F0004585420ADC9DED120B05
:104C2000002084ED000B0AB0BDEC088B03B0BDE89A
:104C3000F08FE0489FEDE0AB9FEDE1BBA84247DD80
:104C4000E14F9FEDE39B9FEDE48B9DED120B53EC49
:104C50001A2B51EC100B002E1CDDFBF7ABFB41ECCB
:104C6000100BBD4208D053EC1B2B51EC100BFBF783
:104C7000A1FBC4E900010BE053EC192B51EC100B24
:104C8000FBF798FB53EC182BFBF794FBC4E90001EE
:104C90000120C8E7FBF7EDFA41EC100BBD4208D04C
:104CA00053EC1B2B51EC100BFBF7E3FAC4E90001AA
:104CB0000BE053EC192B51EC100BFBF7DAFA53EC29
:104CC000182BFBF7D6FAC4E900014FF0FF30AAE732
:104CD000C348A84279DB9DED120B51EC100B01F09B
:104CE00023F841EC180B9FEDC00B53EC102BFBF796
:104CF00067FB9FEDBF1B53EC112BFBF7BAFAFBF7D9
:104D0000E2FB0746FBF7CEFB41EC190B53EC1A2BE9
:104D1000FBF756FB53EC182BFBF74FFB41EC180B42
:104D200053EC1B2B51EC190BFBF74AFBDFF8C8A225
:104D300041EC100B4FEA15580125FA4453EC102BA7
:104D400051EC180BFBF736FB032DC4E900013DD0F5
:104D5000C1F30A5005EB4511A8EB0000113981425F
:104D600034DA0AEB051BB0EE48AA9BED000BF0EE1F
:104D700068AA53EC102B51EC190BFBF721FB41EC0B
:104D80001B0B51EC1A0B53EC1B2BFBF713FB41ECE9
:104D9000180B51EC1A0B53EC182BFBF70BFB53ECD5
:104DA0001B2BFBF707FB9BED020B41EC1A0B53ECA3
:104DB000102B51EC190BFBF703FB53EC1A2BFBF7F1
:104DC000F9FA41EC100B6D1CB8E70EE0002EA8BFFD
:104DD0003846BFF628AF94ED000B51EC100B81F074
:104DE0000041C4E9000178421DE7C6F3130040F416
:104DF000801EC6F30A50A0F2F530471100F01F05DF
:104E0000C5F12000DDF848B008900020069007901A
:104E10000520EC467949002D07EB0002794408BFD4
:104E200051F8221009D051F8223001EB8201AB4039
:104E30004A68089922FA01F11943A1FB0E26A1FB49
:104E40000B131A449A4234BF0123002303EB0608D4
:104E50000CEB8003D3E901A60E448E4234BF01213E
:104E6000002192448A4411B1924502D903E092454F
:104E700001D2012100E00021C3E901A641444CF820
:104E80002010011EA0F10100C4DC029800F10050C6
:104E9000850F0298DDE903678000DDF81480FBF7D9
:104EA00001FB41EC1A0B3046FBF752FD9FED541B02
:104EB00053EC112BFBF784FA41EC1B0B3846FBF744
:104EC00047FD9FED511B53EC112BFBF779FA41EC99
:104ED000180B4046FBF73CFD9FED4D1B53EC112B8F
:104EE000FBF76EFA41EC190B51EC180B53EC192B34
:104EF000FBF7BFF953EC1B2BFBF7BBF953EC1A2B59
:104F0000FBF7B7F9CDE90801002008909DED080BEB
:104F100053EC1A2B51EC100BFBF74CFA53EC1B2BF8
:104F2000FBF748FA53EC182BFBF744FA53EC192B18
:104F3000FBF743FA9FED381B53EC112BFBF740FABC
:104F40009FED370B41EC180B53EC102B9DED080B2C
:104F500051EC100BFBF734FA53EC182BFBF789F9E3
:104F60009FED310B41EC180B53EC102B9DED080B12
:104F700051EC100BFBF724FA53EC182BFBF779F9E3
:104F800041EC100B139810F0004F06D06D4251EC1D
:104F9000100B81F0004141EC100B284684ED000B12
:104FA00041E60000000000000000000000000000DA
:104FB000FB21E93F7CD9024000004054FB21F93F2E
:104FC0003163621A61B4D03DFB21F93F000000005B
:104FD0000000601A61B4D03D7370032E8A19A33BA0
:104FE000FB2139410000000083C8C96D305FE43FF8
:104FF000000000000000E03F6A130000B81200004B
:10500000000000000000103E000000000000103C06
:10501000000000000000103A182D4454FB21F93D17
:105020003326A611460B113C00000054FB21F93D2C
:1050300010B52DED040B2DED088B82B0B0EE419A2A
:10504000F0EE619A0B9820F000449FED4BABB4F169
:10505000795F11DA9DED0A0B51EC100BFBF733FA77
:10506000002801BFB0EE4A0AF0EE6A0A02B0BDECB9
:10507000088B04BF04B010BD9DED0A0B53EC102B40
:1050800051EC100BFBF79CF941EC180B3C48062146
:10509000B0EE480AF0EE680A784400F081F853EC6C
:1050A000182B51EC100BFBF78BF99DED0A0B41EC23
:1050B0001B0B53EC192B51EC100BFBF781F941EC56
:1050C000190B53EC1B2B51EC180BFBF779F953EC34
:1050D000192BFBF76FF99FED2C0B41EC190B53ECDF
:1050E000102B51EC180BFBF76BF941EC100B284817
:1050F000844210DA53EC192B51EC100BFBF75AF9E0
:1051000053EC1A2BFBF759F941EC100B02B0BDEC34
:10511000088B04B010BD1F48A042BCBF9FED1E1BF2
:105120008DED001B06DBA4F500100190002000901F
:105130009DED001B51EC100B53EC112BFBF73AF9D2
:105140009DED000B41EC180B53EC102B51EC1A0B9E
:10515000FBF730F941EC1A0B53EC192B51EC180BFF
:10516000FBF728F953EC1A2BFBF727F941EC100B4E
:10517000CCE7000000000000000000000000F03F4D
:10518000D40F000000000000000000000000E03F1D
:105190003333D33F0000E93F000000000000D23F5E
:1051A00070B504462DED028B4D1E00EBC500B0EE30
:1051B000408AF0EE608A90ED000B35F0060017D0C3
:1051C00053EC182B51EC100BFBF7FAF841EC100BD9
:1051D0006D1E04EBC50090ED001B51EC100B53EC61
:1051E000112BFBF746F841EC100B35F00600E7D128
:1051F000022D36D0042D1CD0062D1CBFBDEC028B19
:1052000070BD53EC182B51EC100BFBF7D9F894ED53
:105210000A1B53EC112BFBF72CF853EC182BFBF764
:10522000CFF894ED081B53EC112BFBF722F841EC5F
:10523000100B53EC182B51EC100BFBF7C1F894ED4D
:10524000061B53EC112BFBF714F853EC182BFBF750
:10525000B7F894ED040B53EC102BFBF70AF841EC74
:10526000100B53EC182B51EC100BFBF7A9F894ED35
:10527000021B53EC112BFAF7FCFF53EC182BFBF736
:105280009FF894ED001B53EC112BFAF7F2FFBDECE5
:10529000028B41EC100B70BD31B504462DED040BB3
:1052A0002DED0A8BB0EE41BAF0EE61BA0B989DED90
:1052B0000A0B20F00040B0F1795F0DDA51EC100BD1
:1052C000FFF70AF9042808BF00F0A2F89DED0A0BC9
:1052D000BDEC0A8B05B030BD53EC102B51EC100B1C
:1052E000FBF76EF841EC180B9DED0A0B53EC182BF5
:1052F00051EC100BFBF764F841EC190B2C48B0EEA5
:10530000480AF0EE680A05217844FFF749FF9FED4F
:105310002ACBB0EE40AAF0EE60AA9CB353EC1C2B53
:1053200051EC190BFBF74CF841EC1C0B53EC1A2B0E
:1053300051EC190BFBF744F89FED210B41EC190BD5
:1053400053EC102B51EC1B0BFBF73AF853EC192BD9
:10535000FBF730F853EC182BFBF732F853EC1B2B10
:10536000FBF728F853EC1C2BFBF724F89DED0A1BE8
:1053700053EC112BFBF721F8BDEC0A8B05B041EC87
:10538000100B30BDFFE753EC1A2B51EC180BFBF759
:1053900017F853EC1C2BFAF76CFF53EC192BFBF7A7
:1053A0000FF89DED0A1B53EC112BFAF762FFE3E7B0
:1053B000640E000000000000495555555555C5BF05
:1053C000000000000000E03F10B553EC102B51EC42
:1053D000100BFAF74EFF41EC100B10BD10B553EC5B
:1053E000112B51EC100BFAF744FF41EC100B10BDE0
:1053F0009FED050B10B553EC102B51EC100BFBF788
:10540000A4F941EC100B10BD0000000000000000EA
:105410009FED050B10B553EC102B51EC100BFAF768
:10542000CFFF41EC100B10BD000000000000001089
:1054300002E008C8121F08C1002AFAD1704770475D
:10544000002001E001C1121F002AFBD170470000BB
:105450000149086070470000DC0000202DE9FF5F73
:1054600082B00021DDE90430020DDDF840B00343D5
:1054700018D044F61050A2F2FF324243151411988E
:1054800001281FD0A5EB0B00401C5FEA000A4FF07B
:1054900000064E4FDFF83891B046504615D5CAF198
:1054A000000413E0119801244AA3012801D16FEAF6
:1054B0000B010298119AC0E90031C0E9024206B01E
:1054C000BDE8F09FCBF10000DFE704460021404A31
:1054D000491842EB0450CDE9001012E0E00707D074
:1054E00032463B4640464946FAF76AFF80468946BF
:1054F00032463B4610461946FAF762FF06460F460B
:105500006410002CEAD1DDE90401DDE90023BAF1E1
:10551000000F06DAFAF754FF42464B46FAF750FFFF
:1055200005E0FBF712F942464B46FBF70EF904463D
:105530000E460022284BFBF7E1F903D84FF0FF306D
:10554000014607E00022254B20463146FAF791FE3E
:10555000FBF7BBF9102409E0002C0ADB0A22002328
:10556000FAF734FE039B30321A55641E50EA0102EA
:10557000F2D1641C039AC4F111031444119A012A54
:1055800003D0012208430DD10AE0084304D00020D3
:105590004FF0110B119072E7A3EB0B056D1E0DE0A0
:1055A0005B4504DD4FF0000205F1010504E003DA7C
:1055B0004FF00002A5F10105002AECD002981199E4
:1055C000C0E90231C0E9004579E70000000014405D
:1055D0000000F03F300000000000F0430000E03F1A
:1055E0002DE9FF4F95B09B468946064600250FE200
:1055F000252877D100242746F84A0121059400E0A8
:10560000044316F8013F203B01FA03F01042F7D1A2
:1056100030782A2811D06FF02F033078A0F13002B3
:10562000092A16D8059A44F0020402EB820203EB21
:1056300042021044761C0590EFE759F8042B0592BE
:10564000002A03DA504244F40054059044F0020466
:10565000761C30782E2816D116F8010F44F0040479
:105660002A280DD06FF02F023078A0F13003092BDB
:1056700009D807EB870302EB4303C718761CF3E74F
:1056800059F8047B761C30786C280FD006DC4C2847
:1056900017D068280DD06A2814D104E0742810D0DF
:1056A0007A280FD10DE044F400140AE044F4801489
:1056B00001E044F440147278824202D104F580146F
:1056C000761C761C307866280BD013DC582877D0EF
:1056D00009DC002875D04528F6D04628F4D04728A4
:1056E0001AD19DE118E0632835D0642879D0652867
:1056F00012D195E1702873D008DC6728F1D06928B1
:105700006FD06E280DD06F2806D1B5E073282CD04D
:10571000752875D0782874D05A46179990476D1C13
:1057200075E1C4F30250022809D003280DD0D9F83E
:10573000001004280DD00D6009F1040967E1D9F8C3
:105740000010EA17C1E90052F6E7D9F800100D8001
:10575000F2E70D70F0E719F8041B8DF80010002037
:105760008DF80100EA46012003E059F804AB4FF040
:10577000FF3061074FF0000102D40DE008F1010194
:105780008846B9420FDA8045F8DB1AF8081000297C
:10579000F4D108E008F1010188468142FADB1AF8E9
:1057A00008100029F6D105985B46A0EB08072146B2
:1057B0003846179A00F094FA284400EB080507E0F1
:1057C0004DE029E10DE01AF8010B5A461799904770
:1057D000B8F10108F7D25B4621463846179A13E123
:1057E00042E00A220092C4F302524FF0000A022A59
:1057F00008D059F804CB032A4FEAEC710AD00DE027
:1058000029E02AE009F1070121F00702F2E802C1CC
:10581000914609E00FFA8CFC4FEAEC71042A03D19F
:105820004FFA8CFC4FEAEC71002907DA0A46002196
:10583000DCF1000C61EB02012D2202E0220504D50F
:105840002B228DF80420012203E0E20701D0202260
:10585000F7E7904659E00A2102E010220DE01021FE
:105860004FF0000A00910BE010224FF0000A44F0C4
:1058700004040827009203E008224FF0000A009277
:10588000C4F30252022A05D059F804CB0021032A9E
:1058900008D009E009F1070121F00702F2E802C18E
:1058A000914605E01FFA8CFC042A01D10CF0FF0C94
:1058B0004FF00008220728D5702806D0009B83F0FF
:1058C000100353EA0A0305D00EE040228DF80420AD
:1058D000012208E05CEA010206D030228DF80420A3
:1058E0008DF8050002229046009B83F0080353EADE
:1058F0000A030AD15CEA010201D1620705D5302210
:105900008DF804204FF001087F1E582804D034A0E1
:1059100003900EA802900DE036A0F9E753466046CA
:10592000009AFAF753FC84460398825C0298401E62
:10593000029002705CEA0100F0D1029806A9081AF0
:1059400000F1200A600702D524F4803400E001272A
:10595000574502DDA7EB0A0000E0002000EB0A013A
:10596000009005984144401A0590E00306D45B4638
:105970002146179A059800F0B3F90544002706E080
:1059800001A85A46C05D179990476D1C7F1C47457A
:10599000F6DBE0030CD55B462146179A059800F02C
:1059A0009FF9054404E030205A46179990476D1C32
:1059B0000099481E00900029F5DC08E00298029941
:1059C0005A460078491C0291179990476D1CBAF10C
:1059D0000001AAF1010AF1DC65E1000009280100DB
:1059E0003031323334353637383961626364656655
:1059F0000000000030313233343536373839414217
:105A0000434445460000000000F058F90544761C68
:105A1000307800287FF4ECAD19B02846BDE8F08F4F
:105A2000620700D4062709F1070222F0070CFCE800
:105A30000223E14603F000485FEA080C02D00FF2AF
:105A4000702C0DE05FEA045C02D50FF2682C07E0D1
:105A50005FEAC47C02D00FF2602C01E0AFF2700C60
:105A60004FF0FF3823F00043CDF850C065280CD02C
:105A700006DC452809D046281DD047283DD13DE009
:105A8000662818D067287ED138E00021112F01DB6D
:105A9000112000E0781CCDE9000106A90EA8FFF74F
:105AA000DDFCDDE90F010E9A03910021009207F160
:105AB000010A04914DE04FF000400097CDE901103C
:105AC00006A90EA8FFF7CAFCDDE90F0203920E9BA0
:105AD00011990022DDF80CA00093049211B9791CF1
