:020000040800F2
:1000000058090020A9010008B31E00086B1B000856
:10001000B11E0008C5020008A1270008000000006A
:10002000000000000000000000000000D71E0008D3
:100030009103000800000000D51E0008D91E00082A
:10004000C3010008C3010008C3010008C301000880
:10005000C3010008C3010008C3010008C301000870
:10006000C3010008C3010008C3010008C301000860
:10007000C3010008C3010008C3010008C301000850
:10008000C9020008D5020008C301000800000000F2
:10009000000000000000000000000000C301000894
:1000A000C3010008B91F0008C3010008C30100080C
:1000B000C3010008C3010008C3010008C301000810
:1000C000C3010008C3010008C3010008C301000800
:1000D000C3010008C30100088127000800000000D8
:1000E000C3010008C3010008C301000800000000AC
:1000F000000000000000000000000000C301000834
:1001000000000000C3010008C3010008C30100088B
:1001100000000000000000000000000000000000DF
:10012000C3010008C3010008C3010008C30100089F
:10013000C3010008000000000000000000000000F3
:10014000000000000000000000000000C3010008E3
:10015000E1020008C3010008C3010008C301000850
:10016000C3010008C30100080000000000000000F7
:10017000000000000000000000000000000000007F
:1001800000000000C30100080000000000000000A3
:10019000C3010008DFF80CD000F082F800480047E7
:1001A000C127000858090020064880470648004734
:1001B000FEE7FEE7FEE7FEE7FEE7FEE7FEE7FEE717
:1001C000FEE7FEE7651F0008950100082DE9F05FD6
:1001D0000546002092469B468846064681464024B6
:1001E0001BE0284641464746224600F048F8534661
:1001F0005A46C01A914110D311461846224600F0C3
:100200002FF82D1A67EB01084F46224601200021E6
:1002100000F026F817EB00094E41201EA4F101045E
:10022000DFDC484631462A464346BDE8F09FD2B25D
:1002300001E000F8012B491EFBD270470022F6E7CF
:1002400010B513460A4604461946FFF7F0FF20464C
:1002500010BD421C10F8011B0029FBD1801A704709
:10026000202A04DB203A00FA02F100207047914076
:10027000C2F1200320FA03F3194390407047202A6B
:1002800004DB203A21FA02F00021704721FA02F340
:10029000D040C2F120029140084319467047000047
:1002A000064C074D06E0E06840F0010394E80700C3
:1002B00098471034AC42F6D3FFF770FF08290008C6
:1002C00028290008FEE70000014800F075B800008A
:1002D00098020020014800F06FB8000038020020AA
:1002E000014800F069B80000F804002001681823F4
:1002F000CAB2103AB2FBF3F2054B6FF30901032ABD
:100300009B5CC36500D9091D8165084670470000E4
:10031000E828000810B5014600208B698A6A4FF072
:10032000C07453B1B3F5005F15D072B1012A0CD07F
:10033000022A0AD0032A09D104E01AB1012A06D000
:10034000022A03D1C96AC90100D5012010BDC96ABA
:10035000A142FAD010BD002AF7D0012AF2D0022A19
:10036000F3D0032AF3D010BD30B50468256825F416
:1003700080252560046863608368402B036803D090
:1003800099600068C26030BD9A600068C16030BD8D
:100390007047704790F83510022903D080214165DD
:1003A00001207047052180F835100068016821F0B0
:1003B00001010160002070472DE9F84304464FF029
:1003C0000009CDF8009063484FF41651A56D006800
:1003D000B0FBF1F72E6894F85C10082000FA01F1E8
:1003E00031420FD021680A6852070BD50A6822F003
:1003F00004020A6094F85C108840A860606D40F0C8
:100400000100606594F85C104FF0010808FA01F0F3
:10041000304208D021684969090604D5A860606D9A
:1004200040F00200606594F85C100420884030427F
:1004300008D021680968890704D5A860606D40F07C
:100440000400606594F85C1010208840304218D099
:1004500021680968090714D5A86020680168490364
:1004600004D50068000308D5A16C07E00168C90540
:1004700003D4016821F008010160216C09B1204614
:10048000884794F85C1020208840304231D02168A1
:100490000968C9062DD5A86094F83500052820689C
:1004A000016806D0490347D5006800031DD4616C7C
:1004B0001CE021F0160101602068416921F08001F3
:1004C0004161206C08B9A06C20B12068016821F05E
:1004D0000801016094F85C103F208840A86084F80F
:1004E000349084F83580216D1FE0E16B09B120461E
:1004F0008847606D00282BD0606DC00714D00520A0
:1005000084F835002068016821F00101016000983D
:10051000401C0090B84203D820680068C007F6D19C
:1005200084F8349084F83580E16C002910D001B053
:100530002046BDE8F04308470168C905D5D40168E5
:1005400021F01001016084F8349084F83580CCE704
:10055000BDE8F883100000202DE9F041044600F0CA
:100560006BF906465CB1002584F83450022084F80B
:1005700035002068016821F0010101600DE00120D3
:10058000BDE8F08100F058F9801B052805D920202E
:100590006065032084F83500F2E720680068C00732
:1005A000F0D12268116820480140D4E901031843C2
:1005B000D4E903363343184363691843A3691843E6
:1005C000E3691843236A18430843616A042903D185
:1005D000D4E90B1319430843106020684069666A28
:1005E00020F0070130460E43012704280CD1A06AF1
:1005F0000643E06A40B12046FFF78CFE20B1402060
:10060000606584F83570BAE7206846612046FFF7D8
:100610006DFE94F85C203F2191408160656584F80F
:1006200035700020ACE700003F8010F02DE9F0416C
:100630000446866D90F83400002501280DD0012075
:1006400084F8340094F835700020012F07D084F826
:10065000340002252846BDE8F0810220FBE702278E
:1006600084F8357060652046FFF77EFE94F85C10D4
:100670003F208840B0602068016841F016010160A9
:100680002068416941F080014161206C20B12068FF
:10069000016841F0080101602068016841F0010132
:1006A0000160D7E72DE9F84FDFF860B100224FF085
:1006B00001084FF0030A4FF00F090BF1040E00BFC1
:1006C0000B6808FA02F42340A3426ED14D68022D54
:1006D00001D0122D0ED1D50800EB850CDCF820508E
:1006E0005607F70E09FA07F6B5430E69BE402E43CA
:1006F000CCF82060066855000F790AFA05FC07F06F
:10070000030726EA0C06AF40374307604E68012E08
:1007100005D0022E03D0112E01D0122E0ED18668E4
:10072000CF6826EA0C06AF40374387604668A64389
:100730000C79C4F30014944034434460C6688C6858
:1007400026EA0C06AC403443C4604C68E40056D53D
:100750002F4C256845F480452560246822F0030568
:1007600004F4804400942B4C2E19D6F808489507C1
:100770002F0F09FA07F5AC43274DA84201D10025F8
:1007800015E0264DA84201D1012510E0244DA842D4
:1007900001D102250BE0234DA84201D1032506E03B
:1007A000214DA84202D1042501E028E00725BD40E3
:1007B0002543C6F80858DBF800405D464E689C4368
:1007C000F60300D51C432C60DEF8004075464E68E9
:1007D0009C43B60300D51C432C600C4D08352C6897
:1007E0004E689C43F60200D51C432C60074D0C3527
:1007F0002C684E689C43B60200D51C432C60521CEA
:10080000102AFFF45DAFBDE8F88F0000003C014006
:100810004438024000300140000002400004024021
:1008200000080240000C0240001002400AB1816141
:1008300070470904FBE7000001488068704700002A
:1008400004000020024881680278114481607047EA
:10085000040000200B4810B5016841F400710160EC
:10086000016841F480610160016841F480710160B8
:10087000032000F06FF8002000F006F800F024F8E4
:10088000002010BD003C024070B50D4D04464FF4F1
:100890007A712878B1FBF0F00A490968B1FBF0F0F1
:1008A00000F0E0FA48B9102C07D200222146501E71
:1008B00000F030F800206C6070BD012070BD0000B9
:1008C00004000020100000200B4882B0016841F4B1
:1008D00080410160006800F4804000900648001FDD
:1008E000016841F080510160006800F08050009084
:1008F000072002B000F02EB84438024000F01F027A
:10090000012191404009800000F1E020C0F8001171
:1009100070470000F0B40E4B1B680C46C3F3022373
:10092000C3F10705042D00D90425191D072901D29B
:10093000002300E0DB1E012606FA05F1491E2140D6
:1009400099409E40761E16403143F0BC01F0B2BA89
:100950000CED00E0064900F0070208684FF6FF03BF
:10096000184040EA0220034A104308607047000024
:100970000CED00E00000FA052DE9F0470E460500F9
:1009800065D0DFF81481D8F80000F7B200F00F004E
:10099000B04207D288F80070D8F8000000F00F00CD
:1009A000B04254D128683D4C810712D5400703D589
:1009B000206840F4E05020602878000703D52068C4
:1009C00040F4604020602068A96820F0F0000843EF
:1009D00020602878C0072DD0304968680839012880
:1009E00012D0022813D0032811D0096889070029E2
:1009F0002DDA216821F0030101432160FFF71CFF7C
:100A0000814641F2883A0EE009688903EFE70968F8
:100A10008901ECE7FFF710FFA0EB0901514502D96E
:100A20000320BDE8F0872068696800F00C00B0EB97
:100A3000810FEFD1D8F80010404601F00F01B1420C
:100A400007D90770006800F00F00B04201D0012004
:100A5000E7E72878400705D52068E96820F4E050EA
:100A6000084320602878000706D52068296920F40B
:100A7000604040EAC100206000F036F82168084A72
:100A8000C1F30311515CC840064908600020FFF71C
:100A9000FBFE0020C5E70000003C02400838024091
:100AA000F028000810000020044805490068096883
:100AB000044AC1F38221515CC840704710000020F5
:100AC0000838024000290008044805490068096800
:100AD000044AC1F34231515CC84070471000002005
:100AE0000838024000290008154810B5006810F0C9
:100AF0000C02144813D04110042A0FD0082A0ED13A
:100B00000F4C241F2268236802F03F025B0207D5C6
:100B10002068C0F38810A0FB010106E0084610BD64
:100B20002168C1F38811A1FB00010023FFF74EFBF0
:100B30002168C1F30141491C4900B0FBF1F010BD2F
:100B4000083802400024F4002DE9F84F050076D063
:100B50002878DFF8F8B2BE4CC00749D0DBF80010A7
:100B60005846C1F38101012908D00068C0F3810013
:100B700002280AD1201D0068400206D520688003A3
:100B800036D568680028E2D032E06868B0F5803F6A
:100B900010D0B0F5A02F206810D020F48030206055
:100BA000206820F4802020606868A0B1FFF744FE30
:100BB00006460CE0206840F48030F4E740F48020E2
:100BC0002060F7E7FFF738FE801B642873D82068A1
:100BD0008003F7D50CE0FFF72FFE064605E000BFC7
:100BE000FFF72AFE801B6428F0D820688003F7D422
:100BF0002878DFF8608280074FF000093ED5DBF8E7
:100C00000010584611F00C0F09D00068C0F38100A5
:100C100002280BD18D48001F0068400206D42068CE
:100C2000800715D5E868012809D111E0E868B8B156
:100C30000120C8F80000FFF7FFFD064605E002E1CD
:100C4000FFF7FAFD801B0228C0D820688007F7D57F
:100C50002068296920F0F80040EAC10020600DE01A
:100C6000C8F80090FFF7E8FD064604E0FFF7E4FD52
:100C7000801B02281FD820688007F7D42878000737
:100C800022D5724E744869696C3671B101210160D8
:100C9000FFF7D2FD074604E0FFF7CEFDC01B022898
:100CA00009D830688007F7D50EE0C0F80090FFF74C
:100CB000C3FD074605E083E0FFF7BEFDC01B022829
:100CC0007ED830688007F7D42878400768D5DFF8E9
:100CD0007CA100270AF1380ADAF80000C0000BD422
:100CE000DAF8001041F08051CAF80010DAF800007C
:100CF000012700F080500090584E3068C00510D495
:100D0000306840F480703060FFF796FD009005E099
:100D1000FFF792FD0099401A022851D83068C005AB
:100D2000F6D54A4EA868683601280FD005283068E5
:100D300010D020F001003060306820F004003060F6
:100D4000A868B8B1FFF778FD00900FE0306840F078
:100D50000100F4E740F004003060F7E7FFF76CFDB6
:100D60000099411A41F28830814264D83068800786
:100D7000F4D50EE0FFF760FD009007E0FFF75CFDA3
:100D80000099411A41F28830814254D83068800776
:100D9000F4D42FB1DAF8001021F08051CAF8001015
:100DA000A869C0B3DBF80010C1F3810102294AD061
:100DB0000228484607D0C8F86000FFF73DFD00E074
:100DC00039E005463AE04746C8F86000FFF734FDD1
:100DD000064604E0FFF730FD801B02282BD8206870
:100DE0008001F7D4D5E907010843A96A1C4A4908DC
:100DF00002EB01416A6A41EA8211084395F82C101E
:100E000040EA01611148001F016001203866FFF7C8
:100E100013FD054605E014E0FFF70EFD401B022818
:100E200009D820688001F7D50BE000BFFFF704FD6B
:100E3000401B022802D90320BDE8F88F20688001FA
:100E4000F4D40020F8E70120F6E70000083802405B
:100E50000038024000004742800E474200700040C8
:100E60000000FFFF10B5401EB0F1807F01D30120CC
:100E700010BD4FF0E02460610F21601701F01AF8F7
:100E80000020A06107202061002010BD704770473E
:100E900030B590F83820012A20D0012280F838207F
:100EA000022380F8393003685C6824F070045C60C9
:100EB00003685C680D682C435C6003689C6824F0E0
:100EC00080049C6003689C6849680C439C6080F8BF
:100ED0003920002180F83810084630BD022030BD8E
:100EE00010B5040003D094F8390010B107E00120D8
:100EF00010BD002084F83800204600F00DF80220D4
:100F000084F83900211D206801F06AF8012084F876
:100F10003900002010BD000070B586B004461421D1
:100F20006846FFF78BF93949374B22680024374868
:100F300010390225364E9A4223D1026842F002024D
:100F40000260006800F002000590086840F00100AF
:100F50000860086800F001000590086840F0020091
:100F600008600868694600F002000590C020009003
:100F7000CDE901542748CDE90345FFF793FB032052
:100F800014E0254B9A421CD1026842F00402026030
:100F9000006800F004000590086840F00200086056
:100FA000086800F0020005904FF470700090CDE9E1
:100FB000015469463046CDE90345FFF773FB06B09F
:100FC00070BD12481549001D8A4208D1016841F4DC
:100FD00080310160006800F480300590EFE710492F
:100FE0008A42ECD1016841F40031016000680022BE
:100FF00000F40030059011461920FFF78BFC1920F2
:10100000FFF77CFCDBE700000004004040380240B2
:10101000000402400000024000080040004001407F
:10102000004401400168CA6842F00102CA600068D9
:10103000016841F0010101600020704770B504466D
:1010400090F83800012817D0012584F83850022084
:1010500084F839002068826822F0770222F47F4207
:1010600082600868502837D00DDC202859D005DC74
:1010700088B3102841D151E0022070BD302853D0F0
:1010800040283AD13FE060282ED070280BD0B0F530
:10109000805F03D0B0F5005F2FD110E02068816839
:1010A00021F0070115E0CB68D1E90121206800F0AB
:1010B000EAFF2168886840F0770088601DE0CB680F
:1010C000D1E90121206800F0DEFF2068816841F449
:1010D0008041816011E01EE0CA684968206801F023
:1010E00087F85021206806E0CA684968206801F046
:1010F000C9F86021206800F0D0FF84F83950002042
:1011000084F8380070BDCA684968206801F070F83A
:1011100040212068EFE700212068ECE710212068DB
:10112000E9E720212068E6E730212068E3E72DE9A0
:10113000F0410D46040003D094F8390018B108E0DE
:101140000120BDE8F081002084F83800204600F03E
:1011500039F8022084F839002068816821F00701FD
:101160008160211D206800F03BFF22689068916932
:10117000166A2B68AF69034340F20330814341EAAA
:101180000721A868EF6908434FF6FC418843E968E6
:1011900040EA0720014328692F6A000140EA07302E
:1011A000084369686D6926F0AA0646EA05152943D1
:1011B00093602268906120680162012084F8390000
:1011C0000020BEE7F0B587B0064614216846FFF759
:1011D00035F8344F32680025334802210324334B5D
:1011E000BA4240D1304A1432176847F001071760FD
:1011F000126802F001020592026842F001020260E8
:101200000068CDE9021400F0010005902002CDE94C
:1012100000010120049069461846FFF743FA254C67
:10122000234820604FF04060C4E901054FF480601E
:10123000C4E90350400060618000C4E906052562EE
:1012400020466562FFF788F908B1FFF7A2F8F4615C
:10125000002211461920A663FFF75CFB1920FFF757
:101260004DFB07B0F0BD144EB242FAD10E4A103217
:10127000166846F008061660126802F00802059229
:10128000026842F00102026000680094CDE9011595
:1012900000F00100CDE90410039569461846FFF7F8
:1012A00001FADEE700000140303802400000024051
:1012B00088640240F8040020000C004010B5044689
:1012C000006891B1042904D00122002100F0D0FE71
:1012D000206801225FF0040100F0CAFE2068016866
:1012E00041F001010160002010BD01220021F3E75F
:1012F000704700002DE9F041044690F838000D4693
:1013000001283DD0012684F83860022084F8390095
:10131000AAB3042A46D02068082A55D0D5E9002768
:10132000E968036A23F480530362D0F81CC0036A9F
:101330002CF4407C4CEA07274FF6FF7C27F47047DB
:101340000CEA013139434FF4204723F4204307EAE4
:1013500002321A43C16102622068C16921F440610E
:10136000C1612068C169AA6841EA0221C0F81C1065
:1013700084F83960002084F83800BDE8F08101E08D
:101380000220FAE7D5E90012EB68206800F042FF7E
:101390002068816921F00C01816120688169AA6857
:1013A00011430FE0D5E90012EB68206800F07CFFE4
:1013B0002068816921F44061816120688169AA689F
:1013C00041EA02218161D3E7D5E9002C2F7B016A34
:1013D00021F480710162C169036A21F0030141EACD
:1013E0000C0121F0F00C39074FF420674CEA116131
:1013F00023F4206307EA02221A43C16102622068D3
:10140000C16921F00C01C1612068C169AA6811435A
:10141000ACE710B5040003D094F8390010B107E030
:10142000012010BD002084F83800204600F00CF8A0
:10143000022084F83900211D206800F0D1FD012030
:1014400084F83900002010BD704770B5044600686C
:1014500001694FF00005C943890715D4C168C94324
:10146000890711D4E91E0161012020762068806976
:101470008007204602D0FFF73BFF04E000F0D4F8DD
:10148000204600F067F9257620680169C9434907BD
:1014900017D4C168C943490713D46FF0040101612F
:1014A000022020762068806910F4407F204602D018
:1014B000FFF71EFF04E000F0B7F8204600F04AF9FD
:1014C000257620680169C943090716D4C168C94354
:1014D000090712D46FF0080101610420207620680A
:1014E000C0698007204602D0FFF702FF04E000F049
:1014F0009BF8204600F02EF9257620680169C94343
:10150000C90617D4C168C943C90613D46FF01001C6
:101510000161082020762068C06910F4407F2046D1
:1015200002D0FFF7E5FE04E000F07EF8204600F070
:1015300011F9257620680169C943C90708D1C16836
:10154000C943C90704D1891E0161204600F01CF976
:1015500020680169C943090609D4C168C94309065D
:1015600005D46FF0800101612046FFF78FFC2068F1
:101570000169C943490609D4C168C943490605D46C
:101580006FF040010161204600F0FFF8206801691A
:10159000C94389060BD4C168C943890607D46FF0D3
:1015A000200101612046BDE87040FFF770BC70BDAE
:1015B00070B586B0044614216846FEF73FFE2068E9
:1015C000B0F1804F28D11548016841F00101016058
:1015D000016801F001010591016841F0020101601B
:1015E0000068022400F0020005904FF40040CDE9AD
:1015F000000402AA0325012682E870006946084813
:10160000FFF750F80820CDE9000402AA694682E8F5
:1016100070000448FFF746F806B070BD303802404D
:101620000000024000040240704770B5044690F884
:1016300038000D4601280DD0012684F838600220BC
:1016400084F8390042B1042A18D0082A2AD00C2A7A
:101650004DD139E0022070BD206800F027FD2068E0
:10166000816941F0080181612068816921F00401EC
:101670008161206881692A69114311E0206800F0C6
:101680003DFD2068816941F40061816120688169C4
:1016900021F480618161206881692A6941EA02211F
:1016A000816124E0206800F055FD2068C16941F0A7
:1016B0000801C1612068C16921F00401C16120688D
:1016C000C1692A69114311E0206800F06FFD2068AC
:1016D000C16941F40061C1612068C16921F4806180
:1016E000C1612068C1692A6941EA0221C16184F8A7
:1016F0003960002084F8380070BD10B5040003D0B4
:1017000094F8390010B107E0012010BD002084F8E2
:101710003800204600F00CF8022084F83900211D22
:10172000206800F05DFC012084F83900002010BD25
:1017300008B50068B0F1804F08D10548016841F054
:1017400001010160006800F00100009008BD000088
:10175000403802407047000010B50446006801227E
:1017600000F086FC07492068884203D1416C41F4AF
:10177000004141642068016841F0010101600020DE
:1017800010BD000000000140704770477047000026
:1017900070B5026804461068D168536910F00F0FE5
:1017A00050D003F0010501F4907635435DD0C207B7
:1017B00005D0CA0503D5E26B42F00102E26342079D
:1017C00005D5DA0703D0E26B42F00202E26382073A
:1017D00005D5DA0703D0E26B42F00402E2630207A8
:1017E00005D5DA0703D0E26B42F00802E263E26B50
:1017F000002A33D0800604D5880602D5204600F0A2
:10180000F1FD20684069E16BC0F38010090700D446
:1018100028B3204600F0CFFD2068416949061AD55B
:10182000416921F040014161606BA0B11B49016534
:10183000606BFEF7AFFD002810D0606B016DBDE856
:1018400070400847830610D58B060ED52046BDE8AC
:10185000704000F0C7BD2046FFF798FF70BD2046DE
:10186000FFF794FF0020E06370BD030606D50B066A
:1018700004D52046BDE8704000F050BF4006F3D5C7
:101880004806F1D5D168204621F04001D1602021E1
:1018900084F8391000F038F970BD0000DF2200082C
:1018A00070B5040004D094F83900002510B106E0AA
:1018B000012070BD84F83850204600F023F8242021
:1018C00084F839002068C16821F40051C1602046C5
:1018D00000F0CEFD2068016921F49041016120688B
:1018E000416921F02A0141612068C16841F4005139
:1018F000C160E563202084F8390084F83A000020B4
:1019000070BD00002DE9F04186B0064614216846FE
:10191000FEF794FC2F493068884257D12E480024A6
:10192000016841F400310160006800F40030059066
:1019300029481038016841F00101016000686946DA
:1019400000F0010005900C20009002200190012081
:10195000029003200390072004902048FEF7A2FE87
:10196000204D1F484FF00067E5E8020740204FF484
:101970008068A5E811011B4845F81449AC61EC6189
:101980002C626C62FEF7E8FD08B1FEF702FD3563DC
:10199000AE631348144D18382860C5E90174C5E9D1
:1019A00003486C61AC61EC612C6228466C62FEF706
:1019B000D3FD08B1FEF7EDFC756300221146262029
:1019C000AE63FEF7A7FF2620FEF798FF06B0BDE83E
:1019D000F081000000440040403802400000024016
:1019E000A06002403802002098020020F8B50446AA
:1019F00090F83A0020283CD1C1B3BAB394F838002B
:101A0000012836D0012084F83800A162A285002583
:101A1000E563222084F83A00636B1748D863636B50
:101A200016481864636B1648D864606B13460565E6
:101A30000846666B216802463046091DFEF7F6FD32
:101A4000206801684168009184F83850C16841F409
:101A50008071C1602068416941F0010141612068E5
:101A6000416941F0400141610020F8BDFFE70120DC
:101A7000FBE70220F9E7000039230008752300087E
:101A8000EF2200087047704770B5044690F839009F
:101A9000202830D169B362B394F8380001282AD0E5
:101AA000012084F838002162A284E2840025E563E5
:101AB000212084F83900236B1048D863236B104829
:101AC0001864236B0F48D864206B1346056526689D
:101AD000206B321DFEF7AAFD21686FF04000086000
:101AE00084F838502068416941F08001416100204C
:101AF00070BD012070BD022070BD00007F23000872
:101B0000AD230008EF22000870B500681149884233
:101B10001FD1114C11492078401C00F007002070A3
:101B20000978884215D00E4991F83910202910D132
:101B30000C4D05EB8010FEF78CFB82B2207805EB94
:101B400080110748FFF7A0FF2078002105EB8010E7
:101B5000017070BD00440040000000200100002022
:101B6000F8010020F80200207047FEE7154808B58C
:101B7000016841F400110160016801F40011009155
:101B8000016841F4800101600068002200F48000D7
:101B9000009011461020FEF7BDFE1020FEF7AEFEAD
:101BA000002211461120FEF7B5FE1120FEF7A6FE19
:101BB000002211464420FEF7ADFEBDE80840442057
:101BC000FEF79CBE3038024070B586B014216846DE
:101BD000FEF734FB24480024016841F00401016051
:101BE000016801F004010591016841F08001016084
:101BF000016801F080010591016841F00101016077
:101C0000016801F001010591016841F002010160E4
:101C10000068164E00F00200059000224FF4C151FA
:101C20003046FEF703FE4FF4005000901048CDE917
:101C3000010469460F48FEF735FD4FF4026000903D
:101C40000125CDE90154694630460394FEF72AFD8B
:101C50002803CDE900050320CDE90240694630465E
:101C6000FEF720FD06B070BD303802400000024093
:101C7000000021100008024010B58CB024216846F5
:101C8000FEF7DCFA00241348099411490A94C0E9CC
:101C900000144FF6FF71C0E9024104614461032062
:101CA000CDE900040120CDE9020405210491CDE92C
:101CB0000540CDE9074169460648FFF738FA20207C
:101CC000CDE9090409A90348FFF7E2F80CB010BDFB
:101CD000000001405400002010B58AB00024079491
:101CE0001C2168460894FEF7A9FA13484FF080417A
:101CF000C0E9001441F26701C0E902410461FFF745
:101D0000FCFC079407A90C480894FFF7C1F8602071
:101D1000CDE9000402940022694607480494FFF7C5
:101D200084FC042269460448FFF77FFC0248FFF761
:101D30003FFC0AB010BD00009000002010B58AB032
:101D40000024204804940594069407940894099468
:101D50000094019402941A490394C0E90014846029
:101D6000C4600461FFF7BCF84FF48050049004A9EC
:101D70001448FFF763F91348FFF74BFB089408A9D1
:101D800010480994FFF784F80120CDE9004002943F
:101D9000002269460B480394FFF7ACFA0422694617
:101DA0000848FFF7A7FA082269460648FFF7A2FA93
:101DB0000C2269460348FFF79DFA0AB010BD0000E7
:101DC00000040040CC00002010B58AB00024204858
:101DD000049405940694079408940994009401943B
:101DE00002941A490394C0E900148460C460046139
:101DF000FFF776F84FF48050049004A91448FFF7D9
:101E00001DF91348FFF705FB089408A91048099429
:101E1000FFF73EF80120CDE9004002940022694618
:101E20000B480394FFF766FA042269460848FFF757
:101E300061FA082269460648FFF75CFA0C226946F7
:101E40000348FFF757FA0AB010BD00000008004031
:101E50000801002010B58CB024216846FEF7EEF989
:101E600000241248099410490A94C0E900144FF65E
:101E7000FF71C0E9024104610120CDE90004CDE910
:101E800002040494CDE90540079469460748089484
:101E9000FFF74DF92020CDE9090409A90348FEF711
:101EA000F7FF0CB010BD0000000C00404401002002
:101EB000FEE770470907090E002806DA00F00F0058
:101EC00000F1E02080F8141D704700F1E02080F858
:101ED0000014704770477047FEF7B4BC30B593B03C
:101EE00030216846FEF7AAF914210CA8FEF7A6F9DE
:101EF0001A480024016841F080510160006800F038
:101F0000805011901648016821F4404141F400418D
:101F100001600068022500F4404011900120039008
:101F20001020009506950490CDE907404FF4A87065
:101F3000099004200A9007200B906846FEF704FEE3
:101F40000F20CDE90C05E802CDE90E4002210CA8D6
:101F50001094FEF711FD13B030BD00004038024070
:101F6000007000401048016841F4700101600F48A2
:101F7000016841F0010101600C4A00210832116042
:101F800002680B4B1A400260031D0A4A1A6002687D
:101F900022F48022026005480C3001600249580694
:101FA000803908607047000088ED00E0003802408A
:101FB000FFFFF6FE1030002410B501221103054882
:101FC000FEF734FC0448FFF740FABDE81040034830
:101FD000FFF73BBA0000024054000020BC01002083
:101FE000F0B502681B4B1C4C9F031C4D1C4E9842C5
:101FF00007D0B84205D0A04203D0A84201D0B042D9
:1020000004D122F0700C4A6842EA0C02984210D0C7
:10201000B8420ED0A0420CD0A8420AD0B04208D09C
:10202000104CA04205D0104CA04202D00F4CA04250
:1020300003D122F44074CA68224302608A68C262F3
:102040000A688262984201D10969016301214161F4
:10205000F0BD000000000140000400400008004006
:10206000000C004000400140004401400048014095
:1020700010B50123046A8B409C430462036A8A40C2
:102080001343036210BD10B5846842EA032224F4AE
:102090007F440A432243826010BD826822F07002AE
:1020A0000A4342F0070181607047000030B5026AC0
:1020B00022F001020262026A4368846924F0730517
:1020C0000C682C4322F002058A682A430A4DA84274
:1020D0000BD122F00805CA6823F440732A434D69E6
:1020E00022F004021D438B692B43436084614968DD
:1020F0004163026230BD00000000014030B5026A59
:1021000022F010020262026A436884690D6824F4B6
:10211000E64444EA05248D6822F0200242EA0512D2
:102120000B4DA8420ED1CD6822F0800242EA051282
:102130004D6923F4406343EA85038D6922F0400230
:1021400043EA85034360846149688163026230BD6C
:102150000000014030B5026A22F480720262036A14
:102160004268C46923F4007324F073050C682C439F
:102170008D6843EA05230C4DA8420ED1CD6823F4A7
:10218000006343EA05234D6922F4405242EA0512F6
:102190008D6923F4806342EA05124260C461496894
:1021A000C163036230BD00000000014030B5026A27
:1021B00022F480520262046A4268C3690D6823F403
:1021C000E64343EA05238D6824F4005444EA0534C9
:1021D000064DA84204D14D6922F4804242EA85129C
:1021E0004260C36149680164046230BD000001407F
:1021F00010B5036A046A24F001040462846924F0BF
:10220000F00444EA021423F00A020A4384610262E1
:1022100010BD000070B5046A24F0010404628469F2
:10222000056A134EB0420ED0B0F1804F0BD0114E64
:10223000B04208D0104EB04205D0104EB04202D08D
:102240000F4EB04203D124F00304144303E024F002
:10225000030242F001041A0724F0F00444EA126277
:1022600025F00A0301F00A0119438261016270BD81
:10227000000001400004004000080040000C004045
:102280000040014010B5036A23F010030362836924
:10229000046A23F4704343EA023224F0A00343EAC1
:1022A00001118261016210BD30B5046A24F010048E
:1022B00004628469056A24F4407444EA022222F428
:1022C00070444FF6FF7202EA03322243A02425F045
:1022D000A00304EA011119438261016230BD10B507
:1022E000806B0021C185C184FFF750FA10BD70B525
:1022F000846B2068406994F83910C0F3C010002541
:10230000212904D118B1E584204600F062F8206844
:10231000406994F83A10C0F38010222904D118B112
:10232000E585204600F047F8E06B40F01000E063E0
:102330002046FFF72BFA70BD10B50146806B096887
:102340000968C90513D40021C1850168CA6822F44F
:102350008072CA6001684A6922F001024A6101681C
:102360004A6922F040024A61202180F83A10FFF7C2
:1023700089FB10BD10B5806BFFF785FB10BD10B554
:102380000146806B09680968C9050CD40021C18425
:1023900001684A6922F080024A610068C16841F020
:1023A0004001C16010BDFFF7AFFB10BD10B5806BE1
:1023B000FFF7DAFB10BD0168CA6822F49072CA60A8
:1023C00001684A6922F001024A61202180F83A102E
:1023D00070470168CA6822F0C002CA60202180F8F4
:1023E0003910704710B590F83A10222901D0022018
:1023F00010BD8168B1F5805F11D0016900290168C5
:102400001FD0496801F07F03816A4A1C82620B7009
:10241000C18D491E0904090CC18518D026E0026946
:10242000816A002A0268526805D0D2B20A80816AA5
:10243000491C8162ECE7C2F308020A80816A891CA8
:10244000F7E74A68816A4B1C83620A70E0E701681B
:10245000CA6822F49072CA6001684A6922F00102D7
:102460004A61202180F83A10FFF70CFB002010BDD4
:102470002DE9F04104460068016921F44052E16809
:10248000114301612168C86849F20C6290432369D5
:10249000A268E5691A4363692B431A430243CA6081
:1024A0002168486920F44072A06910434861E169DD
:1024B0006425B1F5004F9748974A21684FF03208DC
:1024C0003FD0914201D081427CD1FEF7FDFA00EB72
:1024D000C00101EB001061688900B0FBF1F6FEF766
:1024E000F3FA00EBC00101EB001061688900B0FB5A
:1024F000F1F0B0FBF5F06FF01801484306EB8001F6
:1025000008EB0110B0FBF5F000F0F006FEF7DCFA86
:1025100000EBC00101EB001061688900B0FBF1F035
:10252000B0FBF5F006EB0016FEF7CEFA00EBC001AB
:1025300001EB001061688900B0FBF1F7FEF7C4FA07
:10254000D2E0914201D081423DD1FEF7BDFA00EBCD
:10255000C00101EB001061684900B0FBF1F0B0FB75
:10256000F5F00601FEF7B0FA00EBC00101EB001038
:1025700061684900B0FBF1F7FEF7A6FA00EBC00175
:1025800001EB001061684900B0FBF1F0B0FBF5F021
:102590006FF01801484307EB800108EBC100B0FB66
:1025A000F5F000F0F80006EB4006FEF78DFA00EBC0
:1025B000C00101EB001061684900B0FBF1F7FEF7C4
:1025C00083FA3CE055E0FEF76FFA00EBC00101EB47
:1025D000001061684900B0FBF1F0B0FBF5F00601B6
:1025E000FEF762FA00EBC00101EB001061684900E0
:1025F000B0FBF1F7FEF758FA00EBC00101EB001059
:1026000061684900B0FBF1F0B0FBF5F06FF0180124
:10261000484307EB800108EBC100B0FBF5F000F088
:10262000F80006EB4006FEF73FFA00EBC00101EBB5
:10263000001061684900B0FBF1F7FEF735FA00EBD6
:10264000C00101EB001061684900B0FBF1F0B0FB84
:10265000F5F06FF01801484307EB800108EBC1006B
:10266000B0FBF5F000F00700216830448860BDE859
:10267000F081FEF719FA00EBC00101EB0010616870
:102680008900B0FBF1F6FEF70FFA00EBC00101EB99
:10269000001061688900B0FBF1F0B0FBF5F06FF05D
:1026A0001801484306EB800108EB0110B0FBF5F080
:1026B00000F0F006FEF7F8F900EBC00101EB0010A6
:1026C00061688900B0FBF1F0B0FBF5F006EB001695
:1026D000FEF7EAF900EBC00101EB00106168890028
:1026E000B0FBF1F7FEF7E0F900EBC00101EB0010E1
:1026F00061688900B0FBF1F0B0FBF5F06FF01801F4
:10270000484307EB800108EB0110B0FBF5F000F047
:102710000F00A9E7001401400010014090F83910A3
:10272000212901D0022070478168B1F5805F016ADC
:102730000BD04A1C0262026809785160C18C491EA4
:102740000904090CC1840ED017E009880268C1F39E
:102750000801516001690029016A02D0491C016227
:10276000ECE7891CFBE70168CA6822F08002CA60B6
:102770000068C16841F04001C1600020704700005E
:10278000064882B000680168C90602D50168406841
:102790000090024802B0FEF7FBBF0000F8010020E5
:1027A000FEE702E008C8121F08C1002AFAD17047EC
:1027B0007047002001E001C1121F002AFBD17047C1
:1027C0001FB5FEF747F8FFF789FBFFF7FDF9FFF7A5
:1027D000CDF9FFF751FAFFF7B1FA00243E48009413
:1027E000019402943B490394C0E900148460C460DE
:1027F0000461FEF775FB4FF4805669463648009633
:10280000FEF71CFCFFF7E0FAFFF724FBFFF764FA82
:10281000314D3248783528604FF46130C5E9010404
:102820000C20EC60C5E90440AC612846EC61FFF780
:1028300037F8A5F13C002A4901600121C0E90114E3
:1028400043F69821C0E90314FEF74AFB0021A5F5E1
:10285000B470FEF781FF0421A5F5B470FEF77CFF8C
:102860002868C16841F01001C16005F1A00001684D
:102870000A6842F010020A600068016821F008014D
:10288000016005F140000068016821F00801016065
:102890000A22A5F5F2712846FFF7A8F81821A5F538
:1028A000D270FEF70BFD1821A5F1B400FEF706FD6E
:1028B000A5F13C00FEF7B6FB35460A4F40F634065C
:1028C0003407002229463846FDF7B0FF6663A66349
:1028D000F7E7000000400140800100200044004074
:1028E00000440140000002400006101600061016C9
:1028F00000000000000000000102030406070809B0
:102900000000000001020304282900080000002044
:1029100014000000A22700083C2900081400002031
:1029200044090000B2270008000000000100000078
:0C29300010000000000000000024F40073
:040000050800019559
:00000001FF
